:020000040800F2
:10000000282B002061080008BD080008A74500084B
:10001000BD080008BD080008BD0800080000000079
:10002000000000000000000000000000BD08000803
:10003000BD08000800000000BD080008BD08000859
:10004000BD080008BD080008BD080008BD0800087C
:10005000BD080008BD080008BD080008BD0800086C
:10006000BD080008BD080008BD080008BD0800085C
:10007000BD080008BD080008BD080008BD0800084C
:1000800065070008BD080008BD080008BD08000895
:10009000BD080008BD080008BD080008BD0800082C
:1000A000BD080008BD080008BD080008BD0800081C
:1000B000BD080008BD080008BD080008BD0800080C
:1000C000BD080008BD080008BD080008BD080008FC
:1000D000BD080008BD080008BD080008BD080008EC
:1000E000BD080008BD080008BD080008BD080008DC
:1000F000BD080008BD080008BD080008BD080008CC
:10010000BD080008BD080008BD080008BD080008BB
:10011000BD080008BD080008BD0800080923000844
:10012000BD080008BD080008BD080008BD0800089B
:10013000BD080008BD080008BD080008BD0800088B
:10014000BD080008BD080008BD080008BD0800087B
:10015000BD080008BD080008BD080008BD0800086B
:10016000BD080008BD080008BD080008BD0800085B
:10017000BD080008BD080008BD080008BD0800084B
:10018000BD080008BD08000880B582B000AF7860E7
:10019000144B1B785A1CD1B2124A11701A467B6854
:1001A000D9B2114B99540F4B1B781A460E4B0021B4
:1001B00099540C4B1B7801330F2B05D87B680A2B05
:1001C00002D07B68002B0AD1064B00221A70064B26
:1001D00000221946042004F0DDF90346002B0837FD
:1001E000BD4680BD500400204004002080B582B090
:1001F00000AF3B46184604F02BF801210F2001F018
:1002000051FF10233B6001233B710023BB7102238C
:10021000FB7102237B713B461946474803F08AFF76
:100220004FF410733B6002233B710123BB71002329
:10023000FB7102237B713B461946404803F07AFF6D
:10024000042206213D4804F065F8042209213B48B8
:1002500004F060F801214FF4021001F041FF012089
:1002600001F066FE4FF4A4533B600023BB713B4694
:100270001946334803F05EFF10233B603B461946A6
:10028000304803F057FF062204212E4804F042F8BC
:10029000062207212A4804F03DF806220A212848B0
:1002A00004F038F806220C21254804F033F8102118
:1002B000214804F00FF8244804F064FC234B4BF66B
:1002C00080329A60214B4FF40072DA801F4B4FF45A
:1002D00000721A801D4B00229A801C4B00225A800B
:1002E0001A4B00229A811949174804F085FC1848D6
:1002F00004F0D0FD174B42F210721A60154B002229
:100300009A80144B33221A81124B4FF480625A8127
:10031000104B4FF480429A810E4B4BF6FF72DA80FD
:1003200001210B4804F0B2FE0A49094804F0ECFD33
:1003300000BF0837BD4680BD000C024000040240EB
:100340000008024000000240003C0040240600205B
:10035000005400403807002080B584B000AF7860BA
:100360000B46FB700121214804F0B0FE00BF20497C
:100370001E4804F077FF0346002BF8D0002294219A
:100380001A4804F0E3FE00BF1A49184804F03AFF87
:100390000346002BF8D00023FB6012E0FB687A686C
:1003A00013441B781946114804F00EFF00BF124990
:1003B0000E4804F027FF0346002BF8D0FB680133FA
:1003C000FB60FA78FB689A42E8DC00BF0B490748FB
:1003D00004F048FF0346002BF8D00121034804F045
:1003E00095FE00BF1037BD4680BD00BF00540040E1
:1003F00001000010820007008000070004000010C8
:1004000080B582B000AF1021534803F055FF0023A0
:100410007B6002E07B6801337B607B684F4A9342DC
:10042000F8DD02233B7001237B703B460221184616
:10043000FFF792FF00233B7099237B703B4602211C
:100440001846FFF789FF47233B7080237B703B46AC
:1004500002211846FFF780FF322000F081F80346A2
:10046000FB7032233B70FB7863F07F03DBB27B7061
:100470003B4602211846FFF76FFF322000F070F86C
:100480000346FB7032233B70FB7803F07F03DBB243
:100490007B703B4602211846FFF75EFF00233B704E
:1004A00000237B703B4602211846FFF755FF0423CB
:1004B0003B70AA237B703B4602211846FFF74CFF96
:1004C0000D233B7070237B703B4602211846FFF7DB
:1004D00043FF05233B7080237B703B460221184677
:1004E000FFF73AFF06233B7007237B703B46022150
:1004F0001846FFF731FF0A233B7000237B703B4611
:1005000002211846FFF728FF1A233B7050237B7007
:100510003B4602211846FFF71FFF1B233B70502369
:100520007B703B4602211846FFF716FF1F233B70E6
:1005300088237B703B4602211846FFF70DFF0223FC
:100540003B709E237B703B4602211846FFF704FF59
:1005500000BF0837BD4680BD000C02403F420F007F
:1005600080B584B000AF0346FB7100BF4FF400318B
:10057000354804F077FE0346002BF7D101213248BD
:1005800004F0A4FD00BF31492F4804F06BFE034680
:10059000002BF8D0002294212B4804F0D7FD00BF97
:1005A0002B49294804F02EFE0346002BF8D0FB7996
:1005B0001946254804F008FE00BF2649224804F0E9
:1005C00021FE0346002BF8D001211F4804F09EFDB8
:1005D00000BF4FF400311C4804F044FE0346002BDA
:1005E000F7D10021184804F0CFFD0121164804F08E
:1005F0006DFD00BF1549144804F034FE0346002B7E
:10060000F8D001229421104804F0A0FD00BF124947
:100610000D4804F0F7FD0346002BF8D000BF0F494A
:10062000094804F0EFFD0346002BF8D0064804F01B
:10063000DBFD0346FB730121034804F067FDFB7BF0
:1006400018461037BD4680BD005400400100001020
:100650008200070080000700020003004000030042
:1006600080B592B000AF01214FF4001001F01AFDE7
:10067000102387F84030002387F84130012387F8A2
:100680004230012387F8433007F14003184604F055
:100690001BFE00212E4804F061F92D4804F036F8C5
:1006A00000237B602B4BBB602B4BFB604FF48073B4
:1006B0007B614FF44033FB6240233B610023BB610D
:1006C0004FF48063FB614FF400633B624FF40053CF
:1006D0007B624FF48073BB6200233B6303237B6325
:1006E0000023BB630023FB633B1D1946184804F03D
:1006F000DFF8194B00221946154804F04BF9012187
:10070000134804F065F901221821114804F07CF91E
:1007100001210F4804F022F9012271210F4804F051
:1007200089FB012202210D4804F060FB00237B6459
:1007300002E07B6C01337B647B6C094A9342F8DDF9
:100740000121064804F032FB00BF4837BD4680BD9A
:10075000886002400C3C004054070020003C0040F0
:100760009F86010080B584B000AF3549354804F05C
:1007700085F90346002B24D00023FB600023BB60D7
:1007800018E0314AFB6832F8133019B22F4ABB68BF
:1007900022F81310BB6801332D49FA6831F8122092
:1007A00011B22A4A22F81310BB680233BB60FB68FF
:1007B0000133FB60BB687F2BE3DD2149214804F056
:1007C000B3F924491F4804F059F90346002B33D0EC
:1007D000214B1B680133204A13601F4B1B680A2BF7
:1007E00002DD1D4B00221A6040237B6080233B60AA
:1007F00018E0154A7B6832F8133019B2134A3B6887
:1008000022F813103B68013311497A6831F812203D
:1008100011B20E4A22F813103B6802333B607B682A
:1008200001337B603B68FF2BE3DD0A49054804F098
:100830007BF90A4B01221A7000BF1037BD4680BDFC
:100840000044002088600240380600205407002041
:10085000D804002000880020540400202206002034
:1008600080B582B000AF104B7B60104B3B6007E05F
:100870003B681A1D3A607A68111D796012681A6027
:100880003B680B4A9342F3D30A480B494FF00002EE
:100890008842B8BF40F8042BFADB00F015F800BF1F
:1008A0000837BD4680BD00BFD09A02080000002076
:1008B00040040020400400202823002080B400AF22
:1008C000FEE700BF00000000B0B590B004AF03F039
:1008D00075FE01F0ADF904F057FDFFF787FCFFF757
:1008E0008FFDFFF7BDFE03F0E9F801F071FC02F0A7
:1008F000D9FC4FF000637B62AB4B0022DA61AB4B5B
:100900000022DA610023FB6201F012FA04F014FE07
:1009100004F0D4FEA64B1B78DBB2022B40F091838F
:10092000A44B1B78DBB283F00103DBB2002B00F099
:100930008883A14B1B78DBB283F00103DBB2002B71
:1009400000F07F839D4D38469C4B1A680024144666
:100950001A79597909020A439B791B041A43002327
:1009600062F3170321461A4604F054FE2A463B461A
:100970001968116099889B7991809371904B9B893C
:100980009BB21A468E4B5B899BB2DB089BB2A3F5E8
:1009900080731344002B03DA894B4FF400625A81B1
:1009A000874B9B899BB21A46854B5B899BB2DB08C0
:1009B0009BB2A3F580731344B3F5805F03DB804BD8
:1009C0004FF400625A817D4B5B7883F00103DBB208
:1009D0001A467A4B9B781340784AD2781340002B02
:1009E0007CD0784B1B78DBB2002B34D0744B9B89C6
:1009F0009BB2184606F0C8FC61A3D3E9002306F0B9
:100A000029FD03460C461A4623464FF000004FF0DE
:100A1000804105F0B1FA5CA3D3E9002306F01AFD8A
:100A200003460C461846214602460B4606F060FB7C
:100A300003460C46184621464FF00002624B06F072
:100A400009FD03460C461846214606F0B3FF024650
:100A5000554B5A6025E05A4B9B899BB2184606F0CD
:100A600093FC4BA3D3E9002306F0F4FC03460C46A9
:100A70001846214648A3D3E9002306F039FB034674
:100A80000C46184621464FF000024F4B06F0E2FCA0
:100A900003460C461846214606F08CFF0246424BA0
:100AA0005A60474B9B899BB2184606F06DFC3CA3ED
:100AB000D3E9002306F0F8FD03460C46184621460C
:100AC0004FF00002404B06F0C5FC03460C461846AA
:100AD000214606F06FFF0246334B9A60374B9B78F6
:100AE00083F00103DBB21A46344BDB781340002B52
:100AF00000F0C180334B1B78DBB2002B66D0304B4B
:100B00009B899BB21A462E4B5B899BB2DB089BB23A
:100B1000A3F580731344184606F036FC18A3D3E9F6
:100B2000002306F097FC03460C461A4623464FF076
:100B300000004FF0804105F01FFA13A3D3E9002312
:100B400006F088FC03460C461846214602460B4632
:100B500006F0CEFA03460C46184621464FF0000236
:100B6000194B06F077FC03460C461846214606F062
:100B700021FF02460C4B5A6057E000BFAFF30080E4
:100B8000B76B3B0E4001643FD82090664C53D63F74
:100B90004578C59D1C4FC63FB56B63684C53E63F17
:100BA000000000000098794054090020E005002072
:100BB000DC1A002034060020141B00204807002007
:100BC000CC1A0020021B00200000F0407E4B9B89C5
:100BD0009BB21A467C4B5B899BB2DB089BB2A3F5A8
:100BE00080731344184606F0CFFB6DA3D3E90023AE
:100BF00006F030FC03460C46184621466AA3D3E9AA
:100C0000002306F075FA03460C46184621464FF0BD
:100C100000026E4B06F01EFC03460C4618462146A9
:100C200006F0C8FE02466A4B5A60674B9B899BB22E
:100C30001A46654B5B899BB2DB089BB2A3F58073B8
:100C40001344184606F0A0FB59A3D3E9002306F08D
:100C50002BFD03460C46184621464FF000025B4B25
:100C600006F0F8FB03460C461846214606F0A2FEA5
:100C70000246574B9A60574BDB7883F00103DBB297
:100C8000002B00F02A81504B9B899BB21A464E4B99
:100C90005B899BB2DB089BB2A3F580731A444E4B71
:100CA0001B899BB2A3F500634749C98989B201FB3F
:100CB00003F34A4981FB03011944C912DB17CB1A1C
:100CC00013443B623B6A002B07DA414B4BF29A22FA
:100CD0005A603F4B00229A60FFE03B6AB3F5805FA9
:100CE00007DB3B4B3E4A5A60394B4FF420229A6057
:100CF000F3E03C4B1B78DBB2002B75D0324B9B8969
:100D00009BB21A46304B5B899BB2DB089BB2A3F5C2
:100D100080731A44304B1B899BB2A3F500632A49A8
:100D2000C98989B201FB03F32C4981FB03011944F2
:100D3000C912DB17CB1A1344184606F025FB1EA375
:100D4000D3E9002306F086FB03460C461A462346E9
:100D50004FF000004FF0804105F00EF918A3D3E9E1
:100D6000002306F077FB03460C4618462146024650
:100D70000B4606F0BDF903460C46184621464FF0D7
:100D80000002124B06F066FB03460C46184621464D
:100D900006F010FE02460E4B5A6066E0AFF300808C
:100DA0004578C59D1C4FC63FB56B63684C53E63F05
:100DB0000000000000987940B76B3B0E4001643F93
:100DC000D82090664C53D63FCC1A00200000F0404B
:100DD00054090020480700201823002081000880C3
:100DE0008769CA02021B0020AB4B9B899BB21A4643
:100DF000A94B5B899BB2DB089BB2A3F580731A44B5
:100E0000A64B1B899BB2A3F50063A349C98989B28C
:100E100001FB03F3A24981FB03011944C912DB174B
:100E2000CB1A1344184606F0AFFA91A3D3E9002376
:100E300006F010FB03460C46184621468EA3D3E964
:100E4000002306F055F903460C46184621464FF09C
:100E50000002944B06F0FEFA03460C461846214663
:100E600006F0A8FD0246904B5A608B4B9B899BB2C3
:100E70001A46894B5B899BB2DB089BB2A3F5807352
:100E80001A44864B1B899BB2A3F500638249C9892A
:100E900089B201FB03F3824981FB03011944C912A2
:100EA000DB17CB1A1344184606F06EFA74A3D3E985
:100EB000002306F0F9FB03460C46184621464FF086
:100EC0000002784B06F0C6FA03460C461846214647
:100ED00006F070FD0246744B9A60734B9B6818468F
:100EE00006F052FA4FF000026E4B06F0DDFB0346AF
:100EF0000C46184621464FF000024FF0000306F062
:100F00001BFD0346002B02D0674B00229A60674B03
:100F10005B7983F00103DBB2002B1CD05E4BDB88D6
:100F20009BB2184606F030FA57A3D3E9002306F027
:100F3000BBFB03460C46184621464FF00002594BB6
:100F400006F088FA03460C461846214606F032FDA4
:100F50000246554B9A61554B1B7883F00103DBB277
:100F6000002B1CD04C4B9B889BB2184606F00CFA09
:100F700047A3D3E9002306F097FB03460C46184627
:100F800021464FF00002474B06F064FA03460C4638
:100F90001846214606F00EFD0246434B1A61434BAC
:100FA0001B7983F00103DBB2002B00F081803E4B04
:100FB000DB68FB61384B1B889BB25B089BB2184611
:100FC00006F0E2F94FF00002364B06F043FA034612
:100FD0000C461846214606F0EDFC0246324BDA601C
:100FE000314BDA68FB699A4208D02F4BDA692E4BF5
:100FF000D968FB69CB1A13442B4AD3612A4BDB69AE
:101000001B14002B0BDD284BDB69A3F50043264A9C
:10101000D361254B1B6803F50043234A1360224B21
:10102000DB691B14002B43DA1F4BDB6903F500431C
:101030001D4AD3611C4B1B68A3F500431A4A136079
:1010400036E01A4B01229A71184B0122DA70174BC5
:1010500001225A70154B01229A70144B01225A71C9
:10106000124B01221A70114B01221A7121E000BFAC
:101070004578C59D1C4FC63FB56B63684C53E63F32
:1010800000000000009879400000000000FEAF4022
:101090000000000000549540CC1A002018230020C6
:1010A000810008800000F04054090020480700201B
:1010B00000BFA34B1B78DBB2022B40F07383A14B24
:1010C0001B78DBB283F00103DBB2002B00F06A83F4
:1010D0009D4B1B78DBB283F00103DBB2002B00F0E9
:1010E00061839A4D3846994B1A68002414461A7940
:1010F000597909020A439B791B041A43002362F3BE
:10110000170321461A4604F085FA2A463B46196819
:10111000116099889B79918093718D4B9B899BB2CB
:101120001A468B4B5B899BB2DB089BB2A3F580739D
:101130001344002B03DA864B4FF400625A81844B30
:101140009B899BB21A46834B5B899BB2DB089BB29F
:10115000A3F580731344B3F5805F03DB7C4B4FF43E
:1011600000625A81794B5B7883F00103DBB21A4647
:10117000764B9B781340754AD2781340002B7CD075
:10118000754B1B78DBB2002B34D0714B9B899BB223
:10119000184606F0F9F860A3D3E9002306F05AF9DF
:1011A00003460C461A4623464FF000004FF080419C
:1011B00004F0E2FE5AA3D3E9002306F04BF90346FC
:1011C0000C461846214602460B4605F091FF0346A1
:1011D0000C46184621464FF00002604B06F03AF9E3
:1011E00003460C461846214606F0E4FB02465C4BDB
:1011F0005A6025E0564B9B899BB2184606F0C4F80E
:1012000049A3D3E9002306F025F903460C46184606
:10121000214647A3D3E9002305F06AFF03460C46A5
:10122000184621464FF000024C4B06F013F90346D6
:101230000C461846214606F0BDFB0246484B5A6054
:10124000434B9B899BB2184606F09EF83AA3D3E91C
:10125000002306F029FA03460C46184621464FF0B3
:1012600000023E4B06F0F6F803460C4618462146AF
:1012700006F0A0FB02463A4B9A60344B9B7883F011
:101280000103DBB21A46314BDB781340002B00F030
:10129000C080314B1B78DBB2002B65D02C4B9B8977
:1012A0009BB21A462A4B5B899BB2DB089BB2A3F523
:1012B00080731344184606F067F817A3D3E9002398
:1012C00006F0C8F803460C461A4623464FF00000C5
:1012D0004FF0804104F050FE11A3D3E9002306F043
:1012E000B9F803460C461846214602460B4605F05F
:1012F000FFFE03460C46184621464FF00002174BEE
:1013000006F0A8F803460C461846214606F052FBA4
:101310000246144B5A6056E0B76B3B0E4001643FE7
:10132000D82090664C53D63F4578C59D1C4FC63F8C
:10133000B56B63684C53E63F0000000000987940AD
:101340007409002034060020141B0020D80500205A
:10135000CC1A002018230020021B00200000F040BF
:10136000E0050020540900207D4B9B899BB21A4662
:101370007B4B5B899BB2DB089BB2A3F58073134464
:10138000184606F001F86CA3D3E9002306F062F8D2
:1013900003460C461846214669A3D3E9002305F00D
:1013A000A7FE03460C46184621464FF000026D4B3F
:1013B00006F050F803460C461846214606F0FAFAA5
:1013C0000246694B5A60664B9B899BB21A46644B36
:1013D0005B899BB2DB089BB2A3F58073134418466C
:1013E00005F0D2FF58A3D3E9002306F05DF90346C8
:1013F0000C46184621464FF000025A4B06F02AF8D8
:1014000003460C461846214606F0D4FA0246564BCF
:101410009A60564BDB7883F00103DBB2002B00F0BF
:1014200028814F4B9B899BB21A464D4B5B899BB2DF
:10143000DB089BB2A3F580731A444D4B1B899BB20A
:10144000A3F500634649C98989B201FB03F3494901
:1014500081FB03011944C912DB17CB1A1344BB618A
:10146000BB69002B07DA404B4BF29A225A603E4B85
:1014700000229A60FDE0BB69B3F5805F07DB3A4B61
:101480003D4A5A60384B4FF420229A60F1E03B4BC2
:101490001B78DBB2002B73D0314B9B899BB21A4671
:1014A0002F4B5B899BB2DB089BB2A3F580731A4478
:1014B0002F4B1B899BB2A3F500632949C98989B2C7
:1014C00001FB03F32B4981FB03011944C912DB170C
:1014D000CB1A1344184605F057FF1DA3D3E9002388
:1014E00005F0B8FF03460C461A4623464FF00000AD
:1014F0004FF0804104F040FD17A3D3E9002305F02D
:10150000A9FF03460C461846214602460B4605F045
:10151000EFFD03460C46184621464FF00002114BE2
:1015200005F098FF03460C461846214606F042FA9D
:1015300002460D4B5A6064E04578C59D1C4FC63F7E
:10154000B56B63684C53E63F00000000009879409B
:10155000B76B3B0E4001643FD82090664C53D63F9A
:10156000CC1A00200000F040E0050020D805002043
:1015700018230020810008808769CA02021B00200E
:10158000A34B9B899BB21A46A14B5B899BB2DB089C
:101590009BB2A3F580731A449E4B1B899BB2A3F5A3
:1015A00000639B49C98989B201FB03F39A4981FB16
:1015B00003011944C912DB17CB1A1344184605F06E
:1015C000E3FE89A3D3E9002305F044FF03460C465C
:1015D0001846214686A3D3E9002305F089FD03467A
:1015E0000C46184621464FF000028C4B05F032FFA6
:1015F00003460C461846214606F0DCF90246884BA5
:101600005A60834B9B899BB21A46814B5B899BB284
:10161000DB089BB2A3F580731A447E4B1B899BB2F7
:10162000A3F500637A49C98989B201FB03F37A49BA
:1016300081FB03011944C912DB17CB1A1344184666
:1016400005F0A2FE6CA3D3E9002306F02DF80346B3
:101650000C46184621464FF00002704B05F0FAFE8A
:1016600003460C461846214606F0A4F902466C4B88
:101670009A606C4B5B7983F00103DBB2002B1CD0CA
:10168000634BDB889BB2184605F07EFE5CA3D3E972
:10169000002306F009F803460C46184621464FF091
:1016A00000025E4B05F0D6FE03460C461846214666
:1016B00006F080F902465A4B9A615A4B1B7883F028
:1016C0000103DBB2002B1CD0514B9B889BB2184608
:1016D00005F05AFE4CA3D3E9002305F0E5FF0346CD
:1016E0000C46184621464FF000024C4B05F0B2FE66
:1016F00003460C461846214606F05CF90246484B64
:101700001A61484B1B7983F00103DBB2002B5FD0D9
:10171000434BDB687B613E4B1B889BB25B089BB2F3
:10172000184605F031FE4FF000023C4B05F092FEEA
:1017300003460C461846214606F03CF90246384B53
:10174000DA60394BDA687B699A4208D0344BDA693F
:10175000334BD9687B69CB1A1344314AD361304B80
:10176000DB691B14002B0BDD2D4BDB69A3F500435C
:101770002B4AD3612A4B1B6803F50043284A1360A8
:10178000274BDB691B14002B22DA254BDB6903F5A1
:101790000043234AD361224B1B68A3F50043204A30
:1017A000136015E01F4B01229A711E4B0122DA7063
:1017B0001C4B01225A701B4B01229A70194B0122BB
:1017C0005A71184B01221A70164B01221A7100E04F
:1017D00000BF164B1B78DBB2002B00F0C680002345
:1017E000BB62BBE0AFF300804578C59D1C4FC63F90
:1017F000B56B63684C53E63F0000000000987940E9
:101800000000000000FEAF400000000000549540C2
:10181000CC1A002018230020810008800000F0402E
:10182000E0050020D80500205409002022060020F1
:101830005F4B1B68002B05DA5D4B1A687B6A13440B
:101840005B4A13605B4B1B68002B05DA594B1A6827
:101850007B6A1344574A1360554B1A687B6A9A4255
:1018600005DB534B1A687B6AD31A514A1360514BFC
:101870001A687B6A9A4205DB4E4B1A687B6AD31A58
:101880004C4A1360FB6A002B03DAFA6A7B6A134442
:10189000FB62FA6A7B6A9A4203DBFA6A7B6AD31AB2
:1018A000FB62434C6D4604F110030FCB85E80F003B
:1018B00094E80F0000F008F938613E4C6D4604F1E1
:1018C00010030FCB85E80F0094E80F0000F0FCF840
:1018D000F860394B1B78DBB2002B0DD0344B9B6981
:1018E0001A46F968386900F087F903461946334A01
:1018F000BB6A22F8131004E0304ABB6A002122F8C8
:1019000013102F4B1B78DBB2002B0DD0294B9B699A
:101910001A463969F86800F06FF903461946294AF2
:10192000BB6A22F8131004E0264ABB6A002122F8A1
:1019300013101F4B1A681E4B5B6813441C4A13603C
:101940001C4B1A681B4B5B6813441A4A1360FB6AF2
:1019500003F6CC43FB62BB6A0133BB62BB6A7F2BDD
:101960007FF766AF184B00221A70184B9B899BB209
:101970001846164B5B899BB21C46144B1B889BB2C6
:101980001D46124B9B889BB21A46104B1B899BB27B
:1019900019460E4BDB889BB20293019100922B46B5
:1019A000224601460A4801F025FCFEF7ADBF00BF04
:1019B00054090020E0050020DC1A0020D804002093
:1019C0007409002038060020220600201823002079
:1019D000509A020880B489B000AFF860B96013462D
:1019E000FB80FB681B0CBB61FB689BB27B61BB6926
:1019F0005B00BA681344B3F900301B043B61BB6958
:101A00005A1CFB889A4209DABB6901335B00BA6849
:101A10001344B3F900301B04FB6103E0BB68B3F966
:101A20000030FB61FA693B69D31A1B127A69121202
:101A300002FB03F23B6913441B149BB21846243784
:101A4000BD4680BC704700BF80B588B000AFF8606D
:101A5000B9607A607B80BB681B0CFB61BB689BB282
:101A6000BB61FB691B037A6813444FF4006219469B
:101A7000F868FFF7AFFF03461B047B61FB69092B86
:101A80001DDCFB6901331B037A6813444FF40062C9
:101A90001946F868FFF79EFF03461B043B617B690C
:101AA0001B12BA69C2F58032121202FB03F23B69C3
:101AB0001B12B969091201FB03F3134400E07B69AF
:101AC00018462037BD4680BD84B080B584B000AFD5
:101AD00007F1180E8EE80F00BB6A1B0CFB60BB6A97
:101AE0009BB2BB60FB68032B75D801A252F823F0B0
:101AF000011B0008451B0008851B0008C51B0008CA
:101B0000BB694FF4006238491846FFF763FF03468C
:101B10001B047B60B869396A4FF40063334AFFF7EE
:101B200093FF38607B681B12BA68C2F580321212CC
:101B300002FB03F23B681B12B968091201FB03F3B5
:101B4000134449E0B869396A4FF40063274AFFF744
:101B50007BFF7860B869396A4FF40063244AFFF765
:101B600073FF38607B681B12BA68C2F580321212AC
:101B700002FB03F23B681B12B968091201FB03F375
:101B8000134429E0B869396A4FF40063184AFFF733
:101B90005BFF7860B869396A4FF40063154AFFF754
:101BA00053FF38607B681B12BA68C2F5803212128C
:101BB00002FB03F23B681B12B968091201FB03F335
:101BC000134409E0B869396A4FF40063094AFFF722
:101BD0003BFF034600E0002318461037BD46BDE832
:101BE000804004B0704700BF508A0208502A0108A4
:101BF00050DA0108507A000880B485B000AFF86070
:101C0000B9607A60FB681B127A68C2F580321212E2
:101C100002FB03F2BB681B127968091201FB03F394
:101C200013441B141BB218461437BD4680BC7047C2
:101C300080B582B000AF0121022000F033FA012309
:101C40003B7110233B6002237B710023BB71002397
:101C5000FB713B461946324802F06CFA10213048BD
:101C600002F02AFB0121042000F01CFA01233B7141
:101C70004FF400533B6002237B710023BB710023B0
:101C8000FB713B461946274802F054FA4FF40051C5
:101C9000244802F011FB0121082000F003FA01237F
:101CA0003B7143F2AA033B6002237B710023BB71AB
:101CB0000023FB713B4619461B4802F03BFA082102
:101CC000194802F0F9FA0221174802F0F5FA20212A
:101CD000154802F0F1FA8021134802F0EDFA0121D3
:101CE000102000F0DFF901233B714FF405633B60E6
:101CF00002237B710023BB710023FB713B46194615
:101D00000A4802F017FA1021084802F0D5FA4021DB
:101D1000064802F0D1FA00BF0837BD4680BD00BFBB
:101D20000004024000080240000C02400010024083
:101D300080B500AF704B1B78DBB2012B09D0022BB2
:101D400011D0002B00D014E008216C4802F0B4FA46
:101D50000FE06B4B1B78DBB2002B09D008216748E2
:101D600002F0C6FA04E00821644802F0B3FA00E089
:101D700000BF644B1B78DBB2012B09D0022B11D0C2
:101D8000002B00D014E002215C4802F095FA0FE02D
:101D90005B4B1B78DBB2002B09D00221574802F0C5
:101DA000A7FA04E00221554802F094FA00E000BFCF
:101DB000534B00221A70544B1B78DBB2002B48D0D7
:101DC000524B1B78DBB283F00103DBB2002B0CD04B
:101DD0004F4B00221A704F4B00221A7040214E4880
:101DE00002F078FA494B01221A704A4B1B78012BFA
:101DF00012D0022B1ED0002B00D050E040214648CC
:101E000002F068FA4FF40051444802F055FA1021EC
:101E1000414802F051FA42E04FF400513F4802F0CD
:101E200059FA40213C4802F047FA10213A4802F0A2
:101E300043FA34E01021384802F04CFA4FF40051D4
:101E4000364802F039FA4021334802F035FA00BF33
:101E500025E08021294802F02FFA2C4B1B78DBB2B9
:101E6000002B0FD02B4B1B78002B02D0012B03D063
:101E700004E001F01FFA02E001F006FC00BF234B72
:101E800000221A704021244802F016FA4FF4005143
:101E9000224802F011FA10211F4802F00DFA204BDF
:101EA0001B78DBB2002B04D08021144802F012FA18
:101EB00003E08021114802F0FFF91A4B1B78DBB2D6
:101EC000002B04D01021184802F004FA03E010217E
:101ED000154802F0F1F9154B1B78DBB2002B04D04A
:101EE0002021064802F0F6F903E02021034802F021
:101EF000E3F900BF80BD00BFDC1A0020000C0240E7
:101F00005007002074090020DD1A0020340600204C
:101F10003506002020060020001002400008024084
:101F2000141B0020021B002000040240001B0020A4
:101F300080B483B000AF0346FB71044AFB791360A1
:101F400000BF0C37BD4680BC704700BF68004742E9
:101F500080B489B000AF78600023BB6100237B614F
:101F60000023FB6102233B610023FB600223BB6073
:101F7000484B9B6803F00C03BB61BB69042B07D083
:101F8000082B09D0002B3FD17B68434A1A603FE001
:101F90007B68424A1A603BE03E4B5B6803F4800377
:101FA0009B0DFB603B4B5B6803F03F03BB60FB6832
:101FB000002B0DD0394ABB68B2FBF3F2354B5968A0
:101FC00047F6C0730B409B0903FB02F3FB610CE077
:101FD000314ABB68B2FBF3F22E4B596847F6C07327
:101FE0000B409B0903FB02F3FB612A4B5B6803F484
:101FF00040331B0C01335B003B61FA693B69B2FB68
:10200000F3F27B681A6003E07B68234A1A6000BF22
:10201000204B9B6803F0F003BB61BB691B09BB61EC
:102020001F4ABB6913441B78DBB27B617B681A686B
:102030007B69DA407B685A60164B9B6803F4E05377
:10204000BB61BB699B0ABB61154ABB6913441B7822
:10205000DBB27B617B685A687B69DA407B689A6097
:102060000C4B9B6803F46043BB61BB695B0BBB61BA
:102070000B4ABB6913441B78DBB27B617B685A68EF
:102080007B69DA407B68DA6000BF2437BD4680BCDC
:10209000704700BF003802400024F40000127A00AC
:1020A0000000002080B483B000AF78600B46FB7066
:1020B000FB78002B06D00949084B1A6B7B68134349
:1020C0000B6306E00549054B1A6B7B68DB43134045
:1020D0000B6300BF0C37BD4680BC70470038024020
:1020E00080B483B000AF78600B46FB70FB78002BA8
:1020F00006D00949084B1A6C7B6813430B6406E051
:102100000549054B1A6C7B68DB4313400B6400BF29
:102110000C37BD4680BC70470038024080B483B0A5
:1021200000AF78600B46FB70FB78002B06D00949A6
:10213000084B5A6C7B6813434B6406E00549054B1A
:102140005A6C7B68DB4313404B6400BF0C37BD46C1
:1021500080BC70470038024080B483B000AF786024
:102160000B46FB70FB78002B06D00949084B1A6A16
:102170007B6813430B6206E00549054B1A6A7B68CE
:10218000DB4313400B6200BF0C37BD4680BC704779
:102190000038024080B483B000AF78600B46FB701B
:1021A000FB78002B06D00949084B5A6A7B68134319
:1021B0004B6206E00549054B5A6A7B68DB431340D6
:1021C0004B6200BF0C37BD4680BC704700380240F0
:1021D00080B586B000AF01210220FFF763FF012127
:1021E0000820FFF75FFF01210120FFF75BFF0121BE
:1021F0000420FFF757FF28233B6100233B75002392
:10220000FB7502237B7507F110031946364801F070
:1022100091FF45233B6100233B750023FB7502239F
:102220007B7507F110031946304801F083FF4FF426
:1022300001433B6100233B750023FB7502237B7543
:1022400007F1100319462A4801F074FF4FF4807318
:102250003B6100233B750023FB7502237B7507F16F
:1022600010031946234801F065FF01212020FFF7E4
:1022700037FF0023BB810023FB805423BB604FF456
:102280007A73BB803B1D19461B4803F093FA012269
:102290000121194803F018FB37233B700123FB7021
:1022A0000F237B700F23BB700121134803F030FB19
:1022B0003B46184603F008F801210F4803F0E4FA02
:1022C0000E4B00221A700D4B1B78DBB2184601F042
:1022D0008DFC0B4B00221A700A4B00221A7000BFB3
:1022E0001837BD4680BD00BF00040240000C02400C
:1022F00000000240000802400014004021060020B7
:10230000DC1A00207409002080B582B000AF0023E1
:102310007B60A84BB3F900309BB201339BB21AB279
:10232000A44B1A80A34BB3F90030B3F5FA7F05DB59
:10233000A14B01221A709F4B00221A8008219F484E
:1023400001F0A0FF0346002B14BF01230023DAB2E3
:102350009B4B9A702021994801F094FF0346002B73
:1023600014BF01230023DAB2954B9A7401219548DA
:1023700001F088FF0346002B14BF01230023DAB2CB
:102380008F4B83F8222004218E4801F07BFF034607
:10239000002B14BF01230023DAB2894B83F83220CB
:1023A0004021884801F06EFF0346002B14BF012333
:1023B0000023DAB2824B83F842204FF40041824876
:1023C00001F060FF0346002B14BF01230023DAB2A3
:1023D0007B4B83F8522000237B608FE0784A7B6838
:1023E0001B011344033300221A70754A7B681B01DA
:1023F0001344043300221A70714A7B681B01134492
:102400000C331B68002B0DDD6D4A7B681B011344E8
:102410000C331B685A1E6A497B681B010B440C3342
:102420001A605BE0664A7B681B01134401331B782A
:10243000002B20D0624A7B681B01134402331B78B7
:1024400083F00103DBB2002B15D05D4A7B681B01D2
:102450001344033301221A70594A7B681B01134449
:102460000C3332221A60564A7B681B01134408332E
:1024700000221A6032E0524A7B681B011344013388
:102480001B7883F00103DBB2002B27D04C4A7B681A
:102490001B01134402331B7883F00103DBB2002BD2
:1024A0001CD0474A7B681B01134408331B685A1C25
:1024B00043497B681B010B4408331A60404A7B6820
:1024C0001B01134408331B68B3F57A7F06DB3C4AD3
:1024D0007B681B011344043301221A70384A7B685D
:1024E0001B01134402331978354A7B681B011344DE
:1024F00001330A461A707B6801337B607B68052BC9
:102500007FF76CAF2E4BDB781A46304B1B78DBB273
:102510005340002B14BF01230023DAB22B4B1A7057
:10252000274BDB7C1A462A4B1B78DBB25340002B2F
:1025300014BF01230023DAB2254B1A70204B93F805
:102540002430002B03D0234B00221A701AE0214BB9
:102550001B78DBB2022B08D1194B93F82330002BE8
:1025600003D01C4B01221A700CE01A4B1B78DBB213
:10257000022B07D0124B93F82330002B02D0154BBF
:1025800002221A700E4B93F83430002B03D0124BFA
:1025900000221A702FE0104B1B78DBB2022B1DD1EA
:1025A000074B93F83330002B18D00B4B01221A70D5
:1025B00021E000BF58040020500700200004024022
:1025C0005C040020000C024000000240141B0020AC
:1025D000021B002074090020DC1A0020784B1B78B5
:1025E000DBB2022B07D0774B93F83330002B02D0AD
:1025F000734B02221A70734B93F843301A46724B96
:102600001B78DBB25340002B14BF01230023DAB246
:102610006D4B1A706B4B93F853301A466B4B1B780B
:10262000DBB25340002B14BF01230023DAB2674B07
:102630001A70674B9B68002B05DD654B9B68013B5F
:10264000634A9360A9E04FF48071624801F01AFE7A
:102650000346002B14BF01230023DAB25C4BDA706F
:102660004FF480715C4801F00DFE0346002B14BF4F
:1026700001230023DAB2564B1A71554B5B78002BBD
:1026800043D0534BDB7883F00103DBB2002B3CD00B
:102690004F4B32229A604E4B1B79002B35D04F4B5B
:1026A0001B78DBB283F00103DBB2002B16D04C4B5E
:1026B0001B78DBB2002B07D0494B1B78DBB2013B08
:1026C000DAB2474B1A7002E0454B63221A70444B52
:1026D0001B78DBB2184601F089FA16E0414B1B78F3
:1026E0005BB2DBB2013BDBB25AB23E4B1A703D4BE0
:1026F0001B785BB2002B02DA3A4B02221A70394B7C
:102700001B785BB2DAB2384B1A70314B9B78002BD6
:1027100043D02F4B1B7983F00103DBB2002B3CD05D
:102720002B4B32229A602A4BDB78002B35D02B4B77
:102730001B78DBB283F00103DBB2002B16D0284BF1
:102740001B78DBB2622B07D8254B1B78DBB2013339
:10275000DAB2234B1A7002E0214B00221A70204B90
:102760001B78DBB2184601F041FA16E01D4B1B78CE
:102770005BB2DBB20133DBB25AB21A4B1A70194B9F
:102780001B785BB2022B02DD164B00221A70154B30
:102790001B785BB2DAB2144B1A700D4BDA780C4B23
:1027A0005A700B4B1A790A4B9A70104B5B68002BCE
:1027B0001EDD0E4B5B68013B0C4A536069E000BFB5
:1027C000DC1A00205C040020001B0020DD1A002021
:1027D000BC04002000000240000802403406002033
:1027E000210600203506002020060020C804002015
:1027F00001212E4801F046FD0346002B14BF0123A2
:102800000023DAB22A4B9A70294B5B7883F00103DC
:10281000DBB2002B0CD0264B9B78002B08D0244B2E
:102820000122DA70224B32225A60214B00229A6038
:102830001F4B5B78002B17D01D4B9B78002B13D0C0
:102840001B4BDB78002B0FD0194B9B680A33184ABF
:102850009360174B32225A60154B9B68B3F57A7F11
:1028600002DB134B0022DA70114B5B7883F001031B
:10287000DBB2002B0DD00E4B9B7883F00103DBB253
:10288000002B06D00A4BDB78002B02D0084B00222D
:10289000DA70074B9A78064B5A700121054803F00D
:1028A00037F800BF0837BD4680BD00BF00000240BA
:1028B000C80400200014004080B485B000AF7860E8
:1028C00039600023FB600023FB727B685B68FB6060
:1028D000FB6823F0407323F48073FB603B681B7933
:1028E0001A023B681B681343FA681343FB607B685A
:1028F000FA685A607B689B68FB60FA68174B134064
:10290000FB603B681A693B68DB681A433B689B685D
:102910001A433B685B795B001343FA681343FB601F
:102920007B68FA689A607B68DB6AFB60FB6823F46B
:102930007003FB603B681B7D013BDAB2FB7A1343FB
:10294000FB72FB7A1B05FA681343FB607B68FA682D
:10295000DA6200BF1437BD4680BC7047FDF7FFC088
:1029600080B485B000AF78600023FB600E4B5B68DD
:10297000FB60FA680D4B1340FB607B681A687B684C
:102980005B681A437B689B681A437B68DB68134368
:10299000FA681343FB60044AFB68536000BF1437B6
:1029A000BD4680BC704700BF00230140E030FCFF03
:1029B00080B483B000AF78600B46FB70FB78002BCF
:1029C00006D07B689B6843F001027B689A6005E053
:1029D0007B689B6823F001027B689A6000BF0C371C
:1029E000BD4680BC704700BF80B485B000AF786042
:1029F000084611461A460346FB700B46BB70134649
:102A00007B700023FB600023BB60FB78092B23D97C
:102A10007B68DB68FB60FB78A3F10A0213465B006E
:102A20001344072202FA03F3BB60BB68DB43FA6876
:102A30001340FB607978FB78A3F10A0213465B0030
:102A4000134401FA03F3BB60FA68BB681343FB60ED
:102A50007B68FA68DA601EE07B681B69FB60FA78C5
:102A600013465B001344072202FA03F3BB60BB6802
:102A7000DB43FA681340FB607978FA7813465B0011
:102A8000134401FA03F3BB60FA68BB681343FB60AD
:102A90007B68FA681A61BB78062B21D87B685B6B70
:102AA000FB60BB785A1E13469B0013441F2202FA98
:102AB00003F3BB60BB68DB43FA681340FB60F97843
:102AC000BB785A1E13469B00134401FA03F3BB6004
:102AD000FA68BB681343FB607B68FA685A6347E097
:102AE000BB780C2B21D87B681B6BFB60BB78DA1F93
:102AF00013469B0013441F2202FA03F3BB60BB681A
:102B0000DB43FA681340FB60F978BB78DA1F1346A1
:102B10009B00134401FA03F3BB60FA68BB681343DC
:102B2000FB607B68FA681A6322E07B68DB6AFB6003
:102B3000BB78A3F10D0213469B0013441F2202FA37
:102B400003F3BB60BB68DB43FA681340FB60F978B2
:102B5000BB78A3F10D0213469B00134401FA03F363
:102B6000BB60FA68BB681343FB607B68FA68DA6293
:102B700000BF1437BD4680BC704700BF80B483B02F
:102B800000AF78607B689B6843F080427B689A6006
:102B900000BF0C37BD4680BC704700BF80B483B017
:102BA00000AF78600B46FB70FB78002B06D07B688B
:102BB0009B6843F480727B689A6005E07B689B6841
:102BC00023F480727B689A6000BF0C37BD4680BCDE
:102BD000704700BF80B483B000AF78600B46FB70D5
:102BE000FB78002B06D07B689B6843F400727B68FF
:102BF0009A6005E07B689B6823F400727B689A60AA
:102C000000BF0C37BD4680BC704700BF80B582B0A6
:102C100000AF0346FB71FB791846FDF7B5FA00BF1C
:102C20000837BD4680BD00BF80B483B000AF786078
:102C30000B46FB707B68FA781A70012318460C3734
:102C4000BD4680BC704700BF80B485B000AF7860DF
:102C500039600023FB600AE07B685A1C7A603A689E
:102C6000511C396012781A70FB680133FB603B68B5
:102C70001B78002BF0D1FB6818461437BD4680BC8A
:102C8000704700BF80B586B000AFF8607A603B60E7
:102C90000B46FB7200237B617B68013B7B603B68DA
:102CA000092B1DD93B681D4AA2FB0323DB08F97AD7
:102CB0007A68F868FFF7E6FF78617B69FA68134481
:102CC000FB6010E0FB7A1946F868FFF7ADFFFB6880
:102CD0000133FB607B6901337B617B68013B7B6077
:102CE0007B68002BEEDC39680C4BA3FB0123DA0870
:102CF00013469B0013445B00CA1AD3B23033DBB2D5
:102D00001946F868FFF790FF02467B6913447B6120
:102D10007B6918461837BD4680BD00BFCDCCCCCCF2
:102D200080B586B000AFF8607A603B600B46FB72FE
:102D300000237B613B68002B03DA3B685B423B610D
:102D400001E03B683B617B68013B7B603B69092B91
:102D50001FD93B68002B0CDA3B692E4AA2FB0323E8
:102D6000DB085B42F97A7A68F868FFF7D9FF786187
:102D70000AE03B69274AA2FB0323DB08F97A7A6859
:102D8000F868FFF7CDFF78617B69FA681344FB6050
:102D900025E03B68002B11DA7B68013B7B600DE08E
:102DA000FB7A1946F868FFF73FFFFB680133FB60C9
:102DB0007B6901337B617B68013B7B607B68002B17
:102DC000EEDC3B68002B0ADA2D21F868FFF72CFFB8
:102DD00002467B6913447B61FB680133FB60396900
:102DE0000C4BA3FB0123DA0813469B0013445B0042
:102DF000CA1AD3B23033DBB21946F868FFF714FFB2
:102E000002467B6913447B617B6918461837BD46CF
:102E100080BD00BFCDCCCCCC80B588B002AFF8600F
:102E20007A601A460B46FB721346BB7200237B6125
:102E30007B68013B7B603B6A1B09002B20D03B6A0F
:102E40001B09BA7AF97A009313467A68F868FFF793
:102E5000E3FF02467B6913447B617B69FA68134494
:102E6000FB6010E0FB7A1946F868FFF7DDFEFB68AF
:102E70000133FB607B6901337B617B68013B7B60D5
:102E80007B68002BEEDC3B6A03F00F03092B0BD8A9
:102E90003B6ADBB203F00F03DBB23033DBB219461F
:102EA000F868FFF7C1FE19E0BB7A002B0BD03B6A34
:102EB000DBB203F00F03DBB23733DBB21946F8683D
:102EC000FFF7B2FE0AE03B6ADBB203F00F03DBB2AE
:102ED0005733DBB21946F868FFF7A6FE7B6901336A
:102EE0007B617B6918461837BD4680BD80B58AB0C6
:102EF00002AFF860B9607A603B600023BB610023D9
:102F00007B61FB68002B00F0FC80FB6800221A70DC
:102F1000F7E07B681B78252B0BD0FB685A1CFA6006
:102F20007A68511C796012781A707B6901337B6171
:102F3000E7E07B6801331B78252B0BD1FB685A1C1B
:102F4000FA6025221A707B6802337B607B6901334B
:102F50007B61D6E02023FB770023BB777B680133BE
:102F60007B607B681B78302B14D13023FB777B6828
:102F700001337B600EE0BB7F1A46920013445B0076
:102F8000DAB27B681B781344DBB2303BBB777B68DB
:102F900001337B607B681B782F2B03D97B681B7800
:102FA000392BE8D9BA7F7B6913441A46BB689A4229
:102FB00005D9BB68DAB27B69DBB2D31ABB777B6811
:102FC0001B78583B202B00F28E8001A252F823F090
:102FD000A1300008E7300008E7300008E7300008BB
:102FE000E7300008E7300008E7300008E730000865
:102FF000E7300008E7300008E7300008D13000086B
:1030000055300008E7300008E7300008E7300008D6
:10301000E730000855300008E7300008E7300008C6
:10302000E7300008E7300008E7300008E730000824
:10303000E7300008E7300008E7300008BD3000083E
:10304000E73000086D300008E7300008E73000087E
:1030500085300008B87F3B681A1D3A601B68F97F0D
:103060000246F868FFF75CFEB8613FE0B87F3B6856
:103070001A1D3A601B68F97F0246F868FFF702FEE6
:10308000B86133E0B87F3B681A1D3A601B68F97F6E
:10309000009300230246F868FFF7BEFEB86125E002
:1030A000B87F3B681A1D3A601B68F97F00930123C3
:1030B0000246F868FFF7B0FEB86117E03B681A1DDA
:1030C0003A601B681946F868FFF7BEFDB8610DE06D
:1030D0003B681A1D3A601B68DBB21946F868FFF7B7
:1030E000A3FDB86102E04FF0FF3325E07B680133B8
:1030F0007B60BB69FA681344FB607A69BB6913445F
:103100007B617B681B78002B04D07A69BB689A428C
:10311000FFF4FFAE7A69BB689A4203D2FB680022D3
:103120001A7008E0FB68013BFB60FB6800221A7024
:103130007B69013B7B617B6918462037BD4680BDBA
:1031400080B584B000AFF860B9607A607B68BA6817
:103150006421F868FFF7CAFE034618461037BD46DB
:1031600080BD00BFB0B5A6B000AFF860B9607A60AE
:10317000144B07F110041D460FCD0FC40FCD0FC423
:103180002B68236007F134037A68B9681846FFF7A3
:10319000D7FF0346632B09DD0B4B1B68DA6807F189
:1031A00010031146184600F059F8FEE707F1340302
:1031B000F968184600F052F8034618469837BD469D
:1031C000B0BD00BF909A02083804002080B582B0DC
:1031D00000AF78603960064B1B689B683A68796875
:1031E0001846FFF7BFFF034618460837BD4680BDA7
:1031F000380400200FB480B582B000AF07F114038B
:103200003B6039683869FFF7E1FF78607B681846F2
:103210000837BD46BDE8804004B0704780B582B035
:1032200000AF786039600C4B1B689A683B689A4223
:1032300005D0094B1B68DA683B689A4206D17B6867
:10324000DBB21846FFF7E2FC7B6801E04FF0FF338A
:1032500018460837BD4680BD3804002080B584B0CC
:1032600000AF786039600023FB6012E07B681B7858
:1032700039681846FFF7D2FF0346B3F1FF3F02D18A
:103280004FF0FF330AE0FB680133FB607B680133DA
:103290007B607B681B78002BE8D1FB6818461037F1
:1032A000BD4680BD80B500AF01F07CF802F040FB68
:1032B00000BF80BD80B582B000AFB34B5B681B140C
:1032C000FB80B24B1B78DBB29BB21A4692001A44C9
:1032D000520013445B009BB2FA881146184602F074
:1032E000C9FCA94B5B68FB80A84B1B78DBB29BB287
:1032F0001A4692001A44520013445B009BB20133F9
:103300009BB2FA881146184602F0B4FC9E4B9B68AB
:103310001B14FB809D4B1B78DBB29BB21A469200BC
:103320001A44520013445B009BB202339BB2FA88EA
:103330001146184602F09EFC934B9B68FB80934B12
:103340001B78DBB29BB21A4692001A445200134417
:103350005B009BB203339BB2FA881146184602F019
:1033600089FC894BDB681B14FB80884B1B78DBB224
:103370009BB21A4692001A44520013445B009BB25F
:1033800004339BB2FA881146184602F073FC7E4B58
:10339000DB68FB807D4B1B78DBB29BB21A46920048
:1033A0001A44520013445B009BB205339BB2FA8867
:1033B0001146184602F05EFC734B1B691B14FB8020
:1033C000724B1B78DBB29BB21A4692001A44520031
:1033D00013445B009BB206339BB2FA881146184631
:1033E00002F048FC684B1B69FB80684B1B78DBB222
:1033F0009BB21A4692001A44520013445B009BB2DF
:1034000007339BB2FA881146184602F033FC5E4B34
:103410009B8AFB805D4B1B78DBB29BB21A46920005
:103420001A44520013445B009BB208339BB2FA88E3
:103430001146184602F01EFC534B9B691B14FB807F
:10344000524B1B78DBB29BB21A4692001A445200D0
:1034500013445B009BB209339BB2FA8811461846AD
:1034600002F008FC484B9B69FB80484B1B78DBB2A1
:103470009BB21A4692001A44520013445B009BB25E
:103480000A339BB2FA881146184602F0F3FB404B10
:103490005B681B14FB803D4B1B78DBB29BB21A466A
:1034A00092001A44520013445B009BB20B339BB250
:1034B000FA881146184602F0DDFB354B5B68FB804D
:1034C000324B1B78DBB29BB21A4692001A44520070
:1034D00013445B009BB20C339BB2FA88114618462A
:1034E00002F0C8FB2A4B9B681B14FB80274B1B7800
:1034F000DBB29BB21A4692001A44520013445B009E
:103500009BB20D339BB2FA881146184602F0B2FB0B
:103510001F4B9B68FB801D4B1B78DBB29BB21A468E
:1035200092001A44520013445B009BB20E339BB2CC
:10353000FA881146184602F09DFB154BDB681B14F8
:10354000FB80124B1B78DBB29BB21A4692001A44E6
:10355000520013445B009BB20F339BB2FA881146B2
:10356000184602F087FB0A4BDB68FB80074B1B7891
:10357000DBB29BB21A4692001A44520013445B001D
:103580009BB2103306E000BF540900202106002042
:10359000E00500209BB2FA881146184602F06AFB4B
:1035A000374B1B691B14FB80364B1B78DBB29BB27D
:1035B0001A4692001A44520013445B009BB2113326
:1035C0009BB2FA881146184602F054FB2C4B1B693B
:1035D000FB802C4B1B78DBB29BB21A4692001A443C
:1035E000520013445B009BB212339BB2FA8811461F
:1035F000184602F03FFB224B9B8AFB80214B1B7835
:10360000DBB29BB21A4692001A44520013445B008C
:103610009BB213339BB2FA881146184602F02AFB7C
:10362000174B9B691B14FB80164B1B78DBB29BB2BC
:103630001A4692001A44520013445B009BB21433A2
:103640009BB2FA881146184602F014FB0C4B9B699A
:10365000FB800C4B1B78DBB29BB21A4692001A44DB
:10366000520013445B009BB215339BB2FA8811469B
:10367000184602F0FFFA00BF0837BD4680BD00BF04
:10368000E00500202106002080B582B000AFBF4BCE
:1036900001221A70BD4B01225A70BC4B01229A7054
:1036A000BA4B0122DA70B94B01221A71B74B0122D1
:1036B0005A71B64B01229A71B54B01221A70B44B64
:1036C00001225A70B24B01229A70B14B0122DA707A
:1036D000AF4B01221A71AE4B01225A71AC4B012241
:1036E0009A71AC4B1B78DBB29BB21A4692001A441B
:1036F000520013445B009BB2BA1D1146184602F0FB
:103700006FFAA44B1B78DBB29BB21A4692001A44A4
:10371000520013445B009BB201339BB23A1D114629
:10372000184602F05DFAFB881B04BA8813431A4658
:10373000994B5A60974B1B78DBB29BB21A469200AA
:103740001A44520013445B009BB202339BB2BA1D71
:103750001146184602F044FA8E4B1B78DBB29BB23E
:103760001A4692001A44520013445B009BB2033382
:103770009BB23A1D1146184602F032FAFB881B0430
:10378000BA8813431A46844B9A60824B1B78DBB28B
:103790009BB21A4692001A44520013445B009BB23B
:1037A00004339BB2BA1D1146184602F019FA794B40
:1037B0001B78DBB29BB21A4692001A4452001344A3
:1037C0005B009BB205339BB23A1D1146184602F0CE
:1037D00007FAFB881B04BA8813431A466E4BDA605B
:1037E0006C4B1B78DBB29BB21A4692001A44520013
:1037F00013445B009BB206339BB2BA1D11461846B8
:1038000002F0EEF9634B1B78DBB29BB21A469200D2
:103810001A44520013445B009BB207339BB23A1D1B
:103820001146184602F0DCF9FB881B04BA881343E2
:103830001A46594B1A61574B1B78DBB29BB21A469A
:1038400092001A44520013445B009BB208339BB2AF
:10385000BA1D1146184602F0C3F9FB881AB24E4B46
:103860009A824C4B1B78DBB29BB21A4692001A44E8
:10387000520013445B009BB209339BB2BA1D114640
:10388000184602F0ADF9434B1B78DBB29BB21A46E7
:1038900092001A44520013445B009BB20A339BB25D
:1038A0003A1D1146184602F09BF9FB881B04BA88A2
:1038B00013431A46384B9A61364B1B78DBB29BB2E6
:1038C0001A4692001A44520013445B009BB20B3319
:1038D0009BB2BA1D1146184602F082F92D4B1B7897
:1038E000DBB29BB21A4692001A44520013445B00AA
:1038F0009BB20C339BB23A1D1146184602F070F988
:10390000FB881B04BA8813431A46244B5A60214B88
:103910001B78DBB29BB21A4692001A445200134441
:103920005B009BB20D339BB2BA1D1146184602F0E4
:1039300057F9184B1B78DBB29BB21A4692001A4417
:10394000520013445B009BB20E339BB23A1D1146EA
:10395000184602F045F9FB881B04BA8813431A463F
:103960000E4B9A600B4B1B78DBB29BB21A4692004F
:103970001A44520013445B009BB20F339BB2BA1D32
:103980001146184602F02CF90AE000BF4807002053
:10399000D80500202106002054090020E005002061
:1039A000444B1B78DBB29BB21A4692001A44520079
:1039B00013445B009BB210339BB23A1D114618466C
:1039C00002F00EF9FB881B04BA8813431A463A4BDF
:1039D000DA60384B1B78DBB29BB21A4692001A446D
:1039E000520013445B009BB211339BB2BA1D1146C7
:1039F000184602F0F5F82F4B1B78DBB29BB21A4643
:103A000092001A44520013445B009BB212339BB2E3
:103A10003A1D1146184602F0E3F8FB881B04BA88E9
:103A200013431A46244B1A61224B1B78DBB29BB21C
:103A30001A4692001A44520013445B009BB213339F
:103A40009BB2BA1D1146184602F0CAF8FB881AB29A
:103A5000194B9A82174B1B78DBB29BB21A46920025
:103A60001A44520013445B009BB214339BB2BA1D3C
:103A70001146184602F0B4F80E4B1B78DBB29BB22D
:103A80001A4692001A44520013445B009BB215334D
:103A90009BB23A1D1146184602F0A2F8FB881B049F
:103AA000BA8813431A46044B9A6100BF0837BD46D3
:103AB00080BD00BF21060020E005002080B582B057
:103AC00000AF01210220FEF7EDFA01210820FEF7E8
:103AD000E9FA01211020FEF7E5FA4FF47C433B6040
:103AE00001233B710023BB710023FB7102237B7117
:103AF0003B4619463A4800F01DFB4EF680733B608A
:103B000001233B710023BB710023FB7102237B71F6
:103B10003B461946334800F00DFB4FF440633B60D1
:103B200001233B710023BB710023FB7102237B71D6
:103B30003B4619462C4800F0FDFA4FF40071294825
:103B400000F0BAFB8021274800F0B6FB4FF480510B
:103B5000234800F0B1FB4FF48041214800F0ACFB5A
:103B60004FF48061204800F0A7FB4FF400611D482E
:103B700000F0A2FB4FF400511A4800F09DFB4FF4F7
:103B80000061174800F098FB4FF40041154800F021
:103B900093FB4FF48061134800F08EFB4FF480419B
:103BA000104800F089FB4FF480610D4800F084FB61
:103BB0004FF400610C4800F07FFB4FF400510848BF
:103BC00000F07AFB4FF40041054800F075FB4FF41C
:103BD0008071044800F070FB00BF0837BD4680BD0F
:103BE0000004024000100240000C024080B584B086
:103BF00000AF78607B68C64A82FB03129210DB1725
:103C0000D31AFB60FB686FF0090202FB03F27B68CA
:103C10001344BB604FF40071BE4800F04DFB80219F
:103C2000BC4800F049FB4FF48051BB4800F044FB16
:103C30004FF48041B84800F03FFB4FF48061B74833
:103C400000F03AFB4FF40061B24800F035FB4FF44E
:103C50000051B04800F030FB4FF40061AE4800F076
:103C60002BFB4FF40041AB4800F026FB4FF4806182
:103C7000A84800F021FB4FF48041A64800F01CFB4F
:103C80004FF48061A44800F017FB4FF40061A34893
:103C900000F012FB4FF400519F4800F00DFB4FF471
:103CA00000419D4800F008FB4FF48071994800F0F6
:103CB00003FBFB68092B00F20F8101A252F823F0ED
:103CC000E93C0008273D00083D3D00086F3D000825
:103CD000A13D0008C93D0008FB3D0008373E000833
:103CE000573E00089D3E00084FF40061894800F0EF
:103CF000F1FA4FF40051874800F0ECFA4FF480518C
:103D0000854800F0E7FA4FF48041834800F0E2FA7A
:103D10004FF48061814800F0DDFA4FF400717D4876
:103D200000F0D8FAD8E04FF400517A4800F0D2FA07
:103D30004FF48051784800F0CDFACDE04FF40061A7
:103D4000744800F0C7FA4FF40051724800F0C2FA0C
:103D50004FF48041704800F0BDFA4FF480616F4825
:103D600000F0B8FA80216B4800F0B4FAB4E04FF4E8
:103D70000061684800F0AEFA4FF40051654800F069
:103D8000A9FA4FF48051644800F0A4FA4FF480413E
:103D9000614800F09FFA80215E4800F09BFA9BE0AA
:103DA0004FF400515B4800F095FA4FF480515A48A7
:103DB00000F090FA4FF40071564800F08BFA802121
:103DC000544800F087FA87E04FF40061514800F052
:103DD00081FA4FF48051504800F07CFA4FF4804152
:103DE0004D4800F077FA4FF400714A4800F072FA3B
:103DF0008021484800F06EFA6EE04FF400614548BB
:103E000000F068FA4FF48051434800F063FA4FF431
:103E10008041414800F05EFA4FF480613F4800F075
:103E200059FA4FF400713B4800F054FA80213948A8
:103E300000F050FA50E04FF40061364800F04AFAC2
:103E40004FF40051334800F045FA4FF480513248A6
:103E500000F040FA40E04FF400612E4800F03AFADA
:103E60004FF400512B4800F035FA4FF480512A48A6
:103E700000F030FA4FF48041274800F02BFA4FF45D
:103E80008061264800F026FA4FF40071214800F0C6
:103E900021FA80211F4800F01DFA1DE04FF4006157
:103EA0001C4800F017FA4FF400511A4800F012FABB
:103EB0004FF48051184800F00DFA4FF48041164835
:103EC00000F008FA4FF40071124800F003FA802164
:103ED000104800F0FFF900BFBB68092B00F21F81FA
:103EE00001A252F823F000BF213F00085F3F000805
:103EF000753F0008A93F0008DD3F000807400008A3
:103F00003B4000087940000899400008E140000863
:103F1000676666660010024000040240000C024022
:103F20004FF40061804800F0D5F94FF400517F480C
:103F300000F0D0F94FF480617D4800F0CBF94FF4E8
:103F400080417B4800F0C6F94FF48061774800F06B
:103F5000C1F94FF40061754800F0BCF9DFE04FF49F
:103F60000051724800F0B6F94FF48061704800F0DB
:103F7000B1F9D4E04FF400616B4800F0ABF94FF4B5
:103F800000516A4800F0A6F94FF48041684800F0FB
:103F9000A1F94FF48061654800F09CF94FF40041AD
:103FA000634800F097F9BAE04FF400615E4800F012
:103FB00091F94FF400515D4800F08CF94FF48061A5
:103FC0005B4800F087F94FF48041594800F082F9CE
:103FD0004FF40041564800F07DF9A0E04FF4005145
:103FE000524800F077F94FF48061514800F072F9BF
:103FF0004FF400614D4800F06DF94FF400414C481A
:1040000000F068F98BE04FF40061474800F062F976
:104010004FF48061464800F05DF94FF48041444818
:1040200000F058F94FF40061404800F053F94FF4A4
:1040300000413F4800F04EF971E04FF400613A480A
:1040400000F048F94FF48061394800F043F94FF42B
:104050008041374800F03EF94FF48061334800F06A
:1040600039F94FF40061314800F034F94FF4004160
:104070002F4800F02FF952E04FF400612A4800F079
:1040800029F94FF40051294800F024F94FF48061D8
:10409000274800F01FF942E04FF40061224800F089
:1040A00019F94FF40051214800F014F94FF48061E0
:1040B0001F4800F00FF94FF480411D4800F00AF945
:1040C0004FF48061194800F005F94FF4006117487A
:1040D00000F000F94FF40041154800F0FBF81EE035
:1040E0004FF40061104800F0F5F84FF400510F480C
:1040F00000F0F0F84FF480610D4800F0EBF84FF459
:1041000080410B4800F0E6F84FF40061074800F0EA
:10411000E1F84FF40041064800F0DCF800BF00BFB2
:104120001037BD4680BD00BF000C024000040240B5
:104130000010024080B487B000AF7860396000237F
:104140007B6100233B610023FB6000237B6176E001
:1041500001227B6902FA03F33B613B681A683B6901
:104160001340FB60FA683B699A4265D17B681A6824
:104170007B695B00032101FA03F3DB431A407B6890
:104180001A607B681A683B681B7919467B695B007B
:1041900001FA03F31A437B681A603B681B79012B11
:1041A00003D03B681B79022B2ED17B689A687B6910
:1041B0005B00032101FA03F3DB431A407B689A603A
:1041C0007B689A683B685B7919467B695B0001FAFA
:1041D00003F31A437B689A607B685A687B699BB2D9
:1041E000012101FA03F3DB431A407B685A607B68C4
:1041F0005A683B689B7919467B699BB201FA03F3C5
:104200009BB21A437B685A607B68DA687B699BB211
:104210005B00032101FA03F3DB431A407B68DA6099
:104220007B68DA683B68DB7919467B695B0001FAD9
:1042300003F31A437B68DA607B6901337B617B6936
:104240000F2B85D900BF1C37BD4680BC704700BF0F
:1042500080B483B000AF78607B684FF6FF721A605D
:104260007B6800221A717B6800225A717B680022E9
:104270009A717B680022DA7100BF0C37BD4680BCA2
:10428000704700BF80B485B000AF78600B467B807C
:104290000023FB737B681A697B881340002B02D0D4
:1042A0000123FB7301E00023FB73FB7B18461437EB
:1042B000BD4680BC704700BF80B483B000AF78605B
:1042C0000B467B807B687A881A8300BF0C37BD461B
:1042D00080BC704780B483B000AF78600B467B80B1
:1042E0007B687A885A8300BF0C37BD4680BC704714
:1042F00080B483B000AF78600B467B807B685A69DE
:104300007B885A407B685A6100BF0C37BD4680BC31
:10431000704700BF80B485B000AF78600B467B80EB
:1043200013467B700023FB600023BB607A787B8898
:1043300003F007039B0002FA03F3FB607B88DB08B2
:104340009BB218467B88DB089BB21A467B68083212
:1043500053F822207B8803F007039B000F2101FA0A
:1043600003F3DB4302EA03017B6800F1080243F830
:1043700022107B88DB089BB21A467B68083253F810
:104380002220FB681343BB607B88DB089BB21A4684
:104390007B680832B96843F8221000BF1437BD4665
:1043A00080BC704780B400AF064B1B69002B05DA58
:1043B000044B054A5A60034B044A5A6000BFBD468D
:1043C00080BC7047003C024023016745AB89EFCDBC
:1043D00080B584B000AF78600B46FB700023FB60B3
:1043E0000823FB72FB78002B02D10023FB6010E056
:1043F000FB78012B03D14FF48073FB6009E0FB785D
:10440000022B03D14FF40073FB6002E04FF44073C2
:10441000FB6000F0A7F80346FB72FB7A082B2FD154
:104420001A4A1A4B1B6923F4407313611749174B3F
:104430001A69FB6813430B61144A144B1B6923F080
:10444000F80313611149114B1A697B68134343F058
:1044500002030B610D4A0D4B1B6943F4803313615A
:1044600000F080F80346FB72084A084B1B6923F0F2
:1044700002031361054A054B1B6923F0F80313611E
:10448000FB7A18461037BD4680BD00BF003C024095
:1044900080B584B000AF78600B467B800823FB7347
:1044A00000F060F80346FB73FB7B082B1ED1124A19
:1044B000114B1B6923F4407313610F4A0E4B1B69A8
:1044C00043F4807313610C4A0B4B1B6943F00103E7
:1044D00013617B687A881A8000F044F80346FB7306
:1044E000054A054B1B6923F001031361FB7B18464A
:1044F0001037BD4680BD00BF003C024080B483B091
:1045000000AF0823FB71164BDB6803F48033002BEC
:1045100002D00123FB711CE0114BDB6803F0100398
:10452000002B02D00523FB7113E00D4BDB6803F079
:10453000EF03002B02D00623FB710AE0084BDB6877
:1045400003F00203002B02D00723FB7101E00823D4
:10455000FB71FB7918460C37BD4680BC704700BF25
:10456000003C024080B582B000AF0823FB71FFF72A
:10457000C5FF0346FB7103E0FFF7C0FF0346FB7175
:10458000FB79DBB2012BF7D0FB79DBB21846083799
:10459000BD4680BDABBE01E000207047002A00D0C0
:1045A000106001207047069801884BF6AB6291427B
:1045B00002D1043006907047FEE7000080B500AFDE
:1045C000124A124B1B6843F0010313600F4B002289
:1045D0009A600E4A0D4B1B6823F0847323F48033DA
:1045E00013600A4B0A4A5A60084A084B1B6823F4B6
:1045F00080231360054B0022DA6000F00DF8054BB4
:104600004FF000629A6000BF80BD00BF00380240DA
:104610001030002400ED00E080B483B000AF002330
:104620007B6000233B60354A344B1B6843F4803386
:104630001360324B1B6803F400333B607B6801332B
:104640007B603B68002B03D17B68B3F5A06FF0D192
:104650002A4B1B6803F40033002B02D001233B607C
:1046600001E000233B603B68012B42D1234A234BEE
:104670001B6C43F080531364214A214B1B6843F4A5
:10468000804313601D4A1D4B9B6893601B4A1B4B64
:104690009B6843F400439360184A184B9B6843F4AB
:1046A000A0539360154B174A5A60144A134B1B686A
:1046B00043F08073136000BF104B1B6803F000735E
:1046C000002BF9D0104B40F205621A600B4A0B4BDD
:1046D0009B6823F003039360084A084B9B6843F0F0
:1046E0000203936000BF054B9B6803F00C03082B8B
:1046F000F9D100BF0C37BD4680BC7047003802407E
:104700000070004008544007003C024080B483B071
:1047100000AF78607B681B6823F001027B681A6039
:104720007B6800221A607B6800225A607B68002246
:104730009A607B680022DA607B6800221A617B68DD
:1047400021225A617B68454A934203D1444B3D2262
:104750009A607EE07B68434A934204D1404B4FF419
:1047600074629A6075E07B683F4A934204D13C4B87
:104770004FF474129A606CE07B683C4A934204D117
:10478000374B4FF074629A6063E07B68384A93421B
:1047900003D1334B374ADA605BE07B68364A934299
:1047A00003D12F4B354ADA6053E07B68344A934299
:1047B00003D12B4B334ADA604BE07B68324A934299
:1047C00004D1274B4FF03D52DA6042E07B682F4A1C
:1047D000934203D12E4B3D229A603AE07B682D4AEA
:1047E000934204D12A4B4FF474629A6031E07B68A3
:1047F000294A934204D1264B4FF474129A6028E060
:104800007B68264A934204D1214B4FF074629A6030
:104810001FE07B68224A934203D11D4B154ADA60A0
:1048200017E07B681F4A934203D1194B134ADA60A1
:104830000FE07B681C4A934203D1154B114ADA60A2
:1048400007E07B68194A934203D1114B4FF03D5268
:10485000DA6000BF0C37BD4680BC70471060024074
:104860000060024028600240406002405860024000
:10487000706002403D00002088600240400F002030
:10488000A060024000003D20B86002401064024079
:1048900000640240286402404064024058640240C0
:1048A0007064024088640240A0640240B864024020
:1048B00080B485B000AF786039600023FB607B680E
:1048C0001B68FB60FA68244B1340FB603B681A6866
:1048D0003B68DB681A433B685B691A433B689B692A
:1048E0001A433B68DB691A433B681B6A1A433B68FF
:1048F0005B6A1A433B689B6A1A433B685B6B1A43CB
:104900003B689B6B1343FA681343FB607B68FA6850
:104910001A607B685B69FB60FB6823F00703FB6040
:104920003B68DA6A3B681B6B1343FA681343FB600E
:104930007B68FA685A613B681A697B685A603B6811
:104940005A687B689A603B689A687B68DA6000BF47
:104950001437BD4680BC70473F801CF080B483B0E4
:1049600000AF78600B46FB70FB78002B06D07B68AD
:104970001B6843F001027B681A6005E07B681B68D6
:1049800023F001027B681A6000BF0C37BD4680BC73
:10499000704700BF80B485B000AFF860B9607A603E
:1049A0007B68002B06D0FB681B6843F40022FB6881
:1049B0001A6005E0FB681B6823F40022FB681A609C
:1049C000FB68BA681A6100BF1437BD4680BC7047E7
:1049D00080B483B000AF78600B46FB70FB78002B8F
:1049E00006D07B681B6843F480227B681A6005E070
:1049F0007B681B6823F480227B681A6000BF0C3739
:104A0000BD4680BC704700BF80B485B000AFF86081
:104A1000B9601346FB71BB6803F08003002B0FD015
:104A2000FB79002B06D0FB685B6943F08002FB68D2
:104A30005A6105E0FB685B6923F08002FB685A61FC
:104A4000BB68802B14D0FB79002B08D0FB681A6858
:104A5000BB6803F01E031A43FB681A6008E0FB689A
:104A60001A68BB6803F01E03DB431A40FB681A6038
:104A700000BF1437BD4680BC704700BF80B487B00C
:104A800000AF786039600023FB750023FB600023D2
:104A9000BB607B68214A934202D8214B3B6101E015
:104AA000204B3B613B6823F0F02323F0C313002B22
:104AB0000AD03B68DB0A03F01E03FB607B681A68C0
:104AC000FB681340BB6004E07B685B6903F0800314
:104AD000BB603B6803F00053002B03D03B695B686D
:104AE000FB6002E03B691B68FB60FB6823F0F0237E
:104AF00023F08213FB60FA683B681340002B05D05B
:104B0000BB68002B02D00123FB7501E00023FB757D
:104B1000FB7D18461C37BD4680BC70470F640240C1
:104B2000006002400064024080B485B000AF78604D
:104B300039607B68104A934202D8104BFB6001E059
:104B40000F4BFB603B6803F00053002B07D03B6822
:104B500023F0F02323F08213FA68D36006E03B6869
:104B600023F0F02323F08213FA68936000BF143718
:104B7000BD4680BC704700BF0F6402400060024029
:104B80000064024080B582B000AF78607B68174A4D
:104B900093420AD101214FF48050FDF7FBFA002126
:104BA0004FF48050FDF7F6FA1CE07B68104A934200
:104BB0000AD101214FF48040FDF7CEFA00214FF4D5
:104BC0008040FDF7C9FA0DE07B680A4A934209D19B
:104BD00001214FF40040FDF7BFFA00214FF40040DF
:104BE000FDF7BAFA00BF0837BD4680BD003001406E
:104BF00000380040003C004080B48BB000AF7860CB
:104C0000396000237B830223FB840023BB840123C0
:104C10007B840023FB6100237B6100233B61002335
:104C2000FB600023BB607B689B8B9BB223F47B63A0
:104C300023F00F039AB27B689A837B6802221A845E
:104C40007B689B8B7B833B689B68022B04D1002392
:104C5000BB840223FB8472E03B689B88002B02D15B
:104C600001237B8401E002237B844D4B9B6803F48A
:104C70000003002B05D04A4A494B9B6823F40003EC
:104C80009360474BD3F8842047F6C07313409B09C9
:104C9000C3F30803FB60424BD3F8843003F0E043D6
:104CA0001B0F03F00703BB603D4B5B6803F03F0342
:104CB0003B613C4A3B69B2FBF3F3FA6802FB03F247
:104CC000BB68B2FBF3F37B613B68DB88B3F5007F25
:104CD0000FD17B691A0A13469B0013445B001A46E6
:104CE0003B689B68B2FBF3F39BB205339BB2FB615D
:104CF00012E07B8C5B011A467B69B3FBF2F2134630
:104D00009B0013445B001A463B689B68B2FBF3F3BD
:104D10009BB205339BB2FB61FB69234AA2FB0323D1
:104D2000DB08FB61FB699BB203F00103BB84BB8C16
:104D3000FA69D31A5B08FB84BB8C1B02BB84FB8C17
:104D4000012B02D9FB8CFF2B03D90223FB84002308
:104D5000BB843B68DA88BB8C13439AB2FB8C134349
:104D60009AB27B681A843B681A883B6859883B680A
:104D700098883B689B8903439BB20B439BB21343C8
:104D80009AB27B8B13439BB243F400637B837B68B3
:104D90007A8B9A8300BF2C37BD4680BC704700BF1A
:104DA0000038024000127A00CDCCCCCC80B483B065
:104DB00000AF78600B46FB70FB78002B08D07B6857
:104DC0009B8B9BB243F480639AB27B689A8307E023
:104DD0007B689B8B9BB223F480639AB27B689A8337
:104DE00000BF0C37BD4680BC704700BF80B483B0A5
:104DF00000AF78600B467B8013467B707B78002B7E
:104E000008D07B689B889AB27B8813439AB27B68F0
:104E10009A8009E07B689B889AB27B88DB439BB2CF
:104E200013409AB27B689A8000BF0C37BD4680BCA5
:104E3000704700BF80B485B000AF78600B46FB7050
:104E40001346BB700023FB810023BB81FB781B0949
:104E5000DBB2FB81FB89012202FA03F3BB81BB7841
:104E6000002B08D07B689B889AB2BB8913439AB207
:104E70007B689A8009E07B689B889AB2BB89DB4398
:104E80009BB213409AB27B689A8000BF1437BD462C
:104E900080BC704780B582B000AF78607B68174AED
:104EA00093420AD101214FF40010FDF755F900217A
:104EB0004FF40010FDF750F91CE07B68104A934254
:104EC0000AD101214FF48000FDF746F900214FF48B
:104ED0008000FDF741F90DE07B680A4A934209D151
:104EE00001214FF40000FDF737F900214FF40000D5
:104EF000FDF732F900BF0837BD4680BD00540040C1
:104F000000580040005C004080B58AB000AF786077
:104F100039600023FB8400237B840423BB84574B2C
:104F2000FB617B689B88FB84FB8C23F03F03FB8445
:104F300007F10C031846FDF70BF87B69FB61FB6971
:104F40004F4AA2FB03239B0C7B84FA8C7B8C13437C
:104F5000FB847B68FA8C9A807B681B889BB223F069
:104F600001039AB27B681A800023FB843B681B68AC
:104F7000444A934215D83B681B685B00FA69B2FB50
:104F8000F3F3BB84BB8C032B01D80423BB84FA8CC2
:104F9000BB8C1343FB847B8C01339AB27B681A84ED
:104FA00040E03B68DB884BF6FF72934209D13B68D7
:104FB0001A6813465B001344FA69B2FBF3F3BB842F
:104FC0000EE03B681A6813469B0013449A00134492
:104FD000FA69B2FBF3F3BB84BB8C43F48043BB841C
:104FE000BB8CC3F30B03002B03D1BB8C43F0010339
:104FF000BB84BA8CFB8C13439BB26FEA43436FEACA
:105000005343FB847B8C4FF4967202FB03F31E4ADE
:1050100082FB03129211DB17D31A9BB201339AB2AF
:105020007B681A847B68FA8C9A837B681B889BB2A6
:1050300043F001039AB27B681A807B681B88FB846B
:10504000FB8C23F4816323F00203FB843B689A8882
:105050003B685B8913439AB2FB8C1343FB847B68E8
:10506000FA8C1A803B689A893B681B8913439AB271
:105070007B681A8100BF2837BD4680BD00127A00C8
:1050800083DE1B43A0860100D34D621080B483B041
:1050900000AF78600B46FB70FB78002B08D07B6874
:1050A0001B889BB243F001039AB27B681A8007E029
:1050B0007B681B889BB223F001039AB27B681A803D
:1050C00000BF0C37BD4680BC704700BF80B483B0C2
:1050D00000AF78600B46FB70FB78002B08D07B6834
:1050E0001B889BB243F480739AB27B681A8007E0F6
:1050F0007B681B889BB223F480739AB27B681A800A
:1051000000BF0C37BD4680BC704700BF80B483B081
:1051100000AF78600B46FB70FB78002B08D07B68F3
:105120001B889BB243F400739AB27B681A8007E035
:105130007B681B889BB223F400739AB27B681A8049
:1051400000BF0C37BD4680BC704700BF80B483B041
:1051500000AF78600B46FB701346BB70BB78002B2A
:1051600004D0FB7843F00103FB7003E0FB7823F0ED
:105170000103FB70FB789AB27B681A8200BF0C3780
:10518000BD4680BC704700BF80B483B000AF78607C
:105190000B46FB70FB78002B08D07B681B889BB20A
:1051A00043F480639AB27B681A8007E07B681B88AF
:1051B0009BB223F480639AB27B681A8000BF0C37DD
:1051C000BD4680BC704700BF80B483B000AF78603C
:1051D0000B46FB70FB789AB27B681A8200BF0C37D3
:1051E000BD4680BC704700BF80B483B000AF78601C
:1051F0007B681B8A9BB2DBB218460C37BD4680BC6D
:10520000704700BF80B487B000AF7860396000237A
:105210003B610023FB600023BB600023FB757B68C0
:105220009B8A9BB2FB607B681B8B9BB2BB60BB689D
:105230001B04BB60FA68BB68134323F07F433B61E8
:105240003A693B681A403B689A4202D10123FB75D8
:1052500001E00023FB75FB7D18461C37BD4680BC72
:10526000704700BF80B487B000AF7860396000231A
:10527000FB7500233B610023FB607B68FB603B68A0
:105280001B0F3B613B6823F07F433B603B69002B76
:1052900003D0FB681433FB6005E03B681B0C3B60EC
:1052A000FB681833FB60FB681A683B681340002BEF
:1052B00002D00123FB7501E00023FB75FB7D18463E
:1052C0001C37BD4680BC704780B485B000AF7860A5
:1052D0000023FB730023BB730F237B737B68DB7896
:1052E000002B38D0264BDB68DB4303F4E0631B0A5A
:1052F000FB73FB7BC3F10403BB737A7BFB7B42FA3A
:1053000003F37B737B685B781A46BB7B02FA03F37B
:10531000FB737B689A787B7B1340DAB2FB7B134389
:10532000FB73FB7B1B01FB73164A7B681B781344E2
:10533000FA7B83F80023134A7B681B785B09DBB296
:1053400018467B681B7803F01F03012101FA03F361
:1053500042F820300FE00B497B681B785B09DBB219
:1053600018467B681B7803F01F0301229A4000F166
:10537000200341F8232000BF1437BD4680BC70478E
:1053800000ED00E000E100E080B59CB000AF01213D
:105390004FF48070FCF7C2FE01215E48FCF782FEEC
:1053A00007F168031846FEF753FF0E23BB6603237D
:1053B00087F86C30022387F86D30002387F86F3050
:1053C00007F1680319465448FEF7B4FE0323BB6691
:1053D00007F1680319465148FEF7ACFE1623BB6679
:1053E00007F1680319464E48FEF7A4FE4D48FFF743
:1053F0008DF900237B604C4BBB604C4BFB60002362
:105400003B6108237B610023BB614FF48063FB6138
:105410004FF400633B624FF400537B624FF48073A0
:10542000BB620023FB6200233B6301237B630023F9
:10543000BB630023FB633B1D19463A48FFF738FA6C
:1054400001213848FFF78AFA00233B6400237B647C
:105450000023BB640023FB6407F140031846FDF7FB
:105460007FFA00233B65012387F85430012387F836
:1054700055300023FB654FF400633B66082387F833
:10548000643007F1500319462948FDF715FA072340
:10549000012201212648FDF7A7FA07230222022153
:1054A0002348FDF7A1FA0723032203212048FDF733
:1054B0009BFA0723042208211D48FDF795FA0723CC
:1054C000052209211A48FDF78FFA072306220B212E
:1054D0001748FDF789FA072307220C211448FDF726
:1054E00083FA072308220E211148FDF77DFA0121D6
:1054F0000F48FDF76FFB01210D48FDF74FFB012120
:105500000B48FDF755FA0A48FDF738FB00BF703726
:10551000BD4680BD0700400000000240000402407C
:1055200000080240106402404C200140A81A0020EC
:105530000020014000000000B0B582B000AF0023A1
:105540007B6053E0304A7B6832F813309BB21B0912
:105550009BB219462D4A7B6832F813309BB2CB1AA6
:10556000184601F011FF02460B46144623F0004591
:105570002046294602F046FA034699B2244A7B683F
:1055800022F81310224A7B6832F813309BB2022BA8
:1055900029D91D4A7B6832F813309BB21B099BB294
:1055A000184601F0F1FE16A3D3E9002301F052FFE3
:1055B00002460B461046194602F0FCF903461BB2A0
:1055C00099B2124A7B6822F81310104A7B6832F8AD
:1055D00013309BB2B3F5805F05D30C4A7B6840F66D
:1055E000FF7122F813107B6801337B607B68072B07
:1055F000A8DD00BF0837BD46B0BD00BFAFF30080D7
:105600003108AC1C5A64F13FA81A0020182300206E
:10561000041B002080B487B000AFF8603B1D83E816
:10562000060000237B6136E0234A7B6932F81330A1
:105630009BB20A2B2CD97B69072B28D801A252F8E0
:1056400023F000BF655600086B560008715600082D
:10565000775600088F5600087D56000883560008CC
:105660008956000800233B7212E00023BB720FE052
:1056700000233B710CE000237B7209E00023BB7127
:1056800006E000237B7103E00023FB7100E000BF14
:105690007B6901337B617B69072BC5DDFB681A469B
:1056A0003B1D1868106099889B7991809371F86808
:1056B0001C37BD4680BC7047BC1A0020B0B584B012
:1056C00000AF0023FB6000237B800023BB6061E010
:1056D0007E237B601AE03349BB68DA017B681344A0
:1056E00031F813309BB23B807B68013338882D49F9
:1056F000BA68D2011344024621F81320B7F90030EA
:10570000FA681344FB607B68013B7B607B68002B7D
:10571000E1DA254ABB6832F813309BB27B80798886
:10572000204ABB681B0213440A461A80B7F90230AC
:10573000FA681344FB60FB68DB111BB219461B4A75
:10574000BB6832F813309BB2CB1A184601F01CFE2E
:1057500002460B46144623F000452046294602F037
:1057600051F9034699B2124ABB6822F81310104A45
:10577000BB6832F813309BB20B2B06D9FB68DB11E8
:1057800099B20A4ABB6822F813100023FB60BB6879
:105790000133BB60BB68072B9ADD00BF1037BD46E5
:1057A000B0BD00BF181B002018230020CC1A002019
:1057B000BC1A002080B485B000AF78603960002347
:1057C000FB817B681B88FB817B68284A934213D04E
:1057D0007B68274A93420FD07B68B3F1804F0BD090
:1057E0007B68244A934207D07B68234A934203D0C4
:1057F0007B68224A934208D1FB8923F07003FB8126
:105800003B685A88FB891343FB817B681C4A93429F
:105810000CD07B681B4A934208D0FB8923F4407369
:10582000FB813B681A89FB891343FB817B68FA89FA
:105830001A803B685A687B68DA623B681A887B6822
:105840001A857B68094A934203D07B68084A9342D1
:1058500004D13B689B7A9AB27B681A867B680122E6
:105860009A8200BF1437BD4680BC704700000140DB
:10587000000401400004004000080040000C00400B
:10588000001000400014004080B483B000AF786086
:105890000B46FB70FB78002B08D07B681B889BB203
:1058A00043F001039AB27B681A8007E07B681B888B
:1058B0009BB223F001039AB27B681A8000BF0C37B9
:1058C000BD4680BC704700BF80B483B000AF786035
:1058D0000B467B8013467B707B78002B08D07B685F
:1058E0009B899AB27B8813439AB27B689A8109E0BC
:1058F0007B689B899AB27B88DB439BB213409AB248
:105900007B689A8100BF0C37BD4680BC704700BFE2
:1059100080B483B000AF78600B467B807B88DB432C
:105920009AB27B681A8200BF0C37BD4680BC7047B4
:1059300080B584B000AF06237B8106233B81002322
:10594000FB810023FB800023BB804FF6FF73BB81EC
:105950009D4B1B887B819D4B1B883B817B894EF631
:10596000EE6293423CD04FF6FF72934203D0002B7D
:1059700000F0AB8012E13B89002B0BD102213020DB
:10598000FEF726FD03467B807B88082B00F00F8105
:105990007B8814E13B894EF6EE62934216D10221D8
:1059A0003020FEF715FD03467B807B88082B01D055
:1059B0007B8804E100218548FEF76AFD03467B8071
:1059C0007B88082B00F0F3807B88F8E000F074F906
:1059D00003467B807B88082B00F0E9807B88EEE023
:1059E0003B89002B4DD10023FB8130E0784B1B8895
:1059F0009AB2FB89774931F813309A4201D1FB8979
:105A0000BB81FA89B7F90C309A421DD0FB89714AE3
:105A100032F813307049184600F0E2F80346BB80B4
:105A2000BB88012B10D0FB896A4A32F813206A4BDD
:105A30001B881946104600F0ABF90346FB80FB8833
:105A4000082B01D0FB88BAE0FB890133FB81FB897D
:105A5000022BCBD900215C48FEF71AFD03467B8060
:105A60007B88082B01D07B88A9E002213820FEF733
:105A7000AFFC03467B807B88082B00F09A807B88F4
:105A80009DE03B894FF6FF72934215D102213820E9
:105A9000FEF79EFC03467B807B88082B01D07B8829
:105AA0008DE000214848FEF7F3FC03467B807B88AD
:105AB000082B7ED07B8882E000F0FEF803467B80D6
:105AC0007B88082B75D07B8879E03B89002B08D137
:105AD00000F0F2F803467B807B88082B6BD07B8834
