:020000040800F2
:10000000380E00200D08000869080008331D00089C
:100010006908000869080008690800080000000075
:100020000000000000000000000000006908000857
:100030006908000800000000690800086908000855
:1000400069080008690800086908000869080008CC
:1000500069080008690800086908000869080008BC
:1000600069080008690800086908000869080008AC
:10007000690800086908000869080008690800089C
:1000800001070008690800086908000869080008F5
:10009000690800086908000869080008690800087C
:1000A000690800086908000869080008690800086C
:1000B000690800086908000869080008690800085C
:1000C000690800086908000869080008690800084C
:1000D000690800086908000869080008690800083C
:1000E000690800086908000869080008690800082C
:1000F000690800086908000869080008690800081C
:10010000690800086908000869080008690800080B
:10011000690800086908000869080008C923000880
:1001200069080008690800086908000869080008EB
:1001300069080008690800086908000869080008DB
:1001400069080008690800086908000869080008CB
:1001500069080008690800086908000869080008BB
:1001600069080008690800086908000869080008AB
:10017000690800086908000869080008690800089B
:10018000690800086908000880B582B000AF3B46E6
:10019000184601F01BFD01210F2001F049FA102340
:1001A0003B6001233B710023BB710223FB710223DF
:1001B0007B713B461946474801F07AFC4FF41073B7
:1001C0003B6002233B710123BB710023FB710223BF
:1001D0007B713B461946404801F06AFC0422062127
:1001E0003D4801F055FD042209213B4801F050FD36
:1001F00001214FF4021001F039FA012001F05EF9FB
:100200004FF4A4533B600023BB713B46194633486F
:1002100001F04EFC10233B603B461946304801F08C
:1002200047FC062204212E4801F032FD0622072158
:100230002A4801F02DFD06220A21284801F028FD58
:1002400006220C21254801F023FD1021214801F050
:10025000FFFC244802F0ACF9234B4BF680329A6045
:10026000214B4FF40072DA801F4B4FF400721A805A
:100270001D4B00229A801C4B00225A801A4B0022F0
:100280009A811949174802F0CDF9184802F018FB75
:10029000174B42F210721A60154B00229A80144BD1
:1002A00033221A81124B4FF480625A81104B4FF463
:1002B00080429A810E4B4BF6FF72DA8001210B4887
:1002C00002F0FAFB0A49094802F034FB00BF083784
:1002D000BD4680BD000C0240000402400008024000
:1002E00000000240003C0040D404002000540040C4
:1002F0002405002080B584B000AF78600B46FB7009
:100300000121214802F0F8FB00BF20491E4802F0FD
:10031000BFFC0346002BF8D0002294211A4802F0BB
:100320002BFC00BF1A49184802F082FC0346002B40
:10033000F8D00023FB6012E0FB687A6813441B7856
:100340001946114802F056FC00BF12490E4802F04F
:100350006FFC0346002BF8D0FB680133FB60FA7892
:10036000FB689A42E8DC00BF0B49074802F090FCAA
:100370000346002BF8D00121034802F0DDFB00BF4B
:100380001037BD4680BD00BF005400400100001082
:1003900082000700800007000400001080B582B0D2
:1003A00000AF1021534801F045FC00237B6002E0C0
:1003B0007B6801337B607B684F4A9342F8DD022300
:1003C0003B7001237B703B4602211846FFF792FFEA
:1003D00000233B7099237B703B4602211846FFF7B0
:1003E00089FF47233B7080237B703B4602211846E0
:1003F000FFF780FF322000F081F80346FB703223C4
:100400003B70FB7863F07F03DBB27B703B460221DD
:100410001846FFF76FFF322000F070F80346FB70BC
:1004200032233B70FB7803F07F03DBB27B703B46EB
:1004300002211846FFF75EFF00233B7000237B700C
:100440003B4602211846FFF755FF04233B70AA23C1
:100450007B703B4602211846FFF74CFF0D233B7093
:1004600070237B703B4602211846FFF743FF0523AC
:100470003B7080237B703B4602211846FFF73AFF12
:1004800006233B7007237B703B4602211846FFF78B
:1004900031FF0A233B7000237B703B460221184644
:1004A000FFF728FF1A233B7050237B703B46022145
:1004B0001846FFF71FFF1B233B7050237B703B4602
:1004C00002211846FFF716FF1F233B7088237B701D
:1004D0003B4602211846FFF70DFF02233B709E2387
:1004E0007B703B4602211846FFF704FF00BF083728
:1004F000BD4680BD000C02403F420F0080B584B075
:1005000000AF0346FB7100BF4FF40031354802F0E5
:10051000BFFB0346002BF7D10121324802F0ECFA71
:1005200000BF31492F4802F0B3FB0346002BF8D03F
:10053000002294212B4802F01FFB00BF2B492948C1
:1005400002F076FB0346002BF8D0FB7919462548CC
:1005500002F050FB00BF2649224802F069FB034627
:10056000002BF8D001211F4802F0E6FA00BF4FF43B
:1005700000311C4802F08CFB0346002BF7D1002110
:10058000184802F017FB0121164802F0B5FA00BF27
:100590001549144802F07CFB0346002BF8D00122D9
:1005A0009421104802F0E8FA00BF12490D4802F009
:1005B0003FFB0346002BF8D000BF0F49094802F06B
:1005C00037FB0346002BF8D0064802F023FB034616
:1005D000FB730121034802F0AFFAFB7B184610378A
:1005E000BD4680BD0054004001000010820007009D
:1005F00080000700020003004000030080B592B0B5
:1006000000AF01214FF4001001F012F8102387F819
:100610004030002387F84130012387F8423001231E
:1006200087F8433007F14003184602F063FB0021CE
:100630002E4801F059FD2D4801F02EFC00237B606F
:100640002B4BBB602B4BFB6040237B614FF4403353
:10065000FB6240233B610023BB614FF48063FB617D
:100660004FF400633B624FF400537B624FF480739E
:10067000BB6200233B6303237B630023BB63002334
:10068000FB633B1D1946194801F0D8FC194B0022A9
:100690001946164801F044FD0121144801F05EFDA1
:1006A00001221821114801F075FD01210F4801F0C8
:1006B0001BFD01227121104802F0D2F80122022113
:1006C0000D4802F0A9F800237B6402E07B6C013343
:1006D0007B647B6C094A9342F8DD0121064802F0F5
:1006E0007BF800BF4837BD4680BD00BF8860024030
:1006F0000C3C00403C050020003C00409F8601006F
:1007000080B584B000AF3849384801F07DFD03461C
:10071000002B24D00023FB600023BB6018E0344A88
:10072000FB6832F8133019B2324ABB6822F8131052
:10073000BB6801333049FA6831F8122011B22D4AF2
:1007400022F81310BB680233BB60FB680133FB6007
:10075000BB681F2BE3DD2449244801F0ABFD27498A
:10076000224801F051FD0346002B38D0244B1B6872
:100770000133234A1360224B1B680A2B07DD204BF1
:1007800000221A604FF480511E4801F06FFA1023C6
:100790007B6020233B6018E0154A7B6832F81330F9
:1007A00019B2144A3B6822F813103B68013312490E
:1007B0007A6831F8122011B20E4A22F813103B6801
:1007C00002333B607B6801337B603B683F2BE3DD9A
:1007D0000A49064801F06EFD0B4B01221A7000BF5A
:1007E0001037BD4680BD00BF004400208860024035
:1007F000E40400203C0500206C0400200088002058
:1008000040040020000C0240D104002080B582B0DA
:1008100000AF104B7B60104B3B6007E03B681A1D3C
:100820003A607A68111D796012681A603B680B4A59
:100830009342F3D30A480B494FF000028842B8BFF5
:1008400040F8042BFADB00F013F800BF0837BD4670
:1008500080BD00BFF83C02080000002040040020DA
:10086000400400203806002080B400AFFEE700BF3F
:10087000B0B58CB004AF01F067FA00F047FD02F0AC
:1008800099FAFFF781FCFFF789FDFFF7B7FE01F04A
:100890003FFD4FF00063BB6100F0B8FD02F05AFB72
:1008A000C54B1B78DBB2002B00F0A681C34D384648
:1008B000C24B1A68002414461A79597909020A436E
:1008C0009B791B041A43002362F3170321461A463F
:1008D00002F088FB2A463B461968116099889B798B
:1008E00091809371B64B9B899BB21A46B44B5B893E
:1008F0009BB2DB089BB2A3F580731344002B03DA91
:10090000AF4B4FF400625A81AD4B9B899BB21A46A4
:10091000AB4B5B899BB2DB089BB2A3F5807313449E
:10092000B3F5805F03DBA64B4FF400625A81A34B03
:100930005B7883F00103DBB21A46A04B9B7813402F
:10094000002B51D09E4B9B899BB2184603F064FE4E
:100950008FA3D3E9002303F0C5FE03460C461A46D5
:1009600023464FF000004FF0804102F04BFC8AA379
:10097000D3E9002303F0B6FE03460C461846214691
:100980004FF000028F4B03F0ADFE03460C461846B5
:1009900021464FF000028C4B03F0A4FE03460C46A8
:1009A0001846214604F04EF90246884B5A60844BA3
:1009B0009B899BB2184603F02FFE79A3D3E900234D
:1009C00003F0BAFF03460C46184621464FF00002DA
:1009D0007D4B03F087FE03460C461846214604F083
:1009E00031F90246794B9A60744B9B7883F001038E
:1009F000DBB2002B63D0724B9B899BB21A46704BC3
:100A00005B899BB2DB089BB2A3F580731344184645
:100A100003F002FE5EA3D3E9002303F063FE034666
:100A20000C461A4623464FF000004FF0804102F07A
:100A3000E9FB59A3D3E9002303F054FE03460C4617
:100A4000184621464FF000025E4B03F04BFE034672
:100A50000C46184621464FF000025B4B03F042FE65
:100A600003460C461846214604F0ECF80246574B64
:100A70005A60534B9B899BB21A46514B5B899BB280
:100A8000DB089BB2A3F580731344184603F0C4FD42
:100A900043A3D3E9002303F04FFF03460C46184657
:100AA00021464FF00002484B03F01CFE03460C4663
:100AB0001846214604F0C6F80246444B9A603F4B64
:100AC0005B7983F00103DBB2002B1CD03C4BDB884D
:100AD0009BB2184603F0A0FD33A3D3E9002303F033
:100AE0002BFF03460C46184621464FF00002364BBA
:100AF00003F0F8FD03460C461846214604F0A2F820
:100B00000246324B9A612D4B1B7883F00103DBB216
:100B1000002B1CD02A4B9B889BB2184603F07CFD0F
:100B200023A3D3E9002303F007FF03460C4618462E
:100B300021464FF00002244B03F0D4FD03460C463F
:100B40001846214604F07EF80246204B1A611B4BE2
:100B50001B7983F00103DBB2002B62D01B4BDB68F7
:100B60007B61174B1B889BB29B089BB2184603F016
:100B700053FD4FF00002144B03F0B4FD03460C4646
:100B80001846214604F05EF8024621E0AFF30080EB
:100B9000B76B3B0E4001643FB89DAB664C53C63FFC
:100BA00000000000009879400000000000FEAF4007
:100BB0000000000000549540EA05002034050020A4
:100BC00028060020000010400000F040BC05002076
:100BD000084BDA60074BDA687B699A4221D0054BF3
:100BE0001A68044BD9687B69CB1A1344014A136015
:100BF00017E000BFBC050020C54B01229A71C44B11
:100C00000122DA70C24B01225A70C14B01229A7044
:100C1000BF4B01225A71BE4B01221A70BC4B0122FC
:100C20001A71BC4B1B78DBB2002B00F0A581BA4DCA
:100C30003846B94B1A68002414461A7959790902C2
:100C40000A439B791B041A43002362F317032146CE
:100C50001A4602F0C7F92A463B461968116099887E
:100C60009B7991809371AD4B9B899BB21A46AB4B9C
:100C70005B899BB2DB089BB2A3F580731344002B06
:100C800003DAA64B4FF400625A81A44B9B899BB2B6
:100C90001A46A24B5B899BB2DB089BB2A3F580731B
:100CA0001344B3F5805F03DB9C4B4FF400625A8121
:100CB000994B5B7883F00103DBB21A46964B9B7825
:100CC0001340002B51D0954B9B899BB2184603F0E3
:100CD000A3FC85A3D3E9002303F004FD03460C46DF
:100CE0001A4623464FF000004FF0804102F08AFA86
:100CF0007FA3D3E9002303F0F5FC03460C46184616
:100D000021464FF00002864B03F0ECFC03460C46F4
:100D1000184621464FF00002824B03F0E3FC0346E5
:100D20000C461846214603F08DFF02467E4B5A6062
:100D30007A4B9B899BB2184603F06EFC6EA3D3E9F5
:100D4000002303F0F9FD03460C46184621464FF0F8
:100D50000002744B03F0C6FC03460C4618462146BD
:100D600003F070FF0246704B9A606B4B9B7883F0E8
:100D70000103DBB2002B63D0684B9B899BB21A4600
:100D8000664B5B899BB2DB089BB2A3F5807313446F
:100D9000184603F041FC54A3D3E9002303F0A2FC5E
:100DA00003460C461A4623464FF000004FF08041A0
:100DB00002F028FA4EA3D3E9002303F093FC034684
:100DC0000C46184621464FF00002554B03F08AFCB2
:100DD00003460C46184621464FF00002514B03F0E3
:100DE00081FC03460C461846214603F02BFF0246C1
:100DF0004D4B5A60494B9B899BB21A46474B5B89C6
:100E00009BB2DB089BB2A3F580731344184603F032
:100E100003FC39A3D3E9002303F08EFD03460C46FF
:100E2000184621464FF000023E4B03F05BFC0346A0
:100E30000C461846214603F005FF02463A4B9A60DD
:100E4000354B5B7983F00103DBB2002B1CD0334BB5
:100E5000DB889BB2184603F0DFFB29A3D3E900230C
:100E600003F06AFD03460C46184621464FF0000287
:100E70002C4B03F037FC03460C461846214603F082
:100E8000E1FE0246284B9A61234B1B7883F0010355
:100E9000DBB2002B1CD0214B9B889BB2184603F081
:100EA000BBFB19A3D3E9002303F046FD03460C4620
:100EB000184621464FF000021A4B03F013FC03467C
:100EC0000C461846214603F0BDFE0246164B1A6139
:100ED000114B1B7983F00103DBB2002B61D0124B65
:100EE000DB6823E0AFF30080B76B3B0E4001643F4B
:100EF000B89DAB664C53C63F000000000098794097
:100F00000000000000FEAF400000000000549540CB
:100F100034050020D8050020AC040020280600205D
:100F2000000010400000F040B40400203B61544B2E
:100F30001B889BB29B089BB2184603F06DFB4FF0D9
:100F40000002504B03F0CEFB03460C4618462146E8
:100F500003F078FE02464C4BDA604B4BDA683B6993
:100F60009A421ED0484B1A68474BD9683B69CB1A46
:100F70001344454A136014E0444B01229A71434BD9
:100F80000122DA70414B01225A70404B01229A70C3
:100F90003E4B01225A713D4B01221A703B4B0122FC
:100FA0001A713B4B1B78DBB2002B3FF475AC00236E
:100FB000FB615DE0374B1B68002B05DA354B1A6887
:100FC000BB691344334A13602F4B1B68002B05DAAF
:100FD0002D4B1A68BB6913442B4A13602D4B1A68BA
:100FE000BB699A4205DB2B4B1A68BB69D31A294AA5
:100FF0001360254B1A68BB699A4205DB224B1A68BD
:10100000BB69D31A204A1360224B6C4603F11002CD
:1010100007CA84E807000FCB00F0B6F8F8601A4B57
:101020006C4603F1100207CA84E807000FCB00F0FA
:10103000ABF8B860174B9B691A46B968F86800F0BE
:1010400049F903461946144AFB6922F81310114B5B
:101050001A68104B5B6813440E4A13600A4B1A68F7
:10106000094B5B681344084A1360FB690133FB6159
:10107000FB691F2B9EDD064B00221A700CE400BF9B
:10108000280600200000F040B4040020AC0400203A
:10109000D1040020BC0500206C04002080B489B07D
:1010A00000AFF860B9601346FB80FB681B0CBB61A6
:1010B000FB689BB27B61BB695B00BA681344B3F900
:1010C00000301B043B61BB695A1CFB889A4209DA59
:1010D000BB6901335B00BA681344B3F900301B04E9
:1010E000FB6103E0BB68B3F90030FB61FA693B695F
:1010F000D31A1B127A69121202FB03F23B691344E2
:101100001B149BB218462437BD4680BC704700BFF5
:1011100080B588B000AFF860B9607A607B80BB684A
:101120001B0CFB61BB689BB2BB61FB691B037A684C
:1011300013444FF400621946F868FFF7AFFF034607
:101140001B047B61FB6901331B037A6813444FF472
:1011500000621946F868FFF7A1FF03461B043B61D4
:101160007B691B12BA69C2F58032121202FB03F2CC
:101170003B691B12B969091201FB03F313441846BA
:101180002037BD4680BD00BF84B080B584B000AFBD
:1011900007F1180E8EE80F00BB6A1B0CFB60BB6AE0
:1011A0009BB2BB603B6A1B14072B09DDBB694FF484
:1011B000006244491846FFF771FF03461B0479E0BB
:1011C000FB68032B75D801A252F823F0DD1100084B
:1011D0002112000861120008A1120008BB694FF437
:1011E000006238491846FFF759FF03461B047B602D
:1011F000B869396A4FF40063334AFFF789FF3860F2
:101200007B681B12BA68C2F58032121202FB03F22D
:101210003B681B12B968091201FB03F3134449E050
:10122000B869396A4FF40063274AFFF771FF7860A5
:10123000B869396A4FF40063244AFFF769FF3860E0
:101240007B681B12BA68C2F58032121202FB03F2ED
:101250003B681B12B968091201FB03F3134429E030
:10126000B869396A4FF40063184AFFF751FF786094
:10127000B869396A4FF40063154AFFF749FF3860CF
:101280007B681B12BA68C2F58032121202FB03F2AD
:101290003B681B12B968091201FB03F3134409E010
:1012A000B869396A4FF40063094AFFF731FF034612
:1012B00000E0002318461037BD46BDE8804004B06A
:1012C000704700BFE02C0208E0EC0008E08C010849
:1012D000E04C000880B485B000AFF860B9607A6077
:1012E000FB681B127A68C2F58032121202FB03F20D
:1012F000BB681B127968091201FB03F313441B142A
:101300001BB218461437BD4680BC704780B582B00A
:1013100000AF0121022000F08BF901233B71102363
:101320003B6002237B710023BB710023FB713B46B2
:101330001946324800F0BCFB1021304800F07AFC1E
:101340000121042000F074F901233B714FF4005394
:101350003B6002237B710023BB710023FB713B4682
:101360001946274800F0A4FB4FF40051244800F030
:1013700061FC0121082000F05BF901233B7143F27D
:10138000AA033B6002237B710023BB710023FB7126
:101390003B4619461B4800F08BFB0821194800F01A
:1013A00049FC0221174800F045FC2021154800F0B7
:1013B00041FC8021134800F03DFC0121102000F089
:1013C00037F901233B714FF405633B6002237B71C6
:1013D0000023BB710023FB713B4619460A4800F00D
:1013E00067FB1021084800F025FC4021064800F06A
:1013F00021FC00BF0837BD4680BD00BF000402408D
:1014000000080240000C02400010024080B500AF0E
:10141000234B1B78DBB2002B04D08021214800F045
:1014200017FC03E080211F4800F004FC1E4B1B78D2
:10143000DBB2002B04D010211C4800F009FC03E0B3
:1014400010211A4800F0F6FB194B1B78DBB2002B79
:1014500004D00821134800F0FBFB03E008211148E9
:1014600000F0E8FB134B1B78DBB2002B04D0022109
:101470000C4800F0EDFB03E002210A4800F0DAFB23
:101480000D4B1B78DBB2002B04D02021054800F067
:10149000DFFB03E02021034800F0CCFB00BF80BD50
:1014A0000A060020000C0240FB0500200004024058
:1014B000EA050020D8050020FA05002080B483B09A
:1014C00000AF0346FB71044AFB79136000BF0C3781
:1014D000BD4680BC704700BF6800474280B489B0F9
:1014E00000AF78600023BB6100237B610023FB61B8
:1014F00002233B610023FB600223BB60484B9B68D7
:1015000003F00C03BB61BB69042B07D0082B09D087
:10151000002B3FD17B68434A1A603FE07B68424A18
:101520001A603BE03E4B5B6803F480039B0DFB605D
:101530003B4B5B6803F03F03BB60FB68002B0DD0A7
:10154000394ABB68B2FBF3F2354B596847F6C073B2
:101550000B409B0903FB02F3FB610CE0314ABB68C3
:10156000B2FBF3F22E4B596847F6C0730B409B0950
:1015700003FB02F3FB612A4B5B6803F440331B0C53
:1015800001335B003B61FA693B69B2FBF3F27B68B4
:101590001A6003E07B68234A1A6000BF204B9B68F7
:1015A00003F0F003BB61BB691B09BB611F4ABB6948
:1015B00013441B78DBB27B617B681A687B69DA4075
:1015C0007B685A60164B9B6803F4E053BB61BB69B0
:1015D0009B0ABB61154ABB6913441B78DBB27B6174
:1015E0007B685A687B69DA407B689A600C4B9B6821
:1015F00003F46043BB61BB695B0BBB610B4ABB6916
:1016000013441B78DBB27B617B685A687B69DA40E4
:101610007B68DA6000BF2437BD4680BC704700BFDE
:10162000003802400024F40000127A00000000207C
:1016300080B483B000AF78600B46FB70FB78002B62
:1016400006D00949084B1A6B7B6813430B6306E00D
:101650000549054B1A6B7B68DB4313400B6300BFE6
:101660000C37BD4680BC70470038024080B483B060
:1016700000AF78600B46FB70FB78002B06D0094961
:10168000084B1A6C7B6813430B6406E00549054B55
:101690001A6C7B68DB4313400B6400BF0C37BD46FC
:1016A00080BC70470038024080B483B000AF7860DF
:1016B0000B46FB70FB78002B06D00949084B5A6C8F
:1016C0007B6813434B6406E00549054B5A6C7B6805
:1016D000DB4313404B6400BF0C37BD4680BC7047F2
:1016E0000038024080B483B000AF78600B46FB70D6
:1016F000FB78002B06D00949084B1A6A7B68134314
:101700000B6206E00549054B1A6A7B68DB43134010
:101710000B6200BF0C37BD4680BC704700380240EA
:1017200080B483B000AF78600B46FB70FB78002B71
:1017300006D00949084B5A6A7B6813434B6206E09E
:101740000549054B5A6A7B68DB4313404B6200BF77
:101750000C37BD4680BC70470038024080B485B06D
:1017600000AF786039600023FB600023FB727B6868
:101770005B68FB60FB6823F0407323F48073FB60BD
:101780003B681B791A023B681B681343FA681343D2
:10179000FB607B68FA685A607B689B68FB60FA684C
:1017A000174B1340FB603B681A693B68DB681A43C0
:1017B0003B689B681A433B685B795B001343FA689C
:1017C0001343FB607B68FA689A607B68DB6AFB60A6
:1017D000FB6823F47003FB603B681B7D013BDAB2BE
:1017E000FB7A1343FB72FB7A1B05FA681343FB6019
:1017F0007B68FA68DA6200BF1437BD4680BC704768
:10180000FDF7FFC080B485B000AF78600023FB60B7
:101810000E4B5B68FB60FA680D4B1340FB607B6806
:101820001A687B685B681A437B689B681A437B680D
:10183000DB681343FA681343FB60044AFB68536098
:1018400000BF1437BD4680BC704700BF0023014075
:10185000E030FCFF80B483B000AF78600B46FB70D3
:10186000FB78002B06D07B689B6843F001027B6805
:101870009A6005E07B689B6823F001027B689A60B0
:1018800000BF0C37BD4680BC704700BF80B485B038
:1018900000AF7860084611461A460346FB700B46B7
:1018A000BB7013467B700023FB600023BB60FB789A
:1018B000092B23D97B68DB68FB60FB78A3F10A0264
:1018C00013465B001344072202FA03F3BB60BB68B4
:1018D000DB43FA681340FB607978FB78A3F10A02D6
:1018E00013465B00134401FA03F3BB60FA68BB685C
:1018F0001343FB607B68FA68DA601EE07B681B6953
:10190000FB60FA7813465B001344072202FA03F3E4
:10191000BB60BB68DB43FA681340FB607978FA78F8
:1019200013465B00134401FA03F3BB60FA68BB681B
:101930001343FB607B68FA681A61BB78062B21D8D9
:101940007B685B6BFB60BB785A1E13469B0013449D
:101950001F2202FA03F3BB60BB68DB43FA68134043
:10196000FB60F978BB785A1E13469B00134401FABA
:1019700003F3BB60FA68BB681343FB607B68FA68DB
:101980005A6347E0BB780C2B21D87B681B6BFB604C
:10199000BB78DA1F13469B0013441F2202FA03F39D
:1019A000BB60BB68DB43FA681340FB60F978BB7827
:1019B000DA1F13469B00134401FA03F3BB60FA6875
:1019C000BB681343FB607B68FA681A6322E07B689C
:1019D000DB6AFB60BB78A3F10D0213469B00134446
:1019E0001F2202FA03F3BB60BB68DB43FA681340B3
:1019F000FB60F978BB78A3F10D0213469B001344FA
:101A000001FA03F3BB60FA68BB681343FB607B68B1
:101A1000FA68DA6200BF1437BD4680BC704700BF69
:101A200080B483B000AF78607B689B6843F08042ED
:101A30007B689A6000BF0C37BD4680BC704700BF12
:101A400080B483B000AF78600B46FB70FB78002B4E
:101A500006D07B689B6843F480727B689A6005E0DF
:101A60007B689B6823F480727B689A6000BF0C37A8
:101A7000BD4680BC704700BF80B483B000AF7860C3
:101A80000B46FB70FB78002B06D07B689B6843F409
:101A900000727B689A6005E07B689B6823F40072A3
:101AA0007B689A6000BF0C37BD4680BC704700BFA2
:101AB00080B487B000AF7860396000237B61002379
:101AC0003B610023FB6000237B6176E001227B69A0
:101AD00002FA03F33B613B681A683B691340FB6001
:101AE000FA683B699A4265D17B681A687B695B003A
:101AF000032101FA03F3DB431A407B681A607B6819
:101B00001A683B681B7919467B695B0001FA03F38D
:101B10001A437B681A603B681B79012B03D03B6832
:101B20001B79022B2ED17B689A687B695B000321AD
:101B300001FA03F3DB431A407B689A607B689A687A
:101B40003B685B7919467B695B0001FA03F31A4332
:101B50007B689A607B685A687B699BB2012101FAB5
:101B600003F3DB431A407B685A607B685A683B6822
:101B70009B7919467B699BB201FA03F39BB21A4326
:101B80007B685A607B68DA687B699BB25B000321E3
:101B900001FA03F3DB431A407B68DA607B68DA689A
:101BA0003B68DB7919467B695B0001FA03F31A4352
:101BB0007B68DA607B6901337B617B690F2B85D998
:101BC00000BF1C37BD4680BC704700BF80B483B0E7
:101BD00000AF78607B684FF6FF721A607B68002266
:101BE0001A717B6800225A717B6800229A717B68A7
:101BF0000022DA7100BF0C37BD4680BC704700BFC1
:101C000080B485B000AF78600B467B800023FB7307
:101C10007B681A697B881340002B02D00123FB7379
:101C200001E00023FB73FB7B18461437BD4680BCE4
:101C3000704700BF80B483B000AF78600B467B80F4
:101C40007B687A881A8300BF0C37BD4680BC70471A
:101C500080B483B000AF78600B467B807B687A8865
:101C60005A8300BF0C37BD4680BC704780B483B038
:101C700000AF78600B467B807B685A697B885A404E
:101C80007B685A6100BF0C37BD4680BC704700BFFF
:101C900080B485B000AF78600B467B8013467B70C4
:101CA0000023FB600023BB607A787B8803F0070386
:101CB0009B0002FA03F3FB607B88DB089BB21846AB
:101CC0007B88DB089BB21A467B68083253F82220D7
:101CD0007B8803F007039B000F2101FA03F3DB432A
:101CE00002EA03017B6800F1080243F822107B88B6
:101CF000DB089BB21A467B68083253F82220FB6847
:101D00001343BB607B88DB089BB21A467B680832B2
:101D1000B96843F8221000BF1437BD4680BC704735
:101D2000ABBE01E000207047002A00D01060012007
:101D30007047069801884BF6AB62914202D104309D
:101D400006907047FEE7000080B500AF124A124BC4
:101D50001B6843F0010313600F4B00229A600E4A88
:101D60000D4B1B6823F0847323F4803313600A4BFC
:101D70000A4A5A60084A084B1B6823F48023136000
:101D8000054B0022DA6000F00DF8054B4FF00062C1
:101D90009A6000BF80BD00BF0038024010300024B0
:101DA00000ED00E080B483B000AF00237B6000232F
:101DB0003B60354A344B1B6843F480331360324B2D
:101DC0001B6803F400333B607B6801337B603B6836
:101DD000002B03D17B68B3F5A06FF0D12A4B1B68B1
:101DE00003F40033002B02D001233B6001E0002309
:101DF0003B603B68012B42D1234A234B1B6C43F0D1
:101E000080531364214A214B1B6843F480431360C1
:101E10001D4A1D4B9B6893601B4A1B4B9B6843F4F8
:101E200000439360184A184B9B6843F4A053936097
:101E3000154B174A5A60144A134B1B6843F08073C2
:101E4000136000BF104B1B6803F00073002BF9D028
:101E5000104B40F205621A600B4A0B4B9B6823F053
:101E600003039360084A084B9B6843F002039360A6
:101E700000BF054B9B6803F00C03082BF9D100BF92
:101E80000C37BD4680BC70470038024000700040EF
:101E900008544007003C024080B483B000AF786033
:101EA0007B681B6823F001027B681A607B68002254
:101EB0001A607B6800225A607B6800229A607B6807
:101EC0000022DA607B6800221A617B6821225A6155
:101ED0007B68454A934203D1444B3D229A607EE0A1
:101EE0007B68434A934204D1404B4FF474629A603A
:101EF00075E07B683F4A934204D13C4B4FF4741227
:101F00009A606CE07B683C4A934204D1374B4FF0B7
:101F100074629A6063E07B68384A934203D1334B22
:101F2000374ADA605BE07B68364A934203D12F4B35
:101F3000354ADA6053E07B68344A934203D12B4B35
:101F4000334ADA604BE07B68324A934204D1274B34
:101F50004FF03D52DA6042E07B682F4A934203D152
:101F60002E4B3D229A603AE07B682D4A934204D181
:101F70002A4B4FF474629A6031E07B68294A93429D
:101F800004D1264B4FF474129A6028E07B68264AED
:101F9000934204D1214B4FF074629A601FE07B683A
:101FA000224A934203D11D4B154ADA6017E07B6841
:101FB0001F4A934203D1194B134ADA600FE07B6842
:101FC0001C4A934203D1154B114ADA6007E07B6843
:101FD000194A934203D1114B4FF03D52DA6000BFD2
:101FE0000C37BD4680BC7047106002400060024064
:101FF0002860024040600240586002407060024029
:102000003D00002088600240400F0020A060024098
:1020100000003D20B86002401064024000640240AD
:1020200028640240406402405864024070640240E8
:1020300088640240A0640240B864024080B485B065
:1020400000AF786039600023FB607B681B68FB6031
:10205000FA68244B1340FB603B681A683B68DB68F6
:102060001A433B685B691A433B689B691A433B68A8
:10207000DB691A433B681B6A1A433B685B6A1A4375
:102080003B689B6A1A433B685B6B1A433B689B6BDC
:102090001343FA681343FB607B68FA681A607B6835
:1020A0005B69FB60FB6823F00703FB603B68DA6A4F
:1020B0003B681B6B1343FA681343FB607B68FA6849
:1020C0005A613B681A697B685A603B685A687B684A
:1020D0009A603B689A687B68DA6000BF1437BD4637
:1020E00080BC70473F801CF080B483B000AF786044
:1020F0000B46FB70FB78002B06D07B681B6843F017
:1021000001027B681A6005E07B681B6823F001020E
:102110007B681A6000BF0C37BD4680BC704700BFAB
:1021200080B485B000AFF860B9607A607B68002B3E
:1021300006D0FB681B6843F40022FB681A6005E0C8
:10214000FB681B6823F40022FB681A60FB68BA680E
:102150001A6100BF1437BD4680BC704780B483B09D
:1021600000AF78600B46FB70FB78002B06D07B68D5
:102170001B6843F480227B681A6005E07B681B685B
:1021800023F480227B681A6000BF0C37BD4680BCF8
:10219000704700BF80B485B000AFF860B9601346E7
:1021A000FB71BB6803F08003002B0FD0FB79002B81
:1021B00006D0FB685B6943F08002FB685A6105E06A
:1021C000FB685B6923F08002FB685A61BB68802B67
:1021D00014D0FB79002B08D0FB681A68BB6803F0A9
:1021E0001E031A43FB681A6008E0FB681A68BB68A4
:1021F00003F01E03DB431A40FB681A6000BF14376C
:10220000BD4680BC704700BF80B487B000AF786027
:1022100039600023FB750023FB600023BB607B68F3
:10222000214A934202D8214B3B6101E0204B3B61A4
:102230003B6823F0F02323F0C313002B0AD03B6844
:10224000DB0A03F01E03FB607B681A68FB6813401F
:10225000BB6004E07B685B6903F08003BB603B68A4
:1022600003F00053002B03D03B695B68FB6002E086
:102270003B691B68FB60FB6823F0F02323F08213AB
:10228000FB60FA683B681340002B05D0BB68002B4D
:1022900002D00123FB7501E00023FB75FB7D18468E
:1022A0001C37BD4680BC70470F640240006002408E
:1022B0000064024080B485B000AF786039607B680C
:1022C000104A934202D8104BFB6001E00F4BFB60B9
:1022D0003B6803F00053002B07D03B6823F0F0234A
:1022E00023F08213FA68D36006E03B6823F0F02302
:1022F00023F08213FA68936000BF1437BD4680BC98
:10230000704700BF0F64024000600240006402405A
:1023100080B586B000AF01210220FFF789F90121C5
:102320000820FFF785F928233B6100233B75002334
:10233000FB7502237B7507F1100319461F48FFF751
:10234000B7FB45233B6100233B750023FB7502234C
:102350007B7507F1100319461948FFF7A9FB012106
:102360002020FFF783F90023BB810023FB80542347
:10237000BB604FF47A73BB803B1D1946114800F0D7
:1023800083FE012201210F4800F008FF37233B7034
:102390000123FB700F237B700F23BB7001210948C1
:1023A00000F020FF3B46184600F0A4FC0121054840
:1023B00000F0D4FE00BF1837BD4680BD00040240C7
:1023C000000C02400014004080B582B000AF002332
:1023D0007B6008216D48FFF713FC0346002B14BFF8
:1023E00001230023DAB26A4B9A7020216748FFF775
:1023F00007FC0346002B14BF01230023DAB2644B11
:102400009A7201216348FFF7FBFB0346002B14BFC0
:1024100001230023DAB25E4B9A7404215D48FFF772
:10242000EFFB0346002B14BF01230023DAB2584B05
:102430009A7640215748FFF7E3FB0346002B14BF71
:1024400001230023DAB2524B83F8222000237B6061
:1024500049E04F4A7B68DB0013440022DA704C4AA3
:102460007B68DB0013445B68002B0ADD484A7B680D
:10247000DB0013445B685A1E45497B68DB000B4454
:102480005A60434A7B68DB0013445B78002B1CD006
:102490003F4A7B68DB0013449B7883F00103DBB287
:1024A000002B12D03A4A7B68DB0013445B68002B98
:1024B0000BD1374A7B68DB0013440122DA70344ABF
:1024C0007B68DB0013440A225A60314A7B68DB00D8
:1024D000134499782E4A7B68DB0013440A465A70ED
:1024E0007B6801337B607B68042BB2DD284BDB7893
:1024F0001A46294B1B78DBB25340002B14BF012333
:102500000023DAB2244B1A70214BDB7A1A46234B94
:102510001B78DBB25340002B14BF01230023DAB237
:102520001E4B1A701A4BDB7C1A461D4B1B78DBB214
:102530005340002B14BF01230023DAB2184B1A704A
:10254000134BDB7E1A46174B1B78DBB25340002B34
:1025500014BF01230023DAB2124B1A700C4B93F80C
:1025600023301A46104B1B78DBB25340002B14BFAC
:1025700001230023DAB20C4B1A7001210B4800F042
:1025800031FE00BF0837BD4680BD00BF00040240D9
:1025900044040020000C02400A060020FB05002035
:1025A000D8050020EA050020FA05002000140040AC
:1025B00080B582B000AF78607B68174A93420AD139
:1025C00001214FF48050FFF7ABF800214FF4805009
:1025D000FFF7A6F81CE07B68104A93420AD101215C
:1025E0004FF48040FFF77EF800214FF48040FFF762
:1025F00079F80DE07B680A4A934209D101214FF432
:102600000040FFF76FF800214FF40040FFF76AF831
:1026100000BF0837BD4680BD003001400038004093
:10262000003C004080B48BB000AF7860396000237C
:102630007B830223FB840023BB8401237B84002350
:10264000FB6100237B6100233B610023FB600023CF
:10265000BB607B689B8B9BB223F47B6323F00F03EF
:102660009AB27B689A837B6802221A847B689B8B70
:102670007B833B689B68022B04D10023BB8402232D
:10268000FB8472E03B689B88002B02D101237B8492
:1026900001E002237B844D4B9B6803F40003002B75
:1026A00005D04A4A494B9B6823F400039360474B8B
:1026B000D3F8842047F6C07313409B09C3F3080383
:1026C000FB60424BD3F8843003F0E0431B0F03F070
:1026D0000703BB603D4B5B6803F03F033B613C4A33
:1026E0003B69B2FBF3F3FA6802FB03F2BB68B2FB8F
:1026F000F3F37B613B68DB88B3F5007F0FD17B6927
:102700001A0A13469B0013445B001A463B689B68F9
:10271000B2FBF3F39BB205339BB2FB6112E07B8CFF
:102720005B011A467B69B3FBF2F213469B0013442C
:102730005B001A463B689B68B2FBF3F39BB2053320
:102740009BB2FB61FB69234AA2FB0323DB08FB610D
:10275000FB699BB203F00103BB84BB8CFA69D31AFB
:102760005B08FB84BB8C1B02BB84FB8C012B02D956
:10277000FB8CFF2B03D90223FB840023BB843B6823
:10278000DA88BB8C13439AB2FB8C13439AB27B68F2
:102790001A843B681A883B6859883B6898883B686C
:1027A0009B8903439BB20B439BB213439AB27B8B2F
:1027B00013439BB243F400637B837B687A8B9A83D9
:1027C00000BF2C37BD4680BC704700BF00380240B8
:1027D00000127A00CDCCCCCC80B483B000AF78604E
:1027E0000B46FB70FB78002B08D07B689B8B9BB261
:1027F00043F480639AB27B689A8307E07B689B8B83
:102800009BB223F480639AB27B689A8300BF0C3733
:10281000BD4680BC704700BF80B483B000AF786015
:102820000B467B8013467B707B78002B08D07B683F
:102830009B889AB27B8813439AB27B689A8009E09E
:102840007B689B889AB27B88DB439BB213409AB229
:102850007B689A8000BF0C37BD4680BC704700BFC4
:1028600080B485B000AF78600B46FB701346BB7038
:102870000023FB810023BB81FB781B09DBB2FB81BA
:10288000FB89012202FA03F3BB81BB78002B08D03D
:102890007B689B889AB2BB8913439AB27B689A8003
:1028A00009E07B689B889AB2BB89DB439BB21340EB
:1028B0009AB27B689A8000BF1437BD4680BC7047CF
:1028C00080B582B000AF78607B68174A93420AD126
:1028D00001214FF40010FEF705FF00214FF4001016
:1028E000FEF700FF1CE07B68104A93420AD10121E9
:1028F0004FF48000FEF7F6FE00214FF48000FEF753
:10290000F1FE0DE07B680A4A934209D101214FF4A0
:102910000000FEF7E7FE00214FF40000FEF7E2FEA4
:1029200000BF0837BD4680BD00540040005800403D
:10293000005C004080B58AB000AF78603960002349
:10294000FB8400237B840423BB84574BFB617B689F
:102950009B88FB84FB8C23F03F03FB8407F10C0373
:102960001846FEF7BBFD7B69FB61FB694F4AA2FB82
:1029700003239B0C7B84FA8C7B8C1343FB847B6846
:10298000FA8C9A807B681B889BB223F001039AB271
:102990007B681A800023FB843B681B68444A93428F
:1029A00015D83B681B685B00FA69B2FBF3F3BB8484
:1029B000BB8C032B01D80423BB84FA8CBB8C134340
:1029C000FB847B8C01339AB27B681A8440E03B68BD
:1029D000DB884BF6FF72934209D13B681A681346B5
:1029E0005B001344FA69B2FBF3F3BB840EE03B686F
:1029F0001A6813469B0013449A001344FA69B2FB09
:102A0000F3F3BB84BB8C43F48043BB84BB8CC3F324
:102A10000B03002B03D1BB8C43F00103BB84BA8CA6
:102A2000FB8C13439BB26FEA43436FEA5343FB842F
:102A30007B8C4FF4967202FB03F31E4A82FB031257
:102A40009211DB17D31A9BB201339AB27B681A84B6
:102A50007B68FA8C9A837B681B889BB243F00103E6
:102A60009AB27B681A807B681B88FB84FB8C23F4FA
:102A7000816323F00203FB843B689A883B685B898F
:102A800013439AB2FB8C1343FB847B68FA8C1A8045
:102A90003B689A893B681B8913439AB27B681A8109
:102AA00000BF2837BD4680BD00127A0083DE1B437D
:102AB000A0860100D34D621080B483B000AF78606F
:102AC0000B46FB70FB78002B08D07B681B889BB201
:102AD00043F001039AB27B681A8007E07B681B8889
:102AE0009BB223F001039AB27B681A8000BF0C37B7
:102AF000BD4680BC704700BF80B483B000AF786033
:102B00000B46FB70FB78002B08D07B681B889BB2C0
:102B100043F480739AB27B681A8007E07B681B8855
:102B20009BB223F480739AB27B681A8000BF0C3783
:102B3000BD4680BC704700BF80B483B000AF7860F2
:102B40000B46FB70FB78002B08D07B681B889BB280
:102B500043F400739AB27B681A8007E07B681B8895
:102B60009BB223F400739AB27B681A8000BF0C37C3
:102B7000BD4680BC704700BF80B483B000AF7860B2
:102B80000B46FB701346BB70BB78002B04D0FB7860
:102B900043F00103FB7003E0FB7823F00103FB70BB
:102BA000FB789AB27B681A8200BF0C37BD4680BCA6
:102BB000704700BF80B483B000AF78600B46FB70F5
:102BC000FB78002B08D07B681B889BB243F48063A2
:102BD0009AB27B681A8007E07B681B889BB223F45B
:102BE00080639AB27B681A8000BF0C37BD4680BCF8
:102BF000704700BF80B483B000AF78600B46FB70B5
:102C0000FB789AB27B681A8200BF0C37BD4680BC45
:102C1000704700BF80B483B000AF78607B681B8AC8
:102C20009BB2DBB218460C37BD4680BC704700BF74
:102C300080B487B000AF7860396000233B61002327
:102C4000FB600023BB600023FB757B689B8A9BB203
:102C5000FB607B681B8B9BB2BB60BB681B04BB60CB
:102C6000FA68BB68134323F07F433B613A693B68D2
:102C70001A403B689A4202D10123FB7501E0002310
:102C8000FB75FB7D18461C37BD4680BC704700BFF6
:102C900080B487B000AF786039600023FB750023F3
:102CA0003B610023FB607B68FB603B681B0F3B6163
:102CB0003B6823F07F433B603B69002B03D0FB68FC
:102CC0001433FB6005E03B681B0C3B60FB6818336A
:102CD000FB60FB681A683B681340002B02D001239D
:102CE000FB7501E00023FB75FB7D18461C37BD46D4
:102CF00080BC704780B485B000AF78600023FB7360
:102D00000023BB730F237B737B68DB78002B38D0E9
:102D1000264BDB68DB4303F4E0631B0AFB73FB7B9E
:102D2000C3F10403BB737A7BFB7B42FA03F37B732F
:102D30007B685B781A46BB7B02FA03F3FB737B6804
:102D40009A787B7B1340DAB2FB7B1343FB73FB7BEC
:102D50001B01FB73164A7B681B781344FA7B83F8CC
:102D60000023134A7B681B785B09DBB218467B683B
:102D70001B7803F01F03012101FA03F342F820300E
:102D80000FE00B497B681B785B09DBB218467B6858
:102D90001B7803F01F0301229A4000F1200341F841
:102DA000232000BF1437BD4680BC704700ED00E013
:102DB00000E100E080B59CB000AF01214FF48070CD
:102DC000FEF772FC01215B48FEF732FC07F1680355
:102DD0001846FEF7FBFE0E23BB66032387F86C3014
:102DE000022387F86D30002387F86F3007F16803FE
:102DF00019465148FEF75CFE0323BB6607F16803E2
:102E000019464E48FEF754FE0623BB6607F16803D9
:102E100019464B48FEF74CFE4A48FFF73DF80023A1
:102E20007B60494BBB60494BFB6000233B61072340
:102E30007B610023BB614FF48063FB614FF400634F
:102E40003B624FF400537B624FF48073BB620023FC
:102E5000FB6200233B6301237B630023BB630023EE
:102E6000FB633B1D19463748FFF7E8F80121354859
:102E7000FFF73AF900233B6400237B640023BB6423
:102E80000023FB6407F140031846FEF7BBFC002358
:102E90003B65012387F85430012387F85530002320
:102EA000FB654FF400633B66072387F8643007F146
:102EB000500319462648FEF751FC07230122012141
:102EC0002348FEF7E3FC0723022202212048FEF7F5
:102ED000DDFC0723032203211D48FEF7D7FC07234F
:102EE000042208211A48FEF7D1FC072305220921F4
:102EF0001748FEF7CBFC072306220B211448FEF7E8
:102F0000C5FC072307220C211148FEF7BFFC012155
:102F10000F48FEF7B1FD01210D48FEF791FD01219B
:102F20000B48FEF797FC0A48FEF77AFD00BF7037A2
:102F3000BD4680BD07004000000002400004024082
:102F400000080240106402404C200140DC050020D3
:102F500000200140B0B582B000AF00237B6034E0B8
:102F60001D4A7B6832F813309BB21B099BB219468D
:102F70001A4A7B6832F813309BB2CB1A184601F01C
:102F80004BFB02460B46144623F0004520462946DB
:102F900001F080FE034699B2114A7B6822F81310B3
:102FA0000F4A7B6832F813309BB2202B0AD90A4AA9
:102FB0007B6832F813309BB21B0999B2074A7B68D1
:102FC00022F813107B6801337B607B68062BC7DD1A
:102FD00000BF0837BD46B0BDDC0500202806002034
:102FE000FC05002080B487B000AFF8603B1D83E88B
:102FF000060000237B6134E0224A7B6932F81330FB
:103000009BB2202B2AD97B69062B26D801A252F825
:1030100023F000BF31300008373000083D30000891
:1030200043300008493000084F3000085530000890
:1030300000233B7212E00023BB720FE000233B71C0
:103040000CE000237B7209E00023FB7106E0002303
:10305000BB7103E000237B7100E000BF7B6901339B
:103060007B617B69062BC7DDFB681A463B1D186830
:10307000106099889B7991809371F8681C37BD46E0
:1030800080BC7047FC05002080B485B000AF78603C
:1030900039600023FB817B681B88FB817B68284AA1
:1030A000934213D07B68274A93420FD07B68B3F1D9
:1030B000804F0BD07B68244A934207D07B68234A19
:1030C000934203D07B68224A934208D1FB8923F0C4
:1030D0007003FB813B685A88FB891343FB817B6843
:1030E0001C4A93420CD07B681B4A934208D0FB8950
:1030F00023F44073FB813B681A89FB891343FB81EE
:103100007B68FA891A803B685A687B68DA623B6898
:103110001A887B681A857B68094A934203D07B68CA
:10312000084A934204D13B689B7A9AB27B681A861C
:103130007B6801229A8200BF1437BD4680BC70476D
:10314000000001400004014000040040000800406D
:10315000000C0040001000400014004080B483B018
:1031600000AF78600B46FB70FB78002B08D07B68C3
:103170001B889BB243F001039AB27B681A8007E078
:103180007B681B889BB223F001039AB27B681A808C
:1031900000BF0C37BD4680BC704700BF80B483B011
:1031A00000AF78600B467B8013467B707B78002BEA
:1031B00008D07B689B899AB27B8813439AB27B685C
:1031C0009A8109E07B689B899AB27B88DB439BB23A
:1031D00013409AB27B689A8100BF0C37BD4680BC11
:1031E000704700BF80B483B000AF78600B467B802F
:1031F0007B88DB439AB27B681A8200BF0C37BD46DE
:1032000080BC70472DE9F04FDFF8E4928DB00646A0
:103210000F4614461D4600F06FF999F90080B8F189
:10322000FF3FCDE9000146D022462B4620462946E5
:1032300001F0F2FC834600283DD132463B46304641
:10324000394601F0E9FC002282460023002840F0C4
:1032500084803046394601F0ADFC002830D0002291
:1032600000232046294601F0A5FC8346A8B101228F
:10327000984B029200210022CDF828A0CDE90467E6
:10328000CDE90645CDE908120393B8F1000F53D0FC
:10329000914900200DB0BDE8F08F2046294600F08E
:1032A00049FF40B1002200232046294601F08CFC52
:1032B000002840F0B780DDE900010DB0BDE8F08FD7
:1032C000DDE9000100F036FF804600285DD04FF0B8
:1032D000000A4FF0000B52465B46DDE9000101F0A9
:1032E00069FC0028E7D03046394600F023FF00286B
:1032F000E1D02046294600F01DFF0028DBD099F9D7
:103300000030744A039204210022022BCDE90467A5
:10331000CDE90645CDE908AB02910A9203D002A897
:1033200000F00EFF70B901F0D5FC2223036009E024
:1033300000230024CDE9083402A800F001FF002892
:1033400000F086800A9B1BB101F0C4FC0A9B03605D
:10335000DDE908010DB0BDE8F08F2046294601F0F7
:1033600029FC0028A7D05C495A4BCDF828B001228F
:103370000020B8F1020FCDE90467CDE906450292BD
:103380000393CDE90801D7D197E73046394600F0DD
:10339000D1FE00289BD02046294600F0CBFE002815
:1033A00095D0DDE900231046194601F035FC0028D0
:1033B00073D1032399F900800293464B0A9003933B
:1033C000CDE90467CDE906450022002330463946A1
:1033D000B8F1000F41D1414F4FF06046CDE9086789
:1033E00001F0F2FB00289AD000223D4B20462946EE
:1033F00001F078F904460D4600F0AAFE02460B469D
:103400002046294601F0D6FB002843D1354B99F9D7
:1034100000804FF06042CDE90823B8F1020F7FF43D
:103420007EAF80E799F900302A4ACDF828B0012113
:10343000CDE90467CDE9064502910392002B3FF4E4
:1034400077AF29490020022BCDE908017FF474AF42
:1034500001F040FC2123036074E7244F0026CDE9EE
:10346000086701F0B1FB0028D7D000221C4B204692
:10347000294601F037F904460D4600F069FE024680
:103480000B462046294601F095FB18B9164B002241
:10349000CDE9082399F90080BFE799F900900D4B19
:1034A000CDF828800122CDE90467CDE906450292D6
:1034B0000393B9F1000F3FF43BAF00220023104605
:1034C000194601F039FAB9F1020FCDE90801BFD070
:1034D00032E700BFE03C02080000F03FFFFFEF478B
:1034E0000000E03FFFFFEFC70000F0FF0000F07FAB
:1034F0003C040020000000002DE9F04F23F00048BC
:1035000058EA020993B03CD0714C21F00046A64223
:1035100083460D460CDD06F1404606F5801656EA58
:103520000B0038D16B498346584613B0BDE8F08F85
:103530009A4696462BD0A045EDDC654CA04578D048
:10354000002D0F468146CDE9002376DB0024BEF135
:10355000000F27D15E4B984500F08B805D4B98455E
:1035600052D0BAF1804F00F0C2835B4B9A4519D11B
:10357000002D17DB4846394613B0BDE8F04F00F088
:1035800015BDCB465349584613B0BDE8F08F00280F
:10359000C1D1B045D1DD514813B0BDE8F04F00F0C6
:1035A000D1BD00244846394600F0C0FDBBF1000FF4
:1035B0001CD0ED0F013D54EA050370D0484B9845EF
:1035C00040F3948003F10473984540F30584454B20
:1035D0009E4270DDBAF1000F70DD3BA3D3E90023FA
:1035E0001046194601F07EF883469DE726B1394B17
:1035F00025F040429A42DCD1BAF1000FC0F2B0830C
:10360000002D08DB83468FE7BAF1000FC0F2568425
:10361000CB46394688E706F1404606F5801656EA5D
:10362000040300F07B84012CECD1834601F10041BE
:103630007AE7BEF1000F83D06DE72B4B98452CDC69
:10364000A3F15473984581DD4FEA2853A3F2FF3369
:10365000142B40F34B84C3F134032EFA03F202FA25
:1036600003F39E457FF472AF02F00102C2F102043F
:103670006DE706F1404303F5801353EA0B0300F0B6
:103680003383184B9E4240F36083BAF1000F15DB81
:10369000DDE900349B46214646E7022457E74A46C7
:1036A00048463B46394600F069FE02460B4601F0AB
:1036B00043F9834638E7BAF1000F8EDB4FF0000B79
:1036C000594631E7AFF300809C7500883CE4377EB3
:1036D0000000F07F0000F03F0000E03FE43C020803
:1036E0000000E041FFFFEF3FFFFF3F43B6F5801FC3
:1036F0004FF0000205DAD44B00F0F4FF6FF0340213
:103700000E463315D14FC6F31306A3F2FF3313440D
:1037100046F07F5ABE421A460D934AF4401A40F3CF
:10372000C183CB4B9E4240F3FD83134601330D937F
:10373000C84B0022CDE9062300270026CDE9086703
:10374000CDE90E67AAF5801A002702465346514676
:10375000CDE90A23DDE9062300F010FEDDE90623AA
:1037600080468946DDE90A0100F00AFE02460B4662
:103770000020B84901F0E0F80A460146CDE91012F0
:10378000134649460246404600F0ACFF4FEA6A0342
:1037900043F000538C46834603F50023CDE904BC77
:1037A000DA468B46D9190023CDE902AB0293DDE955
:1037B00002AB002006460F4602460B4650465946CD
:1037C00000F090FF02460B464046494600F0D6FD09
:1037D000DDE90623804689463046394600F0CEFDB5
:1037E00002460B46DDE90A0100F0C8FD52465B4681
:1037F00000F078FF02460B464046494600F0BEFD09
:10380000DDE9102300F06EFFDDE90467CDE9060174
:1038100032463B463046394600F064FF78A3D3E990
:10382000002306460F4600F05DFF77A3D3E900238F
:1038300000F0A6FD32463B4600F054FF74A3D3E9E6
:10384000002300F09DFD32463B4600F04BFF72A383
:10385000D3E9002300F094FD32463B4600F042FFDE
:103860006FA3D3E9002300F08BFD32463B4600F006
:1038700039FF6DA3D3E9002300F082FD3246804674
:1038800089463B463046394600F02CFF02460B463F
:103890004046494600F026FF524606460F465B4624
:1038A000DDE9040100F06CFDDDE9062300F01AFFFC
:1038B00032463B4600F064FD5246804689465B46F0
:1038C0005046594600F00EFF0022634BCDE90A0135
:1038D00000F056FD42464B4600F052FD02980F465E
:1038E000064632463B465046594600F0FBFE002253
:1038F00082468B46584B3046394600F03FFDDDE9A5
:103900000A2300F03BFD02460B464046494600F0C4
:1039100035FDDDE9042300F0E5FE324680468946A8
:103920003B46DDE9060100F0DDFE02460B4640465F
:10393000494600F025FD8046894602460B46504622
:103940005946CDE904AB00F01BFDDDE902AB38A31D
:10395000D3E9002350460F4600F0C4FEDDE90423FE
:10396000CDE902013946504600F008FD02460B46FB
:103970004046494600F002FD2FA3D3E9002300F0A2
:10398000B1FE2FA3D3E9002380468946504639462D
:1039900000F0A8FE02460B464046494600F0F0FC07
:1039A000DDE90E2300F0ECFC80460D98894600F01E
:1039B00033FE424606460F464B46DDE9020100F063
:1039C000DFFCDDE9082300F0DBFC32463B4600F07B
:1039D000D7FC32463B4650468B4600F0CFFCDDE933
:1039E000082300F0CBFCDDE9022300F0C7FC02460F
:1039F0000B464046494600F0C1FC80462EE000BF21
:103A0000EF4E454A287ECA3F65DBC9934A86CD3FC3
:103A100001411DA96074D13F4D268F515555D53FA9
:103A2000FFAB6FDBB66DDB3F033333333333E33F41
:103A3000000000E009C7EE3FFD033ADC09C7EE3F96
:103A4000F5015B14E02F3EBE000040438E9803005A
:103A500079B60B000000F03F000008408946013CA9
:103A600054EA0503DDE9000114BFD54CD54C002311
:103A7000CDE9043403460C46CDE902340023029319
:103A8000DDE9024522462B4600F078FC52465B46B3
:103A900000F028FEDDE9002306460F464046494671
:103AA00000F020FE02460B463046394600F068FC26
:103AB000224606460F462B4650465946CDE900673A
:103AC00000F010FE0B4602468046894630463946D5
:103AD00000F056FCBC4B994206460D460C4640F39E
:103AE0000E8101F13F4303F5E003034340F0EF8112
:103AF0009FA3D3E90023DDE9000100F041FC424629
:103B000082468B464B463046294600F037FC02463B
:103B10000B465046594601F075F8002840F0D78111
:103B20002F463B154FF48012A3F2FE3342FA03F303
:103B30002344C3F30A52A54EA2F2FF321641C3F347
:103B4000130B0020C2F1140523EA06014BF4801B7D
:103B500002460B46002C4BFA05FB40464946B8BFCF
:103B6000CBF1000B00F00AFC02460B46804689466A
:103B7000DDE9000100F004FC4FEA0B5A00247EA3AB
:103B8000D3E9002320460D4600F0ACFD4246064630
:103B90000F464B462046294600F0F0FB02460B46F6
:103BA000DDE9000100F0EAFB75A3D3E9002300F092
:103BB00099FD75A3D3E9002380468946204629460E
:103BC00000F090FD02460B464046494600F0D8FB07
:103BD0008046894602460B463046394600F0D0FB07
:103BE00032463B4604460D4600F0C8FB02460B46F3
:103BF0004046494600F0C2FB2246804689462B4695
:103C00002046294600F06EFD61A3D3E90023064655
:103C10000F4600F067FD60A3D3E9002300F0AEFB80
:103C200032463B4600F05EFD5DA3D3E9002300F081
:103C3000A7FB32463B4600F055FD5BA3D3E90023CA
:103C400000F09CFB32463B4600F04CFD58A3D3E904
:103C5000002300F095FB32463B4600F043FD024650
:103C60000B462046294600F089FB06460F460246D1
:103C70000B462046294600F035FD0022CDE9000123
:103C80004FF080433046394600F078FB02460B4641
:103C9000DDE9000100F050FE424606460F464B4665
:103CA0002046294600F01EFD42464B4600F068FBC8
:103CB00002460B463046394600F060FB22462B4652
:103CC00000F05CFB02460B4600203D4900F056FB2D
:103CD0008A44BAF5801FC0F236815146DDE90423DB
:103CE00000F000FD83461FE4F34635491CE44A46D4
:103CF00048463B46394600F0F5FC834614E4344B15
:103D000021F000479F4240F30081324B0B440343B4
:103D10000CD142464B4600F031FB02460B46DDE932
:103D2000000100F05BFF00283FF4FBAE22A3D3E9C3
:103D30000023DDE9040100F0D5FC1FA3D3E9002333
:103D400000F0D0FC8346FFF7EFBBBAF1000FBFF6DF
:103D5000B5ACDDE900349B4604F10041FFF7E4BB5C
:103D600002460B460020164900F0E6FD48E400BF7D
:103D7000FE822B654715973C00000000432EE63F6E
:103D8000EF39FAFE422EE63F396CA80C615C20BE8A
:103D9000D0A4BE726937663EF16BD2C541BDBB3E51
:103DA0002CDE25AF6A56113F93BDBE166CC1663F2F
:103DB0003E5555555555C53F59F3F8C21F6EA501DF
:103DC0000000F03F0000F0BFFFFF8F40FFFF0F003B
:103DD000FFCB904000346F3F6F4B9E427FF76BAC40
:103DE0006E4B9E423FF7F6AB00226C4B00F0C6FADA
:103DF0005BA3D3E9002306460F4600F073FC5AA3E9
:103E0000D3E90023804689463046394600F06AFCF3
:103E1000002282468B46624B3046394600F062FCF7
:103E200002460B4652A1D1E9000100F0A7FA324642
:103E30003B4600F057FC02460B460020594900F073
:103E40009DFA3246CDE902013B463046394600F044
:103E500049FC02460B46DDE9020100F043FC46A3A3
:103E6000D3E9002300F03EFC02460B46504659467B
:103E700000F084FA02460B4606460F464046494685
:103E800000F07EFA42464B46002082468B4600F008
:103E900075FA02460B463046394600F06FFA804606
:103EA0008946DCE500220023CDE90823CDE90E2375
:103EB0003A4B00220027CDE9062346E44A463B461A
:103EC0000020364900F038FD8346FFF72DBB2CA3B8
:103ED000D3E90023DDE9040100F004FC28A3D3E9C1
:103EE000002300F0FFFB8346FFF71EBBBEF1000F6F
:103EF0007FF457ABC3F1140348FA03F202FA03F359
:103F0000984524D07446FFF729BB264B9F423FF7C4
:103F100008AEDDE902349A469B462FE602460B4680
:103F2000FFF7C1BB18A3D3E90023CDE9082318A3E9
:103F3000D3E90023CDE90E231B4B00224FF4802749
:103F4000CDE9062301E45A4600F08EF9C6E602F0F8
:103F50000102C2F10204FFF701BB00BFAFF3008012
:103F6000000000604715F73F44DF5DF80BAE543E9C
:103F7000555555555555D53FFE822B654715F73F8D
:103F80009C7500883CE4377E0000004003B8E23FA7
:103F900006D0CF43EBFD4C3EFEFFEF3F0000F03F6D
:103FA0000000D03F0000E03F0000F83F2DE9F8435B
:103FB0005D4EB6460E4076450C46054600F09580AF
:103FC00000290B46024673DD0F157ED0A7F2FF379E
:103FD000C3F31303F80743F4801364D403EBD271E3
:103FE00000260B447F105200B64616204FF40011F5
:103FF0000EEB01049C424FEAD2754FEA420203DC09
:104000001B1B04EB010E0E44013805EB43034FEA82
:104010005101EDD1844620244FF0004109E020D029
:1040200003EBD275013C4FEA51012B444FEA4202A7
:1040300020D09E4501EB0C05F1DA002D05EB010CBB
:1040400009DBF0469542CEEB030300D9013B521B3E
:104050000844C646E4E7BCF1000FF2DB0EF10108AC
:10406000F0E7954217D8002D05EB010C47DB984689
:104070000023ECE7134310D14008731003F17F5382
:1040800003F50013F20703EB075948BF40F0004067
:104090004946BDE8F8837346C2E7411C33D000F0BF
:1040A00001031844E8E75B0003EBD273520095E785
:1040B00021F000460643ECD069BB0F46D30A153FFA
:1040C0005205002BFAD0DD0220D4002100E0014689
:1040D0005B00DC0201F10100F9D5C0F1200422FAF5
:1040E00004F423437F1A824070E702460B4600F037
:1040F000F9FA2A46234600F043F9BDE8F883BCF1FB
:10410000000FABDAB3E701362046B6E720244FF0C4
:10411000FF310020E3E702460B4600F02FF902468C
:104120000B4600F009FCB4E70000F07F21F00041ED
:10413000704700BF41F0004101F58010C00F70478B
:104140000020704700200149704700BF0000F87F41
:10415000F0B5C1F30A5EAEF2FF36132E83B002460D
:104160000B460C464FEAD17507462EDC002E49DB84
:104170003B49314103EA010010432BD049080B4071
:1041800053EA02070CD04FF48023132E24EA0101D6
:1041900043FA06F444EA01040CBF4FF0004700273D
:1041A000304B03EBC5052146D5E90045384622468C
:1041B0002B4600F0E5F8CDE9000122462B46DDE96B
:1041C000000100F0DBF803B0F0BD332E06DDB6F5DC
:1041D000806F42D01046194603B0F0BDAEF2134EC8
:1041E0004FF0FF3121FA0EF10842F3D0490808429E
:1041F000D6D04FF0804320EA010143FA0EFE4EEA8A
:104200000107CDE721F000410143E3D0C3F31301DF
:10421000144E41EA000CCCF1000106EBC506D6E9CC
:10422000006741EA0C0C5C0C4FEA1C3C0CF4002CBF
:1042300064044CEA040132463B4600F0A1F8CDE9A3
:1042400000013B463246DDE9000100F097F821F01D
:10425000004444EAC5731946BEE700F091F8BBE795
:10426000FFFF0F00E83C0208F8B5C1F30A56044608
:104270000D460B46174606BB21F00043034325D0ED
:104280000022354B00F02EFA344A974204460D4680
:104290000B462ADBC1F30A56363E3E4440F2FE721C
:1042A000964228DC002E12DD23F0FF4323F4E003C6
:1042B00043EA065520462946F8BD40F2FF72964271
:1042C000EBD102460B4600F05BF8F8BDF8BD16F1E5
:1042D000350F1DDA4CF250339F4222462B4625DC27
:1042E00019A1D1E9000100F03DF817A3D3E900239B
:1042F00000F0F8F9F8BD22462B4615A1D1E90001DE
:1043000000F030F812A3D3E9002300F0EBF9F8BD78
:1043100023F0FF4323F4E003363643EA06552046F4
:10432000294600220E4B00F0DDF9F8BD08A1D1E9C5
:10433000000100F017F806A3D3E9002300F0D2F93A
:10434000F8BD00BFAFF3008059F3F8C21F6EA5019E
:104350009C7500883CE4377E00005043B03CFFFF72
:104360000000903C03F0004321F0004242EA0301C8
:10437000704700BF81F0004102E000BF83F00043BE
:1043800030B54FEA41044FEA430594EA050F08BFF0
:1043900090EA020F1FBF54EA000C55EA020C7FEAB4
:1043A000645C7FEA655C00F0E2804FEA5454D4EB31
:1043B0005555B8BF6D420CDD2C4480EA020281EAFB
:1043C000030382EA000083EA010180EA020281EA33
:1043D0000303362D88BF30BD11F0004F4FEA013185
:1043E0004FF4801C4CEA113102D0404261EB410194
:1043F00013F0004F4FEA03334CEA133302D052421A
:1044000063EB430394EA050F00F0A780A4F10104D5
:10441000D5F1200E0DDB02FA0EFC22FA05F280180F
:1044200041F1000103FA0EF2801843FA05F35941F5
:104430000EE0A5F120050EF1200E012A03FA0EFC74
:1044400028BF4CF0020C43FA05F3C01851EBE3719E
:1044500001F0004507D54FF0000EDCF1000C7EEBBB
:1044600000006EEB0101B1F5801F1BD3B1F5001FF9
:104470000CD349085FEA30004FEA3C0C04F1010418
:104480004FEA445212F5800F80F09A80BCF1004F41
:1044900008BF5FEA500C50F1000041EB045141EAC3
:1044A000050130BD5FEA4C0C404141EB010111F4C4
:1044B000801FA4F10104E9D191F0000F04BF01466F
:1044C0000020B1FA81F308BF2033A3F10B03B3F14D
:1044D00020020CDA0C3208DD02F1140CC2F10C02DD
:1044E00001FA0CF021FA02F10CE002F11402D8BF3B
:1044F000C2F1200C01FA02F120FA0CFCDCBF41EA07
:104500000C019040E41AA2BF01EB0451294330BDD5
:104510006FEA04041F3C1CDA0C340EDC04F11404B2
:10452000C4F1200220FA04F001FA02F340EA030089
:1045300021FA04F345EA030130BDC4F10C04C4F1CF
:10454000200220FA02F001FA04F340EA03002946AF
:1045500030BD21FA04F0294630BD94F0000F83F4F9
:10456000801306BF81F480110134013D4EE77FEADC
:10457000645C18BF7FEA655C29D094EA050F08BF28
:1045800090EA020F05D054EA000C04BF1946104609
:1045900030BD91EA030F1EBF0021002030BD5FEA4D
:1045A000545C05D14000494128BF41F0004130BD75
:1045B00014F580043CBF01F5801130BD01F00045C9
:1045C00045F0FE4141F470014FF0000030BD7FEA3C
:1045D000645C1ABF194610467FEA655C1CBF0B4637
:1045E000024650EA013406BF52EA033591EA030F4E
:1045F00041F4002130BD00BF90F0000F04BF002146
:10460000704730B54FF4806404F132044FF0000578
:104610004FF0000150E700BF90F0000F04BF0021F1
:10462000704730B54FF4806404F1320410F0004557
:1046300048BF40424FF000013EE700BF42004FEA52
:10464000E2014FEA31014FEA02701FBF12F07F43CF
:1046500093F07F4F81F06051704792F0000F14BFCC
:1046600093F07F4F704730B54FF4607401F0004510
:1046700021F0004120E700BF50EA010208BF704767
:1046800030B54FF000050AE050EA010208BF70475C
:1046900030B511F0004502D5404261EB41014FF4C5
:1046A000806404F132045FEA915C3FF4DCAE4FF0C9
:1046B00003025FEADC0C18BF03325FEADC0C18BFB0
:1046C000033202EBDC02C2F1200300FA03FC20FA01
:1046D00002F001FA03FE40EA0E0021FA02F114444E
:1046E000C1E600BF70B54FF0FF0C4CF4E06C1CEA63
:1046F00011541DBF1CEA135594EA0C0F95EA0C0FD8
:1047000000F0DEF82C4481EA030621EA4C5123EA4A
:104710004C5350EA013518BF52EA033541F4801179
:1047200043F4801338D0A0FB02CE4FF00005E1FB2C
:1047300002E506F00042E0FB03E54FF00006E1FB76
:1047400003569CF0000F18BF4EF0010EA4F1FF04B9
:10475000B6F5007F64F5407404D25FEA4E0E6D41F9
:1047600046EB060642EAC62141EA55514FEAC5200A
:1047700040EA5E504FEACE2EB4F1FD0C88BFBCF586
:10478000E06F1ED8BEF1004F08BF5FEA500E50F137
:10479000000041EB045170BD06F0004646EA0101FD
:1047A00040EA020081EA0301B4EB5C04C2BFD4EB2F
:1047B0000C0541EA045170BD41F480114FF0000E28
:1047C000013C00F3AB8014F1360FDEBF002001F096
:1047D000004170BDC4F10004203C35DA0C341BDC10
:1047E00004F11404C4F1200500FA05F320FA04F0E2
:1047F00001FA05F240EA020001F0004221F0004116
:1048000010EBD37021FA04F642EB06015EEA430E88
:1048100008BF20EAD37070BDC4F10C04C4F12005B8
:1048200000FA04F320FA05F001FA04F240EA02006B
:1048300001F0004110EBD37041F100015EEA430E3C
:1048400008BF20EAD37070BDC4F1200500FA05F25C
:104850004EEA020E20FA04F301FA05F243EA0203DB
:1048600021FA04F001F0004121FA04F220EA0200EA
:1048700000EBD3705EEA430E08BF20EAD37070BD30
:1048800094F0000F0FD101F00046400041EB010110
:1048900011F4801F08BF013CF7D041EA060195F0F2
:1048A000000F18BF704703F00046520043EB0303AC
:1048B00013F4801F08BF013DF7D043EA0603704799
:1048C00094EA0C0F0CEA135518BF95EA0C0F0CD0A4
:1048D00050EA410618BF52EA4306D1D181EA0301EA
:1048E00001F000414FF0000070BD50EA410606BFE4
:1048F0001046194652EA430619D094EA0C0F02D129
:1049000050EA013613D195EA0C0F05D152EA03366D
:104910001CBF104619460AD181EA030101F000418B
:1049200041F0FE4141F470014FF0000070BD41F0D4
:10493000FE4141F4780170BD70B54FF0FF0C4CF4AE
:10494000E06C1CEA11541DBF1CEA135594EA0C0FCD
:1049500095EA0C0F00F0A7F8A4EB050481EA030E1A
:1049600052EA03354FEA013100F088804FEA033301
:104970004FF0805545EA131343EA12634FEA0222CF
:1049800045EA111545EA10654FEA00260EF0004190
:104990009D4208BF964244F1FD0404F5407402D2E2
:1049A0005B084FEA3202B61A65EB03055B084FEA73
:1049B00032024FF480104FF4002CB6EB020E75EB70
:1049C000030E22BFB61A754640EA0C005B084FEA98
:1049D0003202B6EB020E75EB030E22BFB61A754615
:1049E00040EA5C005B084FEA3202B6EB020E75EB60
:1049F000030E22BFB61A754640EA9C005B084FEAD8
:104A00003202B6EB020E75EB030E22BFB61A7546E4
:104A100040EADC0055EA060E18D04FEA051545EAD3
:104A200016754FEA06164FEAC30343EA52734FEA7C
:104A3000C2025FEA1C1CC0D111F4801F0BD141EAF5
:104A400000014FF000004FF0004CB6E711F4801F5A
:104A500004BF01430020B4F1FD0C88BFBCF5E06F3A
:104A60003FF6AFAEB5EB030C04BFB6EB020C5FEA4A
:104A7000500C50F1000041EB045170BD0EF0004E9F
:104A80004EEA113114EB5C04C2BFD4EB0C0541EAD1
:104A9000045170BD41F480114FF0000E013C90E6CE
:104AA00045EA060E8DE60CEA135594EA0C0F08BF92
:104AB00095EA0C0F3FF43BAF94EA0C0F0AD150EA91
:104AC00001347FF434AF95EA0C0F7FF425AF104624
:104AD00019462CE795EA0C0F06D152EA03353FF44C
:104AE000FDAE1046194622E750EA410618BF52EAC9
:104AF00043067FF4C5AE50EA41047FF40DAF52EA9D
:104B000043057FF4EBAE12E74FF0FF3C06E000BF39
:104B10004FF0010C02E000BF4FF0010C4DF804CD46
:104B20004FEA410C7FEA6C5C4FEA430C18BF7FEA06
:104B30006C5C1BD001B050EA410C0CBF52EA430C34
:104B400091EA030F02BF90EA020F0020704710F1B4
:104B5000000F91EA030F58BF994208BF90422CBF43
:104B6000D8176FEAE37040F0010070474FEA410C3C
:104B70007FEA6C5C02D150EA013C07D14FEA430C5A
:104B80007FEA6C5CD6D152EA033CD3D05DF8040BCB
:104B9000704700BF8446104662468C4619466346FD
:104BA00000E000BF01B5FFF7B7FF002848BF10F1D4
:104BB000000F01BD4DF808EDFFF7F4FF0CBF012019
:104BC00000205DF808FB00BF4DF808EDFFF7EAFF95
:104BD00034BF012000205DF808FB00BF4DF808ED50
:104BE000FFF7E0FF94BF012000205DF808FB00BF45
:104BF0004DF808EDFFF7CEFF94BF012000205DF8CF
:104C000008FB00BF4DF808EDFFF7C4FF34BF0120DB
:104C100000205DF808FB00BF4FEA410C7FEA6C5CA6
:104C200002D150EA013C0AD14FEA430C7FEA6C5CA6
:104C300002D152EA033C02D14FF0000070474FF01E
:104C4000010070474FEA410212F5001215D211D54A
:104C50006FF47873B3EB625212D94FEAC12343F079
:104C6000004343EA505311F0004F23FA02F018BFFB
:104C7000404270474FF00000704750EA013005D1C4
:104C800011F0004008BF6FF0004070474FF0000087
:104C9000704700BF4A0011D212F5001211D20DD593
:104CA0006FF47873B3EB62520ED44FEAC12343F032
:104CB000004343EA505323FA02F070474FF00000DC
:104CC000704750EA013002D14FF0FF3070474FF08B
:104CD00000007047014B1868704700BF380400207F
:104CE000C7122D36FA53036AE277CA7EFF7FFF7F31
:104CF000507F817E457E677E937E947E647E207E9B
:104D0000E77DC67DB77DA87D8F7D687D3D7D157D66
:104D1000F77CDD7CC47CA57C827C5D7C3A7C1B7C42
:104D2000FF7BE27BC27BA07B7D7B5C7B3D7B1F7B33
:104D3000017BE07ABF7A9E7A7D7A5E7A3F7A207A2A
:104D4000007ADF79BE799E797E795F7940791F7923
:104D5000FF78DE78BE789F787F785F783F781F781D
:104D6000FE77DE77BF779F777F775F773F771E7716
:104D7000FF76DF76BF769F767F765F763F761F760B
:104D8000FF75DF75BF759F757F755F753F751F7503
:104D9000FF74DF74BF749F747F745F743F741F74FB
:104DA000FF73DF73BF739F737F735F733F731F73F3
:104DB000FF72DF72BF729F727F725F723F721F72EB
:104DC000FF71DF71BF719F717F715F713F711F71E3
:104DD000FF70DF70BF709F707F705F703F701F70DB
:104DE000FF6FDF6FBF6F9F6F7F6F5F6F3F6F1F6FD3
:104DF000FF6EDF6EBF6E9F6E7F6E5F6E3F6E1F6ECB
:104E0000FF6DDF6DBF6D9F6D7F6D5F6D3F6D1F6DC2
:104E1000FF6CDF6CBF6C9F6C7F6C5F6C3F6C1F6CBA
:104E2000FF6BDF6BBF6B9F6B7F6B5F6B3F6B1F6BB2
:104E3000FF6ADF6ABF6A9F6A7F6A5F6A3F6A1F6AAA
:104E4000FF69DF69BF699F697F695F693F691F69A2
:104E5000FF68DF68BF689F687F685F683F681F689A
:104E6000FF67DF67BF679F677F675F673F671F6792
:104E7000FF66DF66BF669F667F665F663F661F668A
:104E8000FF65DF65BF659F657F655F653F651F6582
:104E9000FF64DF64BF649F647F645F643F641F647A
:104EA000FF63DF63BF639F637F635F633F631F6372
:104EB000FF62DF62BF629F627F625F623F621F626A
:104EC000FF61DF61BF619F617F615F613F611F6162
:104ED000FF60DF60BF609F607F605F603F601F605A
:104EE000FF5FDF5FBF5F9F5F7F5F5F5F3F5F1F5F52
:104EF000FF5EDF5EBF5E9F5E7F5E5F5E3F5E1F5E4A
:104F0000FF5DDF5DBF5D9F5D7F5D5F5D3F5D1F5D41
:104F1000FF5CDF5CBF5C9F5C7F5C5F5C3F5C1F5C39
:104F2000FF5BDF5BBF5B9F5B7F5B5F5B3F5B1F5B31
:104F3000FF5ADF5ABF5A9F5A7F5A5F5A3F5A1F5A29
:104F4000FF59DF59BF599F597F595F593F591F5921
:104F5000FF58DF58BF589F587F585F583F581F5819
:104F6000FF57DF57BF579F577F575F573F571F5711
:104F7000FF56DF56BF569F567F565F563F561F5609
:104F8000FF55DF55BF559F557F555F553F551F5501
:104F9000FF54DF54BF549F547F545F543F541F54F9
:104FA000FF53DF53BF539F537F535F533F531F53F1
:104FB000FF52DF52BF529F527F525F523F521F52E9
:104FC000FF51DF51BF519F517F515F513F511F51E1
:104FD000FF50DF50BF509F507F505F503F501F50D9
:104FE000FF4FDF4FBF4F9F4F7F4F5F4F3F4F1F4FD1
:104FF000FF4EDF4EBF4E9F4E7F4E5F4E3F4E1F4EC9
:10500000FF4DDF4DBF4D9F4D7F4D5F4D3F4D1F4DC0
:10501000FF4CDF4CBF4C9F4C7F4C5F4C3F4C1F4CB8
:10502000FF4BDF4BBF4B9F4B7F4B5F4B3F4B1F4BB0
:10503000FF4ADF4ABF4A9F4A7F4A5F4A3F4A1F4AA8
:10504000FF49DF49BF499F497F495F493F491F49A0
:10505000FF48DF48BF489F487F485F483F481F4898
:10506000FF47DF47BF479F477F475F473F471F4790
:10507000FF46DF46BF469F467F465F463F461F4688
:10508000FF45DF45BF459F457F455F453F451F4580
:10509000FF44DF44BF449F447F445F443F441F4478
:1050A000FF43DF43BF439F437F435F433F431F4370
:1050B000FF42DF42BF429F427F425F423F421F4268
:1050C000FF41DF41BF419F417F415F413F411F4160
:1050D000FF40DF40BF409F407F405F403F401F4058
:1050E000FF3FDF3FBF3F9F3F7F3F5F3F3F3F1F3F50
:1050F000FF3EDF3EBF3E9F3E7F3E5F3E3F3E1F3E48
:10510000FF3DDF3DBF3D9F3D7F3D5F3D3F3D1F3D3F
:10511000FF3CDF3CBF3C9F3C7F3C5F3C3F3C1F3C37
:10512000FF3BDF3BBF3B9F3B7F3B5F3B3F3B1F3B2F
:10513000FF3ADF3ABF3A9F3A7F3A5F3A3F3A1F3A27
:10514000FF39DF39BF399F397F395F393F391F391F
:10515000FF38DF38BF389F387F385F383F381F3817
:10516000FF37DF37BF379F377F375F373F371F370F
:10517000FF36DF36BF369F367F365F363F361F3607
:10518000FF35DF35BF359F357F355F353F351F35FF
:10519000FF34DF34BF349F347F345F343F341F34F7
:1051A000FF33DF33BF339F337F335F333F331F33EF
:1051B000FF32DF32BF329F327F325F323F321F32E7
:1051C000FF31DF31BF319F317F315F313F311F31DF
:1051D000FF30DF30BF309F307F305F303F301F30D7
:1051E000FF2FDF2FBF2F9F2F7F2F5F2F3F2F1F2FCF
:1051F000FF2EDF2EBF2E9F2E7F2E5F2E3F2E1F2EC7
:10520000FF2DDF2DBF2D9F2D7F2D5F2D3F2D1F2DBE
:10521000FF2CDF2CBF2C9F2C7F2C5F2C3F2C1F2CB6
:10522000FF2BDF2BBF2B9F2B7F2B5F2B3F2B1F2BAE
:10523000FF2ADF2ABF2A9F2A7F2A5F2A3F2A1F2AA6
:10524000FF29DF29BF299F297F295F293F291F299E
:10525000FF28DF28BF289F287F285F283F281F2896
:10526000FF27DF27BF279F277F275F273F271F278E
:10527000FF26DF26BF269F267F265F263F261F2686
:10528000FF25DF25BF259F257F255F253F251F257E
:10529000FF24DF24BF249F247F245F243F241F2476
:1052A000FF23DF23BF239F237F235F233F231F236E
:1052B000FF22DF22BF229F227F225F223F221F2266
:1052C000FF21DF21BF219F217F215F213F211F215E
:1052D000FF20DF20BF209F207F205F203F201F2056
:1052E000FF1FDF1FBF1F9F1F7F1F5F1F3F1F1F1F4E
:1052F000FF1EDF1EBF1E9F1E7F1E5F1E3F1E1F1E46
:10530000FF1DDF1DBF1D9F1D7F1D5F1D3F1D1F1D3D
:10531000FF1CDF1CBF1C9F1C7F1C5F1C3F1C1F1C35
:10532000FF1BDF1BBF1B9F1B7F1B5F1B3F1B1F1B2D
:10533000FF1ADF1ABF1A9F1A7F1A5F1A3F1A1F1A25
:10534000FF19DF19BF199F197F195F193F191F191D
:10535000FF18DF18BF189F187F185F183F181F1815
:10536000FF17DF17BF179F177F175F173F171F170D
:10537000FF16DF16BF169F167F165F163F161F1605
:10538000FF15DF15BF159F157F155F153F151F15FD
:10539000FF14DF14BF149F147F145F143F141F14F5
:1053A000FF13DF13BF139F137F135F133F131F13ED
:1053B000FF12DF12BF129F127F125F123F121F12E5
:1053C000FF11DF11BF119F117F115F113F111F11DD
:1053D000FF10DF10BF109F107F105F103F101F10D5
:1053E000FF0FDF0FBF0F9F0F7F0F5F0F3F0F1F0FCD
:1053F000FF0EDF0EBF0E9F0E7F0E5F0E3F0E1F0EC5
:10540000FF0DDF0DBF0D9F0D7F0D5F0D3F0D1F0DBC
:10541000FF0CDF0CBF0C9F0C7F0C5F0C3F0C1F0CB4
:10542000FF0BDF0BBF0B9F0B7F0B5F0B3F0B1F0BAC
:10543000FF0ADF0ABF0A9F0A7F0A5F0A3F0A1F0AA4
:10544000FF09DF09BF099F097F095F093F091F099C
:10545000FF08DF08BF089F087F085F083F081F0894
:10546000FF07DF07BF079F077F075F073F071F078C
:10547000FF06DF06BF069F067F065F063F061F0684
:10548000FF05DF05BF059F057F055F053F051F057C
:10549000FF04DF04BF049F047F045F043F041F0474
:1054A000FF03DF03BF039F037F035F033F031F036C
:1054B000FF02DF02BF029F027F025F023F021F0264
:1054C000FF01DF01BF019F017F015F013F011F015C
:1054D000FF00DF00BF009F007F005F003F001F0054
:1054E000FFFFDFFFBFFF9FFF7FFF5FFF3FFF1FFF4C
:1054F000FFFEDFFEBFFE9FFE7FFE5FFE3FFE1FFE44
:10550000FFFDDFFDBFFD9FFD7FFD5FFD3FFD1FFD3B
:10551000FFFCDFFCBFFC9FFC7FFC5FFC3FFC1FFC33
:10552000FFFBDFFBBFFB9FFB7FFB5FFB3FFB1FFB2B
:10553000FFFADFFABFFA9FFA7FFA5FFA3FFA1FFA23
:10554000FFF9DFF9BFF99FF97FF95FF93FF91FF91B
:10555000FFF8DFF8BFF89FF87FF85FF83FF81FF813
:10556000FFF7DFF7BFF79FF77FF75FF73FF71FF70B
:10557000FFF6DFF6BFF69FF67FF65FF63FF61FF603
:10558000FFF5DFF5BFF59FF57FF55FF53FF51FF5FB
:10559000FFF4DFF4BFF49FF47FF45FF43FF41FF4F3
:1055A000FFF3DFF3BFF39FF37FF35FF33FF31FF3EB
:1055B000FFF2DFF2BFF29FF27FF25FF23FF21FF2E3
:1055C000FFF1DFF1BFF19FF17FF15FF13FF11FF1DB
:1055D000FFF0DFF0BFF09FF07FF05FF03FF01FF0D3
:1055E000FFEFDFEFBFEF9FEF7FEF5FEF3FEF1FEFCB
:1055F000FFEEDFEEBFEE9FEE7FEE5FEE3FEE1FEEC3
:10560000FFEDDFEDBFED9FED7FED5FED3FED1FEDBA
:10561000FFECDFECBFEC9FEC7FEC5FEC3FEC1FECB2
:10562000FFEBDFEBBFEB9FEB7FEB5FEB3FEB1FEBAA
:10563000FFEADFEABFEA9FEA7FEA5FEA3FEA1FEAA2
:10564000FFE9DFE9BFE99FE97FE95FE93FE91FE99A
:10565000FFE8DFE8BFE89FE87FE85FE83FE81FE892
:10566000FFE7DFE7BFE79FE77FE75FE73FE71FE78A
:10567000FFE6DFE6BFE69FE67FE65FE63FE61FE682
:10568000FFE5DFE5BFE59FE57FE55FE53FE51FE57A
:10569000FFE4DFE4BFE49FE47FE45FE43FE41FE472
:1056A000FFE3DFE3BFE39FE37FE35FE33FE31FE36A
:1056B000FFE2DFE2BFE29FE27FE25FE23FE21FE262
:1056C000FFE1DFE1BFE19FE17FE15FE13FE11FE15A
:1056D000FFE0DFE0BFE09FE07FE05FE03FE01FE052
:1056E000FFDFDFDFBFDF9FDF7FDF5FDF3FDF1FDF4A
:1056F000FFDEDFDEBFDE9FDE7FDE5FDE3FDE1FDE42
:10570000FFDDDFDDBFDD9FDD7FDD5FDD3FDD1FDD39
:10571000FFDCDFDCBFDC9FDC7FDC5FDC3FDC1FDC31
:10572000FFDBDFDBBFDB9FDB7FDB5FDB3FDB1FDB29
:10573000FFDADFDABFDA9FDA7FDA5FDA3FDA1FDA21
:10574000FFD9DFD9BFD99FD97FD95FD93FD91FD919
:10575000FFD8DFD8BFD89FD87FD85FD83FD81FD811
:10576000FFD7DFD7BFD79FD77FD75FD73FD71FD709
:10577000FFD6DFD6BFD69FD67FD65FD63FD61FD601
:10578000FFD5DFD5BFD59FD57FD55FD53FD51FD5F9
:10579000FFD4DFD4BFD49FD47FD45FD43FD41FD4F1
:1057A000FFD3DFD3BFD39FD37FD35FD33FD31FD3E9
:1057B000FFD2DFD2BFD29FD27FD25FD23FD21FD2E1
:1057C000FFD1DFD1BFD19FD17FD15FD13FD11FD1D9
:1057D000FFD0DFD0BFD09FD07FD05FD03FD01FD0D1
:1057E000FFCFDFCFBFCF9FCF7FCF5FCF3FCF1FCFC9
:1057F000FFCEDFCEBFCE9FCE7FCE5FCE3FCE1FCEC1
:10580000FFCDDFCDBFCD9FCD7FCD5FCD3FCD1FCDB8
:10581000FFCCDFCCBFCC9FCC7FCC5FCC3FCC1FCCB0
:10582000FFCBDFCBBFCB9FCB7FCB5FCB3FCB1FCBA8
:10583000FFCADFCABFCA9FCA7FCA5FCA3FCA1FCAA0
:10584000FFC9DFC9BFC99FC97FC95FC93FC91FC998
:10585000FFC8DFC8BFC89FC87FC85FC83FC81FC890
:10586000FFC7DFC7BFC79FC77FC75FC73FC71FC788
:10587000FFC6DFC6BFC69FC67FC65FC63FC61FC680
:10588000FFC5DFC5BFC59FC57FC55FC53FC51FC578
:10589000FFC4DFC4BFC49FC47FC45FC43FC41FC470
:1058A000FFC3DFC3BFC39FC37FC35FC33FC31FC368
:1058B000FFC2DFC2BFC29FC27FC25FC23FC21FC260
:1058C000FFC1DFC1BFC19FC17FC15FC13FC11FC158
:1058D000FFC0DFC0BFC09FC07FC05FC03FC01FC050
:1058E000FFBFDFBFBFBF9FBF7FBF5FBF3FBF1FBF48
:1058F000FFBEDFBEBFBE9FBE7FBE5FBE3FBE1FBE40
:10590000FFBDDFBDBFBD9FBD7FBD5FBD3FBD1FBD37
:10591000FFBCDFBCBFBC9FBC7FBC5FBC3FBC1FBC2F
:10592000FFBBDFBBBFBB9FBB7FBB5FBB3FBB1FBB27
:10593000FFBADFBABFBA9FBA7FBA5FBA3FBA1FBA1F
:10594000FFB9DFB9BFB99FB97FB95FB93FB91FB917
:10595000FFB8DFB8BFB89FB87FB85FB83FB81FB80F
:10596000FFB7DFB7BFB79FB77FB75FB73FB71FB707
:10597000FFB6DFB6BFB69FB67FB65FB63FB61FB6FF
:10598000FFB5DFB5BFB59FB57FB55FB53FB51FB5F7
:10599000FFB4DFB4BFB49FB47FB45FB43FB41FB4EF
:1059A000FFB3DFB3BFB39FB37FB35FB33FB31FB3E7
:1059B000FFB2DFB2BFB29FB27FB25FB23FB21FB2DF
:1059C000FFB1DFB1BFB19FB17FB15FB13FB11FB1D7
:1059D000FFB0DFB0BFB09FB07FB05FB03FB01FB0CF
:1059E000FFAFDFAFBFAF9FAF7FAF5FAF3FAF1FAFC7
:1059F000FFAEDFAEBFAE9FAE7FAE5FAE3FAE1FAEBF
:105A0000FFADDFADBFAD9FAD7FAD5FAD3FAD1FADB6
:105A1000FFACDFACBFAC9FAC7FAC5FAC3FAC1FACAE
:105A2000FFABDFABBFAB9FAB7FAB5FAB3FAB1FABA6
:105A3000FFAADFAABFAA9FAA7FAA5FAA3FAA1FAA9E
:105A4000FFA9DFA9BFA99FA97FA95FA93FA91FA996
:105A5000FFA8DFA8BFA89FA87FA85FA83FA81FA88E
:105A6000FFA7DFA7BFA79FA77FA75FA73FA71FA786
:105A7000FFA6DFA6BFA69FA67FA65FA63FA61FA67E
:105A8000FFA5DFA5BFA59FA57FA55FA53FA51FA576
:105A9000FFA4DFA4BFA49FA47FA45FA43FA41FA46E
:105AA000FFA3DFA3BFA39FA37FA35FA33FA31FA366
:105AB000FFA2DFA2BFA29FA27FA25FA23FA21FA25E
:105AC000FFA1DFA1BFA19FA17FA15FA13FA11FA156
:105AD000FFA0DFA0BFA09FA07FA05FA03FA01FA04E
