:020000040800F2
:10000000002B00200D08000869080008EF270008F1
:100010006908000869080008690800080000000075
:100020000000000000000000000000006908000857
:100030006908000800000000690800086908000855
:1000400069080008690800086908000869080008CC
:1000500069080008690800086908000869080008BC
:1000600069080008690800086908000869080008AC
:10007000690800086908000869080008690800089C
:1000800001070008690800086908000869080008F5
:10009000690800086908000869080008690800087C
:1000A000690800086908000869080008690800086C
:1000B000690800086908000869080008690800085C
:1000C000690800086908000869080008690800084C
:1000D000690800086908000869080008690800083C
:1000E000690800086908000869080008690800082C
:1000F000690800086908000869080008690800081C
:10010000690800086908000869080008690800080B
:10011000690800086908000869080008D50E000889
:1001200069080008690800086908000869080008EB
:1001300069080008690800086908000869080008DB
:1001400069080008690800086908000869080008CB
:1001500069080008690800086908000869080008BB
:1001600069080008690800086908000869080008AB
:10017000690800086908000869080008690800089B
:10018000690800086908000880B582B000AF3B46E6
:10019000184602F081F901210F2000F07FFD1023A5
:1001A0003B6001233B710023BB710223FB710223DF
:1001B0007B713B461946474802F0E0F84FF4107354
:1001C0003B6002233B710123BB710023FB710223BF
:1001D0007B713B461946404802F0D0F804220621C4
:1001E0003D4802F0BBF9042209213B4802F0B6F970
:1001F00001214FF4021000F06FFD012000F094FC8B
:100200004FF4A4533B600023BB713B46194633486F
:1002100002F0B4F810233B603B461946304802F028
:10022000ADF8062204212E4802F098F90622072193
:100230002A4802F093F906220A21284802F08EF992
:1002400006220C21254802F089F91021214802F0EC
:1002500065F9244802F0BAFD234B4BF680329A60D0
:10026000214B4FF40072DA801F4B4FF400721A805A
:100270001D4B00229A801C4B00225A801A4B0022F0
:100280009A811949174802F0DBFD184802F026FF51
:10029000174B42F210721A60154B00229A80144BD1
:1002A00033221A81124B4FF480625A81104B4FF463
:1002B00080429A810E4B4BF6FF72DA8001210B4887
:1002C00003F008F80A49094802F042FF00BF083766
:1002D000BD4680BD000C0240000402400008024000
:1002E00000000240003C0040C400002000540040D8
:1002F0001801002080B584B000AF78600B46FB7019
:100300000121214803F006F800BF20491E4803F0F0
:10031000CDF80346002BF8D0002294211A4803F0B0
:1003200039F800BF1A49184803F090F80346002B2B
:10033000F8D00023FB6012E0FB687A6813441B7856
:100340001946114803F064F800BF12490E4803F043
:100350007DF80346002BF8D0FB680133FB60FA7888
:10036000FB689A42E8DC00BF0B49074803F09EF89F
:100370000346002BF8D00121034802F0EBFF00BF39
:100380001037BD4680BD00BF005400400100001082
:1003900082000700800007000400001080B582B0D2
:1003A00000AF1021534802F0ABF800237B6002E05D
:1003B0007B6801337B607B684F4A9342F8DD022300
:1003C0003B7001237B703B4602211846FFF792FFEA
:1003D00000233B7099237B703B4602211846FFF7B0
:1003E00089FF47233B7080237B703B4602211846E0
:1003F000FFF780FF322000F081F80346FB703223C4
:100400003B70FB7863F07F03DBB27B703B460221DD
:100410001846FFF76FFF322000F070F80346FB70BC
:1004200032233B70FB7803F07F03DBB27B703B46EB
:1004300002211846FFF75EFF00233B7000237B700C
:100440003B4602211846FFF755FF04233B70AA23C1
:100450007B703B4602211846FFF74CFF0D233B7093
:1004600070237B703B4602211846FFF743FF0523AC
:100470003B7080237B703B4602211846FFF73AFF12
:1004800006233B7007237B703B4602211846FFF78B
:1004900031FF0A233B7000237B703B460221184644
:1004A000FFF728FF1A233B7050237B703B46022145
:1004B0001846FFF71FFF1B233B7050237B703B4602
:1004C00002211846FFF716FF1F233B7088237B701D
:1004D0003B4602211846FFF70DFF02233B709E2387
:1004E0007B703B4602211846FFF704FF00BF083728
:1004F000BD4680BD000C02403F420F0080B584B075
:1005000000AF0346FB7100BF4FF40031354802F0E5
:10051000CDFF0346002BF7D10121324802F0FAFE4D
:1005200000BF31492F4802F0C1FF0346002BF8D02D
:10053000002294212B4802F02DFF00BF2B492948AF
:1005400002F084FF0346002BF8D0FB7919462548BA
:1005500002F05EFF00BF2649224802F077FF034603
:10056000002BF8D001211F4802F0F4FE00BF4FF429
:1005700000311C4802F09AFF0346002BF7D10021FE
:10058000184802F025FF0121164802F0C3FE00BF03
:100590001549144802F08AFF0346002BF8D00122C7
:1005A0009421104802F0F6FE00BF12490D4802F0F7
:1005B0004DFF0346002BF8D000BF0F49094802F059
:1005C00045FF0346002BF8D0064802F031FF0346F2
:1005D000FB730121034802F0BDFEFB7B1846103778
:1005E000BD4680BD0054004001000010820007009D
:1005F00080000700020003004000030080B592B0B5
:1006000000AF01214FF4001000F048FB102387F8E1
:100610004030002387F84130012387F8423001231E
:1006200087F8433007F14003184602F071FF0021BC
:100630002E4802F0B7FA2D4802F08CF900237B60B7
:100640002B4BBB602B4BFB6040237B614FF4403353
:10065000FB6240233B610023BB614FF48063FB617D
:100660004FF400633B624FF400537B624FF480739E
:10067000BB6200233B6303237B630023BB63002334
:10068000FB633B1D1946194802F036FA194B00224C
:100690001946164802F0A2FA0121144802F0BCFAE9
:1006A00001221821114802F0D3FA01210F4802F06B
:1006B00079FA01227121104802F0E0FC01220221A6
:1006C0000D4802F0B7FC00237B6402E07B6C013331
:1006D0007B647B6C094A9342F8DD0121064802F0F5
:1006E00089FC00BF4837BD4680BD00BF886002401E
:1006F0000C3C004030010020003C00409F8601007F
:1007000080B584B000AF3849384802F0DBFA0346C0
:10071000002B24D00023FB600023BB6018E0344A88
:10072000FB6832F8133019B2324ABB6822F8131052
:10073000BB6801333049FA6831F8122011B22D4AF2
:1007400022F81310BB680233BB60FB680133FB6007
:10075000BB681F2BE3DD2449244802F009FB27492D
:10076000224802F0AFFA0346002B38D0244B1B6816
:100770000133234A1360224B1B680A2B07DD204BF1
:1007800000221A604FF480511E4801F0D5FE10235C
:100790007B6020233B6018E0154A7B6832F81330F9
:1007A00019B2144A3B6822F813103B68013312490E
:1007B0007A6831F8122011B20E4A22F813103B6801
:1007C00002333B607B6801337B603B683F2BE3DD9A
:1007D0000A49064802F0CCFA0B4B01221A7000BFFE
:1007E0001037BD4680BD00BF004400208860024035
:1007F000D800002030010020580000200088002090
:1008000010000020000C0240C100002080B582B022
:1008100000AF104B7B60104B3B6007E03B681A1D3C
:100820003A607A68111D796012681A603B680B4A59
:100830009342F3D30A480B494FF000028842B8BFF5
:1008400040F8042BFADB00F013F800BF0837BD4670
:1008500080BD00BF343F00080000002010000020D1
:1008600010000020FC22002080B400AFFEE700BF93
:1008700080B582B000AF01F0C5FF00F013F802F0C0
:10088000A7FEFFF781FCFFF789FDFFF7B7FE00F039
:100890009BFA4FF000637B6000F0BCFE00F082F832
:1008A000FCE700BF80B582B000AF0121022000F05C
:1008B000F5F901233B7110233B6002237B71002378
:1008C000BB710023FB713B461946324801F056FDCF
:1008D0001021304801F014FE0121042000F0DEF95F
:1008E00001233B714FF400533B6002237B710023D3
:1008F000BB710023FB713B461946274801F03EFDC2
:100900004FF40051244801F0FBFD0121082000F0C4
:10091000C5F901233B7143F2AA033B6002237B71BB
:100920000023BB710023FB713B4619461B4801F0B5
:1009300025FD0821194801F0E3FD0221174801F0C7
:10094000DFFD2021154801F0DBFD8021134801F077
:10095000D7FD0121102000F0A1F901233B714FF4D4
:1009600005633B6002237B710023BB710023FB7195
:100970003B4619460A4801F001FD1021084801F0E4
:10098000BFFD4021064801F0BBFD00BF0837BD4652
:1009900080BD00BF0004024000080240000C02407D
:1009A0000010024080B500AF564B63221A70564BC0
:1009B000DB7883F00103DBB2002B15D0534B01220F
:1009C0005A60524B01229A60504B40F25322DA6037
:1009D0004E4B40F653621A614C4B40F6D9729A82E4
:1009E0004A4B40F641629A61494B1B78DBB2002BBF
:1009F00005D0454B0022DA70454B00221A70454B5A
:100A00001B78DBB2002B1AD0404B0A225A603F4BB6
:100A100005229A603D4B40F6FF72DA603B4B40F690
:100A2000FB321A61394B40F661229A82374B40F211
:100A300045529A61374B00221A7000F009FE364B7E
:100A40001B78DBB2002B04D001F00EF8324B0022F1
:100A50001A702E4B5B680A2B04D110212F4801F02D
:100A60005DFD03E010212D4801F04AFD274B9B68F6
:100A7000052B04D180212A4801F050FD03E080219C
:100A8000274801F03DFD214BDB6840F6FF729342A1
:100A900004D12021224801F041FD03E0202120481B
:100AA00001F02EFD194B1B6940F6FB32934204D135
:100AB00008211B4801F032FD03E00821184801F02D
:100AC0001FFD124BB3F9143040F66122934204D15A
:100AD0000221134801F022FD03E00221104801F039
:100AE0000FFD0A4B9B6940F24552934204D11021FD
:100AF0000C4801F013FD03E010210A4801F000FD4D
:100B000000BF80BDC000002028010020B0010020EF
:100B1000EF010020EE010020FE0100200004024051
:100B2000000C02400010024080B483B000AF0346C6
:100B3000FB71044AFB79136000BF0C37BD4680BCD3
:100B4000704700BF6800474280B489B000AF78604A
:100B50000023BB6100237B610023FB6102233B6117
:100B60000023FB600223BB60484B9B6803F00C032F
:100B7000BB61BB69042B07D0082B09D0002B3FD1E8
:100B80007B68434A1A603FE07B68424A1A603BE058
:100B90003E4B5B6803F480039B0DFB603B4B5B6843
:100BA00003F03F03BB60FB68002B0DD0394ABB68E4
:100BB000B2FBF3F2354B596847F6C0730B409B0903
:100BC00003FB02F3FB610CE0314ABB68B2FBF3F2BA
:100BD0002E4B596847F6C0730B409B0903FB02F389
:100BE000FB612A4B5B6803F440331B0C01335B0051
:100BF0003B61FA693B69B2FBF3F27B681A6003E080
:100C00007B68234A1A6000BF204B9B6803F0F00307
:100C1000BB61BB691B09BB611F4ABB6913441B78DD
:100C2000DBB27B617B681A687B69DA407B685A605B
:100C3000164B9B6803F4E053BB61BB699B0ABB6125
:100C4000154ABB6913441B78DBB27B617B685A6829
:100C50007B69DA407B689A600C4B9B6803F46043C5
:100C6000BB61BB695B0BBB610B4ABB6913441B785F
:100C7000DBB27B617B685A687B69DA407B68DA604B
:100C800000BF2437BD4680BC704700BF003802401B
:100C90000024F40000127A000000002080B483B029
:100CA00000AF78600B46FB70FB78002B06D009493B
:100CB000084B1A6B7B6813430B6306E00549054B31
:100CC0001A6B7B68DB4313400B6300BF0C37BD46D8
:100CD00080BC70470038024080B483B000AF7860B9
:100CE0000B46FB70FB78002B06D00949084B1A6CA9
:100CF0007B6813430B6406E00549054B1A6C7B685F
:100D0000DB4313400B6400BF0C37BD4680BC70470B
:100D10000038024080B483B000AF78600B46FB70AF
:100D2000FB78002B06D00949084B5A6C7B681343AB
:100D30004B6406E00549054B5A6C7B68DB43134066
:100D40004B6400BF0C37BD4680BC70470038024082
:100D500080B483B000AF78600B46FB70FB78002B4B
:100D600006D00949084B1A6A7B6813430B6206E0F8
:100D70000549054B1A6A7B68DB4313400B6200BFD1
:100D80000C37BD4680BC70470038024080B483B049
:100D900000AF78600B46FB70FB78002B06D009494A
:100DA000084B5A6A7B6813434B6206E00549054BC2
:100DB0005A6A7B68DB4313404B6200BF0C37BD4669
:100DC00080BC70470038024080B586B000AF01217A
:100DD0000220FFF763FF01210820FFF75FFF0121D9
:100DE0000120FFF75BFF01210420FFF757FF2823B5
:100DF0003B6100233B750023FB7502237B7507F1E4
:100E0000100319462E4801F0B9FA45233B6100232F
:100E10003B750023FB7502237B7507F11003194610
:100E2000284801F0ABFA40F201133B6100233B7507
:100E30000023FB7502237B7507F110031946224836
:100E400001F09CFA4FF480733B6100233B75002353
:100E5000FB7502237B7507F1100319461B4801F04F
:100E60008DFA01212020FFF737FF0023BB810023EB
:100E7000FB805423BB604FF47A73BB803B1D194643
:100E8000134802F075FC01220121114802F0FAFC1E
:100E900037233B700123FB700F237B700F23BB7044
:100EA00001210B4802F012FD3B46184602F030FBD0
:100EB0000121074802F0C6FC00BF1837BD4680BDBF
:100EC00000040240000C0240000002400008024002
:100ED0000014004080B582B000AF00237B60082181
:100EE000A04801F0F3FA0346002B14BF01230023AE
:100EF000DAB29D4B9A7020219A4801F0E7FA034636
:100F0000002B14BF01230023DAB2974B9A72012100
:100F1000964801F0DBFA0346002B14BF012300239F
:100F2000DAB2914B9A740421904801F0CFFA03464B
:100F3000002B14BF01230023DAB28B4B9A76402199
:100F40008A4801F0C3FA0346002B14BF0123002393
:100F5000DAB2854B83F8222000237B6049E0824A85
:100F60007B68DB0013440022DA707F4A7B68DB0079
:100F700013445B68002B0ADD7B4A7B68DB0013446B
:100F80005B685A1E78497B68DB000B445A60764ADE
:100F90007B68DB0013445B78002B1CD0724A7B68B3
:100FA000DB0013449B7883F00103DBB2002B12D0EB
:100FB0006D4A7B68DB0013445B68002B0BD16A4AE7
:100FC0007B68DB0013440122DA70674A7B68DB0030
:100FD00013440F225A60644A7B68DB0013449978FB
:100FE000614A7B68DB0013440A465A707B68013310
:100FF0007B607B68042BB2DD5B4BDB781A465C4B75
:101000001B78DBB25340002B14BF01230023DAB25C
:10101000574B1A70544BDB7A1A46564B1B78DBB28F
:101020005340002B14BF01230023DAB2514B1A7036
:101030004D4BDB7C1A46504B1B78DBB25340002BE8
:1010400014BF01230023DAB24B4B1A70464BDB7EF0
:101050001A464A4B1B78DBB25340002B14BF0123C6
:101060000023DAB2454B1A703F4B93F823301A46EF
:10107000434B1B78DBB25340002B14BF01230023EA
:10108000DAB23F4B1A703F4B9B68002B05DD3D4B9E
:101090009B68013B3B4A936087E04FF480713A487C
:1010A00001F014FA0346002B14BF01230023DAB227
:1010B000344BDA704FF48071344801F007FA03467C
:1010C000002B14BF01230023DAB22E4B1A712D4BD3
:1010D0005B78002B27D02B4BDB7883F00103DBB24E
:1010E000002B20D0274B0A229A60264B1B79002B1D
:1010F00019D0274B1B78DBB2002B0BD0244B1B786D
:10110000DBB2013BDAB2224B1A704021214801F0D8
:1011100013FA02E01E4B63221A701D4B1B78DBB2E0
:10112000184600F0D3FE174B9B78002B3DD0154B93
:101130001B7983F00103DBB2002B36D0114B0A225E
:101140009A60104BDB78002B2FD0114B1B78DBB251
:10115000622B21D80E4B1B78DBB20133DAB20C4B79
:101160001A701CE00004024014000020000C024031
:10117000FE010020EF010020CC010020DE01002054
:10118000EE0100203C000020000002400008024068
:10119000C000002000100240434B00221A70424B56
:1011A0001B78DBB2184600F091FE404BDA783F4BDB
:1011B0005A703E4B1A793D4B9A703D4B5B68002B41
:1011C00005DD3B4B5B68013B394A53605FE0012121
:1011D000384801F07BF90346002B14BF012300239C
:1011E000DAB2334B9A70324B5B7883F00103DBB297
:1011F000002B0CD02E4B9B78002B08D02C4B0122BF
:10120000DA702B4B0F225A60294B00229A60284B30
:101210005B78002B1CD0264B9B78002B18D0244BDE
:10122000DB78002B14D0224B9B680A33204A936052
:101230001F4B0F225A601E4B9B68B3F57A7F07DB6A
:101240004FF400411C4801F077F9194B0022DA7085
:10125000174B5B7883F00103DBB2002B17D0144BE4
:101260009B7883F00103DBB2002B10D0104BDB78AE
:10127000002B0CD00E4B0022DA700D4B9B68B3F59F
:101280007A7F04DA4FF480510B4801F055F9084B8E
:101290009A78074B5A700121084802F017FB00BFEB
:1012A0000837BD4680BD00BFC00000203C000020C4
:1012B0004800002000000240000C024000140040E2
:1012C00080B485B000AF786039600023FB600023F4
:1012D000FB727B685B68FB60FB6823F0407323F460
:1012E0008073FB603B681B791A023B681B681343E1
:1012F000FA681343FB607B68FA685A607B689B68F6
:10130000FB60FA68174B1340FB603B681A693B6847
:10131000DB681A433B689B681A433B685B795B0058
:101320001343FA681343FB607B68FA689A607B6832
:10133000DB6AFB60FB6823F47003FB603B681B7D8A
:10134000013BDAB2FB7A1343FB72FB7A1B05FA68A6
:101350001343FB607B68FA68DA6200BF1437BD464E
:1013600080BC7047FDF7FFC080B485B000AF7860E7
:101370000023FB600E4B5B68FB60FA680D4B13406B
:10138000FB607B681A687B685B681A437B689B68B4
:101390001A437B68DB681343FA681343FB60044A13
:1013A000FB68536000BF1437BD4680BC704700BF68
:1013B00000230140E030FCFF80B483B000AF7860D0
:1013C0000B46FB70FB78002B06D07B689B6843F0D4
:1013D00001027B689A6005E07B689B6823F001024C
:1013E0007B689A6000BF0C37BD4680BC704700BF69
:1013F00080B485B000AF7860084611461A460346AF
:10140000FB700B46BB7013467B700023FB60002310
:10141000BB60FB78092B23D97B68DB68FB60FB781A
:10142000A3F10A0213465B001344072202FA03F3F6
:10143000BB60BB68DB43FA681340FB607978FB78DC
:10144000A3F10A0213465B00134401FA03F3BB60E5
:10145000FA68BB681343FB607B68FA68DA601EE0D9
:101460007B681B69FB60FA7813465B001344072214
:1014700002FA03F3BB60BB68DB43FA681340FB600E
:101480007978FA7813465B00134401FA03F3BB60E2
:10149000FA68BB681343FB607B68FA681A61BB7823
:1014A000062B21D87B685B6BFB60BB785A1E13460A
:1014B0009B0013441F2202FA03F3BB60BB68DB43AB
:1014C000FA681340FB60F978BB785A1E13469B00FC
:1014D000134401FA03F3BB60FA68BB681343FB6073
:1014E0007B68FA685A6347E0BB780C2B21D87B688D
:1014F0001B6BFB60BB78DA1F13469B0013441F2253
:1015000002FA03F3BB60BB68DB43FA681340FB607D
:10151000F978BB78DA1F13469B00134401FA03F3F2
:10152000BB60FA68BB681343FB607B68FA681A63A8
:1015300022E07B68DB6AFB60BB78A3F10D021346F7
:101540009B0013441F2202FA03F3BB60BB68DB431A
:10155000FA681340FB60F978BB78A3F10D021346DB
:101560009B00134401FA03F3BB60FA68BB681343A2
:10157000FB607B68FA68DA6200BF1437BD4680BC46
:10158000704700BF80B483B000AF78607B689B6811
:1015900043F080427B689A6000BF0C37BD4680BC38
:1015A000704700BF80B483B000AF78600B46FB701B
:1015B000FB78002B06D07B689B6843F480727B68C5
:1015C0009A6005E07B689B6823F480727B689A6070
:1015D00000BF0C37BD4680BC704700BF80B483B0ED
:1015E00000AF78600B46FB70FB78002B06D07B6861
:1015F0009B6843F400727B689A6005E07B689B6897
:1016000023F400727B689A6000BF0C37BD4680BC33
:10161000704700BF80B582B000AF00237B6007E059
:101620000A497B687A6841F823207B6801337B6034
:101630007B6840F633029342F2DD00F0D7FF02F000
:1016400055F900BF0837BD4680BD00BF2C02002001
:1016500080B582B000AFB84B5B689BB21B14FB80B7
:10166000B64B1B78DBB21A4613465B001344DA0014
:10167000D31AB34A52F823309BB2FA88114618465F
:1016800002F0D6FAAC4B5B68FB80AC4B1B78DBB24C
:101690001A4613465B001344DA00D31A0133A84AF2
:1016A00052F823309BB2FA881146184602F0C0FA6D
:1016B000A14B9B689BB21B14FB80A04B1B78DBB239
:1016C0001A4613465B001344DA00D31A02339C4ACD
:1016D00052F823309BB2FA881146184602F0A8FA55
:1016E000954B9B68FB80954B1B78DBB21A461346E3
:1016F0005B001344DA00D31A0333914A52F82330C3
:101700009BB2FA881146184602F092FA8A4BDB68BF
:101710009BB21B14FB80894B1B78DBB21A46134625
:101720005B001344DA00D31A0433854A52F823309D
:101730009BB2FA881146184602F07AFA7E4BDB68B3
:10174000FB807E4B1B78DBB21A4613465B001344CA
:10175000DA00D31A05337A4A52F823309BB2FA885A
:101760001146184602F064FA734B1B699BB21B14B6
:10177000FB80724B1B78DBB21A4613465B001344A6
:10178000DA00D31A06336E4A52F823309BB2FA8835
:101790001146184602F04CFA674B1B69FB80674BF9
:1017A0001B78DBB21A4613465B001344DA00D31AE7
:1017B0000733634A52F823309BB2FA881146184621
:1017C00002F036FA5C4B9B8AFB805C4B1B78DBB2E9
:1017D0001A4613465B001344DA00D31A0833584AFA
:1017E00052F823309BB2FA881146184602F020FACC
:1017F000514B9B699BB21B14FB80504B1B78DBB297
:101800001A4613465B001344DA00D31A09334C4AD4
:1018100052F823309BB2FA881146184602F008FAB3
:10182000454B9B69FB80454B1B78DBB21A46134640
:101830005B001344DA00D31A0A33414A52F82330CA
:101840009BB2FA881146184602F0F2F93D4B5B68EC
:101850009BB21B14FB80394B1B78DBB21A46134634
:101860005B001344DA00D31A0B33354A52F82330A5
:101870009BB2FA881146184602F0DAF9314B5B68E0
:10188000FB802E4B1B78DBB21A4613465B001344D9
:10189000DA00D31A0C332A4A52F823309BB2FA8862
:1018A0001146184602F0C4F9264B9B689BB21B14E4
:1018B000FB80224B1B78DBB21A4613465B001344B5
:1018C000DA00D31A0D331E4A52F823309BB2FA883D
:1018D0001146184602F0ACF91A4B9B68FB80174B77
:1018E0001B78DBB29BB21A46520013441A46D20050
:1018F000D31A9BB20E339BB2FA881146184602F0F7
:1019000097F9104BDB689BB21B14FB800B4B1B78C9
:10191000DBB21A4613465B001344DA00D31A0F33C6
:10192000074A52F823309BB2FA881146184602F053
:101930007FF9044BDB6807E0B0010020C000002005
:101940002C020020A4000020FB80444B1B78DBB25B
:101950001A4613465B001344DA00D31A1033404A88
:1019600052F823309BB2FA881146184602F060F90B
:101970003C4B1B699BB21B14FB80384B1B78DBB2C2
:101980001A4613465B001344DA00D31A1133344A63
:1019900052F823309BB2FA881146184602F048F9F3
:1019A000304B1B69FB802D4B1B78DBB21A4613466C
:1019B0005B001344DA00D31A1233294A52F8233059
:1019C0009BB2FA881146184602F032F9254B9B8AE1
:1019D000FB80224B1B78DBB21A4613465B00134494
:1019E000DA00D31A13331E4A52F823309BB2FA8816
:1019F0001146184602F01CF91A4B9B699BB21B1446
:101A0000FB80164B1B78DBB21A4613465B0013446F
:101A1000DA00D31A1433124A52F823309BB2FA88F0
:101A20001146184602F004F90E4B9B69FB800B4BE4
:101A30001B78DBB25A1C13465B001344DA00D31A3E
:101A4000074A52F823309BB2FA881146184602F032
:101A5000EFF800BF0837BD4680BD00BFC0000020C2
:101A60002C020020A400002080B582B000AFC74B3C
:101A700001221A70C54B01225A70C44B01229A7080
:101A8000C24B0122DA70C14B01221A71BF4B0122F5
:101A90005A71BE4B01229A71BD4B01221A70BC4B88
:101AA00001225A70BA4B01229A70B94B0122DA70A6
:101AB000B74B01221A71B64B01225A71B44B012265
:101AC0009A71B44B1B78DBB21A4613465B00134481
:101AD000DA00D31AB04A52F823309BB2BA1D11462D
:101AE000184602F05BF8AB4B1B78DBB21A46134684
:101AF0005B001344DA00D31A0133A74A52F82330AB
:101B00009BB23A1D1146184602F048F8FB881B04A8
:101B1000BA8813431A46A14B5A609E4B1B78DBB21E
:101B20001A4613465B001344DA00D31A02339A4A6A
:101B300052F823309BB2BA1D1146184602F02EF817
:101B4000944B1B78DBB21A4613465B001344DA0051
:101B5000D31A0333904A52F823309BB23A1D1146F0
:101B6000184602F01BF8FB881B04BA8813431A4678
:101B70008A4B9A60874B1B78DBB21A4613465B0090
:101B80001344DA00D31A0433834A52F823309BB249
:101B9000BA1D1146184602F001F87E4B1B78DBB2E5
:101BA0001A4613465B001344DA00D31A05337A4A07
:101BB00052F823309BB23A1D1146184601F0EEFF51
:101BC000FB881B04BA8813431A46744BDA60714BC6
:101BD0001B78DBB21A4613465B001344DA00D31AB3
:101BE00006336D4A52F823309BB2BA1D114618468F
:101BF00001F0D4FF674B1B78DBB21A4613465B003B
:101C00001344DA00D31A0733634A52F823309BB2E5
:101C10003A1D1146184601F0C1FFFB881B04BA8823
:101C200013431A465D4B1A615A4B1B78DBB21A46B6
:101C300013465B001344DA00D31A0833564A52F8AD
:101C400023309BB2BA1D1146184601F0A7FFFB884E
:101C50001AB2524B9A824F4B1B78DBB21A4613468C
:101C60005B001344DA00D31A09334B4A52F823308D
:101C70009BB2BA1D1146184601F090FF454B1B78E8
:101C8000DBB21A4613465B001344DA00D31A0A3358
:101C9000414A52F823309BB23A1D1146184601F0D2
:101CA0007DFFFB881B04BA8813431A463B4B9A619D
:101CB000384B1B78DBB21A4613465B001344DA003C
:101CC000D31A0B33344A52F823309BB2BA1D114653
:101CD000184601F063FF2F4B1B78DBB21A46134600
:101CE0005B001344DA00D31A0C332B4A52F823302A
:101CF0009BB23A1D1146184601F050FFFB881B04A9
:101D0000BA8813431A46264B5A60224B1B78DBB223
:101D10001A4613465B001344DA00D31A0D331E4AE9
:101D200052F823309BB2BA1D1146184601F036FF17
:101D3000184B1B78DBB21A4613465B001344DA00DB
:101D4000D31A0E33144A52F823309BB23A1D11466F
:101D5000184601F023FFFB881B04BA8813431A4678
:101D60000F4B9A600B4B1B78DBB21A4613465B0095
:101D70001344DA00D31A0F33074A52F823309BB2C8
:101D8000BA1D1146184601F009FF0BE0280100209A
:101D90009C000020C00000202C020020B001002088
:101DA000A4000020464B1B78DBB21A4613465B00AA
:101DB0001344DA00D31A1033424A52F823309BB24C
:101DC0003A1D1146184601F0E9FEFB881B04BA884B
:101DD00013431A463C4BDA60394B1B78DBB21A4688
:101DE00013465B001344DA00D31A1133354A52F814
:101DF00023309BB2BA1D1146184601F0CFFE304B7E
:101E00001B78DBB21A4613465B001344DA00D31A80
:101E100012332C4A52F823309BB23A1D1146184611
:101E200001F0BCFEFB881B04BA8813431A46264BFC
:101E30001A61234B1B78DBB21A4613465B0013442E
:101E4000DA00D31A13331F4A52F823309BB2BA1D5B
:101E50001146184601F0A2FEFB881AB21A4B9A826C
:101E6000174B1B78DBB21A4613465B001344DA00AB
:101E7000D31A1433134A52F823309BB2BA1D1146B9
:101E8000184601F08BFE0E4B1B78DBB25A1C134632
:101E90005B001344DA00D31A0A4A52F823309BB28B
:101EA0003A1D1146184601F079FEFB881B04BA88DA
:101EB00013431A46044B9A6100BF0837BD4680BDE4
:101EC000C00000202C020020A400002080B584B0B7
:101ED00000AF78607B68CF4A82FB03129210DB1759
:101EE000D31AFB60FB686FF0090202FB03F27B6808
:101EF0001344BB60FB68092B00F2128101A252F867
:101F000023F000BF2D1F00086B1F0008811F000871
:101F1000B51F0008E91F000813200008472000082B
:101F20007B2000089B200008E32000084FF40051AC
:101F3000B94800F0E5FA4FF40061B74800F0E0FA64
:101F40004FF48061B54800F0DBFA4FF48051B3489C
:101F500000F0D6FA4FF48041B04800F0D1FA4FF4C7
:101F60000041AD4800F0CCFADAE04FF40061AA4835
:101F700000F0C6FA4FF48061A84800F0C1FACFE043
:101F80004FF40051A44800F0BBFA4FF40061A2489E
:101F900000F0B6FA4FF40061A14800F0B1FA4FF436
:101FA00000419D4800F0ACFA4FF480519B4800F08E
:101FB000A7FAB5E04FF40051974800F0A1FA4FF4AA
:101FC0000061954800F09CFA4FF40061944800F0DD
:101FD00097FA4FF48061914800F092FA4FF48051E3
:101FE0008E4800F08DFA9BE04FF400418A4800F0E3
:101FF00087FA4FF40061884800F082FA4FF40061DC
:10200000874800F07DFA4FF48061844800F078FA48
:1020100086E04FF40051804800F072FA4FF400411E
:102020007D4800F06DFA4FF400617D4800F068FAD9
:102030004FF48061794800F063FA4FF4805177489B
:1020400000F05EFA6CE04FF40041734800F058FA7B
:102050004FF40061724800F053FA4FF480616F480A
:1020600000F04EFA4FF480516C4800F049FA4FF4FA
:1020700080416A4800F044FA52E04FF4005166484B
:1020800000F03EFA4FF40061634800F039FA4FF473
:102090008061624800F034FA42E04FF400515E483B
:1020A00000F02EFA4FF400615B4800F029FA4FF47B
:1020B00080615A4800F024FA4FF48051574800F0EC
:1020C0001FFA4FF48041554800F01AFA4FF40041CE
:1020D000514800F015FA4FF40061514800F010FA31
:1020E0001EE04FF400514C4800F00AFA4FF4006132
:1020F000494800F005FA4FF48061484800F000FAC2
:102100004FF48051454800F0FBF94FF4004142483C
:1021100000F0F6F94FF40061414800F0F1F900BF1A
:10212000BB68092B00F21F8101A252F823F000BF07
:102130005921000897210008AD210008E12100087D
:10214000252200084F22000883220008C12200082F
:10215000E1220008292300084FF40041304800F034
:10216000CFF94FF400512E4800F0CAF94FF48041E6
:10217000294800F0C5F94FF48051294800F0C0F912
:102180004FF48041264800F0BBF94FF4007123481A
:1021900000F0B6F9E7E04FF40051214800F0B0F943
:1021A0004FF480411C4800F0ABF9DCE04FF40041F3
:1021B0001B4800F0A5F94FF40051194800F0A0F9B0
:1021C0004FF40061154800F09BF94FF4804114482A
:1021D00000F096F94FF48051114800F091F9C2E0F7
:1021E0004FF400410E4800F08BF94FF400510C48B9
:1021F00000F086F94FF40061084800F081F94FF4CF
:102200008041054800F07CF94FF48051044800F00B
:1022100077F9A8E06766666600100240000C02408D
:10222000000402404FF40071514800F069F94FF486
:1022300000614F4800F064F94FF400514D4800F040
:102240005FF94FF480414C4800F05AF98BE04FF4AD
:102250000041484800F054F94FF40071444800F040
:102260004FF94FF40061424800F04AF94FF48041C1
:10227000414800F045F94FF480513E4800F040F9E4
:1022800071E04FF400413B4800F03AF94FF400711F
:10229000374800F035F94FF48041364800F030F906
:1022A0004FF40061324800F02BF94FF4804132487E
:1022B00000F026F94FF480512E4800F021F952E049
:1022C0004FF400412B4800F01BF94FF4005129480E
:1022D00000F016F94FF48041274800F011F942E070
:1022E0004FF40041234800F00BF94FF4005121480E
:1022F00000F006F94FF480411F4800F001F94FF457
:1023000080511C4800F0FCF84FF48041194800F05F
:10231000F7F84FF40071164800F0F2F84FF400613E
:10232000134800F0EDF81EE04FF40041114800F0B2
:10233000E7F84FF400510F4800F0E2F84FF4804105
:102340000D4800F0DDF84FF40071094800F0D8F8AE
:102350004FF40061064800F0D3F84FF4805105486F
:1023600000F0CEF800BF00BF1037BD4680BD00BFF3
:10237000000C0240000402400010024080B487B00C
:1023800000AF7860396000237B6100233B6100234C
:10239000FB6000237B6176E001227B6902FA03F394
:1023A0003B613B681A683B691340FB60FA683B6914
:1023B0009A4265D17B681A687B695B00032101FA48
:1023C00003F3DB431A407B681A607B681A683B683A
:1023D0001B7919467B695B0001FA03F31A437B689A
:1023E0001A603B681B79012B03D03B681B79022BD9
:1023F0002ED17B689A687B695B00032101FA03F3A5
:10240000DB431A407B689A607B689A683B685B791B
:1024100019467B695B0001FA03F31A437B689A60F3
:102420007B685A687B699BB2194601238B40DB436A
:102430001A407B685A607B685B683A6892791146FB
:102440007A6992B201FA02F292B21A437B685A6038
:102450007B68DA687B699BB25B00032101FA03F3B6
:10246000DB431A407B68DA607B68DA683B68DB79BB
:1024700019467B695B0001FA03F31A437B68DA6053
:102480007B6901337B617B690F2B85D900BF1C37CA
:10249000BD4680BC704700BF80B483B000AF786099
:1024A0007B684FF6FF721A607B6800221A717B68A6
:1024B00000225A717B6800229A717B680022DA71CF
:1024C00000BF0C37BD4680BC704700BF80B485B0EC
:1024D00000AF78600B467B800023FB737B681A6932
:1024E0007B881340002B02D00123FB7301E0002303
:1024F000FB73FB7B18461437BD4680BC704700BF9A
:1025000080B483B000AF78600B467B807B687A88AC
:102510001A8300BF0C37BD4680BC704780B483B0BF
:1025200000AF78600B467B807B687A885A8300BF57
:102530000C37BD4680BC704780B483B000AF786074
:102540000B467B807B685A697B885A407B685A615E
:1025500000BF0C37BD4680BC704700BF80B485B05B
:1025600000AF78600B467B8013467B700023FB60D6
:102570000023BB607A787B8803F007039B0002FA94
:1025800003F3FB607B88DB089BB218467B88DB0883
:102590009BB21A467B68083253F822207B8803F0EE
:1025A00007039B000F2101FA03F3DB4302EA030157
:1025B0007B6800F1080243F822107B88DB089BB29D
:1025C0001A467B68083253F82220FB681343BB602D
:1025D0007B88DB089BB21A467B680832B96843F8EF
:1025E000221000BF1437BD4680BC704780B400AFD6
:1025F000064B1B69002B05DA044B054A5A60034B56
:10260000044A5A6000BFBD4680BC7047003C02408F
:1026100023016745AB89EFCD80B584B000AF78600A
:102620000B46FB700023FB600823FB72FB78002B3A
:1026300002D10023FB6010E0FB78012B03D14FF4A3
:102640008073FB6009E0FB78022B03D14FF4007329
:10265000FB6002E04FF44073FB6000F0A7F8034614
:10266000FB72FB7A082B2FD11A4A1A4B1B6923F4F1
:10267000407313611749174B1A69FB6813430B61C9
:10268000144A144B1B6923F0F80313611149114BD1
:102690001A697B68134343F002030B610D4A0D4B2B
:1026A0001B6943F48033136100F080F80346FB722A
:1026B000084A084B1B6923F002031361054A054BC6
:1026C0001B6923F0F8031361FB7A18461037BD46E7
:1026D00080BD00BF003C024080B584B000AF786090
:1026E0000B467B800823FB7300F060F80346FB7306
:1026F000FB7B082B1ED1124A114B1B6923F440733C
:1027000013610F4A0E4B1B6943F4807313610C4A2B
:102710000B4B1B6943F0010313617B687A881A80B5
:1027200000F044F80346FB73054A054B1B6923F090
:1027300001031361FB7B18461037BD4680BD00BF07
:10274000003C024080B483B000AF0823FB71164BFD
:10275000DB6803F48033002B02D00123FB711CE003
:10276000114BDB6803F01003002B02D00523FB7133
:1027700013E00D4BDB6803F0EF03002B02D00623C0
:10278000FB710AE0084BDB6803F00203002B02D068
:102790000723FB7101E00823FB71FB7918460C3716
:1027A000BD4680BC704700BF003C024080B582B08F
:1027B00000AF0823FB71FFF7C5FF0346FB7103E081
:1027C000FFF7C0FF0346FB71FB79DBB2012BF7D0AB
:1027D000FB79DBB218460837BD4680BDABBE01E0D1
:1027E00000207047002A00D0106001207047069832
:1027F00001884BF6AB62914202D1043006907047DB
:10280000FEE7000080B500AF124A124B1B6843F090
:10281000010313600F4B00229A600E4A0D4B1B6898
:1028200023F0847323F4803313600A4B0A4A5A60FE
:10283000084A084B1B6823F480231360054B0022D1
:10284000DA6000F00DF8054B4FF000629A6000BFAF
:1028500080BD00BF003802401030002400ED00E0D1
:1028600080B483B000AF00237B6000233B60354A17
:10287000344B1B6843F480331360324B1B6803F402
:1028800000333B607B6801337B603B68002B03D1E6
:102890007B68B3F5A06FF0D12A4B1B6803F40033BB
:1028A000002B02D001233B6001E000233B603B682A
:1028B000012B42D1234A234B1B6C43F080531364FA
:1028C000214A214B1B6843F4804313601D4A1D4B72
:1028D0009B6893601B4A1B4B9B6843F400439360C7
:1028E000184A184B9B6843F4A0539360154B174A42
:1028F0005A60144A134B1B6843F08073136000BF87
:10290000104B1B6803F00073002BF9D0104B40F202
:1029100005621A600B4A0B4B9B6823F0030393601C
:10292000084A084B9B6843F00203936000BF054BC5
:102930009B6803F00C03082BF9D100BF0C37BD4690
:1029400080BC7047003802400070004008544007C7
:10295000003C024080B483B000AF78607B681B68A5
:1029600023F001027B681A607B6800221A607B6892
:1029700000225A607B6800229A607B680022DA603D
:102980007B6800221A617B6821225A617B68454A74
:10299000934203D1444B3D229A607EE07B68434AD8
:1029A000934204D1404B4FF474629A6075E07B68A7
:1029B0003F4A934204D13C4B4FF474129A606CE04E
:1029C0007B683C4A934204D1374B4FF074629A6063
:1029D00063E07B68384A934203D1334B374ADA606D
:1029E0005BE07B68364A934203D12F4B354ADA606D
:1029F00053E07B68344A934203D12B4B334ADA606D
:102A00004BE07B68324A934204D1274B4FF03D5252
:102A1000DA6042E07B682F4A934203D12E4B3D227D
:102A20009A603AE07B682D4A934204D12A4B4FF4D6
:102A300074629A6031E07B68294A934204D1264B44
:102A40004FF474129A6028E07B68264A934204D1BE
:102A5000214B4FF074629A601FE07B68224A9342D8
:102A600003D11D4B154ADA6017E07B681F4A934279
:102A700003D1194B134ADA600FE07B681C4A93427A
:102A800003D1154B114ADA6007E07B68194A93427B
:102A900003D1114B4FF03D52DA6000BF0C37BD46F9
:102AA00080BC704710600240006002402860024015
:102AB0004060024058600240706002403D000020CB
:102AC00088600240400F0020A060024000003D20CE
:102AD000B860024010640240006402402864024072
:102AE00040640240586402407064024088640240BE
:102AF000A0640240B864024080B485B000AF786042
:102B000039600023FB607B681B68FB60FA68244B1C
:102B10001340FB603B681A683B68DB681A433B68FC
:102B20005B691A433B689B691A433B68DB691A433C
:102B30003B681B6A1A433B685B6A1A433B689B6AA3
:102B40001A433B685B6B1A433B689B6B1343FA6801
:102B50001343FB607B68FA681A607B685B69FB6003
:102B6000FB6823F00703FB603B68DA6A3B681B6B7A
:102B70001343FA681343FB607B68FA685A613B6849
:102B80001A697B685A603B685A687B689A603B6840
:102B90009A687B68DA6000BF1437BD4680BC704716
:102BA0003F801CF080B483B000AF78600B46FB70B0
:102BB000FB78002B06D07B681B6843F001027B6822
:102BC0001A6005E07B681B6823F001027B681A60CD
:102BD00000BF0C37BD4680BC704700BF80B485B0D5
:102BE00000AFF860B9607A607B68002B06D0FB68A4
:102BF0001B6843F40022FB681A6005E0FB681B6851
:102C000023F40022FB681A60FB68BA681A6100BFEF
:102C10001437BD4680BC704780B483B000AF786085
:102C20000B46FB70FB78002B06D07B681B6843F4D7
:102C300080227B681A6005E07B681B6823F4802291
:102C40007B681A6000BF0C37BD4680BC704700BF70
:102C500080B485B000AFF860B9601346FB71BB6803
:102C600003F08003002B0FD0FB79002B06D0FB680C
:102C70005B6943F08002FB685A6105E0FB685B69B1
:102C800023F08002FB685A61BB68802B14D0FB796B
:102C9000002B08D0FB681A68BB6803F01E031A43B8
:102CA000FB681A6008E0FB681A68BB6803F01E0343
:102CB000DB431A40FB681A6000BF1437BD4680BC76
:102CC000704700BF80B487B000AF786039600023E0
:102CD000FB750023FB600023BB607B68214A9342A5
:102CE00002D8214B3B6101E0204B3B613B6823F064
:102CF000F02323F0C313002B0AD03B68DB0A03F058
:102D00001E03FB607B681A68FB681340BB6004E02D
:102D10007B685B6903F08003BB603B6803F0005392
:102D2000002B03D03B695B68FB6002E03B691B68DA
:102D3000FB60FB6823F0F02323F08213FB60FA684A
:102D40003B681340002B05D0BB68002B02D0012349
:102D5000FB7501E00023FB75FB7D18461C37BD4663
:102D600080BC70470F640240006002400064024073
:102D700080B485B000AF786039607B68104A9342B8
:102D800002D8104BFB6001E00F4BFB603B6803F087
:102D90000053002B07D03B6823F0F02323F082136D
:102DA000FA68D36006E03B6823F0F02323F0821337
:102DB000FA68936000BF1437BD4680BC704700BFFF
:102DC0000F640240006002400064024080B582B09F
:102DD00000AF78607B68174A93420AD101214FF413
:102DE0008050FDF7D3FF00214FF48050FDF7CEFF58
:102DF0001CE07B68104A93420AD101214FF48040C5
:102E0000FDF7A6FF00214FF48040FDF7A1FF0DE084
:102E10007B680A4A934209D101214FF40040FDF733
:102E200097FF00214FF40040FDF792FF00BF0837E5
:102E3000BD4680BD0030014000380040003C0040ED
:102E400080B48BB000AF7860396000237B830223AD
:102E5000FB840023BB8401237B840023FB610023CC
:102E60007B6100233B610023FB600023BB607B6828
:102E70009B8B9BB223F47B6323F00F039AB27B6896
:102E80009A837B6802221A847B689B8B7B833B68D6
:102E90009B68022B04D10023BB840223FB8472E0D5
:102EA0003B689B88002B02D101237B8401E0022335
:102EB0007B844D4B9B6803F40003002B05D04A4AEA
:102EC000494B9B6823F400039360474BD3F884205D
:102ED00047F6C07313409B09C3F30803FB60424BE2
:102EE000D3F8843003F0E0431B0F03F00703BB600B
:102EF0003D4B5B6803F03F033B613C4A3B69B2FBDF
:102F0000F3F3FA6802FB03F2BB68B2FBF3F37B61F5
:102F10003B68DB88B3F5007F0FD17B691A0A134643
:102F20009B0013445B001A463B689B68B2FBF3F3BB
:102F30009BB205339BB2FB6112E07B8C5B011A46AE
:102F40007B69B3FBF2F213469B0013445B001A4605
:102F50003B689B68B2FBF3F39BB205339BB2FB610A
:102F6000FB69234AA2FB0323DB08FB61FB699BB2DD
:102F700003F00103BB84BB8CFA69D31A5B08FB84A2
:102F8000BB8C1B02BB84FB8C012B02D9FB8CFF2B5F
:102F900003D90223FB840023BB843B68DA88BB8C03
:102FA00013439AB2FB8C13439AB27B681A843B6832
:102FB0001A883B6859883B6898883B689B8903431B
:102FC0009BB20B439BB213439AB27B8B13439BB2CE
:102FD00043F400637B837B687A8B9A8300BF2C3732
:102FE000BD4680BC704700BF0038024000127A0026
:102FF000CDCCCCCC80B483B000AF78600B46FB70F6
:10300000FB78002B08D07B689B8B9BB243F48063DA
:103010009AB27B689A8307E07B689B8B9BB223F410
:1030200080639AB27B689A8300BF0C37BD4680BC30
:10303000704700BF80B483B000AF78600B467B80E0
:1030400013467B707B78002B08D07B689B889AB2F4
:103050007B8813439AB27B689A8009E07B689B88DF
:103060009AB27B88DB439BB213409AB27B689A800A
:1030700000BF0C37BD4680BC704700BF80B485B030
:1030800000AF78600B46FB701346BB700023FB81DA
:103090000023BB81FB781B09DBB2FB81FB8901228A
:1030A00002FA03F3BB81BB78002B08D07B689B88B6
:1030B0009AB2BB8913439AB27B689A8009E07B6815
:1030C0009B889AB2BB89DB439BB213409AB27B6860
:1030D0009A8000BF1437BD4680BC704780B582B06F
:1030E00000AF78607B68174A93420AD101214FF400
:1030F0000010FDF72DFE00214FF40010FDF728FE13
:103100001CE07B68104A93420AD101214FF48000F1
:10311000FDF71EFE00214FF48000FDF719FE0DE0C3
:103120007B680A4A934209D101214FF40000FDF760
:103130000FFE00214FF40000FDF70AFE00BF083724
:10314000BD4680BD0054004000580040005C004077
:1031500080B58AB000AF786039600023FB8400231B
:103160007B840423BB84574BFB617B689B88FB8477
:10317000FB8C23F03F03FB8407F10C031846FDF79B
:10318000E3FC7B69FB61FB694F4AA2FB03239B0CB9
:103190007B84FA8C7B8C1343FB847B68FA8C9A804B
:1031A0007B681B889BB223F001039AB27B681A806C
:1031B0000023FB843B681B68444A934215D83B6854
:1031C0001B685B00FA69B2FBF3F3BB84BB8C032B77
:1031D00001D80423BB84FA8CBB8C1343FB847B8C07
:1031E00001339AB27B681A8440E03B68DB884BF677
:1031F000FF72934209D13B681A6813465B0013447F
:10320000FA69B2FBF3F3BB840EE03B681A6813461D
:103210009B0013449A001344FA69B2FBF3F3BB8496
:10322000BB8C43F48043BB84BB8CC3F30B03002BE8
:1032300003D1BB8C43F00103BB84BA8CFB8C1343DA
:103240009BB26FEA43436FEA5343FB847B8C4FF49A
:10325000967202FB03F31E4A82FB03129211DB17E4
:10326000D31A9BB201339AB27B681A847B68FA8CBA
:103270009A837B681B889BB243F001039AB27B68F8
:103280001A807B681B88FB84FB8C23F4816323F00A
:103290000203FB843B689A883B685B8913439AB2BC
:1032A000FB8C1343FB847B68FA8C1A803B689A89F9
:1032B0003B681B8913439AB27B681A8100BF283789
:1032C000BD4680BD00127A0083DE1B43A08601004C
:1032D000D34D621080B483B000AF78600B46FB70B2
:1032E000FB78002B08D07B681B889BB243F001035E
:1032F0009AB27B681A8007E07B681B889BB223F038
:1033000001039AB27B681A8000BF0C37BD4680BCAF
:10331000704700BF80B483B000AF78600B46FB708D
:10332000FB78002B08D07B681B889BB243F480732A
:103330009AB27B681A8007E07B681B889BB223F4F3
:1033400080739AB27B681A8000BF0C37BD4680BC80
:10335000704700BF80B483B000AF78600B46FB704D
:10336000FB78002B08D07B681B889BB243F400736A
:103370009AB27B681A8007E07B681B889BB223F4B3
:1033800000739AB27B681A8000BF0C37BD4680BCC0
:10339000704700BF80B483B000AF78600B46FB700D
:1033A0001346BB70BB78002B04D0FB7843F00103BD
:1033B000FB7003E0FB7823F00103FB70FB789AB20B
:1033C0007B681A8200BF0C37BD4680BC704700BFC7
:1033D00080B483B000AF78600B46FB70FB78002BA5
:1033E00008D07B681B889BB243F480639AB27B68E9
:1033F0001A8007E07B681B889BB223F480639AB233
:103400007B681A8000BF0C37BD4680BC704700BF88
:1034100080B483B000AF78600B46FB70FB789AB243
:103420007B681A8200BF0C37BD4680BC704700BF66
:1034300080B483B000AF78607B681B8A9BB2DBB23C
:1034400018460C37BD4680BC704700BF80B487B0BB
:1034500000AF7860396000233B610023FB600023EC
:10346000BB600023FB757B689B8A9BB2FB607B681B
:103470001B8B9BB2BB60BB681B04BB60FA68BB685C
:10348000134323F07F433B613A693B681A403B6832
:103490009A4202D10123FB7501E00023FB75FB7DFD
:1034A00018461C37BD4680BC704700BF80B487B04B
:1034B00000AF786039600023FB7500233B61002377
:1034C000FB607B68FB603B681B0F3B613B6823F044
:1034D0007F433B603B69002B03D0FB681433FB60E8
:1034E00005E03B681B0C3B60FB681833FB60FB6826
:1034F0001A683B681340002B02D00123FB7501E0E2
:103500000023FB75FB7D18461C37BD4680BC704709
:1035100080B485B000AF78600023FB730023BB73D9
:103520000F237B737B68DB78002B38D0264BDB685E
:10353000DB4303F4E0631B0AFB73FB7BC3F104036F
:10354000BB737A7BFB7B42FA03F37B737B685B780C
:103550001A46BB7B02FA03F3FB737B689A787B7B8A
:103560001340DAB2FB7B1343FB73FB7B1B01FB7342
:10357000164A7B681B781344FA7B83F80023134AAE
:103580007B681B785B09DBB218467B681B7803F00D
:103590001F03012101FA03F342F820300FE00B4929
:1035A0007B681B785B09DBB218467B681B7803F0ED
:1035B0001F0301229A4000F1200341F8232000BF9D
:1035C0001437BD4680BC704700ED00E000E100E02C
:1035D00080B59CB000AF01214FF48070FDF79AFBDD
:1035E00001215B48FDF75AFB07F168031846FEF717
:1035F00053FF0E23BB66032387F86C30022387F842
:103600006D30002387F86F3007F168031946514881
:10361000FEF7B4FE0323BB6607F1680319464E4864
:10362000FEF7ACFE0623BB6607F1680319464B485C
:10363000FEF7A4FE4A48FFF78DF900237B60494B53
:10364000BB60494BFB6000233B6107237B61002388
:10365000BB614FF48063FB614FF400633B624FF446
:1036600000537B624FF48073BB620023FB62002334
:103670003B6301237B630023BB630023FB633B1D90
:1036800019463748FFF738FA01213548FFF78AFA1B
:1036900000233B6400237B640023BB640023FB64A2
:1036A00007F140031846FDF75FFE00233B65012349
:1036B00087F85430012387F855300023FB654FF419
:1036C00000633B66072387F8643007F1500319460F
:1036D0002648FDF7F5FD0723012201212348FDF7C8
:1036E00087FE0723022202212048FDF781FE0723DF
:1036F000032203211D48FDF77BFE07230422082136
:103700001A48FDF775FE0723052209211748FDF722
:103710006FFE072306220B211448FDF769FE0723DD
:1037200007220C211148FDF763FE01210F48FDF728
:1037300055FF01210D48FDF735FF01210B48FDF72D
:103740003BFE0A48FDF71EFF00BF7037BD4680BD37
:103750000700400000000240000402400008024050
:10376000106402404C200140D001002000200140A4
:1037700080B485B000AF786039600023FB817B683E
:103780001B88FB817B68284A934213D07B68274AB9
:1037900093420FD07B68B3F1804F0BD07B68244AF3
:1037A000934207D07B68234A934203D07B68224A26
:1037B000934208D1FB8923F07003FB813B685A8850
:1037C000FB891343FB817B681C4A93420CD07B68C6
:1037D0001B4A934208D0FB8923F44073FB813B686A
:1037E0001A89FB891343FB817B68FA891A803B683D
:1037F0005A687B68DA623B681A887B681A857B683E
:10380000094A934203D07B68084A934204D13B683B
:103810009B7A9AB27B681A867B6801229A8200BFE3
:103820001437BD4680BC70470000014000040140D1
:103830000004004000080040000C00400010004060
:103840000014004080B483B000AF78600B46FB707A
:10385000FB78002B08D07B681B889BB243F00103E8
:103860009AB27B681A8007E07B681B889BB223F0C2
:1038700001039AB27B681A8000BF0C37BD4680BC3A
:10388000704700BF80B483B000AF78600B467B8088
:1038900013467B707B78002B08D07B689B899AB29B
:1038A0007B8813439AB27B689A8109E07B689B8985
:1038B0009AB27B88DB439BB213409AB27B689A81B1
:1038C00000BF0C37BD4680BC704700BF80B483B0DA
:1038D00000AF78600B467B807B88DB439AB27B68C5
:1038E0001A8200BF0C37BD4680BC704780B584B0DB
:1038F00000AF06237B8106233B810023FB8100234D
:10390000FB800023BB804FF6FF73BB819D4B1B8860
:103910007B819D4B1B883B817B894EF6EE629342F7
:103920003CD04FF6FF72934203D0002B00F0AB80E7
:1039300012E13B89002B0BD102211020FEF76CFE17
:1039400003467B807B88082B00F00F817B8814E185
:103950003B894EF6EE62934216D102211020FEF70B
:103960005BFE03467B807B88082B01D07B8804E1CB
:1039700000218548FEF7B0FE03467B807B88082B3C
:1039800000F0F3807B88F8E000F074F903467B8058
:103990007B88082B00F0E9807B88EEE03B89002BD8
:1039A0004DD10023FB8130E0784B1B889AB2FB8914
:1039B000774931F813309A4201D1FB89BB81FA89EA
:1039C000B7F90C309A421DD0FB89714A32F8133096
:1039D0007049184600F0E2F80346BB80BB88012B13
:1039E00010D0FB896A4A32F813206A4B1B881946AB
:1039F000104600F0ABF90346FB80FB88082B01D092
:103A0000FB88BAE0FB890133FB81FB89022BCBD910
:103A100000215C48FEF760FE03467B807B88082B14
:103A200001D07B88A9E002211820FEF7F5FD0346AE
:103A30007B807B88082B00F09A807B889DE03B8907
:103A40004FF6FF72934215D102211820FEF7E4FDD4
:103A500003467B807B88082B01D07B888DE000218A
:103A60004848FEF739FE03467B807B88082B7ED0D2
:103A70007B8882E000F0FEF803467B807B88082B81
:103A800075D07B8879E03B89002B08D100F0F2F8F3
:103A900003467B807B88082B6BD07B886DE03B895D
:103AA0004FF6FF7293420AD102211820FEF7B4FDAF
:103AB00003467B807B88082B5BD07B885DE00023FE
:103AC000FB8130E0344B1B889AB2FB89304931F8D6
:103AD00013309A4201D1FB89BB81FA89B7F90C30C6
:103AE0009A421DD0FB892A4A32F8133029491846D8
:103AF00000F054F80346BB80BB88012B10D0FB8933
:103B0000234A32F81320234B1B881946104600F035
:103B10001DF90346FB80FB88082B01D0FB882CE0B5
:103B2000FB890133FB81FB89022BCBD9002116488D
:103B3000FEF7D2FD03467B807B88082B01D07B8873
:103B40001BE002211020FEF767FD03467B807B8887
:103B5000082B0ED07B8810E000F08CF803467B80A9
:103B60007B88082B07D07B8807E000BF04E000BFFC
:103B700002E000BF00E000BF082318461037BD4632
:103B800080BD00BF0080000800C00008068000085B
:103B90002C0200205400002006C0000880B586B02A
:103BA00000AF03463960FB800023FB8145F255538B
:103BB000BB810123FB821C4B3B611B4BBB60002084
:103BC00000F080F80346FB81FB89AB2B01D1AB23CE
:103BD00025E0FB8903F5005302339B03BB60FB899F
:103BE00001339A03114B13443B6112E03B691B887C
:103BF000BB81BA89FB889A4208D13B69023B1B888A
:103C00009AB23B681A800023FB8207E03B69043BC1
:103C10003B61BB689A1C3B699A42E7D3FB8A184612
:103C20001837BD4680BD00BF00800008FE7F000839
:103C300080B584B000AF03460A46FB801346BB80C4
:103C40000023FB81BA88FB881146184600F07EF8F5
:103C50000346FB81FB89802B07D1BA88FB8811467C
:103C6000184600F0CBF80346FB81FB891846103755
:103C7000BD4680BD80B582B000AF0823FB71022134
:103C80001020FEF7C9FC0346FB71FB79082B01D01D
:103C9000FB7911E000210A48FEF71EFD0346FB7187
:103CA000FB79082B01D0FB7906E002211820FEF7F2
:103CB000B3FC0346FB71FB7918460837BD4680BD4F
:103CC0000080000880B485B000AF0346FB71062376
:103CD000FB810623BB811B4B1B88FB811A4B1B8876
:103CE000BB81FB79002B1BD0012B25D1BB89002B7D
:103CF00008D1FB894EF6EE62934201D100231CE00D
:103D000001231AE0FB89002B08D1BB894EF6EE6235
:103D1000934201D1012310E000230EE0AB230CE01D
:103D2000FB89002B01D1002307E0BB89002B01D1C7
:103D3000012302E0AB2300E0002318461437BD4600
:103D400080BC70470080000800C0000880B586B0C5
:103D500000AF03460A46FB801346BB800823FB7472
:103D600000233B82224B7B61224BFB600120FFF74B
:103D7000A9FF03463B823B8AAB2B01D1AB2332E048
:103D80003B8A03F5005302339B037B613B8A01337B
:103D90009A03194B1344FB6020E07B691B68B3F165
:103DA000FF3F18D1BB8819467869FEF795FC03469A
:103DB000FB74FB7C082B02D0FB7C9BB213E07B697D
:103DC0000233FA8811461846FEF786FC0346FB7458
:103DD000FB7C9BB207E07B6904337B617A69FB68FB
:103DE0009A42DAD3802318461837BD4680BD00BFFB
:103DF0000080000800C00008FE7F000880B586B083
:103E000000AF03460A46FB801346BB800823FB73C2
:103E1000444B7B6100237B820023BB8100233B82D8
:103E200000237B8100233B810020FFF74BFF0346EB
:103E3000BB81BB89012B04D13A4B7B6118237B8268
:103E400009E0BB89002B04D1374B7B6110237B82B7
:103E500001E0AB2362E04EF6EE617869FEF73CFCD0
:103E60000346FB73FB7B082B02D0FB7B9BB255E028
:103E7000BA88FB8811461846FFF768FF03467B8126
:103E80007B89082B01D07B8948E000233B8227E017
:103E90003B8A264A32F81330FA889A421DD03B8A70
:103EA000224A32F8133022491846FFF777FE0346BC
:103EB0003B813B89012B10D03B8A1C4A32F81320EE
:103EC0001B4B1B8819461046FFF740FF03467B81BA
:103ED0007B89082B01D07B8920E03B8A01333B8220
:103EE0003B8A022BD4D97B8A02211846FEF794FB29
:103EF0000346FB73FB7B082B02D0FB7B9BB20DE0E0
:103F000000217869FEF7E8FB0346FB73FB7B082B77
:103F100002D0FB7B9BB201E0FB7B9BB218461837BB
:103F2000BD4680BD0080000800C000082C020020B3
:043F30005400002019
:103F3400000000000102030401020304060708094B
:0400000508000000EF
:00000001FF
