:020000040800F2
:10000000182B0020FD070008590800089F3400083D
:1000100059080008590800085908000800000000A5
:100020000000000000000000000000005908000867
:100030005908000800000000590800085908000885
:10004000590800085908000859080008590800080C
:1000500059080008590800085908000859080008FC
:1000600059080008590800085908000859080008EC
:1000700059080008590800085908000859080008DC
:100080000107000859080008590800085908000825
:1000900059080008590800085908000859080008BC
:1000A00059080008590800085908000859080008AC
:1000B000590800085908000859080008590800089C
:1000C000590800085908000859080008590800088C
:1000D000590800085908000859080008590800087C
:1000E000590800085908000859080008590800086C
:1000F000590800085908000859080008590800085C
:10010000590800085908000859080008590800084B
:10011000590800085908000859080008051A00087D
:10012000590800085908000859080008590800082B
:10013000590800085908000859080008590800081B
:10014000590800085908000859080008590800080B
:1001500059080008590800085908000859080008FB
:1001600059080008590800085908000859080008EB
:1001700059080008590800085908000859080008DB
:10018000590800085908000880B582B000AF3B4606
:10019000184602F0EFFF01210F2001F00BFB1023A6
:1001A0003B6001233B710023BB710223FB710223DF
:1001B0007B713B461946474802F04EFF4FF41073DF
:1001C0003B6002233B710123BB710023FB710223BF
:1001D0007B713B461946404802F03EFF042206214F
:1001E0003D4803F029F8042209213B4803F024F894
:1001F00001214FF4021001F0FBFA012001F020FA76
:100200004FF4A4533B600023BB713B46194633486F
:1002100002F022FF10233B603B461946304802F0B3
:100220001BFF062204212E4803F006F806220721B0
:100230002A4803F001F806220A21284802F0FCFFB0
:1002400006220C21254802F0F7FF1021214802F078
:10025000D3FF244803F012FC234B4BF680329A6004
:10026000214B4FF40072DA801F4B4FF400721A805A
:100270001D4B00229A801C4B00225A801A4B0022F0
:100280009A811949174803F033FC184803F07EFDA2
:10029000174B42F210721A60154B00229A80144BD1
:1002A00033221A81124B4FF480625A81104B4FF463
:1002B00080429A810E4B4BF6FF72DA8001210B4887
:1002C00003F060FE0A49094803F09AFD00BF0837B1
:1002D000BD4680BD000C0240000402400008024000
:1002E00000000240003C0040B805002000540040DF
:1002F000CC06002080B584B000AF78600B46FB7060
:100300000121214803F05EFE00BF20491E4803F092
:1003100025FF0346002BF8D0002294211A4803F051
:1003200091FE00BF1A49184803F0E8FE0346002B6F
:10033000F8D00023FB6012E0FB687A6813441B7856
:100340001946114803F0BCFE00BF12490E4803F0E5
:10035000D5FE0346002BF8D0FB680133FB60FA782A
:10036000FB689A42E8DC00BF0B49074803F0F6FE41
:100370000346002BF8D00121034803F043FE00BFE1
:100380001037BD4680BD00BF005400400100001082
:1003900082000700800007000400001080B582B0D2
:1003A00000AF1021534802F019FF00237B6002E0E8
:1003B0007B6801337B607B684F4A9342F8DD022300
:1003C0003B7001237B703B4602211846FFF792FFEA
:1003D00000233B7099237B703B4602211846FFF7B0
:1003E00089FF47233B7080237B703B4602211846E0
:1003F000FFF780FF322000F081F80346FB703223C4
:100400003B70FB7863F07F03DBB27B703B460221DD
:100410001846FFF76FFF322000F070F80346FB70BC
:1004200032233B70FB7803F07F03DBB27B703B46EB
:1004300002211846FFF75EFF00233B7000237B700C
:100440003B4602211846FFF755FF04233B70AA23C1
:100450007B703B4602211846FFF74CFF0D233B7093
:1004600070237B703B4602211846FFF743FF0523AC
:100470003B7080237B703B4602211846FFF73AFF12
:1004800006233B7007237B703B4602211846FFF78B
:1004900031FF0A233B7000237B703B460221184644
:1004A000FFF728FF1A233B7050237B703B46022145
:1004B0001846FFF71FFF1B233B7050237B703B4602
:1004C00002211846FFF716FF1F233B7088237B701D
:1004D0003B4602211846FFF70DFF02233B709E2387
:1004E0007B703B4602211846FFF704FF00BF083728
:1004F000BD4680BD000C02403F420F0080B584B075
:1005000000AF0346FB7100BF4FF40031354803F0E4
:1005100025FE0346002BF7D10121324803F052FD9E
:1005200000BF31492F4803F019FE0346002BF8D0D5
:10053000002294212B4803F085FD00BF2B49294858
:1005400003F0DCFD0346002BF8D0FB791946254863
:1005500003F0B6FD00BF2649224803F0CFFD034655
:10056000002BF8D001211F4803F04CFD00BF4FF4D1
:1005700000311C4803F0F2FD0346002BF7D10021A7
:10058000184803F07DFD0121164803F01BFD00BF54
:100590001549144803F0E2FD0346002BF8D0012270
:1005A0009421104803F04EFD00BF12490D4803F09E
:1005B000A5FD0346002BF8D000BF0F49094803F002
:1005C0009DFD0346002BF8D0064803F089FD034645
:1005D000FB730121034803F015FDFB7B1846103720
:1005E000BD4680BD0054004001000010820007009D
:1005F00080000700020003004000030080B592B0B5
:1006000000AF01214FF4001001F0D4F8102387F857
:100610004030002387F84130012387F8423001231E
:1006200087F8433007F14003184603F0C9FD002165
:100630002E4803F00FF92D4802F0E4FF00237B6001
:100640002B4BBB602B4BFB604FF480737B614FF4F3
:100650004033FB6240233B610023BB614FF4806366
:10066000FB614FF400633B624FF400537B624FF435
:100670008073BB6200233B6303237B630023BB6364
:100680000023FB633B1D1946184803F08DF8194BF6
:1006900000221946154803F0F9F80121134803F028
:1006A00013F901221821114803F02AF901210F48FA
:1006B00003F0D0F8012271210F4803F037FB01222B
:1006C00002210D4803F00EFB00237B6402E07B6CEB
:1006D00001337B647B6C094A9342F8DD01210648B3
:1006E00003F0E0FA00BF4837BD4680BD8860024095
:1006F0000C3C0040E4060020003C00409F860100C6
:1007000080B584B000AF3549354803F033F903466E
:10071000002B24D00023FB600023BB6018E0314A8B
:10072000FB6832F8133019B22F4ABB6822F8131055
:10073000BB6801332D49FA6831F8122011B22A4AF8
:1007400022F81310BB680233BB60FB680133FB6007
:10075000BB687F2BE3DD2149214803F061F924497F
:100760001F4803F007F90346002B33D0214B1B68C9
:100770000133204A13601F4B1B680A2B02DD1D4BFF
:1007800000221A6040237B6080233B6018E0154AFA
:100790007B6832F8133019B2134A3B6822F8131001
:1007A0003B68013311497A6831F8122011B20E4AC0
:1007B00022F813103B6802333B607B6801337B6097
:1007C0003B68FF2BE3DD0A49054803F029F90A4B92
:1007D00001221A7000BF1037BD4680BD00440020C2
:1007E00088600240CC050020E40600208804002038
:1007F0000088002040040020B505002080B582B0AC
:1008000000AF104B7B60104B3B6007E03B681A1D4C
:100810003A607A68111D796012681A603B680B4A69
:100820009342F3D30A480B494FF000028842B8BF05
:1008300040F8042BFADB00F013F800BF0837BD4680
:1008400080BD00BF007602080000002040040020A8
:10085000400400201823002080B400AFFEE700BF52
:10086000B0B58CB004AF02F025FE00F0DBFD03F064
:1008700007FDFFF789FCFFF791FDFFF7BFFE02F0D0
:1008800091F801F02DF84FF00063BB61C64B0022D8
:10089000DA61C64B0022DA6100F044FE03F0C0FDCD
:1008A00003F058FEC24B1B78DBB2002B00F0E7814F
:1008B000C04B1B78DBB283F00103DBB2002B00F0EE
:1008C000DE81BD4D3846BC4B1A68002414461A79A7
:1008D000597909020A439B791B041A43002362F3E6
:1008E000170321461A4603F0E3FD2A463B461968E2
:1008F000116099889B7991809371B04B9B899BB2D1
:100900001A46AE4B5B899BB2DB089BB2A3F58073A2
:100910001344002B03DAA94B4FF400625A81A74B12
:100920009B899BB21A46A54B5B899BB2DB089BB2A5
:10093000A3F580731344B3F5805F03DB9F4B4FF443
:1009400000625A819C4B5B7883F00103DBB21A464C
:10095000994B9B781340002B50D0984B9B899BB2AE
:10096000184605F0DDFA86A3D3E9002305F03EFB27
:1009700003460C461A4623464FF000004FF08041D4
:1009800004F0C6F880A3D3E9002305F02FFB03464B
:100990000C461846214602460B4605F075F90346FB
:1009A0000C46184621464FF00002854B05F01EFB11
:1009B00003460C461846214605F0C8FD02467A4B10
:1009C0005A607E4B9B899BB2184605F0A9FA70A32A
:1009D000D3E9002305F034FC03460C4618462146B3
:1009E0004FF00002764B05F001FB03460C4618461B
:1009F000214605F0ABFD02466B4B9A606E4B9B782F
:100A000083F00103DBB2002B62D06C4B9B899BB25D
:100A10001A466A4B5B899BB2DB089BB2A3F58073D5
:100A20001344184605F07CFA55A3D3E9002305F0DA
:100A3000DDFA03460C461A4623464FF000004FF0FD
:100A4000804104F065F850A3D3E9002305F0CEFA05
:100A500003460C461846214602460B4605F014F99B
:100A600003460C46184621464FF00002544B05F051
:100A7000BDFA03460C461846214605F067FD0246BE
:100A8000494B5A604D4B9B899BB21A464B4B5B8935
:100A90009BB2DB089BB2A3F580731344184605F0A4
:100AA0003FFA3BA3D3E9002305F0CAFB03460C46FB
:100AB000184621464FF00002414B05F097FA0346D5
:100AC0000C461846214605F041FD0246364B9A6019
:100AD000354B9B68184605F023FA4FF00002384B5F
:100AE00005F0AEFB03460C46184621464FF00002C7
:100AF0004FF0000305F0ECFC0346002B02D02A4B1C
:100B000000229A602C4B5B7983F00103DBB2002B4F
:100B10001CD02A4BDB889BB2184605F001FA1EA3B5
:100B2000D3E9002305F08CFB03460C46184621460A
:100B30004FF00002224B05F059FA03460C461846C6
:100B4000214605F003FD0246174B9A611A4B1B78AC
:100B500083F00103DBB2002B40D0184B9B889BB283
:100B6000184605F0DDF90EA3D3E9002305F068FB74
:100B700003460C46184621464FF0000222E000BF13
:100B8000B76B3B0E4001643FD82090664C53D63F74
:100B900000000000009879400000000000FEAF4017
:100BA0000000000000549540E40800209405002057
:100BB000D61B0020C8050020DC060020E81B002012
:100BC0000000F040394B05F011FA03460C46184678
:100BD000214605F0BBFC0246354B1A61354B1B79AB
:100BE00083F00103DBB2002B68D0314BDB687B6103
:100BF000314B1B889BB25B089BB2184605F090F9FD
:100C00004FF00002294B05F0F1F903460C46184657
:100C1000214605F09BFC0246254BDA60244BDA683E
:100C20007B699A4208D0224BDA69214BD9687B69EB
:100C3000CB1A13441E4AD3611D4BDB691B14002BD6
:100C40000BDD1B4BDB69A3F50043194AD361184B3D
:100C50001B6803F50043164A1360154BDB691B1430
:100C6000002B2BDA124BDB6903F50043104AD361EA
:100C70000F4B1B68A3F500430D4A13601EE00D4B9C
:100C800001229A710B4B0122DA700A4B01225A7031
:100C9000084B01229A70074B01225A71054B012221
:100CA0001A70044B01221A7109E000BF0000F040E5
:100CB000E4080020DC060020E81B002000BFC64B33
:100CC0001B78DBB2002B00F0CE81C44B1B78DBB26B
:100CD00083F00103DBB2002B00F0C581C04D384624
:100CE000BF4B1A68002414461A79597909020A433D
:100CF0009B791B041A43002362F3170321461A460B
:100D000003F0D6FB2A463B461968116099889B7907
:100D100091809371B34B9B899BB21A46B14B5B890F
:100D20009BB2DB089BB2A3F580731344002B03DA5C
:100D3000AC4B4FF400625A81AA4B9B899BB21A4676
:100D4000A94B5B899BB2DB089BB2A3F5807313446C
:100D5000B3F5805F03DBA34B4FF400625A81A04BD5
:100D60005B7883F00103DBB21A469D4B9B781340FE
:100D7000002B50D09B4B9B899BB2184605F0D0F8B6
:100D80008BA3D3E9002305F031F903460C461A463C
:100D900023464FF000004FF0804103F0B9FE86A3D8
:100DA000D3E9002305F022F903460C4618462146F4
:100DB00002460B4604F068FF03460C4618462146DF
:100DC0004FF00002894B05F011F903460C46184616
:100DD000214605F0BBFB0246854B5A60814B9B893F
:100DE0009BB2184605F09CF875A3D3E9002305F0E3
:100DF00027FA03460C46184621464FF000027B4B6B
:100E000005F0F4F803460C461846214605F09EFB13
:100E10000246774B9A60724B9B7883F00103DBB2FA
:100E2000002B62D06F4B9B899BB21A466D4B5B893E
:100E30009BB2DB089BB2A3F580731344184605F000
:100E40006FF85BA3D3E9002305F0D0F803460C4606
:100E50001A4623464FF000004FF0804103F058FE41
:100E600055A3D3E9002305F0C1F803460C46184604
:100E7000214602460B4604F007FF03460C4618467F
:100E800021464FF00002594B05F0B0F803460C46DE
:100E90001846214605F05AFB0246554B5A60514B05
:100EA0009B899BB21A464F4B5B899BB2DB089BB276
:100EB000A3F580731344184605F032F840A3D3E934
:100EC000002305F0BDF903460C46184621464FF0B5
:100ED0000002464B05F08AF803460C4618462146A8
:100EE00005F034FB0246424B9A603D4B5B7983F040
:100EF0000103DBB2002B1CD03A4BDB889BB21846B7
:100F000005F00EF830A3D3E9002305F099F9034664
:100F10000C46184621464FF00002344B05F066F8A7
:100F200003460C461846214605F010FB0246304B9E
:100F30009A612B4B1B7883F00103DBB2002B1CD092
:100F4000284B9B889BB2184604F0EAFF20A3D3E904
:100F5000002305F075F903460C46184621464FF06C
:100F60000002224B05F042F803460C461846214683
:100F700005F0ECFA02461E4B1A61194B1B7983F0FF
:100F80000103DBB2002B00F08480194BDB683B616E
:100F9000144B1B889BB25B089BB2184604F0C0FF41
:100FA0004FF00002114B05F021F8034622E000BF8C
:100FB000B76B3B0E4001643FD82090664C53D63F40
:100FC00000000000009879400000000000FEAF40E3
:100FD000000000000054954004090020C8050020CE
:100FE0008C050020E81B0020082300200000F040B2
:100FF000940500200C461846214605F0A7FA024643
:10100000634BDA60634BDA683B699A4208D0604B05
:10101000DA695F4BD9683B69CB1A13445C4AD361E8
:101020005B4BDB691B14002B0BDD594BDB69A3F514
:101030000043574AD361564B1B6803F50043544A9B
:101040001360534BDB691B14002B22DA504BDB6916
:1010500003F500434E4AD3614D4B1B68A3F5004393
:101060004B4A136015E04C4B01229A714A4B012206
:10107000DA70494B01225A70474B01229A70464B55
:1010800001225A71444B01221A70434B01221A71FA
:1010900000E000BF414B1B78DBB2002B3FF4FCAB00
:1010A0000023FB616CE03B4B1B68002B05DA394BDE
:1010B0001A68BB691344374A1360354B1B68002B11
:1010C00005DA334B1A68BB691344314A1360314B5C
:1010D0001A68BB699A4205DB2E4B1A68BB69D31AA2
:1010E0002C4A13602A4B1A68BB699A4205DB284BCD
:1010F0001A68BB69D31A264A1360264C6D4604F160
:1011000010030FCB85E80F0094E80F0000F0C8F83B
:10111000F8601F4C6D4604F110030FCB85E80F00FB
:1011200094E80F0000F0BCF8B8601A4B9B691A46AF
:10113000B968F86800F05AF903461946184AFB697D
:1011400022F81310124B9B691A46F968B86800F030
:101150004DF903461946134AFB6922F813100D4B4B
:101160001A680C4B5B6813440A4A1360084B1A68F0
:10117000074B5B681344064A1360FB690133FB614C
:10118000FB697F2B8FDD054B00221A70FFF784BBB4
:1011900094050020E40800208C050020B5050020FF
:1011A00088040020CC05002080B489B000AFF8602E
:1011B000B9601346FB80FB681B0CBB61FB689BB2EC
:1011C0007B61BB695B00BA681344B3F900301B0450
:1011D0003B61BB695A1CFB889A4209DABB6901333F
:1011E0005B00BA681344B3F900301B04FB6103E0F1
:1011F000BB68B3F90030FB61FA693B69D31A1B1273
:101200007A69121202FB03F23B6913441B149BB26E
:1012100018462437BD4680BC704700BF80B588B0F3
:1012200000AFF860B9607A607B80BB681B0CBB6163
:10123000BB689BB27B61BB691B037A6813444FF4A4
:1012400000621946F868FFF7AFFF03461B043B61D5
:10125000BB69082B0EDCBB6901331B037A6813449E
:101260004FF400621946F868FFF79EFF03461B041F
:10127000FB6101E03B69FB613B691B127A69C2F5C6
:101280008032121202FB03F2FB691B127969091208
:1012900001FB03F3134418462037BD4680BD00BF51
:1012A00084B080B584B000AF07F1180E8EE80F004F
:1012B000BB6A1B0CFB60BB6A9BB2BB603B6A1B1426
:1012C000072B09DDBB694FF4006244491846FFF75C
:1012D0006BFF03461B0479E0FB68032B75D801A262
:1012E00052F823F0F51200083913000879130008AA
:1012F000B9130008BB694FF4006238491846FFF77C
:1013000053FF03461B047B60B869396A4FF40063DE
:10131000334AFFF783FF38607B681B12BA68C2F557
:101320008032121202FB03F23B681B12B9680912E9
:1013300001FB03F3134449E0B869396A4FF40063D1
:10134000274AFFF76BFF7860B869396A4FF400638A
:10135000244AFFF763FF38607B681B12BA68C2F546
:101360008032121202FB03F23B681B12B9680912A9
:1013700001FB03F3134429E0B869396A4FF40063B1
:10138000184AFFF74BFF7860B869396A4FF4006379
:10139000154AFFF743FF38607B681B12BA68C2F535
:1013A0008032121202FB03F23B681B12B968091269
:1013B00001FB03F3134409E0B869396A4FF4006391
:1013C000094AFFF72BFF034600E0002318461037B9
:1013D000BD46BDE8804004B0704700BFE865020824
:1013E000E8150108E8C50108E865000880B485B083
:1013F00000AFF860B9607A60FB681B127A68C2F5CA
:101400008032121202FB03F2BB681B1279680912C8
:1014100001FB03F313441B141BB218461437BD46DB
:1014200080BC704780B582B000AF0121022000F07F
:10143000C1F901233B7110233B6002237B71002320
:10144000BB710023FB713B461946324801F004FE94
:101450001021304801F0C2FE0121042000F0AAF959
:1014600001233B714FF400533B6002237B71002347
:10147000BB710023FB713B461946274801F0ECFD88
:101480004FF40051244801F0A9FE0121082000F08A
:1014900091F901233B7143F2AA033B6002237B7164
:1014A0000023BB710023FB713B4619461B4801F02A
:1014B000D3FD0821194801F091FE0221174801F0DF
:1014C0008DFE2021154801F089FE8021134801F08E
:1014D00085FE0121102000F06DF901233B714FF4CE
:1014E00005633B6002237B710023BB710023FB710A
:1014F0003B4619460A4801F0AFFD1021084801F0AB
:101500006DFE4021064801F069FE00BF0837BD4668
:1015100080BD00BF0004024000080240000C0240F1
:101520000010024080B500AF3A4B1B78DBB2002BB5
:1015300016D08021384801F05FFE384B1B78DBB2B3
:1015400083F00103DBB2002B29D0354B00221A7047
:101550004021344801F050FE304B01221A701EE049
:1015600080212D4801F03AFE2C4B1B78DBB2002B7A
:101570000CD02B4B1B78DBB2002B02D001F00AF809
:1015800001E000F021FE254B00221A704021254881
:1015900001F024FE4FF40051234801F01FFE234BBD
:1015A0001B78DBB2002B04D01021214801F024FE6F
:1015B00003E010211E4801F011FE1E4B1B78DBB228
:1015C000002B04D00821144801F016FE03E0082186
:1015D000114801F003FE184B1B78DBB2002B04D03E
:1015E00002210D4801F008FE03E002210A4801F043
:1015F000F5FD124B1B78DBB2002B04D020210648EE
:1016000001F0FAFD03E02021034801F0E7FD00BFEF
:1016100080BD00BF061C0020000C0240C805002051
:10162000880500200010024000080240F71B00203F
:1016300000040240D61B002004090020F61B0020F5
:1016400080B483B000AF0346FB71044AFB7913609A
:1016500000BF0C37BD4680BC704700BF68004742E2
:1016600080B489B000AF78600023BB6100237B6148
:101670000023FB6102233B610023FB600223BB606C
:10168000484B9B6803F00C03BB61BB69042B07D07C
:10169000082B09D0002B3FD17B68434A1A603FE0FA
:1016A0007B68424A1A603BE03E4B5B6803F4800370
:1016B0009B0DFB603B4B5B6803F03F03BB60FB682B
:1016C000002B0DD0394ABB68B2FBF3F2354B596899
:1016D00047F6C0730B409B0903FB02F3FB610CE070
:1016E000314ABB68B2FBF3F22E4B596847F6C07320
:1016F0000B409B0903FB02F3FB612A4B5B6803F47D
:1017000040331B0C01335B003B61FA693B69B2FB60
:10171000F3F27B681A6003E07B68234A1A6000BF1B
:10172000204B9B6803F0F003BB61BB691B09BB61E5
:101730001F4ABB6913441B78DBB27B617B681A6864
:101740007B69DA407B685A60164B9B6803F4E05370
:10175000BB61BB699B0ABB61154ABB6913441B781B
:10176000DBB27B617B685A687B69DA407B689A6090
:101770000C4B9B6803F46043BB61BB695B0BBB61B3
:101780000B4ABB6913441B78DBB27B617B685A68E8
:101790007B69DA407B68DA6000BF2437BD4680BCD5
:1017A000704700BF003802400024F40000127A00A5
:1017B0000000002080B483B000AF78600B46FB705F
:1017C000FB78002B06D00949084B1A6B7B68134342
:1017D0000B6306E00549054B1A6B7B68DB4313403E
:1017E0000B6300BF0C37BD4680BC70470038024019
:1017F00080B483B000AF78600B46FB70FB78002BA1
:1018000006D00949084B1A6C7B6813430B6406E049
:101810000549054B1A6C7B68DB4313400B6400BF22
:101820000C37BD4680BC70470038024080B483B09E
:1018300000AF78600B46FB70FB78002B06D009499F
:10184000084B5A6C7B6813434B6406E00549054B13
:101850005A6C7B68DB4313404B6400BF0C37BD46BA
:1018600080BC70470038024080B483B000AF78601D
:101870000B46FB70FB78002B06D00949084B1A6A0F
:101880007B6813430B6206E00549054B1A6A7B68C7
:10189000DB4313400B6200BF0C37BD4680BC704772
:1018A0000038024080B483B000AF78600B46FB7014
:1018B000FB78002B06D00949084B5A6A7B68134312
:1018C0004B6206E00549054B5A6A7B68DB431340CF
:1018D0004B6200BF0C37BD4680BC704700380240E9
:1018E00080B586B000AF01210220FFF763FF012120
:1018F0000820FFF75FFF01210120FFF75BFF0121B7
:101900000420FFF757FF28233B6100233B7500238A
:10191000FB7502237B7507F110031946334801F06C
:101920009BFB45233B6100233B750023FB75022392
:101930007B7507F1100319462D4801F08DFB40F22D
:1019400001133B6100233B750023FB7502237B756C
:1019500007F110031946274801F07EFB4FF480730E
:101960003B6100233B750023FB7502237B7507F168
:1019700010031946204801F06FFB01212020FFF7DA
:1019800037FF0023BB810023FB805423BB604FF44F
:101990007A73BB803B1D1946184802F057FE01229E
:1019A0000121164802F0DCFE37233B700123FB7057
:1019B0000F237B700F23BB700121104802F0F4FE4F
:1019C0003B46184602F0FCFB01210C4802F0A8FE41
:1019D0000B4B00221A700A4B1B78DBB2184601F041
:1019E00085F800BF1837BD4680BD00BF0004024027
:1019F000000C0240000002400008024000140040B9
:101A0000B405002080B582B000AF00237B600821C0
:101A1000934801F0C9FB0346002B14BF01230023A8
:101A2000DAB2904B9A7020218D4801F0BDFB03463D
:101A3000002B14BF01230023DAB28A4B9A720121D2
:101A4000894801F0B1FB0346002B14BF012300239A
:101A5000DAB2844B9A740421834801F0A5FB034653
:101A6000002B14BF01230023DAB27E4B9A7640216B
:101A70007D4801F099FB0346002B14BF012300238E
:101A8000DAB2784B83F8222000237B6049E0754A64
:101A90007B68DB0013440022DA70724A7B68DB004B
:101AA00013445B68002B0ADD6E4A7B68DB0013443D
:101AB0005B685A1E6B497B68DB000B445A60694ABD
:101AC0007B68DB0013445B78002B1CD0654A7B6885
:101AD000DB0013449B7883F00103DBB2002B12D0B0
:101AE000604A7B68DB0013445B68002B0BD15D4AC6
:101AF0007B68DB0013440122DA705A4A7B68DB0002
:101B000013440F225A60574A7B68DB0013449978CC
:101B1000544A7B68DB0013440A465A707B680133E1
:101B20007B607B68042BB2DD4E4BDB781A464F4B53
:101B30001B78DBB25340002B14BF01230023DAB221
:101B40004A4B1A70474BDB7A1A46494B1B78DBB27B
:101B50005340002B14BF01230023DAB2444B1A7008
:101B6000404BDB7C1A46434B1B78DBB25340002BC7
:101B700014BF01230023DAB23E4B1A70394BDB7ECF
:101B80001A463D4B1B78DBB25340002B14BF012398
:101B90000023DAB2384B1A70324B93F823301A46CE
:101BA000364B1B78DBB25340002B14BF01230023BC
:101BB000DAB2324B1A70324B9B68002B05DD304B8A
:101BC0009B68013B2E4A9360C1E04FF480712D4821
:101BD00001F0EAFA0346002B14BF01230023DAB216
:101BE000274BDA704FF48071274801F0DDFA034685
:101BF000002B14BF01230023DAB2214B1A71204BB2
:101C00005B78002B5CD01E4BDB7883F00103DBB2EA
:101C1000002B55D01A4B0A229A60194B1B79002BC6
:101C20004ED01A4B1B78DBB283F00103DBB2002BE2
:101C300030D0174B1B78DBB2002B07D0144B1B782E
:101C4000DBB2013BDAB2124B1A7002E0104B632296
:101C50001A700F4B1B78DBB2184600F047FF2FE0DD
:101C60000004024044040020000C0240061C002036
:101C7000F71B002004090020D61B0020F61B0020C3
:101C80006C0400200000024000080240C80500204B
:101C9000B40500206D4B1B78DBB283F00103DBB28F
:101CA000002B14BF01230023DAB2684B1A704021C5
:101CB000674801F0AFFA4FF40051664801F0AAFA04
:101CC000654B9B78002B42D0634B1B7983F001035B
:101CD000DBB2002B3BD0604B0A229A605E4BDB7874
:101CE000002B34D05D4B1B78DBB283F00103DBB2F9
:101CF000002B16D05A4B1B78DBB2622B07D8584BFF
:101D00001B78DBB20133DAB2554B1A7002E0544B48
:101D100000221A70524B1B78DBB2184600F0E6FE28
:101D200015E04A4B1B78DBB283F00103DBB2002BDA
:101D300014BF01230023DAB2444B1A7040214448F7
:101D400001F068FA4FF40051424801F063FA424B47
:101D5000DA78414B5A70404B1A793F4B9A70414B9D
:101D60005B68002B05DD3F4B5B68013B3D4A5360E0
:101D70005FE001213C4801F017FA0346002B14BF35
:101D800001230023DAB2374B9A70364B5B7883F02D
:101D90000103DBB2002B0CD0324B9B78002B08D018
:101DA000304B0122DA702F4B0F225A602D4B00224C
:101DB0009A602C4B5B78002B1CD02A4B9B78002B15
:101DC00018D0284BDB78002B14D0264B9B680A33A5
:101DD000244A9360234B0F225A60224B9B68B3F531
:101DE0007A7F07DB4FF40041204801F013FA1D4BC6
:101DF0000022DA701B4B5B7883F00103DBB2002B0F
:101E000017D0184B9B7883F00103DBB2002B10D066
:101E1000144BDB78002B0CD0124B0022DA70114BE4
:101E20009B68B3F57A7F04DA4FF480510F4801F0D4
:101E3000F1F90C4B9A780B4B5A7001210C4802F0C7
:101E4000B3FC00BF0837BD4680BD00BF8805002039
:101E500000100240000802406C040020C805002069
:101E6000B40500207804002000000240000C02406D
:101E70000014004080B485B000AF78603960002362
:101E8000FB600023FB727B685B68FB60FB6823F0F0
:101E9000407323F48073FB603B681B791A023B6834
:101EA0001B681343FA681343FB607B68FA685A6047
:101EB0007B689B68FB60FA68174B1340FB603B68CC
:101EC0001A693B68DB681A433B689B681A433B68A6
:101ED0005B795B001343FA681343FB607B68FA6825
:101EE0009A607B68DB6AFB60FB6823F47003FB602D
:101EF0003B681B7D013BDAB2FB7A1343FB72FB7A32
:101F00001B05FA681343FB607B68FA68DA6200BF5E
:101F10001437BD4680BC7047FDF7FFC080B485B064
:101F200000AF78600023FB600E4B5B68FB60FA68D3
:101F30000D4B1340FB607B681A687B685B681A4333
:101F40007B689B681A437B68DB681343FA6813431A
:101F5000FB60044AFB68536000BF1437BD4680BC79
:101F6000704700BF00230140E030FCFF80B483B025
:101F700000AF78600B46FB70FB78002B06D07B68C7
:101F80009B6843F001027B689A6005E07B689B6870
:101F900023F001027B689A6000BF0C37BD4680BC0D
:101FA000704700BF80B485B000AF78600846114626
:101FB0001A460346FB700B46BB7013467B7000232A
:101FC000FB600023BB60FB78092B23D97B68DB68AF
:101FD000FB60FB78A3F10A0213465B00134407225F
:101FE00002FA03F3BB60BB68DB43FA681340FB6093
:101FF0007978FB78A3F10A0213465B00134401FAD7
:1020000003F3BB60FA68BB681343FB607B68FA6844
:10201000DA601EE07B681B69FB60FA7813465B00A0
:102020001344072202FA03F3BB60BB68DB43FA6880
:102030001340FB607978FA7813465B00134401FA89
:1020400003F3BB60FA68BB681343FB607B68FA6804
:102050001A61BB78062B21D87B685B6BFB60BB7871
:102060005A1E13469B0013441F2202FA03F3BB605F
:10207000BB68DB43FA681340FB60F978BB785A1EF3
:1020800013469B00134401FA03F3BB60FA68BB6874
:102090001343FB607B68FA685A6347E0BB780C2BFC
:1020A00021D87B681B6BFB60BB78DA1F13469B0053
:1020B00013441F2202FA03F3BB60BB68DB43FA68D8
:1020C0001340FB60F978BB78DA1F13469B0013447A
:1020D00001FA03F3BB60FA68BB681343FB607B68DB
:1020E000FA681A6322E07B68DB6AFB60BB78A3F1C5
:1020F0000D0213469B0013441F2202FA03F3BB6038
:10210000BB68DB43FA681340FB60F978BB78A3F146
:102110000D0213469B00134401FA03F3BB60FA68F7
:10212000BB681343FB607B68FA68DA6200BF143750
:10213000BD4680BC704700BF80B483B000AF7860FC
:102140007B689B6843F080427B689A6000BF0C37D5
:10215000BD4680BC704700BF80B483B000AF7860DC
:102160000B46FB70FB78002B06D07B689B6843F422
:1021700080727B689A6005E07B689B6823F48072BC
:102180007B689A6000BF0C37BD4680BC704700BFBB
:1021900080B483B000AF78600B46FB70FB78002BF7
:1021A00006D07B689B6843F400727B689A6005E008
:1021B0007B689B6823F400727B689A6000BF0C37D1
:1021C000BD4680BC704700BF80B582B000AFAE4B4B
:1021D0005B681B14FB80AD4B1B78DBB29BB21A46CD
:1021E00052001344DB009BB2FA881146184602F0F5
:1021F00035FBA54B5B68FB80A44B1B78DBB29BB225
:102200001A4652001344DB009BB201339BB2FA889A
:102210001146184602F022FB9B4B9B681B14FB8067
:102220009A4B1B78DBB29BB21A4652001344DB0078
:102230009BB202339BB2FA881146184602F00EFB9D
:10224000914B9B68FB80914B1B78DBB29BB21A468B
:1022500052001344DB009BB203339BB2FA88114651
:10226000184602F0FBFA884BDB681B14FB80874B97
:102270001B78DBB29BB21A4652001344DB009BB2C0
:1022800004339BB2FA881146184602F0E7FA7E4BF7
:10229000DB68FB807D4B1B78DBB29BB21A46520099
:1022A0001344DB009BB205339BB2FA8811461846F3
:1022B00002F0D4FA744B1B691B14FB80734B1B7820
:1022C000DBB29BB21A4652001344DB009BB20633CA
:1022D0009BB2FA881146184602F0C0FA6A4B1B6995
:1022E000FB806A4B1B78DBB29BB21A465200134448
:1022F000DB009BB207339BB2FA881146184602F006
:10230000ADFA614BB3F914301B14FB805F4B1B78A3
:10231000DBB29BB21A4652001344DB009BB2083377
:102320009BB2FA881146184602F098FA564B9B8ADF
:10233000FB80564B1B78DBB29BB21A46520013440B
:10234000DB009BB209339BB2FA881146184602F0B3
:1023500085FA4D4B9B691B14FB804C4B1B78DBB201
:102360009BB21A4652001344DB009BB20A339BB265
:10237000FA881146184602F071FA434B9B69FB80BC
:10238000424B1B78DBB29BB21A4652001344DB006F
:102390009BB20B339BB2FA881146184602F05EFAE4
:1023A0003B4B5B681B14FB80384B1B78DBB29BB24A
:1023B0001A4652001344DB009BB20C339BB2FA88DE
:1023C0001146184602F04AFA314B5B68FB802F4BEE
:1023D0001B78DBB29BB21A4652001344DB009BB25F
:1023E0000D339BB2FA881146184602F037FA284B93
:1023F0009B681B14FB80254B1B78DBB29BB21A46F3
:1024000052001344DB009BB20E339BB2FA88114694
:10241000184602F023FA1E4B9B68FB801B4B1B786F
:10242000DBB29BB21A4652001344DB009BB20F335F
:102430009BB2FA881146184602F010FA144BDB687A
:102440001B14FB80114B1B78DBB29BB21A46520067
:102450001344DB009BB210339BB2FA881146184636
:1024600002F0FCF90A4BDB68FB80084B1B78DBB2FF
:102470009BB21A4652001344DB009BB211339BB24D
:10248000FA881146184605E0E4080020B40500204B
:102490009405002002F0E2F93C4B1B691B14FB8001
:1024A0003B4B1B78DBB29BB21A4652001344DB0055
:1024B0009BB212339BB2FA881146184602F0CEF94D
:1024C000324B1B69FB80324B1B78DBB29BB21A4646
:1024D00052001344DB009BB213339BB2FA881146BF
:1024E000184602F0BBF9294BB3F914301B14FB80DA
:1024F000274B1B78DBB29BB21A4652001344DB0019
:102500009BB214339BB2FA881146184602F0A6F922
:102510001E4B9B8AFB801E4B1B78DBB29BB21A467C
:1025200052001344DB009BB215339BB2FA8811466C
:10253000184602F093F9154B9B691B14FB80144B52
:102540001B78DBB29BB21A4652001344DB009BB2ED
:1025500016339BB2FA881146184602F07FF90B4BEE
:102560009B69FB800A4B1B78DBB29BB21A46520078
:102570001344DB009BB217339BB2FA88114618460E
:1025800002F06CF900BF0837BD4680BD94050020FD
:10259000B405002080B582B000AFBB4B01221A7099
:1025A000B94B01225A70B84B01229A70B64B0122E6
:1025B000DA70B54B01221A71B34B01225A71B24B3A
:1025C00001229A71B14B01221A70B04B01225A704C
:1025D000AE4B01229A70AD4B0122DA70AB4B012257
:1025E0001A71AA4B01225A71A84B01229A71A84B69
:1025F0001B78DBB29BB21A4652001344DB009BB23D
:10260000BA1D1146184602F0DFF8A14B1B78DBB269
:102610009BB21A4652001344DB009BB201339BB2BB
:102620003A1D1146184602F0CFF8FB881B04BA8801
:102630001343984A5360964B1B78DBB29BB21A4601
:1026400052001344DB009BB202339BB2BA1D114609
:10265000184602F0B9F88E4B1B78DBB29BB21A46D3
:1026600052001344DB009BB203339BB23A1D114668
:10267000184602F0A9F8FB881B04BA881343854A60
:102680009360834B1B78DBB29BB21A465200134413
:10269000DB009BB204339BB2BA1D1146184602F010
:1026A00093F87B4B1B78DBB29BB21A465200134463
:1026B000DB009BB205339BB23A1D1146184602F06F
:1026C00083F8FB881B04BA881343724AD360704BAB
:1026D0001B78DBB29BB21A46520013441A46D20052
:1026E000D31A9BB206339BB2BA1D1146184602F0AC
:1026F0006BF8674B1B78DBB29BB21A46520013444F
:102700001A46D200D31A9BB207339BB23A1D114628
:10271000184602F059F8FB881B04BA8813435D4A37
:1027200013615B4B1B78DBB29BB21A465200134419
:10273000DB009BB208339BB2BA1D1146184602F06B
:1027400043F8534B1B78DBB29BB21A46520013443A
:10275000DB009BB209339BB2BA1D1146184602F04A
:1027600033F8FB881AB24B4B9A82494B1B78DBB289
:102770009BB21A4652001344DB009BB20A339BB251
:10278000BA1D1146184602F01FF8414B1B78DBB208
:102790009BB21A4652001344DB009BB20B339BB230
:1027A0003A1D1146184602F00FF8FB881B04BA8840
:1027B0001343384A9361364B1B78DBB29BB21A46FF
:1027C00052001344DB009BB20C339BB2BA1D11467E
:1027D000184601F0F9FF2E4B1B78DBB29BB21A466C
:1027E00052001344DB009BB20D339BB23A1D1146DD
:1027F000184601F0E9FFFB881B04BA881343264AF8
:102800005360234B1B78DBB29BB21A465200134431
:10281000DB009BB20E339BB2BA1D1146184601F085
:10282000D3FF1B4B1B78DBB29BB21A4652001344FA
:10283000DB009BB20F339BB23A1D1146184601F0E4
:10284000C3FFFB881B04BA881343134A9360104BE1
:102850001B78DBB29BB21A4652001344DB009BB2DA
:1028600010339BB2BA1D1146184601F0ADFF084B5C
:102870001B78DBB29BB21A4652001344DB009BB2BA
:1028800011339BB20AE000BFDC0600208C0500205B
:10289000B4050020E4080020940500203A1D1146EC
:1028A000184601F091FFFB881B04BA8813433B4A8A
:1028B000D3603B4B1B78DBB29BB21A4652001344E9
:1028C000DB009BB212339BB2BA1D1146184601F0D1
:1028D0007BFF334B1B78DBB29BB21A46520013448A
:1028E000DB009BB213339BB23A1D1146184601F030
:1028F0006BFFFB881B04BA881343284A1361284BDB
:102900001B78DBB29BB21A4652001344DB009BB229
:1029100014339BB2BA1D1146184601F055FF204BE7
:102920001B78DBB29BB21A4652001344DB009BB209
:1029300015339BB2BA1D1146184601F045FFFB88BE
:102940001AB2164B9A82164B1B78DBB29BB21A4610
:1029500052001344DB009BB216339BB2BA1D1146E2
:10296000184601F031FF0E4B1B78DBB29BB21A46C2
:1029700052001344DB009BB217339BB23A1D114641
:10298000184601F021FFFB881B04BA881343034A51
:10299000936100BF0837BD4680BD00BF940500208D
:1029A000B405002080B582B000AF01210220FEF7FF
:1029B00001FF01210820FEF7FDFE01211020FEF796
:1029C000F9FE4FF478433B6001233B710023BB7158
:1029D0000023FB7102237B713B461946404800F0FF
:1029E0003BFB4FF478433B6001233B710023BB71F9
:1029F0000023FB7102237B713B461946394800F0E6
:102A00002BFB4FF4BE433B6001233B710023BB71A2
:102A10000023FB7102237B713B461946324800F0CC
:102A20001BFB4FF400612F4800F0D8FB4FF400511E
:102A30002C4800F0D3FB4FF400412A4800F0CEFBB5
:102A40004FF40051264800F0C9FB4FF4804125485F
:102A500000F0C4FB4FF48051214800F0BFFB4FF45D
:102A600080411F4800F0BAFB4FF400711E4800F08F
:102A7000B5FB4FF400611A4800F0B0FB4FF4006161
:102A8000194800F0ABFB4FF48061174800F0A6FB3B
:102A90004FF48051144800F0A1FB4FF480411248DC
:102AA00000F09CFB4FF400410E4800F097FB4FF400
:102AB00000410B4800F092FB4FF400610A4800F01F
:102AC0008DFB4FF48071084800F088FB4FF4805173
:102AD000044800F083FB00BF0837BD4680BD00BF3F
:102AE0000004024000100240000C024080B584B097
:102AF00000AF78607B68CF4A82FB03129210DB172D
:102B0000D31AFB60FB686FF0090202FB03F27B68DB
:102B10001344BB604FF40061C74800F05FFB4FF403
:102B20000051C54800F05AFB4FF40041C24800F084
:102B300055FB4FF40051C14800F050FB4FF4804169
:102B4000BD4800F04BFB4FF48051BC4800F046FB01
:102B50004FF48041B94800F041FB4FF40071B84890
:102B600000F03CFB4FF40061B44800F037FB4FF439
:102B70000061B34800F032FB4FF48061B04800F0D0
:102B80002DFB4FF48051AE4800F028FB4FF48041FC
:102B9000AB4800F023FB4FF40041A74800F01EFBB8
:102BA0004FF40041A54800F019FB4FF40061A44820
:102BB00000F014FB4FF48071A14800F00FFB4FF4BC
:102BC00080519D4800F00AFBFB68092B00F2178139
:102BD00001A252F823F000BF012C00083F2C00088E
:102BE000552C0008892C0008BD2C0008E72C000893
:102BF0001B2D0008592D0008792D0008C12D000853
:102C00004FF400518C4800F0F7FA4FF480618C4883
:102C100000F0F2FA4FF40061884800F0EDFA4FF44A
:102C20000041854800F0E8FA4FF48051844800F0F4
:102C3000E3FA4FF48041824800F0DEFADFE04FF41F
:102C400000617E4800F0D8FA4FF480617C4800F0C3
:102C5000D3FAD4E04FF40041774800F0CDFA4FF4B6
:102C60000061764800F0C8FA4FF40061724800F045
:102C7000C3FA4FF48041724800F0BEFA4FF480511D
:102C80006F4800F0B9FABAE04FF400416A4800F02A
:102C9000B3FA4FF40061694800F0AEFA4FF4806176
:102CA000674800F0A9FA4FF48051654800F0A4FA93
:102CB0004FF40061604800F09FFAA0E04FF400512B
:102CC0005D4800F099FA4FF400615C4800F094FA16
:102CD0004FF480615A4800F08FFA4FF40061564873
:102CE00000F08AFA8BE04FF40051534800F084FA68
:102CF0004FF40061504800F07FFA4FF48061504873
:102D000000F07AFA4FF480514D4800F075FA4FF414
:102D10000041494800F070FA71E04FF40051464814
:102D200000F06AFA4FF40061434800F065FA4FF48E
:102D30008061434800F060FA4FF48051404800F051
:102D40005BFA4FF480413E4800F056FA4FF40041E0
:102D5000394800F051FA52E04FF40061374800F072
:102D60004BFA4FF48061364800F046FA4FF40041C8
:102D7000314800F041FA42E04FF400512E4800F093
:102D80003BFA4FF400612C4800F036FA4FF48061B2
:102D90002B4800F031FA4FF48051294800F02CFA0A
:102DA0004FF48041264800F027FA4FF400412248B2
:102DB00000F022FA4FF40061204800F01DFA1EE0F6
:102DC0004FF400511C4800F017FA4FF400611A4804
:102DD00000F012FA4FF48061194800F00DFA4FF438
:102DE0008051174800F008FA4FF40041124800F0F3
:102DF00003FA4FF40061114800F0FEF900BFBB6810
:102E0000092B00F21E8101A252F823F0452E000882
:102E1000832E0008992E0008CD2E0008012F0008EF
:102E20002B2F00085F2F00089D2F0008BD2F0008E2
:102E30000530000867666666001002400004024024
:102E4000000C02404FF40041804800F0D5F94FF4E7
:102E500000717F4800F0D0F94FF480417B4800F0CA
:102E6000CBF94FF400617A4800F0C6F94FF4804185
:102E7000784800F0C1F94FF48051744800F0BCF973
:102E8000DFE04FF48041734800F0B6F94FF4006181
:102E90006F4800F0B1F9D4E04FF400716C4800F0D5
:102EA000ABF94FF40051694800F0A6F94FF4006106
:102EB000674800F0A1F94FF48041644800F09CF9A4
:102EC0004FF48051614800F097F9BAE04FF4007177
:102ED0005F4800F091F94FF400515C4800F08CF924
:102EE0004FF400615A4800F087F94FF48041594887
:102EF00000F082F94FF48051544800F07DF9A0E0D1
:102F00004FF40041514800F077F94FF40061504808
:102F100000F072F94FF400514C4800F06DF94FF495
:102F200080414C4800F068F98BE04FF4004147487D
:102F300000F062F94FF40071454800F05DF94FF47C
:102F40000051424800F058F94FF48041414800F0E8
:102F500053F94FF480513D4800F04EF971E04FF4C1
:102F600000413A4800F048F94FF40071384800F049
:102F700043F94FF48041354800F03EF94FF40051D9
:102F8000324800F039F94FF48041324800F034F90A
:102F90004FF480512D4800F02FF952E04FF40071AA
:102FA0002B4800F029F94FF480412A4800F024F919
:102FB0004FF40061264800F01FF942E04FF4004151
:102FC000224800F019F94FF40051204800F014F99C
:102FD0004FF480411F4800F00FF94FF480511B4817
:102FE00000F00AF94FF48041184800F005F94FF459
:102FF0000071174800F000F94FF40061144800F028
:10300000FBF81EE04FF40041104800F0F5F84FF4D3
:1030100000510E4800F0F0F84FF480410D4800F0E8
:10302000EBF84FF400710A4800F0E6F84FF4006145
:10303000074800F0E1F84FF48051044800F0DCF854
:1030400000BF00BF1037BD4680BD00BF0004024076
:10305000000C02400010024080B487B000AF7860DE
:10306000396000237B6100233B610023FB60002368
:103070007B6176E001227B6902FA03F33B613B68E6
:103080001A683B691340FB60FA683B699A4265D154
:103090007B681A687B695B00032101FA03F3DB4359
:1030A0001A407B681A607B681A683B681B7919466E
:1030B0007B695B0001FA03F31A437B681A603B6883
:1030C0001B79012B03D03B681B79022B2ED17B6827
:1030D0009A687B695B00032101FA03F3DB431A4022
:1030E0007B689A607B689A683B685B7919467B6964
:1030F0005B0001FA03F31A437B689A607B685A68A5
:103100007B699BB2012101FA03F3DB431A407B6820
:103110005A607B685A683B689B7919467B699BB209
:1031200001FA03F39BB21A437B685A607B68DA6842
:103130007B699BB25B00032101FA03F3DB431A4076
:103140007B68DA607B68DA683B68DB7919467B6903
:103150005B0001FA03F31A437B68DA607B69013391
:103160007B617B690F2B85D900BF1C37BD4680BCB6
:10317000704700BF80B483B000AF78607B684FF6C3
:10318000FF721A607B6800221A717B6800225A71F4
:103190007B6800229A717B680022DA7100BF0C37CD
:1031A000BD4680BC704700BF80B485B000AF78607A
:1031B0000B467B800023FB737B681A697B88134076
:1031C000002B02D00123FB7301E00023FB73FB7B88
:1031D00018461437BD4680BC704700BF80B483B02A
:1031E00000AF78600B467B807B687A881A8300BFCB
:1031F0000C37BD4680BC704780B483B000AF7860A8
:103200000B467B807B687A885A8300BF0C37BD46AB
:1032100080BC704780B483B000AF78600B467B8081
:103220007B685A697B885A407B685A6100BF0C37BB
:10323000BD4680BC704700BF80B485B000AF7860E9
:103240000B467B8013467B700023FB600023BB6032
:103250007A787B8803F007039B0002FA03F3FB6094
:103260007B88DB089BB218467B88DB089BB21A463A
:103270007B68083253F822207B8803F007039B0009
:103280000F2101FA03F3DB4302EA03017B6800F13B
:10329000080243F822107B88DB089BB21A467B6841
:1032A000083253F82220FB681343BB607B88DB089D
:1032B0009BB21A467B680832B96843F8221000BFF7
:1032C0001437BD4680BC704780B584B000AF7860CD
:1032D0000B46FB700023FB600823FB72FB78002B7E
:1032E00002D10023FB6010E0FB78012B03D14FF4E7
:1032F0008073FB6009E0FB78022B03D14FF400736D
:10330000FB6002E04FF44073FB6000F0A7F8034657
:10331000FB72FB7A082B2FD11A4A1A4B1B6923F434
:10332000407313611749174B1A69FB6813430B610C
:10333000144A144B1B6923F0F80313611149114B14
:103340001A697B68134343F002030B610D4A0D4B6E
:103350001B6943F48033136100F080F80346FB726D
:10336000084A084B1B6923F002031361054A054B09
:103370001B6923F0F8031361FB7A18461037BD462A
:1033800080BD00BF003C024080B584B000AF7860D3
:103390000B467B800823FB7300F060F80346FB7349
:1033A000FB7B082B1ED1124A114B1B6923F440737F
:1033B00013610F4A0E4B1B6943F4807313610C4A6F
:1033C0000B4B1B6943F0010313617B687A881A80F9
:1033D00000F044F80346FB73054A054B1B6923F0D4
:1033E00001031361FB7B18461037BD4680BD00BF4B
:1033F000003C024080B483B000AF0823FB71164B41
:10340000DB6803F48033002B02D00123FB711CE046
:10341000114BDB6803F01003002B02D00523FB7176
:1034200013E00D4BDB6803F0EF03002B02D0062303
:10343000FB710AE0084BDB6803F00203002B02D0AB
:103440000723FB7101E00823FB71FB7918460C3759
:10345000BD4680BC704700BF003C024080B582B0D2
:1034600000AF0823FB71FFF7C5FF0346FB7103E0C4
:10347000FFF7C0FF0346FB71FB79DBB2012BF7D0EE
:10348000FB79DBB218460837BD4680BDABBE01E014
:1034900000207047002A00D0106001207047069875
:1034A00001884BF6AB62914202D10430069070471E
:1034B000FEE7000080B500AF124A124B1B6843F0D4
:1034C000010313600F4B00229A600E4A0D4B1B68DC
:1034D00023F0847323F4803313600A4B0A4A5A6042
:1034E000084A084B1B6823F480231360054B002215
:1034F000DA6000F00DF8054B4FF000629A6000BFF3
:1035000080BD00BF003802401030002400ED00E014
:1035100080B483B000AF00237B6000233B60354A5A
:10352000344B1B6843F480331360324B1B6803F445
:1035300000333B607B6801337B603B68002B03D129
:103540007B68B3F5A06FF0D12A4B1B6803F40033FE
:10355000002B02D001233B6001E000233B603B686D
:10356000012B42D1234A234B1B6C43F0805313643D
:10357000214A214B1B6843F4804313601D4A1D4BB5
:103580009B6893601B4A1B4B9B6843F4004393600A
:10359000184A184B9B6843F4A0539360154B174A85
:1035A0005A60144A134B1B6843F08073136000BFCA
:1035B000104B1B6803F00073002BF9D0104B40F246
:1035C00005621A600B4A0B4B9B6823F00303936060
:1035D000084A084B9B6843F00203936000BF054B09
:1035E0009B6803F00C03082BF9D100BF0C37BD46D4
:1035F00080BC70470038024000700040085440070B
:10360000003C024080B483B000AF78607B681B68E8
:1036100023F001027B681A607B6800221A607B68D5
:1036200000225A607B6800229A607B680022DA6080
:103630007B6800221A617B6821225A617B68454AB7
:10364000934203D1444B3D229A607EE07B68434A1B
:10365000934204D1404B4FF474629A6075E07B68EA
:103660003F4A934204D13C4B4FF474129A606CE091
:103670007B683C4A934204D1374B4FF074629A60A6
:1036800063E07B68384A934203D1334B374ADA60B0
:103690005BE07B68364A934203D12F4B354ADA60B0
:1036A00053E07B68344A934203D12B4B334ADA60B0
:1036B0004BE07B68324A934204D1274B4FF03D5296
:1036C000DA6042E07B682F4A934203D12E4B3D22C1
:1036D0009A603AE07B682D4A934204D12A4B4FF41A
:1036E00074629A6031E07B68294A934204D1264B88
:1036F0004FF474129A6028E07B68264A934204D102
:10370000214B4FF074629A601FE07B68224A93421B
:1037100003D11D4B154ADA6017E07B681F4A9342BC
:1037200003D1194B134ADA600FE07B681C4A9342BD
:1037300003D1154B114ADA6007E07B68194A9342BE
:1037400003D1114B4FF03D52DA6000BF0C37BD463C
:1037500080BC704710600240006002402860024058
:103760004060024058600240706002403D0000200E
:1037700088600240400F0020A060024000003D2011
:10378000B8600240106402400064024028640240B5
:103790004064024058640240706402408864024001
:1037A000A0640240B864024080B485B000AF786085
:1037B00039600023FB607B681B68FB60FA68244B60
:1037C0001340FB603B681A683B68DB681A433B6840
:1037D0005B691A433B689B691A433B68DB691A4380
:1037E0003B681B6A1A433B685B6A1A433B689B6AE7
:1037F0001A433B685B6B1A433B689B6B1343FA6845
:103800001343FB607B68FA681A607B685B69FB6046
:10381000FB6823F00703FB603B68DA6A3B681B6BBD
:103820001343FA681343FB607B68FA685A613B688C
:103830001A697B685A603B685A687B689A603B6883
:103840009A687B68DA6000BF1437BD4680BC704759
:103850003F801CF080B483B000AF78600B46FB70F3
:10386000FB78002B06D07B681B6843F001027B6865
:103870001A6005E07B681B6823F001027B681A6010
:1038800000BF0C37BD4680BC704700BF80B485B018
:1038900000AFF860B9607A607B68002B06D0FB68E7
:1038A0001B6843F40022FB681A6005E0FB681B6894
:1038B00023F40022FB681A60FB68BA681A6100BF33
:1038C0001437BD4680BC704780B483B000AF7860C9
:1038D0000B46FB70FB78002B06D07B681B6843F41B
:1038E00080227B681A6005E07B681B6823F48022D5
:1038F0007B681A6000BF0C37BD4680BC704700BFB4
:1039000080B485B000AFF860B9601346FB71BB6846
:1039100003F08003002B0FD0FB79002B06D0FB684F
:103920005B6943F08002FB685A6105E0FB685B69F4
:1039300023F08002FB685A61BB68802B14D0FB79AE
:10394000002B08D0FB681A68BB6803F01E031A43FB
:10395000FB681A6008E0FB681A68BB6803F01E0386
:10396000DB431A40FB681A6000BF1437BD4680BCB9
:10397000704700BF80B487B000AF78603960002323
:10398000FB750023FB600023BB607B68214A9342E8
:1039900002D8214B3B6101E0204B3B613B6823F0A7
:1039A000F02323F0C313002B0AD03B68DB0A03F09B
:1039B0001E03FB607B681A68FB681340BB6004E071
:1039C0007B685B6903F08003BB603B6803F00053D6
:1039D000002B03D03B695B68FB6002E03B691B681E
:1039E000FB60FB6823F0F02323F08213FB60FA688E
:1039F0003B681340002B05D0BB68002B02D001238D
:103A0000FB7501E00023FB75FB7D18461C37BD46A6
:103A100080BC70470F6402400060024000640240B6
:103A200080B485B000AF786039607B68104A9342FB
:103A300002D8104BFB6001E00F4BFB603B6803F0CA
:103A40000053002B07D03B6823F0F02323F08213B0
:103A5000FA68D36006E03B6823F0F02323F082137A
:103A6000FA68936000BF1437BD4680BC704700BF42
:103A70000F640240006002400064024080B582B0E2
:103A800000AF78607B68174A93420AD101214FF456
:103A90008050FDF707FF00214FF48050FDF702FF33
:103AA0001CE07B68104A93420AD101214FF4804008
:103AB000FDF7DAFE00214FF48040FDF7D5FE0DE062
:103AC0007B680A4A934209D101214FF40040FDF777
:103AD000CBFE00214FF40040FDF7C6FE00BF0837C3
:103AE000BD4680BD0030014000380040003C004031
:103AF00080B48BB000AF7860396000237B830223F1
:103B0000FB840023BB8401237B840023FB6100230F
:103B10007B6100233B610023FB600023BB607B686B
:103B20009B8B9BB223F47B6323F00F039AB27B68D9
:103B30009A837B6802221A847B689B8B7B833B6819
:103B40009B68022B04D10023BB840223FB8472E018
:103B50003B689B88002B02D101237B8401E0022378
:103B60007B844D4B9B6803F40003002B05D04A4A2D
:103B7000494B9B6823F400039360474BD3F88420A0
:103B800047F6C07313409B09C3F30803FB60424B25
:103B9000D3F8843003F0E0431B0F03F00703BB604E
:103BA0003D4B5B6803F03F033B613C4A3B69B2FB22
:103BB000F3F3FA6802FB03F2BB68B2FBF3F37B6139
:103BC0003B68DB88B3F5007F0FD17B691A0A134687
:103BD0009B0013445B001A463B689B68B2FBF3F3FF
:103BE0009BB205339BB2FB6112E07B8C5B011A46F2
:103BF0007B69B3FBF2F213469B0013445B001A4649
:103C00003B689B68B2FBF3F39BB205339BB2FB614D
:103C1000FB69234AA2FB0323DB08FB61FB699BB220
:103C200003F00103BB84BB8CFA69D31A5B08FB84E5
:103C3000BB8C1B02BB84FB8C012B02D9FB8CFF2BA2
:103C400003D90223FB840023BB843B68DA88BB8C46
:103C500013439AB2FB8C13439AB27B681A843B6875
:103C60001A883B6859883B6898883B689B8903435E
:103C70009BB20B439BB213439AB27B8B13439BB211
:103C800043F400637B837B687A8B9A8300BF2C3775
:103C9000BD4680BC704700BF0038024000127A0069
:103CA000CDCCCCCC80B483B000AF78600B46FB7039
:103CB000FB78002B08D07B689B8B9BB243F480631E
:103CC0009AB27B689A8307E07B689B8B9BB223F454
:103CD00080639AB27B689A8300BF0C37BD4680BC74
:103CE000704700BF80B483B000AF78600B467B8024
:103CF00013467B707B78002B08D07B689B889AB238
:103D00007B8813439AB27B689A8009E07B689B8822
:103D10009AB27B88DB439BB213409AB27B689A804D
:103D200000BF0C37BD4680BC704700BF80B485B073
:103D300000AF78600B46FB701346BB700023FB811D
:103D40000023BB81FB781B09DBB2FB81FB890122CD
:103D500002FA03F3BB81BB78002B08D07B689B88F9
:103D60009AB2BB8913439AB27B689A8009E07B6858
:103D70009B889AB2BB89DB439BB213409AB27B68A3
:103D80009A8000BF1437BD4680BC704780B582B0B2
:103D900000AF78607B68174A93420AD101214FF443
:103DA0000010FDF761FD00214FF40010FDF75CFDF0
:103DB0001CE07B68104A93420AD101214FF4800035
:103DC000FDF752FD00214FF48000FDF74DFD0DE0A1
:103DD0007B680A4A934209D101214FF40000FDF7A4
:103DE00043FD00214FF40000FDF73EFD00BF083702
:103DF000BD4680BD0054004000580040005C0040BB
:103E000080B58AB000AF786039600023FB8400235E
:103E10007B840423BB84574BFB617B689B88FB84BA
:103E2000FB8C23F03F03FB8407F10C031846FDF7DE
:103E300017FC7B69FB61FB694F4AA2FB03239B0CC8
:103E40007B84FA8C7B8C1343FB847B68FA8C9A808E
:103E50007B681B889BB223F001039AB27B681A80AF
:103E60000023FB843B681B68444A934215D83B6897
:103E70001B685B00FA69B2FBF3F3BB84BB8C032BBA
:103E800001D80423BB84FA8CBB8C1343FB847B8C4A
:103E900001339AB27B681A8440E03B68DB884BF6BA
:103EA000FF72934209D13B681A6813465B001344C2
:103EB000FA69B2FBF3F3BB840EE03B681A68134661
:103EC0009B0013449A001344FA69B2FBF3F3BB84DA
:103ED000BB8C43F48043BB84BB8CC3F30B03002B2C
:103EE00003D1BB8C43F00103BB84BA8CFB8C13431E
:103EF0009BB26FEA43436FEA5343FB847B8C4FF4DE
:103F0000967202FB03F31E4A82FB03129211DB1727
:103F1000D31A9BB201339AB27B681A847B68FA8CFD
:103F20009A837B681B889BB243F001039AB27B683B
:103F30001A807B681B88FB84FB8C23F4816323F04D
:103F40000203FB843B689A883B685B8913439AB2FF
:103F5000FB8C1343FB847B68FA8C1A803B689A893C
:103F60003B681B8913439AB27B681A8100BF2837CC
:103F7000BD4680BD00127A0083DE1B43A08601008F
:103F8000D34D621080B483B000AF78600B46FB70F5
:103F9000FB78002B08D07B681B889BB243F00103A1
:103FA0009AB27B681A8007E07B681B889BB223F07B
:103FB00001039AB27B681A8000BF0C37BD4680BCF3
:103FC000704700BF80B483B000AF78600B46FB70D1
:103FD000FB78002B08D07B681B889BB243F480736E
:103FE0009AB27B681A8007E07B681B889BB223F437
:103FF00080739AB27B681A8000BF0C37BD4680BCC4
:10400000704700BF80B483B000AF78600B46FB7090
:10401000FB78002B08D07B681B889BB243F40073AD
:104020009AB27B681A8007E07B681B889BB223F4F6
:1040300000739AB27B681A8000BF0C37BD4680BC03
:10404000704700BF80B483B000AF78600B46FB7050
:104050001346BB70BB78002B04D0FB7843F0010300
:10406000FB7003E0FB7823F00103FB70FB789AB24E
:104070007B681A8200BF0C37BD4680BC704700BF0A
:1040800080B483B000AF78600B46FB70FB78002BE8
:1040900008D07B681B889BB243F480639AB27B682C
:1040A0001A8007E07B681B889BB223F480639AB276
:1040B0007B681A8000BF0C37BD4680BC704700BFCC
:1040C00080B483B000AF78600B46FB70FB789AB287
:1040D0007B681A8200BF0C37BD4680BC704700BFAA
:1040E00080B483B000AF78607B681B8A9BB2DBB280
:1040F00018460C37BD4680BC704700BF80B487B0FF
:1041000000AF7860396000233B610023FB6000232F
:10411000BB600023FB757B689B8A9BB2FB607B685E
:104120001B8B9BB2BB60BB681B04BB60FA68BB689F
:10413000134323F07F433B613A693B681A403B6875
:104140009A4202D10123FB7501E00023FB75FB7D40
:1041500018461C37BD4680BC704700BF80B487B08E
:1041600000AF786039600023FB7500233B610023BA
:10417000FB607B68FB603B681B0F3B613B6823F087
:104180007F433B603B69002B03D0FB681433FB602B
:1041900005E03B681B0C3B60FB681833FB60FB6869
:1041A0001A683B681340002B02D00123FB7501E025
:1041B0000023FB75FB7D18461C37BD4680BC70474D
:1041C00080B485B000AF78600023FB730023BB731D
:1041D0000F237B737B68DB78002B38D0264BDB68A2
:1041E000DB4303F4E0631B0AFB73FB7BC3F10403B3
:1041F000BB737A7BFB7B42FA03F37B737B685B7850
:104200001A46BB7B02FA03F3FB737B689A787B7BCD
:104210001340DAB2FB7B1343FB73FB7B1B01FB7385
:10422000164A7B681B781344FA7B83F80023134AF1
:104230007B681B785B09DBB218467B681B7803F050
:104240001F03012101FA03F342F820300FE00B496C
:104250007B681B785B09DBB218467B681B7803F030
:104260001F0301229A4000F1200341F8232000BFE0
:104270001437BD4680BC704700ED00E000E100E06F
:1042800080B59CB000AF01214FF48070FDF7CEFAED
:1042900001215B48FDF78EFA07F168031846FEF727
:1042A00069FF0E23BB66032387F86C30022387F86F
:1042B0006D30002387F86F3007F1680319465148C5
:1042C000FEF7CAFE0323BB6607F1680319464E4892
:1042D000FEF7C2FE0623BB6607F1680319464B488A
:1042E000FEF7BAFE4A48FFF78DF900237B60494B81
:1042F000BB60494BFB6000233B6107237B610023CC
:10430000BB614FF48063FB614FF400633B624FF489
:1043100000537B624FF48073BB620023FB62002377
:104320003B6301237B630023BB630023FB633B1DD3
:1043300019463748FFF738FA01213548FFF78AFA5E
:1043400000233B6400237B640023BB640023FB64E5
:1043500007F140031846FDF7E1FD00233B6501230B
:1043600087F85430012387F855300023FB654FF45C
:1043700000633B66072387F8643007F15003194652
:104380002648FDF777FD0723012201212348FDF789
:1043900009FE0723022202212048FDF703FE07231E
:1043A000032203211D48FDF7FDFD072304220821F8
:1043B0001A48FDF7F7FD0723052209211748FDF7E5
:1043C000F1FD072306220B211448FDF7EBFD07231F
:1043D00007220C211148FDF7E5FD01210F48FDF7EB
:1043E000D7FE01210D48FDF7B7FE01210B48FDF76F
:1043F000BDFD0A48FDF7A0FE00BF7037BD4680BD79
:104400000700400000000240000402400008024093
:10441000106402404C200140C81B002000200140D5
:10442000B0B582B000AF00237B6034E01D4A7B68EA
:1044300032F813309BB21B099BB219461A4A7B68AB
:1044400032F813309BB2CB1A184601F069FD0246D0
:104450000B46144623F000452046294602F09EF8FC
:10446000034699B2114A7B6822F813100F4A7B6801
:1044700032F813309BB2022B0AD90A4A7B6832F811
:1044800013309BB21B0999B2074A7B6822F81310BC
:104490007B6801337B607B68062BC7DD00BF083774
:1044A000BD46B0BDC81B002008230020F81B00201B
:1044B00080B487B000AFF8603B1D83E8060000239E
:1044C0007B6134E0224A7B6932F813309BB20A2BBD
:1044D0002AD97B69062B26D801A252F823F000BF07
:1044E000FD44000803450008094500080F45000881
:1044F000154500081B4500082145000800233B72B4
:1045000012E00023BB720FE000233B710CE000239C
:104510007B7209E00023FB7106E00023BB7103E01E
:1045200000237B7100E000BF7B6901337B617B6905
:10453000062BC7DDFB681A463B1D1868106099887A
:104540009B7991809371F8681C37BD4680BC704799
:10455000D81B0020B0B584B000AF0023FB6000235F
:104560007B800023BB6061E07E237B601AE03349DF
:10457000BB68DA017B68134431F813309BB23B808F
:104580007B68013338882D49BA68D201134402464A
:1045900021F81320B7F90030FA681344FB607B68F8
:1045A000013B7B607B68002BE1DA254ABB6832F86F
:1045B00013309BB27B807988204ABB681B0213446E
:1045C0000A461A80B7F90230FA681344FB60FB68A8
:1045D000DB111BB219461B4ABB6832F813309BB281
:1045E000CB1A184601F09CFC02460B46144623F0F9
:1045F00000452046294601F0D1FF034699B2124AF0
:10460000BB6822F81310104ABB6832F813309BB213
:104610000A2B06D9FB68DB1199B20A4ABB6822F85B
:1046200013100023FB60BB680133BB60BB68062B23
:104630009ADD00BF1037BD46B0BD00BF081C00208A
:1046400008230020E81B0020D81B002080B485B080
:1046500000AF786039600023FB817B681B88FB8199
:104660007B68284A934213D07B68274A93420FD035
:104670007B68B3F1804F0BD07B68244A934207D00C
:104680007B68234A934203D07B68224A934208D135
:10469000FB8923F07003FB813B685A88FB89134335
:1046A000FB817B681C4A93420CD07B681B4A934277
:1046B00008D0FB8923F44073FB813B681A89FB898E
:1046C0001343FB817B68FA891A803B685A687B68D0
:1046D000DA623B681A887B681A857B68094A9342CC
:1046E00003D07B68084A934204D13B689B7A9AB214
:1046F0007B681A867B6801229A8200BF1437BD4608
:1047000080BC7047000001400004014000040040EC
:1047100000080040000C0040001000400014004061
:1047200080B483B000AF78600B46FB70FB78002B41
:1047300008D07B681B889BB243F001039AB27B6868
:104740001A8007E07B681B889BB223F001039AB2B2
:104750007B681A8000BF0C37BD4680BC704700BF25
:1047600080B483B000AF78600B467B8013467B70CB
:104770007B78002B08D07B689B899AB27B88134397
:104780009AB27B689A8109E07B689B899AB27B88A0
:10479000DB439BB213409AB27B689A8100BF0C370F
:1047A000BD4680BC704700BF80B483B000AF786066
:1047B0000B467B807B88DB439AB27B681A8200BF02
:1047C0000C37BD4680BC704780B586B000AF03464D
:1047D0003960FB800023FB8145F25553BB810123E7
:1047E000FB821C4B3B611B4BBB60002000F058F868
:1047F0000346FB81FB89AB2B01D1AB2325E0FB8971
:1048000003F5005302339B03BB60FB8901339A031A
:10481000114B13443B6112E03B691B88BB81BA8991
:10482000FB889A4208D13B69023B1B889AB23B68DD
:104830001A800023FB8207E03B69043B3B61BB68B5
:104840009A1C3B699A42E7D3FB8A18461837BD4643
:1048500080BD00BF00800008FE7F000880B584B0E6
:1048600000AF03460A46FB801346BB800023FB8152
:10487000BA88FB881146184600F056F80346FB81BB
:10488000FB89802B07D1BA88FB881146184600F0B7
:10489000A3F80346FB81FB8918461037BD4680BD4F
:1048A00080B485B000AF0346FB710623FB8106236D
:1048B000BB811B4B1B88FB811A4B1B88BB81FB797F
:1048C000002B1BD0012B25D1BB89002B08D1FB89E4
:1048D0004EF6EE62934201D100231CE001231AE060
:1048E000FB89002B08D1BB894EF6EE62934201D1C1
:1048F000012310E000230EE0AB230CE0FB89002B2A
:1049000001D1002307E0BB89002B01D1012302E084
:10491000AB2300E0002318461437BD4680BC704727
:104920000080000800C0000880B586B000AF0346D4
:104930000A46FB801346BB800823FB7400233B829E
:10494000224B7B61224BFB600120FFF7A9FF03464E
:104950003B823B8AAB2B01D1AB2332E03B8A03F590
:10496000005302339B037B613B8A01339A03194B4B
:104970001344FB6020E07B691B68B3F1FF3F18D153
:10498000BB8819467869FEF7FFFC0346FB74FB7C85
:10499000082B02D0FB7C9BB213E07B690233FA88C0
:1049A00011461846FEF7F0FC0346FB74FB7C9BB2F5
:1049B00007E07B6904337B617A69FB689A42DAD34A
:1049C000802318461837BD4680BD00BF0080000810
:1049D00000C00008FE7F000880B586B000AF034627
:1049E0000A46FB801346BB800823FB73444B7B6164
:1049F00000237B820023BB8100233B8200237B8139
:104A000000233B810020FFF74BFF0346BB81BB899E
:104A1000012B04D13A4B7B6118237B8209E0BB89CF
:104A2000002B04D1374B7B6110237B8201E0AB2349
:104A300062E04EF6EE617869FEF7A6FC0346FB7372
:104A4000FB7B082B02D0FB7B9BB255E0BA88FB882E
:104A500011461846FFF768FF03467B817B89082BC8
:104A600001D07B8948E000233B8227E03B8A264A2D
:104A700032F81330FA889A421DD03B8A224A32F823
:104A8000133022491846FFF79FFE03463B813B89BE
:104A9000012B10D03B8A1C4A32F813201B4B1B8879
:104AA00019461046FFF740FF03467B817B89082BA0
:104AB00001D07B8920E03B8A01333B823B8A022B79
:104AC000D4D97B8A02211846FEF7FEFB0346FB730E
:104AD000FB7B082B02D0FB7B9BB20DE000217869A9
:104AE000FEF752FC0346FB73FB7B082B02D0FB7BDB
:104AF0009BB201E0FB7B9BB218461837BD4680BDD8
:104B00000080000800C0000808090020840400207C
:104B10002DE9F04FDFF8E4928DB006460F461446BB
:104B20001D4600F06DF999F90080B8F1FF3FCDE91D
:104B3000000146D022462B462046294601F0F0FCD3
:104B4000834600283DD132463B463046394601F087
:104B5000E7FC002282460023002840F08480304693
:104B6000394601F0ABFC002830D00022002320465B
:104B7000294601F0A3FC8346A8B10122984B02927A
:104B800000210022CDF828A0CDE90467CDE9064533
:104B9000CDE908120393B8F1000F53D091490020DA
:104BA0000DB0BDE8F08F2046294600F047FF40B128
:104BB000002200232046294601F08AFC002840F00C
:104BC000B780DDE900010DB0BDE8F08FDDE900013F
:104BD00000F034FF804600285DD04FF0000A4FF00F
:104BE000000B52465B46DDE9000101F067FC00283E
:104BF000E7D03046394600F021FF0028E1D02046BA
:104C0000294600F01BFF0028DBD099F90030744AD8
:104C1000039204210022022BCDE90467CDE9064569
:104C2000CDE908AB02910A9203D002A800F00CFF74
:104C300070B901F0D3FC2223036009E000230024B3
:104C4000CDE9083402A800F0FFFE002800F08680BD
:104C50000A9B1BB101F0C2FC0A9B0360DDE908015D
:104C60000DB0BDE8F08F2046294601F027FC002852
:104C7000A7D05C495A4BCDF828B001220020B8F1EA
:104C8000020FCDE90467CDE9064502920393CDE911
:104C90000801D7D197E73046394600F0CFFE00280B
:104CA0009BD02046294600F0C9FE002895D0DDE9BA
:104CB00000231046194601F033FC002873D103236A
:104CC00099F900800293464B0A900393CDE904675B
:104CD000CDE906450022002330463946B8F1000FE1
:104CE00041D1414F4FF06046CDE9086701F0F0FB3C
:104CF00000289AD000223D4B2046294601F076F943
:104D000004460D4600F0A8FE02460B462046294602
:104D100001F0D4FB002843D1354B99F900804FF0C6
:104D20006042CDE90823B8F1020F7FF47EAF80E73F
:104D300099F900302A4ACDF828B00121CDE904675D
:104D4000CDE9064502910392002B3FF477AF294944
:104D50000020022BCDE908017FF474AF01F03EFC86
:104D60002123036074E7244F0026CDE9086701F092
:104D7000AFFB0028D7D000221C4B2046294601F06B
:104D800035F904460D4600F067FE02460B46204604
:104D9000294601F093FB18B9164B0022CDE90823F0
:104DA00099F90080BFE799F900900D4BCDF8288064
:104DB0000122CDE90467CDE9064502920393B9F1DA
:104DC000000F3FF43BAF002200231046194601F0CC
:104DD00037FAB9F1020FCDE90801BFD032E700BFC1
:104DE000E87502080000F03FFFFFEF470000E03FDA
:104DF000FFFFEFC70000F0FF0000F07F3C04002041
:104E00002DE9F04F23F0004858EA020993B03CD056
:104E1000714C21F00046A64283460D460CDD06F19A
:104E2000404606F5801656EA0B0038D16B4983469A
:104E3000584613B0BDE8F08F9A4696462BD0A04551
:104E4000EDDC654CA04578D0002D0F468146CDE9BC
:104E5000002376DB0024BEF1000F27D15E4B98457E
:104E600000F08B805D4B984552D0BAF1804F00F036
:104E7000C2835B4B9A4519D1002D17DB4846394652
:104E800013B0BDE8F04F00F015BDCB46534958466E
:104E900013B0BDE8F08F0028C1D1B045D1DD514835
:104EA00013B0BDE8F04F00F0D1BD002448463946AC
:104EB00000F0C0FDBBF1000F1CD0ED0F013D54EA26
:104EC000050370D0484B984540F3948003F1047378
:104ED000984540F30584454B9E4270DDBAF1000FC2
:104EE00070DD3BA3D3E900231046194601F07EF89C
:104EF00083469DE726B1394B25F040429A42DCD1EA
:104F0000BAF1000FC0F2B083002D08DB83468FE7B3
:104F1000BAF1000FC0F25684CB46394688E706F155
:104F2000404606F5801656EA040300F07B84012C07
:104F3000ECD1834601F100417AE7BEF1000F83D046
:104F40006DE72B4B98452CDCA3F15473984581DD1C
:104F50004FEA2853A3F2FF33142B40F34B84C3F1E1
:104F600034032EFA03F202FA03F39E457FF472AF84
:104F700002F00102C2F102046DE706F1404303F5BD
:104F8000801353EA0B0300F03383184B9E4240F327
:104F90006083BAF1000F15DBDDE900349B46214642
:104FA00046E7022457E74A4648463B46394600F062
:104FB00069FE02460B4601F043F9834638E7BAF131
:104FC000000F8EDB4FF0000B594631E7AFF3008046
:104FD0009C7500883CE4377E0000F07F0000F03FC5
:104FE0000000E03FEC7502080000E041FFFFEF3FEA
:104FF000FFFF3F43B6F5801F4FF0000205DAD44BA8
:1050000000F0F4FF6FF034020E463315D14FC6F3B3
:105010001306A3F2FF33134446F07F5ABE421A46EA
:105020000D934AF4401A40F3C183CB4B9E4240F3A8
:10503000FD83134601330D93C84B0022CDE90623AF
:1050400000270026CDE90867CDE90E67AAF5801A8A
:105050000027024653465146CDE90A23DDE90623DF
:1050600000F010FEDDE9062380468946DDE90A01ED
:1050700000F00AFE02460B460020B84901F0E0F8B5
:105080000A460146CDE910121346494602464046FB
:1050900000F0ACFF4FEA6A0343F000538C468346AE
:1050A00003F50023CDE904BCDA468B46D919002369
:1050B000CDE902AB0293DDE902AB002006460F46C4
:1050C00002460B465046594600F090FF02460B46FA
:1050D0004046494600F0D6FDDDE906238046894674
:1050E0003046394600F0CEFD02460B46DDE90A01A6
:1050F00000F0C8FD52465B4600F078FF02460B46C2
:105100004046494600F0BEFDDDE9102300F06EFF89
:10511000DDE90467CDE9060132463B4630463946B3
:1051200000F064FF78A3D3E9002306460F4600F0A1
:105130005DFF77A3D3E9002300F0A6FD32463B468E
:1051400000F054FF74A3D3E9002300F09DFD324624
:105150003B4600F04BFF72A3D3E9002300F094FD1F
:1051600032463B4600F042FF6FA3D3E9002300F034
:105170008BFD32463B4600F039FF6DA3D3E9002397
:1051800000F082FD3246804689463B46304639462D
:1051900000F02CFF02460B464046494600F026FF31
:1051A000524606460F465B46DDE9040100F06CFD01
:1051B000DDE9062300F01AFF32463B4600F064FDAD
:1051C0005246804689465B465046594600F00EFFDF
:1051D0000022634BCDE90A0100F056FD42464B46E2
:1051E00000F052FD02980F46064632463B465046B6
:1051F000594600F0FBFE002282468B46584B304653
:10520000394600F03FFDDDE90A2300F03BFD024690
:105210000B464046494600F035FDDDE9042300F029
:10522000E5FE3246804689463B46DDE9060100F050
:10523000DDFE02460B464046494600F025FD80460D
:10524000894602460B4650465946CDE904AB00F06C
:105250001BFDDDE902AB38A3D3E9002350460F461E
:1052600000F0C4FEDDE90423CDE9020139465046D1
:1052700000F008FD02460B464046494600F002FD9C
:105280002FA3D3E9002300F0B1FE2FA3D3E900231D
:10529000804689465046394600F0A8FE02460B4635
:1052A0004046494600F0F0FCDDE90E2300F0ECFC3E
:1052B00080460D98894600F033FE424606460F466A
:1052C0004B46DDE9020100F0DFFCDDE9082300F0D8
:1052D000DBFC32463B4600F0D7FC32463B465046AC
:1052E0008B4600F0CFFCDDE9082300F0CBFCDDE9C4
:1052F000022300F0C7FC02460B464046494600F038
:10530000C1FC80462EE000BFEF4E454A287ECA3FD2
:1053100065DBC9934A86CD3F01411DA96074D13F29
:105320004D268F515555D53FFFAB6FDBB66DDB3F3B
:10533000033333333333E33F000000E009C7EE3F6C
:10534000FD033ADC09C7EE3FF5015B14E02F3EBEDA
:10535000000040438E98030079B60B000000F03F38
:10536000000008408946013C54EA0503DDE90001DC
:1053700014BFD54CD54C0023CDE9043403460C466C
:10538000CDE9023400230293DDE9024522462B4693
:1053900000F078FC52465B4600F028FEDDE9002371
:1053A00006460F464046494600F020FE02460B46A0
:1053B0003046394600F068FC224606460F462B462A
:1053C00050465946CDE9006700F010FE0B460246F4
:1053D000804689463046394600F056FCBC4B99421F
:1053E00006460D460C4640F30E8101F13F4303F59E
:1053F000E003034340F0EF819FA3D3E90023DDE9FD
:10540000000100F041FC424682468B464B46304646
:10541000294600F037FC02460B465046594601F03B
:1054200075F8002840F0D7812F463B154FF48012C5
:10543000A3F2FE3342FA03F32344C3F30A52A54E08
:10544000A2F2FF321641C3F3130B0020C2F1140580
:1054500023EA06014BF4801B02460B46002C4BFA54
:1054600005FB40464946B8BFCBF1000B00F00AFCF3
:1054700002460B4680468946DDE9000100F004FC47
:105480004FEA0B5A00247EA3D3E9002320460D46A1
:1054900000F0ACFD424606460F464B4620462946E4
:1054A00000F0F0FB02460B46DDE9000100F0EAFBEC
:1054B00075A3D3E9002300F099FD75A3D3E9002378
:1054C000804689462046294600F090FD02460B465C
:1054D0004046494600F0D8FB8046894602460B46C6
:1054E0003046394600F0D0FB32463B4604460D4676
:1054F00000F0C8FB02460B464046494600F0C2FB9E
:105500002246804689462B462046294600F06EFDFD
:1055100061A3D3E9002306460F4600F067FD60A3B0
:10552000D3E9002300F0AEFB32463B4600F05EFDBF
:105530005DA3D3E9002300F0A7FB32463B4600F011
:1055400055FD5BA3D3E9002300F09CFB32463B46AC
:1055500000F04CFD58A3D3E9002300F095FB324640
:105560003B4600F043FD02460B462046294600F02C
:1055700089FB06460F4602460B462046294600F0A8
:1055800035FD0022CDE900014FF080433046394619
:1055900000F078FB02460B46DDE9000100F050FE0A
:1055A000424606460F464B462046294600F01EFD61
:1055B00042464B4600F068FB02460B4630463946F1
:1055C00000F060FB22462B4600F05CFB02460B46D7
:1055D00000203D4900F056FB8A44BAF5801FC0F216
:1055E00036815146DDE9042300F000FD83461FE4C7
:1055F000F34635491CE44A4648463B46394600F0E6
:10560000F5FC834614E4344B21F000479F4240F3FD
:105610000081324B0B4403430CD142464B4600F011
:1056200031FB02460B46DDE9000100F05BFF00287C
:105630003FF4FBAE22A3D3E90023DDE9040100F02F
:10564000D5FC1FA3D3E9002300F0D0FC8346FFF76D
:10565000EFBBBAF1000FBFF6B5ACDDE900349B46F5
:1056600004F10041FFF7E4BB02460B460020164957
:1056700000F0E6FD48E400BFFE822B654715973C2D
:1056800000000000432EE63FEF39FAFE422EE63FCF
:10569000396CA80C615C20BED0A4BE726937663E2E
:1056A000F16BD2C541BDBB3E2CDE25AF6A56113F22
:1056B00093BDBE166CC1663F3E5555555555C53F09
:1056C00059F3F8C21F6EA5010000F03F0000F0BFC3
:1056D000FFFF8F40FFFF0F00FFCB904000346F3F74
:1056E0006F4B9E427FF76BAC6E4B9E423FF7F6AB23
:1056F00000226C4B00F0C6FA5BA3D3E900230646F8
:105700000F4600F073FC5AA3D3E900238046894674
:105710003046394600F06AFC002282468B46624BD6
:105720003046394600F062FC02460B4652A1D1E9F0
:10573000000100F0A7FA32463B4600F057FC024653
:105740000B460020594900F09DFA3246CDE902018E
:105750003B463046394600F049FC02460B46DDE93F
:10576000020100F043FC46A3D3E9002300F03EFC15
:1057700002460B465046594600F084FA02460B4654
:1057800006460F464046494600F07EFA42464B46E2
:10579000002082468B4600F075FA02460B463046E2
:1057A000394600F06FFA80468946DCE50022002386
:1057B000CDE90823CDE90E233A4B00220027CDE99D
:1057C000062346E44A463B460020364900F038FDB1
:1057D0008346FFF72DBB2CA3D3E90023DDE90401A9
:1057E00000F004FC28A3D3E9002300F0FFFB83466C
:1057F000FFF71EBBBEF1000F7FF457ABC3F11403DC
:1058000048FA03F202FA03F3984524D07446FFF7EE
:1058100029BB264B9F423FF708AEDDE902349A468A
:105820009B462FE602460B46FFF7C1BB18A3D3E900
:105830000023CDE9082318A3D3E90023CDE90E23E3
:105840001B4B00224FF48027CDE9062301E45A4682
:1058500000F08EF9C6E602F00102C2F10204FFF781
:1058600001BB00BFAFF30080000000604715F73FA9
:1058700044DF5DF80BAE543E555555555555D53F53
:10588000FE822B654715F73F9C7500883CE4377E08
:105890000000004003B8E23F06D0CF43EBFD4C3E92
:1058A000FEFFEF3F0000F03F0000D03F0000E03F70
:1058B0000000F83F2DE9F8435D4EB6460E407645B0
:1058C0000C46054600F0958000290B46024673DD24
:1058D0000F157ED0A7F2FF37C3F31303F80743F485
:1058E000801364D403EBD27100260B447F10520066
:1058F000B64616204FF400110EEB01049C424FEA0D
:10590000D2754FEA420203DC1B1B04EB010E0E446E
:10591000013805EB43034FEA5101EDD184462024C1
:105920004FF0004109E020D003EBD275013C4FEA73
:1059300051012B444FEA420220D09E4501EB0C0559
:10594000F1DA002D05EB010C09DBF0469542CEEBB8
:10595000030300D9013B521B0844C646E4E7BCF1EF
:10596000000FF2DB0EF10108F0E7954217D8002D89
:1059700005EB010C47DB98460023ECE7134310D1FD
:105980004008731003F17F5303F50013F20703EB94
:10599000075948BF40F000404946BDE8F8837346C8
:1059A000C2E7411C33D000F001031844E8E75B0074
:1059B00003EBD273520095E721F000460643ECD08A
:1059C00069BB0F46D30A153F5205002BFAD0DD0202
:1059D00020D4002100E001465B00DC0201F101005F
:1059E000F9D5C0F1200422FA04F423437F1A82403F
:1059F00070E702460B4600F0F9FA2A46234600F00B
:105A000043F9BDE8F883BCF1000FABDAB3E7013628
:105A10002046B6E720244FF0FF310020E3E702469E
:105A20000B4600F02FF902460B4600F009FCB4E7E4
:105A30000000F07F21F00041704700BF41F00041BD
:105A400001F58010C00F7047002070470020014909
:105A5000704700BF0000F87FF0B5C1F30A5EAEF2F8
:105A6000FF36132E83B002460B460C464FEAD17523
:105A700007462EDC002E49DB3B49314103EA010099
:105A800010432BD049080B4053EA02070CD04FF4C7
:105A90008023132E24EA010143FA06F444EA0104A8
:105AA0000CBF4FF000470027304B03EBC5052146E4
:105AB000D5E90045384622462B4600F0E5F8CDE909
:105AC000000122462B46DDE9000100F0DBF803B0BF
:105AD000F0BD332E06DDB6F5806F42D01046194674
