:020000040800F2
:10000000B0290020FD07000859080008CB3500087A
:1000100059080008590800085908000800000000A5
:100020000000000000000000000000005908000867
:100030005908000800000000590800085908000885
:10004000590800085908000859080008590800080C
:1000500059080008590800085908000859080008FC
:1000600059080008590800085908000859080008EC
:1000700059080008590800085908000859080008DC
:100080000107000859080008590800085908000825
:1000900059080008590800085908000859080008BC
:1000A00059080008590800085908000859080008AC
:1000B000590800085908000859080008590800089C
:1000C000590800085908000859080008590800088C
:1000D000590800085908000859080008590800087C
:1000E000590800085908000859080008590800086C
:1000F000590800085908000859080008590800085C
:10010000590800085908000859080008590800084B
:10011000590800085908000859080008CD1A0008B5
:10012000590800085908000859080008590800082B
:10013000590800085908000859080008590800081B
:10014000590800085908000859080008590800080B
:1001500059080008590800085908000859080008FB
:1001600059080008590800085908000859080008EB
:1001700059080008590800085908000859080008DB
:10018000590800085908000880B582B000AF3B4606
:10019000184603F081F801210F2001F06FFB1023B6
:1001A0003B6001233B710023BB710223FB710223DF
:1001B0007B713B461946474802F0E0FF4FF410734D
:1001C0003B6002233B710123BB710023FB710223BF
:1001D0007B713B461946404802F0D0FF04220621BD
:1001E0003D4803F0A9F8042209213B4803F0A4F894
:1001F00001214FF4021001F05FFB012001F084FAAD
:100200004FF4A4533B600023BB713B46194633486F
:1002100002F0B4FF10233B603B461946304802F021
:10022000ADFF062204212E4803F086F8062207219E
:100230002A4803F081F806220A21284803F07CF8B6
:1002400006220C21254803F077F81021214803F0FD
:1002500065F8244803F0A8FC234B4BF680329A60E3
:10026000214B4FF40072DA801F4B4FF400721A805A
:100270001D4B00229A801C4B00225A801A4B0022F0
:100280009A811949174803F0C9FC184803F014FE75
:10029000174B42F210721A60154B00229A80144BD1
:1002A00033221A81124B4FF480625A81104B4FF463
:1002B00080429A810E4B4BF6FF72DA8001210B4887
:1002C00003F0F6FE0A49094803F030FE00BF083784
:1002D000BD4680BD000C0240000402400008024000
:1002E00000000240003C0040DC05002000540040BB
:1002F000F006002080B584B000AF78600B46FB703C
:100300000121214803F0F4FE00BF20491E4803F0FC
:10031000BBFF0346002BF8D0002294211A4803F0BB
:1003200027FF00BF1A49184803F07EFF0346002B41
:10033000F8D00023FB6012E0FB687A6813441B7856
:100340001946114803F052FF00BF12490E4803F04E
:100350006BFF0346002BF8D0FB680133FB60FA7893
:10036000FB689A42E8DC00BF0B49074803F08CFFAA
:100370000346002BF8D00121034803F0D9FE00BF4B
:100380001037BD4680BD00BF005400400100001082
:1003900082000700800007000400001080B582B0D2
:1003A00000AF1021534802F0ABFF00237B6002E056
:1003B0007B6801337B607B684F4A9342F8DD022300
:1003C0003B7001237B703B4602211846FFF792FFEA
:1003D00000233B7099237B703B4602211846FFF7B0
:1003E00089FF47233B7080237B703B4602211846E0
:1003F000FFF780FF322000F081F80346FB703223C4
:100400003B70FB7863F07F03DBB27B703B460221DD
:100410001846FFF76FFF322000F070F80346FB70BC
:1004200032233B70FB7803F07F03DBB27B703B46EB
:1004300002211846FFF75EFF00233B7000237B700C
:100440003B4602211846FFF755FF04233B70AA23C1
:100450007B703B4602211846FFF74CFF0D233B7093
:1004600070237B703B4602211846FFF743FF0523AC
:100470003B7080237B703B4602211846FFF73AFF12
:1004800006233B7007237B703B4602211846FFF78B
:1004900031FF0A233B7000237B703B460221184644
:1004A000FFF728FF1A233B7050237B703B46022145
:1004B0001846FFF71FFF1B233B7050237B703B4602
:1004C00002211846FFF716FF1F233B7088237B701D
:1004D0003B4602211846FFF70DFF02233B709E2387
:1004E0007B703B4602211846FFF704FF00BF083728
:1004F000BD4680BD000C02403F420F0080B584B075
:1005000000AF0346FB7100BF4FF40031354803F0E4
:10051000BBFE0346002BF7D10121324803F0E8FD72
:1005200000BF31492F4803F0AFFE0346002BF8D03F
:10053000002294212B4803F01BFE00BF2B492948C1
:1005400003F072FE0346002BF8D0FB7919462548CC
:1005500003F04CFE00BF2649224803F065FE034627
:10056000002BF8D001211F4803F0E2FD00BF4FF43B
:1005700000311C4803F088FE0346002BF7D1002110
:10058000184803F013FE0121164803F0B1FD00BF27
:100590001549144803F078FE0346002BF8D00122D9
:1005A0009421104803F0E4FD00BF12490D4803F008
:1005B0003BFE0346002BF8D000BF0F49094803F06B
:1005C00033FE0346002BF8D0064803F01FFE034617
:1005D000FB730121034803F0ABFDFB7B184610378A
:1005E000BD4680BD0054004001000010820007009D
:1005F00080000700020003004000030080B592B0B5
:1006000000AF01214FF4001001F038F9102387F8F2
:100610004030002387F84130012387F8423001231E
:1006200087F8433007F14003184603F05FFE0021CE
:100630002E4803F0A5F92D4803F07AF800237B60DB
:100640002B4BBB602B4BFB604FF480737B614FF4F3
:100650004033FB6240233B610023BB614FF4806366
:10066000FB614FF400633B624FF400537B624FF435
:100670008073BB6200233B6303237B630023BB6364
:100680000023FB633B1D1946184803F023F9194B5F
:1006900000221946154803F08FF90121134803F091
:1006A000A9F901221821114803F0C0F901210F48CE
:1006B00003F066F9012271210F4803F0CDFB0122FE
:1006C00002210D4803F0A4FB00237B6402E07B6C55
:1006D00001337B647B6C094A9342F8DD01210648B3
:1006E00003F076FB00BF4837BD4680BD88600240FE
:1006F0000C3C004008070020003C00409F860100A1
:1007000080B584B000AF3549354803F0C9F90346D8
:10071000002B24D00023FB600023BB6018E0314A8B
:10072000FB6832F8133019B22F4ABB6822F8131055
:10073000BB6801332D49FA6831F8122011B22A4AF8
:1007400022F81310BB680233BB60FB680133FB6007
:10075000BB687F2BE3DD2149214803F0F7F92449E9
:100760001F4803F09DF90346002B33D0214B1B6833
:100770000133204A13601F4B1B680A2B02DD1D4BFF
:1007800000221A6040237B6080233B6018E0154AFA
:100790007B6832F8133019B2134A3B6822F8131001
:1007A0003B68013311497A6831F8122011B20E4AC0
:1007B00022F813103B6802333B607B6801337B6097
:1007C0003B68FF2BE3DD0A49054803F0BFF90A4BFC
:1007D00001221A7000BF1037BD4680BD00440020C2
:1007E00088600240F00500200807002090040020E7
:1007F0000088002040040020DA05002080B582B087
:1008000000AF104B7B60104B3B6007E03B681A1D4C
:100810003A607A68111D796012681A603B680B4A69
:100820009342F3D30A480B494FF000028842B8BF05
:1008300040F8042BFADB00F013F800BF0837BD4680
:1008400080BD00BF307A0208000000204004002074
:1008500040040020B021002080B400AFFEE700BFBC
:10086000B0B58CB004AF02F0BBFE00F0F5FD03F0B4
:100870009DFDFFF789FCFFF791FDFFF7BFFE02F03A
:1008800023F901F091F801F013FD4FF00063BB6113
:10089000C34B0022DA61C34B0022DA6100F05CFE38
:1008A00003F054FE03F0ECFEBF4B1B78DBB2002BD1
:1008B00000F0EE81BD4B1B78DBB283F00103DBB2AD
:1008C000002B00F0E581BA4B1B78DBB283F001030B
:1008D000DBB2002B00F0DC81B64D3846B54B1A6810
:1008E000002414461A79597909020A439B791B049A
:1008F0001A43002362F3170321461A4603F06EFEE3
:100900002A463B461968116099889B7991809371BA
:10091000A94B9B899BB21A46A74B5B899BB2DB080C
:100920009BB2A3F580731344002B03DAA24B4FF460
:1009300000625A81A04B9B899BB21A469E4B5B89F1
:100940009BB2DB089BB2A3F580731344B3F5805FC1
:1009500003DB994B4FF400625A81964B5B7883F02E
:100960000103DBB21A46934B9B781340002B50D007
:10097000914B9B899BB2184605F0EAFC80A3D3E912
:10098000002305F04BFD03460C461A4623464FF064
:1009900000004FF0804104F0D1FA7BA3D3E900239B
:1009A00005F03CFD03460C461846214602460B4620
:1009B00005F082FB03460C46184621464FF0000224
:1009C0007E4B05F02BFD03460C461846214605F0EC
:1009D000D5FF0246724B5A60774B9B899BB21846F3
:1009E00005F0B6FC6AA3D3E9002305F041FE0346F7
:1009F0000C46184621464FF00002704B05F00EFDE4
:100A000003460C461846214605F0B8FF0246644BE3
:100A10009A60684B9B7883F00103DBB2002B62D0B5
:100A2000654B9B899BB21A46634B5B899BB2DB0883
:100A30009BB2A3F580731344184605F089FC50A3BC
:100A4000D3E9002305F0EAFC03460C461A46234688
:100A50004FF000004FF0804104F070FA4AA3D3E950
:100A6000002305F0DBFC03460C46184621460246EF
:100A70000B4605F021FB03460C46184621464FF075
:100A800000024E4B05F0CAFC03460C4618462146B0
:100A900005F074FF0246424B5A60474B9B899BB25C
:100AA0001A46454B5B899BB2DB089BB2A3F580736A
:100AB0001344184605F04CFC35A3D3E9002305F098
:100AC000D7FD03460C46184621464FF000023B4B2B
:100AD00005F0A4FC03460C461846214605F04EFFDF
:100AE00002462F4B9A602E4B9B68184605F030FC4F
:100AF0004FF00002314B05F0BBFD03460C46184693
:100B000021464FF000024FF0000305F0F9FE0346C6
:100B1000002B02D0224B00229A60264B5B7983F097
:100B20000103DBB2002B1CD0234BDB889BB21846A1
:100B300005F00EFC18A3D3E9002305F099FD034648
:100B40000C46184621464FF000021C4B05F066FC8F
:100B500003460C461846214605F010FF0246104B8E
:100B60009A61144B1B7883F00103DBB2002B3ED05B
:100B7000114B9B889BB2184605F0EAFB20E000BFB2
:100B8000B76B3B0E4001643FD82090664C53D63F74
:100B900000000000009879400000000000FEAF4017
:100BA00008090020980500206A1A0020EC050020A2
:100BB0009E1A0020000700207C1A00200000F04050
:100BC0003FA3D3E9002305F053FD03460C46184626
:100BD00021464FF000023C4B05F020FC03460C463A
:100BE0001846214605F0CAFE0246384B1A61384BBA
:100BF0001B7983F00103DBB2002B6DD0334BDB6834
:100C00007B61344B1B889BB25B089BB2184605F096
:100C10009FFB4FF000022C4B05F000FC03460C46F6
:100C20001846214605F0AAFE0246284BDA60274BFB
:100C3000DA687B699A4208D0244BDA69234BD96879
:100C40007B69CB1A1344214AD361204BDB691B1407
:100C5000002B0BDD1D4BDB69A3F500431B4AD36161
:100C60001A4B1B6803F50043184A1360174BDB69E6
:100C70001B14002B30DA154BDB6903F50043134AD4
:100C8000D361124B1B68A3F50043104A136023E0A5
:100C90000F4B01229A710E4B0122DA700C4B01228C
:100CA0005A700B4B01229A70094B01225A71084B62
:100CB00001221A70064B01221A710EE0AFF3008078
:100CC00000000000005495400000F040080900209A
:100CD000000700207C1A002000BFC54B1B78DBB248
:100CE000002B00F0D881C34B1B78DBB283F00103EB
:100CF000DBB2002B00F0CF81BF4B1B78DBB283F05F
:100D00000103DBB2002B00F0C681BC4D3846BB4B63
:100D10001A68002414461A79597909020A439B7902
:100D20001B041A43002362F3170321461A4603F0FB
:100D300055FC2A463B461968116099889B79918039
:100D40009371AF4B9B899BB21A46AD4B5B899BB2AB
:100D5000DB089BB2A3F580731344002B03DAA84B86
:100D60004FF400625A81A64B9B899BB21A46A54B51
:100D70005B899BB2DB089BB2A3F580731344B3F588
:100D8000805F03DB9E4B4FF400625A819B4B5B7884
:100D900083F00103DBB21A46984B9B781340002B7B
:100DA00050D0974B9B899BB2184605F0D1FA86A389
:100DB000D3E9002305F032FB03460C461A462346CE
:100DC0004FF000004FF0804104F0B8F880A3D3E961
:100DD000002305F023FB03460C4618462146024635
:100DE0000B4605F069F903460C46184621464FF0BC
:100DF0000002854B05F012FB03460C4618462146BF
:100E000005F0BCFD0246814B5A607D4B9B899BB22D
:100E1000184605F09DFA70A3D3E9002305F028FCDD
:100E200003460C46184621464FF00002764B05F06B
:100E3000F5FA03460C461846214605F09FFD02468A
:100E4000724B9A606D4B9B7883F00103DBB2002BF1
:100E500062D06B4B9B899BB21A46694B5B899BB2F4
:100E6000DB089BB2A3F580731344184605F070FAB3
:100E700055A3D3E9002305F0D1FA03460C461A46E0
:100E800023464FF000004FF0804104F057F850A384
:100E9000D3E9002305F0C2FA03460C461846214662
:100EA00002460B4605F008F903460C461846214653
:100EB0004FF00002544B05F0B1FA03460C461846B9
:100EC000214605F05BFD0246504B5A604C4B9B8916
:100ED0009BB21A464A4B5B899BB2DB089BB2A3F5D7
:100EE00080731344184605F033FA3BA3D3E900237B
:100EF00005F0BEFB03460C46184621464FF00002A3
:100F0000414B05F08BFA03460C461846214605F086
:100F100035FD02463D4B9A60384B5B7983F0010307
:100F2000DBB2002B1CD0364BDB889BB2184605F099
:100F30000FFA2BA3D3E9002305F09AFB03460C46D6
:100F4000184621464FF000022F4B05F067FA034682
:100F50000C461846214605F011FD02462B4B9A61BE
:100F6000264B1B7883F00103DBB2002B1CD0244BF3
:100F70009B889BB2184605F0EBF91BA3D3E900232D
:100F800005F076FB03460C46184621464FF000025A
:100F90001D4B05F043FA03460C461846214605F062
:100FA000EDFC0246194B1A61144B1B7983F00103C7
:100FB000DBB2002B00F08580144BDB683B61104BEB
:100FC0001B889BB25B0823E0B76B3B0E4001643F7C
:100FD000D82090664C53D63F00000000009879401E
:100FE0000000000000FEAF400000000000549540EB
:100FF00028090020EC0500209E1A00209005002002
:101000007C1A0020A02100200000F040980500205C
:101010009BB2184605F09CF94FF00002684B05F0B2
:10102000FDF903460C461846214605F0A7FC02468A
:10103000644BDA60644BDA683B699A4208D0614BD2
:10104000DA69604BD9683B69CB1A13445D4AD361B6
:101050005C4BDB691B14002B0BDD5A4BDB69A3F5E2
:101060000043584AD361574B1B6803F50043554A68
:101070001360544BDB691B14002B22DA514BDB69E4
:1010800003F500434F4AD3614E4B1B68A3F5004361
:101090004C4A136015E04D4B01229A714B4B0122D3
:1010A000DA704A4B01225A70484B01229A70474B22
:1010B00001225A71454B01221A70444B01221A71C8
:1010C00000E000BF424B1B78DBB2002B3FF4E6ABE5
:1010D0000023FB616CE03C4B1B68002B05DA3A4BAC
:1010E0001A68BB691344384A1360364B1B68002BDF
:1010F00005DA344B1A68BB691344324A1360324B29
:101100001A68BB699A4205DB2F4B1A68BB69D31A70
:101110002D4A13602B4B1A68BB699A4205DB294B99
:101120001A68BB69D31A274A1360274C6D4604F12D
:1011300010030FCB85E80F0094E80F0000F0CAF809
:10114000F860204C6D4604F110030FCB85E80F00CA
:1011500094E80F0000F0BEF8B8601B4B9B691A467C
:10116000B968F86800F05CF903461946194AFB694A
:1011700022F81310134B9B691A46F968B86800F0FF
:101180004FF903461946144AFB6922F813100E4B17
:101190001A680D4B5B6813440B4A1360094B1A68BD
:1011A000084B5B681344074A1360FB690133FB611A
:1011B000FB697F2B8FDD064B00221A70FFF76EBB99
:1011C0000000F0409805002008090020900500204C
:1011D000DA05002090040020F005002080B489B0DA
:1011E00000AFF860B9601346FB80FB681B0CBB6165
:1011F000FB689BB27B61BB695B00BA681344B3F9BF
:1012000000301B043B61BB695A1CFB889A4209DA17
:10121000BB6901335B00BA681344B3F900301B04A7
:10122000FB6103E0BB68B3F90030FB61FA693B691D
:10123000D31A1B127A69121202FB03F23B691344A0
:101240001B149BB218462437BD4680BC704700BFB4
:1012500080B588B000AFF860B9607A607B80BB6809
:101260001B0CBB61BB689BB27B61BB691B037A68CB
:1012700013444FF400621946F868FFF7AFFF0346C6
:101280001B043B61BB69082B0EDCBB6901331B03EC
:101290007A6813444FF400621946F868FFF79EFF1E
:1012A00003461B04FB6101E03B69FB613B691B12C8
:1012B0007A69C2F58032121202FB03F2FB691B123B
:1012C0007969091201FB03F3134418462037BD4620
:1012D00080BD00BF84B080B584B000AF07F1180EA8
:1012E0008EE80F00BB6A1B0CFB60BB6A9BB2BB6045
:1012F0003B6A1B14072B09DDBB694FF400624449AC
:101300001846FFF76BFF03461B0479E0FB68032BCD
:1013100075D801A252F823F0291300086D130008B4
:10132000AD130008ED130008BB694FF400623849A3
:101330001846FFF753FF03461B047B60B869396A00
:101340004FF40063334AFFF783FF38607B681B125A
:10135000BA68C2F58032121202FB03F23B681B121C
:10136000B968091201FB03F3134449E0B869396A0B
:101370004FF40063274AFFF76BFF7860B869396A5A
:101380004FF40063244AFFF763FF38607B681B1249
:10139000BA68C2F58032121202FB03F23B681B12DC
:1013A000B968091201FB03F3134429E0B869396AEB
:1013B0004FF40063184AFFF74BFF7860B869396A49
:1013C0004FF40063154AFFF743FF38607B681B1238
:1013D000BA68C2F58032121202FB03F23B681B129C
:1013E000B968091201FB03F3134409E0B869396ACB
:1013F0004FF40063094AFFF72BFF034600E0002388
:1014000018461037BD46BDE8804004B0704700BFA5
:10141000186A0208181A010818CA0108186A000890
:1014200080B485B000AFF860B9607A60FB681B12C9
:101430007A68C2F58032121202FB03F2BB681B12FB
:101440007968091201FB03F313441B141BB21846FD
:101450001437BD4680BC704780B582B000AF012113
:10146000022000F00BFA01233B7110233B600223A2
:101470007B710023BB710023FB713B461946324848
:1014800001F07CFE1021304801F03AFF01210420D8
:1014900000F0F4F901233B714FF400533B60022349
:1014A0007B710023BB710023FB713B461946274823
:1014B00001F064FE4FF40051244801F021FF0121A6
:1014C000082000F0DBF901233B7143F2AA033B60E3
:1014D00002237B710023BB710023FB713B4619463D
:1014E0001B4801F04BFE0821194801F009FF0221B9
:1014F000174801F005FF2021154801F001FF802168
:10150000134801F0FDFE0121102000F0B7F901237E
:101510003B714FF405633B6002237B710023BB7179
:101520000023FB713B4619460A4801F027FE1021B3
:10153000084801F0E5FE4021064801F0E1FE00BF49
:101540000837BD4680BD00BF0004024000080240CD
:10155000000C02400010024080B500AF5D4B1B78CC
:10156000DBB2002B48D05C4B1B78DBB283F001036D
:10157000DBB2002B0CD0594B00221A70584B0022C2
:101580001A704021574801F0C9FE534B01221A70CE
:10159000534B1B78012B12D0022B1ED0002B00D0F6
:1015A00050E040214F4801F0B9FE4FF400514E4841
:1015B00001F0A6FE10214B4801F0A2FE42E04FF4DC
:1015C0000051494801F0AAFE4021464801F098FE2A
:1015D0001021444801F094FE34E01021414801F00C
:1015E0009DFE4FF40051404801F08AFE40213D48E5
:1015F00001F086FE00BF25E080213C4801F080FE1E
:10160000354B1B78DBB2002B0FD0354B1B78002BF2
:1016100002D0012B03D004E000F052FE02E001F002
:1016200039F800BF2C4B00221A7040212D4801F0E0
:1016300067FE4FF400512C4801F062FE102129484A
:1016400001F05EFE2A4B1B78DBB2002B04D0802118
:10165000264801F063FE03E08021244801F050FE9B
:10166000244B1B78DBB2002B04D01021224801F060
:1016700055FE03E01021204801F042FE1F4B1B786D
:10168000DBB2002B04D00821184801F047FE03E02C
:101690000821164801F034FE194B1B78DBB2002BF1
:1016A00004D00221114801F039FE03E002210F4865
:1016B00001F026FE134B1B78DBB2002B04D0202157
:1016C0000A4801F02BFE03E02021084801F018FE33
:1016D00000BF80BD8A1A0020EC050020ED05002027
:1016E000D80500200010024000080240000C024013
:1016F0009E1A00208C1A0020000402406A1A002062
:10170000280900208B1A002080B483B000AF034664
:10171000FB71044AFB79136000BF0C37BD4680BCE7
:10172000704700BF6800474280B489B000AF78605E
:101730000023BB6100237B610023FB6102233B612B
:101740000023FB600223BB60484B9B6803F00C0343
:10175000BB61BB69042B07D0082B09D0002B3FD1FC
:101760007B68434A1A603FE07B68424A1A603BE06C
:101770003E4B5B6803F480039B0DFB603B4B5B6857
:1017800003F03F03BB60FB68002B0DD0394ABB68F8
:10179000B2FBF3F2354B596847F6C0730B409B0917
:1017A00003FB02F3FB610CE0314ABB68B2FBF3F2CE
:1017B0002E4B596847F6C0730B409B0903FB02F39D
:1017C000FB612A4B5B6803F440331B0C01335B0065
:1017D0003B61FA693B69B2FBF3F27B681A6003E094
:1017E0007B68234A1A6000BF204B9B6803F0F0031C
:1017F000BB61BB691B09BB611F4ABB6913441B78F2
:10180000DBB27B617B681A687B69DA407B685A606F
:10181000164B9B6803F4E053BB61BB699B0ABB6139
:10182000154ABB6913441B78DBB27B617B685A683D
:101830007B69DA407B689A600C4B9B6803F46043D9
:10184000BB61BB695B0BBB610B4ABB6913441B7873
:10185000DBB27B617B685A687B69DA407B68DA605F
:1018600000BF2437BD4680BC704700BF003802402F
:101870000024F40000127A000000002080B483B03D
:1018800000AF78600B46FB70FB78002B06D009494F
:10189000084B1A6B7B6813430B6306E00549054B45
:1018A0001A6B7B68DB4313400B6300BF0C37BD46EC
:1018B00080BC70470038024080B483B000AF7860CD
:1018C0000B46FB70FB78002B06D00949084B1A6CBD
:1018D0007B6813430B6406E00549054B1A6C7B6873
:1018E000DB4313400B6400BF0C37BD4680BC704720
:1018F0000038024080B483B000AF78600B46FB70C4
:10190000FB78002B06D00949084B5A6C7B681343BF
:101910004B6406E00549054B5A6C7B68DB4313407A
:101920004B6400BF0C37BD4680BC70470038024096
:1019300080B483B000AF78600B46FB70FB78002B5F
:1019400006D00949084B1A6A7B6813430B6206E00C
:101950000549054B1A6A7B68DB4313400B6200BFE5
:101960000C37BD4680BC70470038024080B483B05D
:1019700000AF78600B46FB70FB78002B06D009495E
:10198000084B5A6A7B6813434B6206E00549054BD6
:101990005A6A7B68DB4313404B6200BF0C37BD467D
:1019A00080BC70470038024080B586B000AF01218E
:1019B0000220FFF763FF01210820FFF75FFF0121ED
:1019C0000120FFF75BFF01210420FFF757FF2823C9
:1019D0003B6100233B750023FB7502237B7507F1F8
:1019E00010031946334801F0C9FB45233B6100232E
:1019F0003B750023FB7502237B7507F11003194625
:101A00002D4801F0BBFB4FF401433B6100233B75C4
:101A10000023FB7502237B7507F110031946274845
:101A200001F0ACFB4FF480733B6100233B75002356
:101A3000FB7502237B7507F110031946204801F05E
:101A40009DFB01212020FFF737FF0023BB810023EE
:101A5000FB805423BB604FF47A73BB803B1D194657
:101A6000184802F089FE01220121164802F00EFFFB
:101A700037233B700123FB700F237B700F23BB7058
:101A80000121104802F026FF3B46184602F02EFCCA
:101A900001210C4802F0DAFE0B4B00221A700A4BAF
:101AA0001B78DBB2184601F0B3F800BF1837BD460B
:101AB00080BD00BF00040240000C02400000024054
:101AC0000008024000140040D905002080B582B013
:101AD00000AF00237B600821A24801F0F7FB03461A
:101AE000002B14BF01230023DAB29F4B9A702021F0
:101AF0009C4801F0EBFB0346002B14BF012300239D
:101B0000DAB2994B9A720121984801F0DFFB034643
:101B1000002B14BF01230023DAB2934B9A740421E3
:101B2000924801F0D3FB0346002B14BF012300238E
:101B3000DAB28D4B9A7640218C4801F0C7FB034600
:101B4000002B14BF01230023DAB2874B83F8222035
:101B50004FF40041864801F0B9FB0346002B14BF47
:101B600001230023DAB2804B83F82A2000237B6014
:101B700049E07D4A7B68DB0013440022DA707A4A30
:101B80007B68DB0013445B68002B0ADD764A7B68C8
:101B9000DB0013445B685A1E73497B68DB000B440F
:101BA0005A60714A7B68DB0013445B78002B1CD0C1
:101BB0006D4A7B68DB0013449B7883F00103DBB242
:101BC000002B12D0684A7B68DB0013445B68002B53
:101BD0000BD1654A7B68DB0013440122DA70624A4C
:101BE0007B68DB0013440F225A605F4A7B68DB008E
:101BF000134499785C4A7B68DB0013440A465A70A8
:101C00007B6801337B607B68052BB2DD564BDB784C
:101C10001A46584B1B78DBB25340002B14BF0123EC
:101C20000023DAB2534B1A704F4BDB7A1A46524BF1
:101C30001B78DBB25340002B14BF01230023DAB220
:101C40004D4B1A70484BDB7C1A464C4B1B78DBB271
:101C50005340002B14BF01230023DAB2474B1A7004
:101C6000414BDB7E1A46464B1B78DBB25340002BC0
:101C700014BF01230023DAB2414B1A703A4B93F898
:101C800023301A463F4B1B78DBB25340002B14BF66
:101C900001230023DAB23B4B1A70334B93F82B30FD
:101CA0001A46394B1B78DBB25340002B14BF01237B
:101CB0000023DAB2344B1A70344B9B68002B05DDDD
:101CC000324B9B68013B314A9360C6E04FF4807110
:101CD000274801F0FBFA0346002B14BF0123002321
:101CE000DAB22A4BDA704FF48071294801F0EEFA2B
:101CF0000346002B14BF01230023DAB2234B1A71D1
:101D0000224B5B78002B60D0204BDB7883F0010303
:101D1000DBB2002B59D01D4B0A229A601B4B1B795A
:101D2000002B52D01B4B1B78DBB283F00103DBB2DC
:101D3000002B33D0184B1B78DBB2002B07D0164B8F
:101D40001B78DBB2013BDAB2134B1A7002E0124B84
:101D500063221A70104B1B78DBB2184600F058FF54
:101D600033E000BF0004024044040020000C0240A5
:101D7000000002409E1A00208C1A00202809002032
:101D80006A1A00208B1A00208A1A0020740400208E
:101D900000080240EC050020D9050020674B1B78A5
:101DA0005BB2DBB2013BDBB25AB2644B1A70634BDD
:101DB0001B785BB2002B02DA604B02221A705F4B79
:101DC0001B785BB2DAB25E4B1A705E4B9B78002BCD
:101DD00043D05C4B1B7983F00103DBB2002B3CD07A
:101DE000584B0A229A60574BDB78002B35D0564B64
:101DF0001B78DBB283F00103DBB2002B16D0534B10
:101E00001B78DBB2622B07D8504B1B78DBB2013357
:101E1000DAB24E4B1A7002E04C4B00221A704B4B58
:101E20001B78DBB2184600F0F3FE16E0434B1B783C
:101E30005BB2DBB20133DBB25AB2404B1A703F4B9C
:101E40001B785BB2022B02DD3C4B00221A703B4B2D
:101E50001B785BB2DAB23A4B1A703A4BDA78394BEC
:101E60005A70384B1A79374B9A70394B5B68002B94
:101E700005DD374B5B68013B354A536051E001217A
:101E8000344801F023FA0346002B14BF012300233A
:101E9000DAB22F4B9A702E4B5B7883F00103DBB2E2
:101EA000002B0CD02A4B9B78002B08D0284B01220A
:101EB000DA70274B0F225A60254B00229A60244B80
:101EC0005B78002B18D0224B9B78002B14D0204B32
:101ED000DB78002B10D01E4B9B680A331C4A9360A2
:101EE0001B4B0F225A601A4B9B6840F6B732934245
:101EF00002DD174B0022DA70154B5B7883F001038B
:101F0000DBB2002B0DD0124B9B7883F00103DBB2C8
:101F1000002B06D00E4BDB78002B02D00C4B00229E
:101F2000DA700B4B9A780A4B5A7001210A4802F07A
:101F3000D1FC00BF0837BD4680BD00BFED050020C5
:101F4000D805002074040020EC050020D9050020ED
:101F500080040020000002400014004080B485B0DE
:101F600000AF786039600023FB600023FB727B6860
:101F70005B68FB60FB6823F0407323F48073FB60B5
:101F80003B681B791A023B681B681343FA681343CA
:101F9000FB607B68FA685A607B689B68FB60FA6844
:101FA000174B1340FB603B681A693B68DB681A43B8
:101FB0003B689B681A433B685B795B001343FA6894
:101FC0001343FB607B68FA689A607B68DB6AFB609E
:101FD000FB6823F47003FB603B681B7D013BDAB2B6
:101FE000FB7A1343FB72FB7A1B05FA681343FB6011
:101FF0007B68FA68DA6200BF1437BD4680BC704760
:10200000FDF7FFC080B485B000AF78600023FB60AF
:102010000E4B5B68FB60FA680D4B1340FB607B68FE
:102020001A687B685B681A437B689B681A437B6805
:10203000DB681343FA681343FB60044AFB68536090
:1020400000BF1437BD4680BC704700BF002301406D
:10205000E030FCFF80B483B000AF78600B46FB70CB
:10206000FB78002B06D07B689B6843F001027B68FD
:102070009A6005E07B689B6823F001027B689A60A8
:1020800000BF0C37BD4680BC704700BF80B485B030
:1020900000AF7860084611461A460346FB700B46AF
:1020A000BB7013467B700023FB600023BB60FB7892
:1020B000092B23D97B68DB68FB60FB78A3F10A025C
:1020C00013465B001344072202FA03F3BB60BB68AC
:1020D000DB43FA681340FB607978FB78A3F10A02CE
:1020E00013465B00134401FA03F3BB60FA68BB6854
:1020F0001343FB607B68FA68DA601EE07B681B694B
:10210000FB60FA7813465B001344072202FA03F3DC
:10211000BB60BB68DB43FA681340FB607978FA78F0
:1021200013465B00134401FA03F3BB60FA68BB6813
:102130001343FB607B68FA681A61BB78062B21D8D1
:102140007B685B6BFB60BB785A1E13469B00134495
:102150001F2202FA03F3BB60BB68DB43FA6813403B
:10216000FB60F978BB785A1E13469B00134401FAB2
:1021700003F3BB60FA68BB681343FB607B68FA68D3
:102180005A6347E0BB780C2B21D87B681B6BFB6044
:10219000BB78DA1F13469B0013441F2202FA03F395
:1021A000BB60BB68DB43FA681340FB60F978BB781F
:1021B000DA1F13469B00134401FA03F3BB60FA686D
:1021C000BB681343FB607B68FA681A6322E07B6894
:1021D000DB6AFB60BB78A3F10D0213469B0013443E
:1021E0001F2202FA03F3BB60BB68DB43FA681340AB
:1021F000FB60F978BB78A3F10D0213469B001344F2
:1022000001FA03F3BB60FA68BB681343FB607B68A9
:10221000FA68DA6200BF1437BD4680BC704700BF61
:1022200080B483B000AF78607B689B6843F08042E5
:102230007B689A6000BF0C37BD4680BC704700BF0A
:1022400080B483B000AF78600B46FB70FB78002B46
:1022500006D07B689B6843F480727B689A6005E0D7
:102260007B689B6823F480727B689A6000BF0C37A0
:10227000BD4680BC704700BF80B483B000AF7860BB
:102280000B46FB70FB78002B06D07B689B6843F401
:1022900000727B689A6005E07B689B6823F400729B
:1022A0007B689A6000BF0C37BD4680BC704700BF9A
:1022B00080B500AF01F088F802F01CFB00BF80BDC4
:1022C00080B582B000AFB34B5B681B14FB80B24B90
:1022D0001B78DBB29BB21A4692001A445200134498
:1022E0005B009BB2FA881146184602F0A5FCA94B88
:1022F0005B68FB80A84B1B78DBB29BB21A4692004E
:102300001A44520013445B009BB201339BB2FA881B
:102310001146184602F090FC9E4B9B681B14FB80F4
:102320009D4B1B78DBB29BB21A4692001A445200B6
:1023300013445B009BB202339BB2FA8811461846E5
:1023400002F07AFC934B9B68FB80934B1B78DBB2CB
:102350009BB21A4692001A44520013445B009BB28F
:1023600003339BB2FA881146184602F065FC894B8C
:10237000DB681B14FB80884B1B78DBB29BB21A46D0
:1023800092001A44520013445B009BB204339BB288
:10239000FA881146184602F04FFC7E4BDB68FB8042
:1023A0007D4B1B78DBB29BB21A4692001A44520056
:1023B00013445B009BB205339BB2FA881146184662
:1023C00002F03AFC734B1B691B14FB80724B1B78A9
:1023D000DBB29BB21A4692001A44520013445B00CF
:1023E0009BB206339BB2FA881146184602F024FCD1
:1023F000684B1B69FB80684B1B78DBB29BB21A46AB
:1024000092001A44520013445B009BB207339BB204
:10241000FA881146184602F00FFC5E4B9B8AFB803F
:102420005D4B1B78DBB29BB21A4692001A445200F5
:1024300013445B009BB208339BB2FA8811461846DE
:1024400002F0FAFB534B9B691B14FB80524B1B7829
:10245000DBB29BB21A4692001A44520013445B004E
:102460009BB209339BB2FA881146184602F0E4FB8E
:10247000484B9B69FB80484B1B78DBB29BB21A46EA
:1024800092001A44520013445B009BB20A339BB281
:10249000FA881146184602F0CFFB404B5B681B14CC
:1024A000FB803D4B1B78DBB29BB21A4692001A446C
:1024B000520013445B009BB20B339BB2FA88114667
:1024C000184602F0B9FB354B5B68FB80324B1B783A
:1024D000DBB29BB21A4692001A44520013445B00CE
:1024E0009BB20C339BB2FA881146184602F0A4FB4B
:1024F0002A4B9B681B14FB80274B1B78DBB29BB2DB
:102500001A4692001A44520013445B009BB20D33EA
:102510009BB2FA881146184602F08EFB1F4B9B684F
:10252000FB801D4B1B78DBB29BB21A4692001A440B
:10253000520013445B009BB20E339BB2FA881146E3
:10254000184602F079FB154BDB681B14FB80124B1D
:102550001B78DBB29BB21A4692001A445200134415
:102560005B009BB20F339BB2FA881146184602F00B
:1025700063FB0A4BDB68FB80074B1B78DBB29BB22B
:102580001A4692001A44520013445B009BB2103367
:1025900006E000BF08090020D905002098050020AA
:1025A0009BB2FA881146184602F046FB374B1B696E
:1025B0001B14FB80364B1B78DBB29BB21A46920091
:1025C0001A44520013445B009BB211339BB2FA8849
:1025D0001146184602F030FB2C4B1B69FB802C4B3C
:1025E0001B78DBB29BB21A4692001A445200134485
:1025F0005B009BB212339BB2FA881146184602F078
:102600001BFB224B9B8AFB80214B1B78DBB29BB2CE
:102610001A4692001A44520013445B009BB21333D3
:102620009BB2FA881146184602F006FB174B9B69CD
:102630001B14FB80164B1B78DBB29BB21A46920030
:102640001A44520013445B009BB214339BB2FA88C5
:102650001146184602F0F0FA0C4B9B69FB800C4BBC
:102660001B78DBB29BB21A4692001A445200134404
:102670005B009BB215339BB2FA881146184602F0F4
:10268000DBFA00BF0837BD4680BD00BF98050020BB
:10269000D905002080B582B000AFBF4B01221A706F
:1026A000BD4B01225A70BC4B01229A70BA4B0122D9
:1026B000DA70B94B01221A71B74B01225A71B64B2D
:1026C00001229A71B54B01221A70B44B01225A7043
:1026D000B24B01229A70B14B0122DA70AF4B01224A
:1026E0001A71AE4B01225A71AC4B01229A71AC4B5C
:1026F0001B78DBB29BB21A4692001A445200134474
:102700005B009BB2BA1D1146184602F04BFAA44B6F
:102710001B78DBB29BB21A4692001A445200134453
:102720005B009BB201339BB23A1D1146184602F082
:1027300039FAFB881B04BA8813431A46994B5A602E
:10274000974B1B78DBB29BB21A4692001A44520098
:1027500013445B009BB202339BB2BA1D114618466C
:1027600002F020FA8E4B1B78DBB29BB21A46920025
:102770001A44520013445B009BB203339BB23A1DD0
:102780001146184602F00EFAFB881B04BA88134360
:102790001A46844B9A60824B1B78DBB29BB21A4676
:1027A00092001A44520013445B009BB204339BB264
:1027B000BA1D1146184602F0F5F9794B1B78DBB2C9
:1027C0009BB21A4692001A44520013445B009BB21B
:1027D00005339BB23A1D1146184602F0E3F9FB8817
:1027E0001B04BA8813431A466E4BDA606C4B1B7895
:1027F000DBB29BB21A4692001A44520013445B00AB
:102800009BB206339BB2BA1D1146184602F0CAF9B4
:10281000634B1B78DBB29BB21A4692001A445200FB
:1028200013445B009BB207339BB23A1D1146184616
:1028300002F0B8F9FB881B04BA8813431A46594BB7
:102840001A61574B1B78DBB29BB21A4692001A44AE
:10285000520013445B009BB208339BB2BA1D114671
:10286000184602F09FF9FB881AB24E4B9A824C4BE5
:102870001B78DBB29BB21A4692001A4452001344F2
:102880005B009BB209339BB2BA1D1146184602F099
:1028900089F9434B1B78DBB29BB21A4692001A446B
:1028A000520013445B009BB20A339BB23A1D11469F
:1028B000184602F077F9FB881B04BA8813431A46BE
:1028C000384B9A61364B1B78DBB29BB21A469200AA
:1028D0001A44520013445B009BB20B339BB2BA1DE7
:1028E0001146184602F05EF92D4B1B78DBB29BB205
:1028F0001A4692001A44520013445B009BB20C33F8
:102900009BB23A1D1146184602F04CF9FB881B0495
:10291000BA8813431A46244B5A60214B1B78DBB20A
:102920009BB21A4692001A44520013445B009BB2B9
:102930000D339BB2BA1D1146184602F033F9184BFD
:102940001B78DBB29BB21A4692001A445200134421
:102950005B009BB20E339BB23A1D1146184602F043
:1029600021F9FB881B04BA8813431A460E4B9A6060
:102970000B4B1B78DBB29BB21A4692001A445200F2
:1029800013445B009BB20F339BB2BA1D114618462D
:1029900002F008F90AE000BF0007002090050020BF
:1029A000D90500200809002098050020444B1B7819
:1029B000DBB29BB21A4692001A44520013445B00E9
:1029C0009BB210339BB23A1D1146184602F0EAF84A
:1029D000FB881B04BA8813431A463A4BDA60384B1B
:1029E0001B78DBB29BB21A4692001A445200134481
:1029F0005B009BB211339BB2BA1D1146184602F020
:102A0000D1F82F4B1B78DBB29BB21A4692001A44C6
:102A1000520013445B009BB212339BB23A1D114625
:102A2000184602F0BFF8FB881B04BA8813431A4605
:102A3000244B1A61224B1B78DBB29BB21A469200E0
:102A40001A44520013445B009BB213339BB2BA1D6D
:102A50001146184602F0A6F8FB881AB2194B9A8262
:102A6000174B1B78DBB29BB21A4692001A445200F5
:102A700013445B009BB214339BB2BA1D1146184637
:102A800002F090F80E4B1B78DBB29BB21A46920014
:102A90001A44520013445B009BB215339BB23A1D9B
:102AA0001146184602F07EF8FB881B04BA881343CF
:102AB0001A46044B9A6100BF0837BD4680BD00BF6F
:102AC000D90500209805002080B582B000AF012113
:102AD0000220FEF7D3FE01210820FEF7CFFE0121E0
:102AE0001020FEF7CBFE4FF478433B6001233B718F
:102AF0000023BB710023FB7102237B713B46194607
:102B0000404800F03BFB4FF478433B6001233B71AE
:102B10000023BB710023FB7102237B713B461946E6
:102B2000394800F02BFB4FF4BE433B6001233B715F
:102B30000023BB710023FB7102237B713B461946C6
:102B4000324800F01BFB4FF400612F4800F0D8FB27
:102B50004FF400512C4800F0D3FB4FF400412A48B9
:102B600000F0CEFB4FF40051264800F0C9FB4FF4B3
:102B70008041254800F0C4FB4FF48051214800F00B
:102B8000BFFB4FF480411F4800F0BAFB4FF40071C7
:102B90001E4800F0B5FB4FF400611A4800F0B0FB8E
:102BA0004FF40061194800F0ABFB4FF48061174807
:102BB00000F0A6FB4FF48051144800F0A1FB4FF445
:102BC0008041124800F09CFB4FF400410E4800F099
:102BD00097FB4FF400410B4800F092FB4FF400616B
:102BE0000A4800F08DFB4FF48071084800F088FB24
:102BF0004FF48051044800F083FB00BF0837BD4606
:102C000080BD00BF0004024000100240000C0240E2
:102C100080B584B000AF78607B68CF4A82FB031236
:102C20009210DB17D31AFB60FB686FF0090202FBFE
:102C300003F27B681344BB604FF40061C74800F0A7
:102C40005FFB4FF40051C54800F05AFB4FF40041C0
:102C5000C24800F055FB4FF40051C14800F050FB52
:102C60004FF48041BD4800F04BFB4FF48051BC480D
:102C700000F046FB4FF48041B94800F041FB4FF4AF
:102C80000071B84800F03CFB4FF40061B44800F01C
:102C900037FB4FF40061B34800F032FB4FF4806122
:102CA000B04800F02DFB4FF48051AE4800F028FBF7
:102CB0004FF48041AB4800F023FB4FF40041A7489C
:102CC00000F01EFB4FF40041A54800F019FB4FF443
:102CD0000061A44800F014FB4FF48071A14800F09B
:102CE0000FFB4FF480519D4800F00AFBFB68092B55
:102CF00000F2178101A252F823F000BF252D000831
:102D0000632D0008792D0008AD2D0008E12D000885
:102D10000B2E00083F2E00087D2E00089D2E000877
:102D2000E52E00084FF400518C4800F0F7FA4FF4FC
:102D300080618C4800F0F2FA4FF40061884800F09E
:102D4000EDFA4FF40041854800F0E8FA4FF4805165
:102D5000844800F0E3FA4FF48041824800F0DEFA44
:102D6000DFE04FF400617E4800F0D8FA4FF4806154
:102D70007C4800F0D3FAD4E04FF40041774800F0EB
:102D8000CDFA4FF40061764800F0C8FA4FF40061C4
:102D9000724800F0C3FA4FF48041724800F0BEFA66
:102DA0004FF480516F4800F0B9FABAE04FF4004197
:102DB0006A4800F0B3FA4FF40061694800F0AEFAD7
:102DC0004FF48061674800F0A9FA4FF480516548DC
:102DD00000F0A4FA4FF40061604800F09FFAA0E010
:102DE0004FF400515D4800F099FA4FF400615C48DF
:102DF00000F094FA4FF480615A4800F08FFA4FF4D3
:102E00000061564800F08AFA8BE04FF400515348B5
:102E100000F084FA4FF40061504800F07FFA4FF45C
:102E20008061504800F07AFA4FF480514D4800F02C
:102E300075FA4FF40041494800F070FA71E04FF420
:102E40000051464800F06AFA4FF40061434800F030
:102E500065FA4FF48061434800F060FA4FF4805106
:102E6000404800F05BFA4FF480413E4800F056FACB
:102E70004FF40041394800F051FA52E04FF400613C
:102E8000374800F04BFA4FF48061364800F046FABC
:102E90004FF40041314800F041FA42E04FF4005154
:102EA0002E4800F03BFA4FF400612C4800F036FA4F
:102EB0004FF480612B4800F031FA4FF480512948DB
:102EC00000F02CFA4FF48041264800F027FA4FF426
:102ED0000041224800F022FA4FF40061204800F03F
:102EE0001DFA1EE04FF400511C4800F017FA4FF491
:102EF00000611A4800F012FA4FF48061194800F09E
:102F00000DFA4FF48051174800F008FA4FF40041D1
:102F1000124800F003FA4FF40061114800F0FEF986
:102F200000BFBB68092B00F21E8101A252F823F0FA
:102F3000692F0008A72F0008BD2F0008F12F0008F7
:102F4000253000084F30000883300008C1300008E9
:102F5000E13000082931000867666666001002400B
:102F600000040240000C02404FF40041804800F091
:102F7000D5F94FF400717F4800F0D0F94FF480414B
:102F80007B4800F0CBF94FF400617A4800F0C6F9B5
:102F90004FF48041784800F0C1F94FF480517448F3
:102FA00000F0BCF9DFE04FF48041734800F0B6F95F
:102FB0004FF400616F4800F0B1F9D4E04FF40071B4
:102FC0006C4800F0ABF94FF40051694800F0A6F9E5
:102FD0004FF40061674800F0A1F94FF48041644864
:102FE00000F09CF94FF48051614800F097F9BAE085
:102FF0004FF400715F4800F091F94FF400515C48C4
:1030000000F08CF94FF400615A4800F087F94FF452
:103010008041594800F082F94FF48051544800F043
:103020007DF9A0E04FF40041514800F077F94FF4EA
:103030000061504800F072F94FF400514C4800F024
:103040006DF94FF480414C4800F068F98BE04FF483
:103050000041474800F062F94FF40071454800F024
:103060005DF94FF40051424800F058F94FF48041A7
:10307000414800F053F94FF480513D4800F04EF9BB
:1030800071E04FF400413A4800F048F94FF4007104
:10309000384800F043F94FF48041354800F03EF9DC
:1030A0004FF40051324800F039F94FF48041324872
:1030B00000F034F94FF480512D4800F02FF952E020
:1030C0004FF400712B4800F029F94FF480412A4851
:1030D00000F024F94FF40061264800F01FF942E0A7
:1030E0004FF40041224800F019F94FF400512048F4
:1030F00000F014F94FF480411F4800F00FF94FF42D
:1031000080511B4800F00AF94FF48041184800F044
:1031100005F94FF40071174800F000F94FF4006111
:10312000144800F0FBF81EE04FF40041104800F096
:10313000F5F84FF400510E4800F0F0F84FF48041DC
:103140000D4800F0EBF84FF400710A4800F0E6F883
:103150004FF40061074800F0E1F84FF48051044853
:1031600000F0DCF800BF00BF1037BD4680BD00BFD7
:1031700000040240000C02400010024080B487B0FE
:1031800000AF7860396000237B6100233B6100233E
:10319000FB6000237B6176E001227B6902FA03F386
:1031A0003B613B681A683B691340FB60FA683B6906
:1031B0009A4265D17B681A687B695B00032101FA3A
:1031C00003F3DB431A407B681A607B681A683B682C
:1031D0001B7919467B695B0001FA03F31A437B688C
:1031E0001A603B681B79012B03D03B681B79022BCB
:1031F0002ED17B689A687B695B00032101FA03F397
:10320000DB431A407B689A607B689A683B685B790D
:1032100019467B695B0001FA03F31A437B689A60E5
:103220007B685A687B699BB2012101FA03F3DB4397
:103230001A407B685A607B685A683B689B791946DC
:103240007B699BB201FA03F39BB21A437B685A6015
:103250007B68DA687B699BB25B00032101FA03F3A8
:10326000DB431A407B68DA607B68DA683B68DB79AD
:1032700019467B695B0001FA03F31A437B68DA6045
:103280007B6901337B617B690F2B85D900BF1C37BC
:10329000BD4680BC704700BF80B483B000AF78608B
:1032A0007B684FF6FF721A607B6800221A717B6898
:1032B00000225A717B6800229A717B680022DA71C1
:1032C00000BF0C37BD4680BC704700BF80B485B0DE
:1032D00000AF78600B467B800023FB737B681A6924
:1032E0007B881340002B02D00123FB7301E00023F5
:1032F000FB73FB7B18461437BD4680BC704700BF8C
:1033000080B483B000AF78600B467B807B687A889E
:103310001A8300BF0C37BD4680BC704780B483B0B1
:1033200000AF78600B467B807B687A885A8300BF49
:103330000C37BD4680BC704780B485B000AF786064
:103340000B467B8013467B700023FB600023BB6031
:103350007A787B8803F007039B0002FA03F3FB6093
:103360007B88DB089BB218467B88DB089BB21A4639
:103370007B68083253F822207B8803F007039B0008
:103380000F2101FA03F3DB4302EA03017B6800F13A
:10339000080243F822107B88DB089BB21A467B6840
:1033A000083253F82220FB681343BB607B88DB089C
:1033B0009BB21A467B680832B96843F8221000BFF6
:1033C0001437BD4680BC704780B400AF064B1B6904
:1033D000002B05DA044B054A5A60034B044A5A6035
:1033E00000BFBD4680BC7047003C024023016745DA
:1033F000AB89EFCD80B584B000AF78600B46FB7031
:103400000023FB600823FB72FB78002B02D1002312
:10341000FB6010E0FB78012B03D14FF48073FB605D
:1034200009E0FB78022B03D14FF40073FB6002E04C
:103430004FF44073FB6000F0A7F80346FB72FB7A81
:10344000082B2FD11A4A1A4B1B6923F440731361BE
:103450001749174B1A69FB6813430B61144A144B45
:103460001B6923F0F80313611149114B1A697B683A
:10347000134343F002030B610D4A0D4B1B6943F4E8
:103480008033136100F080F80346FB72084A084B52
:103490001B6923F002031361054A054B1B6923F0E6
:1034A000F8031361FB7A18461037BD4680BD00BF94
:1034B000003C024080B584B000AF78600B467B8052
:1034C0000823FB7300F060F80346FB73FB7B082BBB
:1034D0001ED1124A114B1B6923F4407313610F4A2A
:1034E0000E4B1B6943F4807313610C4A0B4B1B6931
:1034F00043F0010313617B687A881A8000F044F876
:103500000346FB73054A054B1B6923F00103136156
:10351000FB7B18461037BD4680BD00BF003C024013
:1035200080B483B000AF0823FB71164BDB6803F453
:103530008033002B02D00123FB711CE0114BDB68B0
:1035400003F01003002B02D00523FB7113E00D4B99
:10355000DB6803F0EF03002B02D00623FB710AE0C7
:10356000084BDB6803F00203002B02D00723FB713A
:1035700001E00823FB71FB7918460C37BD4680BC7F
:10358000704700BF003C024080B582B000AF082306
:10359000FB71FFF7C5FF0346FB7103E0FFF7C0FFB8
:1035A0000346FB71FB79DBB2012BF7D0FB79DBB271
:1035B00018460837BD4680BDABBE01E0002070470D
:1035C000002A00D0106001207047069801884BF651
:1035D000AB62914202D1043006907047FEE70000D2
:1035E00080B500AF124A124B1B6843F00103136011
:1035F0000F4B00229A600E4A0D4B1B6823F0847318
:1036000023F4803313600A4B0A4A5A60084A084B75
:103610001B6823F480231360054B0022DA6000F05E
:103620000DF8054B4FF000629A6000BF80BD00BFEF
:10363000003802401030002400ED00E080B483B078
:1036400000AF00237B6000233B60354A344B1B688E
:1036500043F480331360324B1B6803F400333B6048
:103660007B6801337B603B68002B03D17B68B3F53B
:10367000A06FF0D12A4B1B6803F40033002B02D05B
:1036800001233B6001E000233B603B68012B42D1FA
:10369000234A234B1B6C43F080531364214A214B74
:1036A0001B6843F4804313601D4A1D4B9B68936065
:1036B0001B4A1B4B9B6843F400439360184A184B0A
:1036C0009B6843F4A0539360154B174A5A60144A01
:1036D000134B1B6843F08073136000BF104B1B68D3
:1036E00003F00073002BF9D0104B40F205621A6012
:1036F0000B4A0B4B9B6823F003039360084A084B6B
:103700009B6843F00203936000BF054B9B6803F086
:103710000C03082BF9D100BF0C37BD4680BC7047A5
:10372000003802400070004008544007003C02404E
:1037300080B483B000AF78607B681B6823F001021F
:103740007B681A607B6800221A607B6800225A60DE
:103750007B6800229A607B680022DA607B68002226
:103760001A617B6821225A617B68454A934203D1E2
:10377000444B3D229A607EE07B68434A934204D1E9
:10378000404B4FF474629A6075E07B683F4A934205
:1037900004D13C4B4FF474129A606CE07B683C4A55
:1037A000934204D1374B4FF074629A6063E07B68B8
:1037B000384A934203D1334B374ADA605BE07B6887
:1037C000364A934203D12F4B354ADA6053E07B6887
:1037D000344A934203D12B4B334ADA604BE07B6887
:1037E000324A934204D1274B4FF03D52DA6042E017
:1037F0007B682F4A934203D12E4B3D229A603AE0D8
:103800007B682D4A934204D12A4B4FF474629A602C
:1038100031E07B68294A934204D1264B4FF474125D
:103820009A6028E07B68264A934204D1214B4FF0EE
:1038300074629A601FE07B68224A934203D11D4B59
:10384000154ADA6017E07B681F4A934203D1194B8F
:10385000134ADA600FE07B681C4A934203D1154B90
:10386000114ADA6007E07B68194A934203D1114B91
:103870004FF03D52DA6000BF0C37BD4680BC704748
:103880001060024000600240286002404060024038
:1038900058600240706002403D0000208860024095
:1038A000400F0020A060024000003D20B8600240B0
:1038B00010640240006402402864024040640240F8
:1038C000586402407064024088640240A064024070
:1038D000B864024080B485B000AF786039600023DE
:1038E000FB607B681B68FB60FA68244B1340FB603D
:1038F0003B681A683B68DB681A433B685B691A439C
:103900003B689B691A433B68DB691A433B681B6A47
:103910001A433B685B6A1A433B689B6A1A433B68DD
:103920005B6B1A433B689B6B1343FA681343FB6062
:103930007B68FA681A607B685B69FB60FB6823F050
:103940000703FB603B68DA6A3B681B6B1343FA684A
:103950001343FB607B68FA685A613B681A697B68AD
:103960005A603B685A687B689A603B689A687B68D3
:10397000DA6000BF1437BD4680BC70473F801CF042
:1039800080B483B000AF78600B46FB70FB78002BEF
:1039900006D07B681B6843F001027B681A6005E073
:1039A0007B681B6823F001027B681A6000BF0C373C
:1039B000BD4680BC704700BF80B485B000AFF860E2
:1039C000B9607A607B68002B06D0FB681B6843F403
:1039D0000022FB681A6005E0FB681B6823F40022E4
:1039E000FB681A60FB68BA681A6100BF1437BD46ED
:1039F00080BC704780B483B000AF78600B46FB702A
:103A0000FB78002B06D07B681B6843F480227B6820
:103A10001A6005E07B681B6823F480227B681A60CB
:103A200000BF0C37BD4680BC704700BF80B485B076
:103A300000AFF860B9601346FB71BB6803F0800308
:103A4000002B0FD0FB79002B06D0FB685B6943F09D
:103A50008002FB685A6105E0FB685B6923F0800225
:103A6000FB685A61BB68802B14D0FB79002B08D00F
:103A7000FB681A68BB6803F01E031A43FB681A60F0
:103A800008E0FB681A68BB6803F01E03DB431A40BA
:103A9000FB681A6000BF1437BD4680BC704700BF8A
:103AA00080B487B000AF786039600023FB750023D5
:103AB000FB600023BB607B68214A934202D8214B04
:103AC0003B6101E0204B3B613B6823F0F02323F096
:103AD000C313002B0AD03B68DB0A03F01E03FB6014
:103AE0007B681A68FB681340BB6004E07B685B6915
:103AF00003F08003BB603B6803F00053002B03D04E
:103B00003B695B68FB6002E03B691B68FB60FB682C
:103B100023F0F02323F08213FB60FA683B68134024
:103B2000002B05D0BB68002B02D00123FB7501E000
:103B30000023FB75FB7D18461C37BD4680BC7047D3
:103B40000F640240006002400064024080B485B00F
:103B500000AF786039607B68104A934202D8104BFE
:103B6000FB6001E00F4BFB603B6803F00053002B50
:103B700007D03B6823F0F02323F08213FA68D36068
:103B800006E03B6823F0F02323F08213FA68936089
:103B900000BF1437BD4680BC704700BF0F640240B1
:103BA000006002400064024080B582B000AF7860DF
:103BB0007B68174A93420AD101214FF48050FDF7E8
:103BC000D5FE00214FF48050FDF7D0FE1CE07B684D
:103BD000104A93420AD101214FF48040FDF7A8FE1C
:103BE00000214FF48040FDF7A3FE0DE07B680A4AF8
:103BF000934209D101214FF40040FDF799FE0021C5
:103C00004FF40040FDF794FE00BF0837BD4680BD6D
:103C10000030014000380040003C004080B48BB0D0
:103C200000AF7860396000237B830223FB8400238C
:103C3000BB8401237B840023FB6100237B61002381
:103C40003B610023FB600023BB607B689B8B9BB2C6
:103C500023F47B6323F00F039AB27B689A837B681B
:103C600002221A847B689B8B7B833B689B68022BB8
:103C700004D10023BB840223FB8472E03B689B8851
:103C8000002B02D101237B8401E002237B844D4B76
:103C90009B6803F40003002B05D04A4A494B9B68FC
:103CA00023F400039360474BD3F8842047F6C07396
:103CB00013409B09C3F30803FB60424BD3F88430E5
:103CC00003F0E0431B0F03F00703BB603D4B5B6851
:103CD00003F03F033B613C4A3B69B2FBF3F3FA68F4
:103CE00002FB03F2BB68B2FBF3F37B613B68DB884A
:103CF000B3F5007F0FD17B691A0A13469B0013446A
:103D00005B001A463B689B68B2FBF3F39BB205333A
:103D10009BB2FB6112E07B8C5B011A467B69B3FBB3
:103D2000F2F213469B0013445B001A463B689B6803
:103D3000B2FBF3F39BB205339BB2FB61FB69234AF1
:103D4000A2FB0323DB08FB61FB699BB203F00103C9
:103D5000BB84BB8CFA69D31A5B08FB84BB8C1B0247
:103D6000BB84FB8C012B02D9FB8CFF2B03D90223D4
:103D7000FB840023BB843B68DA88BB8C13439AB274
:103D8000FB8C13439AB27B681A843B681A883B68A1
:103D900059883B6898883B689B8903439BB20B43D7
:103DA0009BB213439AB27B8B13439BB243F40063E1
:103DB0007B837B687A8B9A8300BF2C37BD4680BC9F
:103DC000704700BF0038024000127A00CDCCCCCC46
:103DD00080B483B000AF78600B46FB70FB78002B9B
:103DE00008D07B689B8B9BB243F480639AB27B685C
:103DF0009A8307E07B689B8B9BB223F480639AB223
:103E00007B689A8300BF0C37BD4680BC704700BFFB
:103E100080B483B000AF78600B467B8013467B7024
:103E20007B78002B08D07B689B889AB27B881343F1
:103E30009AB27B689A8009E07B689B889AB27B88FB
:103E4000DB439BB213409AB27B689A8000BF0C3769
:103E5000BD4680BC704700BF80B485B000AF7860BD
:103E60000B46FB701346BB700023FB810023BB8114
:103E7000FB781B09DBB2FB81FB89012202FA03F309
:103E8000BB81BB78002B08D07B689B889AB2BB892A
:103E900013439AB27B689A8009E07B689B889AB248
:103EA000BB89DB439BB213409AB27B689A8000BF08
:103EB0001437BD4680BC704780B582B000AF7860D3
:103EC0007B68174A93420AD101214FF40010FDF795
:103ED0002FFD00214FF40010FDF72AFD1CE07B6848
:103EE000104A93420AD101214FF48000FDF720FDD2
:103EF00000214FF48000FDF71BFD0DE07B680A4AAE
:103F0000934209D101214FF40000FDF711FD00217A
:103F10004FF40000FDF70CFD00BF0837BD4680BD23
:103F20000054004000580040005C004080B58AB05A
:103F300000AF786039600023FB8400237B84042376
:103F4000BB84574BFB617B689B88FB84FB8C23F015
:103F50003F03FB8407F10C031846FDF7E5FB7B6983
:103F6000FB61FB694F4AA2FB03239B0C7B84FA8C09
:103F70007B8C1343FB847B68FA8C9A807B681B885C
:103F80009BB223F001039AB27B681A800023FB8462
:103F90003B681B68444A934215D83B681B685B002A
:103FA000FA69B2FBF3F3BB84BB8C032B01D8042367
:103FB000BB84FA8CBB8C1343FB847B8C01339AB299
:103FC0007B681A8440E03B68DB884BF6FF729342C3
:103FD00009D13B681A6813465B001344FA69B2FBC7
:103FE000F3F3BB840EE03B681A6813469B0013444E
:103FF0009A001344FA69B2FBF3F3BB84BB8C43F41D
:104000008043BB84BB8CC3F30B03002B03D1BB8C5D
:1040100043F00103BB84BA8CFB8C13439BB26FEA61
:1040200043436FEA5343FB847B8C4FF4967202FB4D
:1040300003F31E4A82FB03129211DB17D31A9BB2C1
:1040400001339AB27B681A847B68FA8C9A837B6806
:104050001B889BB243F001039AB27B681A807B688D
:104060001B88FB84FB8C23F4816323F00203FB8415
:104070003B689A883B685B8913439AB2FB8C134375
:10408000FB847B68FA8C1A803B689A893B681B89A1
:1040900013439AB27B681A8100BF2837BD4680BDA2
:1040A00000127A0083DE1B43A0860100D34D62100C
:1040B00080B483B000AF78600B46FB70FB78002BB8
:1040C00008D07B681B889BB243F001039AB27B68DF
:1040D0001A8007E07B681B889BB223F001039AB229
:1040E0007B681A8000BF0C37BD4680BC704700BF9C
:1040F00080B483B000AF78600B46FB70FB78002B78
:1041000008D07B681B889BB243F480739AB27B68AB
:104110001A8007E07B681B889BB223F480739AB2F5
:104120007B681A8000BF0C37BD4680BC704700BF5B
:1041300080B483B000AF78600B46FB70FB78002B37
:1041400008D07B681B889BB243F400739AB27B68EB
:104150001A8007E07B681B889BB223F400739AB235
:104160007B681A8000BF0C37BD4680BC704700BF1B
:1041700080B483B000AF78600B46FB701346BB7011
:10418000BB78002B04D0FB7843F00103FB7003E005
:10419000FB7823F00103FB70FB789AB27B681A82EC
:1041A00000BF0C37BD4680BC704700BF80B483B0F1
:1041B00000AF78600B46FB70FB78002B08D07B6863
:1041C0001B889BB243F480639AB27B681A8007E035
:1041D0007B681B889BB223F480639AB27B681A8049
:1041E00000BF0C37BD4680BC704700BF80B483B0B1
:1041F00000AF78600B46FB70FB789AB27B681A823E
:1042000000BF0C37BD4680BC704700BF80B483B090
:1042100000AF78607B681B8A9BB2DBB218460C3714
:10422000BD4680BC704700BF80B487B000AF7860E7
:10423000396000233B610023FB600023BB60002347
:10424000FB757B689B8A9BB2FB607B681B8B9BB278
:10425000BB60BB681B04BB60FA68BB68134323F0F8
:104260007F433B613A693B681A403B689A4202D1FE
:104270000123FB7501E00023FB75FB7D18461C370D
:10428000BD4680BC704700BF80B487B000AF786087
:1042900039600023FB7500233B610023FB607B68D2
:1042A000FB603B681B0F3B613B6823F07F433B6037
:1042B0003B69002B03D0FB681433FB6005E03B68CF
:1042C0001B0C3B60FB681833FB60FB681A683B689B
:1042D0001340002B02D00123FB7501E00023FB7586
:1042E000FB7D18461C37BD4680BC704780B485B046
:1042F00000AF78600023FB730023BB730F237B7335
:104300007B68DB78002B38D0264BDB68DB4303F47B
:10431000E0631B0AFB73FB7BC3F10403BB737A7B73
:10432000FB7B42FA03F37B737B685B781A46BB7BAB
:1043300002FA03F3FB737B689A787B7B1340DAB253
:10434000FB7B1343FB73FB7B1B01FB73164A7B68F0
:104350001B781344FA7B83F80023134A7B681B788D
:104360005B09DBB218467B681B7803F01F03012151
:1043700001FA03F342F820300FE00B497B681B7809
:104380005B09DBB218467B681B7803F01F03012230
:104390009A4000F1200341F8232000BF1437BD46A6
:1043A00080BC704700ED00E000E100E080B59CB00B
:1043B00000AF01214FF48070FDF79CFA01215B48AA
:1043C000FDF75CFA07F168031846FEF765FF0E2358
:1043D000BB66032387F86C30022387F86D30002317
:1043E00087F86F3007F1680319465148FEF7C6FE9B
:1043F0000323BB6607F1680319464E48FEF7BEFE6D
:104400000623BB6607F1680319464B48FEF7B6FE64
:104410004A48FFF78DF900237B60494BBB60494B4D
:10442000FB6000233B6107237B610023BB614FF4EA
:104430008063FB614FF400633B624FF400537B6287
:104440004FF48073BB620023FB6200233B630123B4
:104450007B630023BB630023FB633B1D1946374886
:10446000FFF738FA01213548FFF78AFA00233B6449
:1044700000237B640023BB640023FB6407F140033B
:104480001846FDF7BFFD00233B65012387F8543034
:10449000012387F855300023FB654FF400633B662A
:1044A000072387F8643007F1500319462648FDF7C3
:1044B00055FD0723012201212348FDF7E7FD0723CE
:1044C000022202212048FDF7E1FD072303220321F8
:1044D0001D48FDF7DBFD0723042208211A48FDF7DC
:1044E000D5FD0723052209211748FDF7CFFD072336
:1044F00006220B211448FDF7C9FD072307220C21D2
:104500001148FDF7C3FD01210F48FDF7B5FE01215C
:104510000D48FDF795FE01210B48FDF79BFD0A486C
:10452000FDF77EFE00BF7037BD4680BD070040002E
:1045300000000240000402400008024010640240F3
:104540004C2001405C1A002000200140B0B582B030
:1045500000AF00237B6034E01D4A7B6832F81330E3
:104560009BB21B099BB219461A4A7B6832F813307A
:104570009BB2CB1A184601F0EBFE02460B461446DE
:1045800023F000452046294602F020FA034699B25E
:10459000114A7B6822F813100F4A7B6832F81330F7
:1045A0009BB2022B0AD90A4A7B6832F813309BB2BD
:1045B0001B0999B2074A7B6822F813107B68013304
:1045C0007B607B68062BC7DD00BF0837BD46B0BDEA
:1045D0005C1A0020A0210020901A002080B487B02F
:1045E00000AFF8603B1D83E8060000237B6134E0E8
:1045F000224A7B6932F813309BB20A2B2AD97B6995
:10460000062B26D801A252F823F000BF2946000845
:104610002F460008354600083B4600084146000882
:10462000474600084D46000800233B7212E0002375
:10463000BB720FE000233B710CE000237B7209E0AA
:104640000023FB7106E00023BB7103E000237B71B4
:1046500000E000BF7B6901337B617B69062BC7DD0E
:10466000FB681A463B1D1868106099889B799180F9
:104670009371F8681C37BD4680BC70476C1A0020E7
:10468000B0B584B000AF0023FB6000237B80002323
:10469000BB6061E07E237B601AE03349BB68DA01CE
:1046A0007B68134431F813309BB23B807B68013345
:1046B00038882D49BA68D2011344024621F81320E4
:1046C000B7F90030FA681344FB607B68013B7B60FC
:1046D0007B68002BE1DA254ABB6832F813309BB2C5
:1046E0007B807988204ABB681B0213440A461A80E3
:1046F000B7F90230FA681344FB60FB68DB111BB2A8
:1047000019461B4ABB6832F813309BB2CB1A1846C5
:1047100001F01EFE02460B46144623F000452046DB
:10472000294602F053F9034699B2124ABB6822F8AF
:104730001310104ABB6832F813309BB20A2B06D90B
:10474000FB68DB1199B20A4ABB6822F813100023F8
:10475000FB60BB680133BB60BB68062B9ADD00BF02
:104760001037BD46B0BD00BFA01A0020A021002018
:104770007C1A00206C1A002080B485B000AF7860ED
:1047800039600023FB817B681B88FB817B68284A9A
:10479000934213D07B68274A93420FD07B68B3F1D2
:1047A000804F0BD07B68244A934207D07B68234A12
:1047B000934203D07B68224A934208D1FB8923F0BD
:1047C0007003FB813B685A88FB891343FB817B683C
:1047D0001C4A93420CD07B681B4A934208D0FB8949
:1047E00023F44073FB813B681A89FB891343FB81E7
:1047F0007B68FA891A803B685A687B68DA623B6892
:104800001A887B681A857B68094A934203D07B68C3
:10481000084A934204D13B689B7A9AB27B681A8615
:104820007B6801229A8200BF1437BD4680BC704766
:104830000000014000040140000400400008004066
:10484000000C0040001000400014004080B483B011
:1048500000AF78600B46FB70FB78002B08D07B68BC
:104860001B889BB243F001039AB27B681A8007E071
:104870007B681B889BB223F001039AB27B681A8085
:1048800000BF0C37BD4680BC704700BF80B483B00A
:1048900000AF78600B467B8013467B707B78002BE3
:1048A00008D07B689B899AB27B8813439AB27B6855
:1048B0009A8109E07B689B899AB27B88DB439BB233
:1048C00013409AB27B689A8100BF0C37BD4680BC0A
:1048D000704700BF80B483B000AF78600B467B8028
:1048E0007B88DB439AB27B681A8200BF0C37BD46D7
:1048F00080BC704780B584B000AF06237B8106235F
:104900003B810023FB810023FB800023BB804FF60B
:10491000FF73BB819D4B1B887B819D4B1B883B811B
:104920007B894EF6EE6293423CD04FF6FF72934283
:1049300003D0002B00F0AB8012E13B89002B0BD1A0
:1049400002211020FEF756FD03467B807B88082B52
:1049500000F00F817B8814E13B894EF6EE629342B2
:1049600016D102211020FEF745FD03467B807B888F
:10497000082B01D07B8804E100218548FEF79AFDD1
:1049800003467B807B88082B00F0F3807B88F8E06F
:1049900000F074F903467B807B88082B00F0E980E7
:1049A0007B88EEE03B89002B4DD10023FB8130E07A
:1049B000784B1B889AB2FB89774931F813309A42B9
:1049C00001D1FB89BB81FA89B7F90C309A421DD01D
:1049D000FB89714A32F813307049184600F0E2F84A
:1049E0000346BB80BB88012B10D0FB896A4A32F892
:1049F00013206A4B1B881946104600F0ABF903469A
:104A0000FB80FB88082B01D0FB88BAE0FB890133CF
:104A1000FB81FB89022BCBD900215C48FEF74AFDC4
:104A200003467B807B88082B01D07B88A9E002218C
:104A30001820FEF7DFFC03467B807B88082B00F004
:104A40009A807B889DE03B894FF6FF72934215D197
:104A500002211820FEF7CEFC03467B807B88082BC2
:104A600001D07B888DE000214848FEF723FD0346F6
:104A70007B807B88082B7ED07B8882E000F0FEF86C
:104A800003467B807B88082B75D07B8879E03B8947
:104A9000002B08D100F0F2F803467B807B88082BBE
:104AA0006BD07B886DE03B894FF6FF7293420AD151
:104AB00002211820FEF79EFC03467B807B88082B92
:104AC0005BD07B885DE00023FB8130E0344B1B88AA
:104AD0009AB2FB89304931F813309A4201D1FB89EF
:104AE000BB81FA89B7F90C309A421DD0FB892A4A5A
:104AF00032F813302949184600F054F80346BB80B9
:104B0000BB88012B10D0FB89234A32F81320234B9A
:104B10001B881946104600F01DF90346FB80FB88F0
:104B2000082B01D0FB882CE0FB890133FB81FB893A
:104B3000022BCBD900211648FEF7BCFC03467B8034
:104B40007B88082B01D07B881BE002211020FEF718
:104B500051FC03467B807B88082B0ED07B8810E0BD
:104B600000F08CF803467B807B88082B07D07B887D
:104B700007E000BF04E000BF02E000BF00E000BFAC
:104B8000082318461037BD4680BD00BF00000E0840
:104B900000400E0806000E082C0900208C0400209E
:104BA00006400E0880B586B000AF03463960FB8032
:104BB0000023FB8145F25553BB810123FB821C4B33
:104BC0003B611B4BBB60002000F080F80346FB817B
:104BD000FB89AB2B01D1AB2325E0FB8903F5005307
:104BE00038339B03BB60FB8901339A03114B134499
:104BF0003B6112E03B691B88BB81BA89FB889A4202
:104C000008D13B69023B1B889AB23B681A8000239B
:104C1000FB8207E03B69043B3B61BB689A1C3B6934
:104C20009A42E7D3FB8A18461837BD4680BD00BFBD
:104C300000000E08FEFF0D0880B584B000AF0346EB
:104C40000A46FB801346BB800023FB81BA88FB88A1
:104C50001146184600F07EF80346FB81FB89802B45
:104C600007D1BA88FB881146184600F0CBF80346F6
:104C7000FB81FB8918461037BD4680BD80B582B0E8
:104C800000AF0823FB7102211020FEF7B3FB03469F
:104C9000FB71FB79082B01D0FB7911E000210A4858
:104CA000FEF708FC0346FB71FB79082B01D0FB796A
:104CB00006E002211820FEF79DFB0346FB71FB79FD
:104CC00018460837BD4680BD00000E0880B485B088
:104CD00000AF0346FB710623FB810623BB811B4B00
:104CE0001B88FB811A4B1B88BB81FB79002B1BD0D7
:104CF000012B25D1BB89002B08D1FB894EF6EE6232
:104D0000934201D100231CE001231AE0FB89002B10
:104D100008D1BB894EF6EE62934201D1012310E027
:104D200000230EE0AB230CE0FB89002B01D1002314
:104D300007E0BB89002B01D1012302E0AB2300E097
:104D4000002318461437BD4680BC704700000E088B
:104D500000400E0880B586B000AF03460A46FB80CF
:104D60001346BB800823FB7400233B82224B7B61EC
:104D7000224BFB600120FFF7A9FF03463B823B8AE1
:104D8000AB2B01D1AB2332E03B8A03F50053383320
:104D90009B037B613B8A01339A03194B1344FB60ED
:104DA00020E07B691B68B3F1FF3F18D1BB8819462F
:104DB0007869FEF77FFB0346FB74FB7C082B02D06F
:104DC000FB7C9BB213E07B690233FA8811461846DC
:104DD000FEF770FB0346FB74FB7C9BB207E07B692C
:104DE00004337B617A69FB689A42DAD380231846E0
:104DF0001837BD4680BD00BF00000E0800400E08F9
:104E0000FEFF0D0880B586B000AF03460A46FB8062
:104E10001346BB800823FB73444B7B6100237B82DA
:104E20000023BB8100233B8200237B8100233B8145
:104E30000020FFF74BFF0346BB81BB89012B04D148
:104E40003A4B7B6118237B8209E0BB89002B04D19C
:104E5000374B7B6110237B8201E0AB2362E04EF68F
:104E6000EE617869FEF726FB0346FB73FB7B082B9C
:104E700002D0FB7B9BB255E0BA88FB8811461846EE
:104E8000FFF768FF03467B817B89082B01D07B8974
:104E900048E000233B8227E03B8A264A32F8133061
:104EA000FA889A421DD03B8A224A32F813302249AE
:104EB0001846FFF777FE03463B813B89012B10D054
:104EC0003B8A1C4A32F813201B4B1B88194610469C
:104ED000FFF740FF03467B817B89082B01D07B894C
:104EE00020E03B8A01333B823B8A022BD4D97B8A68
:104EF00002211846FEF77EFA0346FB73FB7B082B64
:104F000002D0FB7B9BB20DE000217869FEF7D2FA5C
:104F10000346FB73FB7B082B02D0FB7B9BB201E0BB
:104F2000FB7B9BB218461837BD4680BD00000E08BB
:104F300000400E082C0900208C0400202DE9F04FC1
:104F4000DFF8E4928DB006460F4614461D4600F089
:104F50006FF999F90080B8F1FF3FCDE9000146D023
:104F600022462B462046294601F0F2FC83460028C3
:104F70003DD132463B463046394601F0E9FC00223D
:104F800082460023002840F084803046394601F0F4
:104F9000ADFC002830D0002200232046294601F035
:104FA000A5FC8346A8B10122984B02920021002261
:104FB000CDF828A0CDE90467CDE90645CDE9081272
:104FC0000393B8F1000F53D0914900200DB0BDE814
:104FD000F08F2046294600F049FF40B1002200230F
:104FE0002046294601F08CFC002840F0B780DDE91E
:104FF00000010DB0BDE8F08FDDE9000100F036FFE3
:10500000804600285DD04FF0000A4FF0000B52465A
:105010005B46DDE9000101F069FC0028E7D030467D
:10502000394600F023FF0028E1D02046294600F051
:105030001DFF0028DBD099F90030744A0392042147
:105040000022022BCDE90467CDE90645CDE908AB86
:1050500002910A9203D002A800F00EFF70B901F08D
:10506000D5FC2223036009E000230024CDE90834A5
:1050700002A800F001FF002800F086800A9B1BB107
:1050800001F0C4FC0A9B0360DDE908010DB0BDE836
:10509000F08F2046294601F029FC0028A7D05C4962
:1050A0005A4BCDF828B001220020B8F1020FCDE90B
:1050B0000467CDE9064502920393CDE90801D7D1F3
:1050C00097E73046394600F0D1FE00289BD02046B5
:1050D000294600F0CBFE002895D0DDE900231046DC
:1050E000194601F035FC002873D1032399F900809B
:1050F0000293464B0A900393CDE90467CDE9064538
:105100000022002330463946B8F1000F41D1414F0B
:105110004FF06046CDE9086701F0F2FB00289AD015
:1051200000223D4B2046294601F078F904460D4601
:1051300000F0AAFE02460B462046294601F0D6FBA7
:10514000002843D1354B99F900804FF06042CDE9FA
:105150000823B8F1020F7FF47EAF80E799F90030A1
:105160002A4ACDF828B00121CDE90467CDE90645EA
:1051700002910392002B3FF477AF29490020022BC4
:10518000CDE908017FF474AF01F040FC21230360F6
:1051900074E7244F0026CDE9086701F0B1FB002831
:1051A000D7D000221C4B2046294601F037F904468F
:1051B0000D4600F069FE02460B462046294601F0E6
:1051C00095FB18B9164B0022CDE9082399F9008008
:1051D000BFE799F900900D4BCDF828800122CDE969
:1051E0000467CDE9064502920393B9F1000F3FF43D
:1051F0003BAF002200231046194601F039FAB9F1FD
:10520000020FCDE90801BFD032E700BF187A0208CB
:105210000000F03FFFFFEF470000E03FFFFFEFC758
:105220000000F0FF0000F07F3C04002000000000C0
:105230002DE9F04F23F0004858EA020993B03CD022
:10524000714C21F00046A64283460D460CDD06F166
:10525000404606F5801656EA0B0038D16B49834666
:10526000584613B0BDE8F08F9A4696462BD0A0451D
:10527000EDDC654CA04578D0002D0F468146CDE988
:10528000002376DB0024BEF1000F27D15E4B98454A
:1052900000F08B805D4B984552D0BAF1804F00F002
:1052A000C2835B4B9A4519D1002D17DB484639461E
:1052B00013B0BDE8F04F00F015BDCB46534958463A
:1052C00013B0BDE8F08F0028C1D1B045D1DD514801
:1052D00013B0BDE8F04F00F0D1BD00244846394678
:1052E00000F0C0FDBBF1000F1CD0ED0F013D54EAF2
:1052F000050370D0484B984540F3948003F1047344
:10530000984540F30584454B9E4270DDBAF1000F8D
:1053100070DD3BA3D3E900231046194601F07EF867
:1053200083469DE726B1394B25F040429A42DCD1B5
:10533000BAF1000FC0F2B083002D08DB83468FE77F
:10534000BAF1000FC0F25684CB46394688E706F121
:10535000404606F5801656EA040300F07B84012CD3
:10536000ECD1834601F100417AE7BEF1000F83D012
:105370006DE72B4B98452CDCA3F15473984581DDE8
:105380004FEA2853A3F2FF33142B40F34B84C3F1AD
:1053900034032EFA03F202FA03F39E457FF472AF50
:1053A00002F00102C2F102046DE706F1404303F589
:1053B000801353EA0B0300F03383184B9E4240F3F3
:1053C0006083BAF1000F15DBDDE900349B4621460E
:1053D00046E7022457E74A4648463B46394600F02E
:1053E00069FE02460B4601F043F9834638E7BAF1FD
:1053F000000F8EDB4FF0000B594631E7AFF3008012
:105400009C7500883CE4377E0000F07F0000F03F90
:105410000000E03F1C7A02080000E041FFFFEF3F80
:10542000FFFF3F43B6F5801F4FF0000205DAD44B73
:1054300000F0F4FF6FF034020E463315D14FC6F37F
:105440001306A3F2FF33134446F07F5ABE421A46B6
:105450000D934AF4401A40F3C183CB4B9E4240F374
:10546000FD83134601330D93C84B0022CDE906237B
:1054700000270026CDE90867CDE90E67AAF5801A56
:105480000027024653465146CDE90A23DDE90623AB
:1054900000F010FEDDE9062380468946DDE90A01B9
:1054A00000F00AFE02460B460020B84901F0E0F881
:1054B0000A460146CDE910121346494602464046C7
:1054C00000F0ACFF4FEA6A0343F000538C4683467A
:1054D00003F50023CDE904BCDA468B46D919002335
:1054E000CDE902AB0293DDE902AB002006460F4690
:1054F00002460B465046594600F090FF02460B46C6
:105500004046494600F0D6FDDDE90623804689463F
:105510003046394600F0CEFD02460B46DDE90A0171
:1055200000F0C8FD52465B4600F078FF02460B468D
:105530004046494600F0BEFDDDE9102300F06EFF55
:10554000DDE90467CDE9060132463B46304639467F
:1055500000F064FF78A3D3E9002306460F4600F06D
:105560005DFF77A3D3E9002300F0A6FD32463B465A
:1055700000F054FF74A3D3E9002300F09DFD3246F0
:105580003B4600F04BFF72A3D3E9002300F094FDEB
:1055900032463B4600F042FF6FA3D3E9002300F000
:1055A0008BFD32463B4600F039FF6DA3D3E9002363
:1055B00000F082FD3246804689463B4630463946F9
:1055C00000F02CFF02460B464046494600F026FFFD
:1055D000524606460F465B46DDE9040100F06CFDCD
:1055E000DDE9062300F01AFF32463B4600F064FD79
:1055F0005246804689465B465046594600F00EFFAB
:105600000022634BCDE90A0100F056FD42464B46AD
:1056100000F052FD02980F46064632463B46504681
:10562000594600F0FBFE002282468B46584B30461E
:10563000394600F03FFDDDE90A2300F03BFD02465C
:105640000B464046494600F035FDDDE9042300F0F5
:10565000E5FE3246804689463B46DDE9060100F01C
:10566000DDFE02460B464046494600F025FD8046D9
:10567000894602460B4650465946CDE904AB00F038
:105680001BFDDDE902AB38A3D3E9002350460F46EA
:1056900000F0C4FEDDE90423CDE90201394650469D
:1056A00000F008FD02460B464046494600F002FD68
:1056B0002FA3D3E9002300F0B1FE2FA3D3E90023E9
:1056C000804689465046394600F0A8FE02460B4601
:1056D0004046494600F0F0FCDDE90E2300F0ECFC0A
:1056E00080460D98894600F033FE424606460F4636
:1056F0004B46DDE9020100F0DFFCDDE9082300F0A4
:10570000DBFC32463B4600F0D7FC32463B46504677
:105710008B4600F0CFFCDDE9082300F0CBFCDDE98F
:10572000022300F0C7FC02460B464046494600F003
:10573000C1FC80462EE000BFEF4E454A287ECA3F9E
:1057400065DBC9934A86CD3F01411DA96074D13FF5
:105750004D268F515555D53FFFAB6FDBB66DDB3F07
:10576000033333333333E33F000000E009C7EE3F38
:10577000FD033ADC09C7EE3FF5015B14E02F3EBEA6
:10578000000040438E98030079B60B000000F03F04
:10579000000008408946013C54EA0503DDE90001A8
:1057A00014BFD54CD54C0023CDE9043403460C4638
:1057B000CDE9023400230293DDE9024522462B465F
:1057C00000F078FC52465B4600F028FEDDE900233D
:1057D00006460F464046494600F020FE02460B466C
:1057E0003046394600F068FC224606460F462B46F6
:1057F00050465946CDE9006700F010FE0B460246C0
:10580000804689463046394600F056FCBC4B9942EA
:1058100006460D460C4640F30E8101F13F4303F569
:10582000E003034340F0EF819FA3D3E90023DDE9C8
:10583000000100F041FC424682468B464B46304612
:10584000294600F037FC02460B465046594601F007
:1058500075F8002840F0D7812F463B154FF4801291
:10586000A3F2FE3342FA03F32344C3F30A52A54ED4
:10587000A2F2FF321641C3F3130B0020C2F114054C
:1058800023EA06014BF4801B02460B46002C4BFA20
:1058900005FB40464946B8BFCBF1000B00F00AFCBF
:1058A00002460B4680468946DDE9000100F004FC13
:1058B0004FEA0B5A00247EA3D3E9002320460D466D
:1058C00000F0ACFD424606460F464B4620462946B0
:1058D00000F0F0FB02460B46DDE9000100F0EAFBB8
:1058E00075A3D3E9002300F099FD75A3D3E9002344
:1058F000804689462046294600F090FD02460B4628
:105900004046494600F0D8FB8046894602460B4691
:105910003046394600F0D0FB32463B4604460D4641
:1059200000F0C8FB02460B464046494600F0C2FB69
:105930002246804689462B462046294600F06EFDC9
:1059400061A3D3E9002306460F4600F067FD60A37C
:10595000D3E9002300F0AEFB32463B4600F05EFD8B
:105960005DA3D3E9002300F0A7FB32463B4600F0DD
:1059700055FD5BA3D3E9002300F09CFB32463B4678
:1059800000F04CFD58A3D3E9002300F095FB32460C
:105990003B4600F043FD02460B462046294600F0F8
:1059A00089FB06460F4602460B462046294600F074
:1059B00035FD0022CDE900014FF0804330463946E5
:1059C00000F078FB02460B46DDE9000100F050FED6
:1059D000424606460F464B462046294600F01EFD2D
:1059E00042464B4600F068FB02460B4630463946BD
:1059F00000F060FB22462B4600F05CFB02460B46A3
:105A000000203D4900F056FB8A44BAF5801FC0F2E1
:105A100036815146DDE9042300F000FD83461FE492
:105A2000F34635491CE44A4648463B46394600F0B1
:105A3000F5FC834614E4344B21F000479F4240F3C9
:105A40000081324B0B4403430CD142464B4600F0DD
:105A500031FB02460B46DDE9000100F05BFF002848
:105A60003FF4FBAE22A3D3E90023DDE9040100F0FB
:105A7000D5FC1FA3D3E9002300F0D0FC8346FFF739
:105A8000EFBBBAF1000FBFF6B5ACDDE900349B46C1
:105A900004F10041FFF7E4BB02460B460020164923
:105AA00000F0E6FD48E400BFFE822B654715973CF9
:105AB00000000000432EE63FEF39FAFE422EE63F9B
:105AC000396CA80C615C20BED0A4BE726937663EFA
:105AD000F16BD2C541BDBB3E2CDE25AF6A56113FEE
